{
  "contractName": "ERC1820Implementer",
  "abi": [
    {
      "inputs": [
        {
          "internalType": "bytes32",
          "name": "interfaceHash",
          "type": "bytes32"
        },
        {
          "internalType": "address",
          "name": "account",
          "type": "address"
        }
      ],
      "name": "canImplementInterfaceForAddress",
      "outputs": [
        {
          "internalType": "bytes32",
          "name": "",
          "type": "bytes32"
        }
      ],
      "stateMutability": "view",
      "type": "function"
    }
  ],
  "bytecode": "0x608060405234801561001057600080fd5b50610111806100206000396000f3fe6080604052348015600f57600080fd5b506004361060285760003560e01c8063249cb3fa14602d575b600080fd5b605660048036036040811015604157600080fd5b50803590602001356001600160a01b03166068565b60408051918252519081900360200190f35b6000828152602081815260408083206001600160a01b038516845290915281205460ff16609557600060d4565b604051602001808073455243313832305f4143434550545f4d4147494360601b8152506014019050604051602081830303815290604052805190602001205b939250505056fea2646970667358221220d3dcef6b554965b09d1d781a0ed0521c7ea4189ad508f2e94ca85c9d6ed3a85f64736f6c63430006060033",
  "immutableReferences": {},
  "source": "// SPDX-License-Identifier: MIT\r\n\r\npragma solidity ^0.6.0;\r\n\r\nimport \"./IERC1820Implementer.sol\";\r\n\r\n/**\r\n * @dev Implementation of the {IERC1820Implementer} interface.\r\n *\r\n * Contracts may inherit from this and call {_registerInterfaceForAddress} to\r\n * declare their willingness to be implementers.\r\n * {IERC1820Registry-setInterfaceImplementer} should then be called for the\r\n * registration to be complete.\r\n */\r\ncontract ERC1820Implementer is IERC1820Implementer {\r\n    bytes32 constant private _ERC1820_ACCEPT_MAGIC = keccak256(abi.encodePacked(\"ERC1820_ACCEPT_MAGIC\"));\r\n\r\n    mapping(bytes32 => mapping(address => bool)) private _supportedInterfaces;\r\n\r\n    /**\r\n     * See {IERC1820Implementer-canImplementInterfaceForAddress}.\r\n     */\r\n    function canImplementInterfaceForAddress(bytes32 interfaceHash, address account) public view override returns (bytes32) {\r\n        return _supportedInterfaces[interfaceHash][account] ? _ERC1820_ACCEPT_MAGIC : bytes32(0x00);\r\n    }\r\n\r\n    /**\r\n     * @dev Declares the contract as willing to be an implementer of\r\n     * `interfaceHash` for `account`.\r\n     *\r\n     * See {IERC1820Registry-setInterfaceImplementer} and\r\n     * {IERC1820Registry-interfaceHash}.\r\n     */\r\n    function _registerInterfaceForAddress(bytes32 interfaceHash, address account) internal virtual {\r\n        _supportedInterfaces[interfaceHash][account] = true;\r\n    }\r\n}\r\n",
  "sourcePath": "C:/Users/sonic/Desktop/Unbound/contracts/openzeppelin/contracts/introspection/ERC1820Implementer.sol",
  "compiler": {
    "name": "solc",
    "version": "0.6.6+commit.6c089d02.Emscripten.clang"
  },
  "schemaVersion": "3.2.3",
  "updatedAt": "2020-09-26T02:28:39.088Z",
  "devdoc": {
    "details": "Implementation of the {IERC1820Implementer} interface.  * Contracts may inherit from this and call {_registerInterfaceForAddress} to declare their willingness to be implementers. {IERC1820Registry-setInterfaceImplementer} should then be called for the registration to be complete.",
    "methods": {}
  },
  "userdoc": {
    "methods": {
      "canImplementInterfaceForAddress(bytes32,address)": {
        "notice": "See {IERC1820Implementer-canImplementInterfaceForAddress}."
      }
    }
  }
}