{
  "contractName": "ExampleOracleSimple",
  "abi": [
    {
      "inputs": [
        {
          "internalType": "address",
          "name": "factory",
          "type": "address"
        },
        {
          "internalType": "address",
          "name": "tokenA",
          "type": "address"
        },
        {
          "internalType": "address",
          "name": "tokenB",
          "type": "address"
        }
      ],
      "stateMutability": "nonpayable",
      "type": "constructor"
    },
    {
      "inputs": [],
      "name": "PERIOD",
      "outputs": [
        {
          "internalType": "uint256",
          "name": "",
          "type": "uint256"
        }
      ],
      "stateMutability": "view",
      "type": "function"
    },
    {
      "inputs": [],
      "name": "blockTimestampLast",
      "outputs": [
        {
          "internalType": "uint32",
          "name": "",
          "type": "uint32"
        }
      ],
      "stateMutability": "view",
      "type": "function"
    },
    {
      "inputs": [],
      "name": "price0Average",
      "outputs": [
        {
          "internalType": "uint224",
          "name": "_x",
          "type": "uint224"
        }
      ],
      "stateMutability": "view",
      "type": "function"
    },
    {
      "inputs": [],
      "name": "price0CumulativeLast",
      "outputs": [
        {
          "internalType": "uint256",
          "name": "",
          "type": "uint256"
        }
      ],
      "stateMutability": "view",
      "type": "function"
    },
    {
      "inputs": [],
      "name": "price1Average",
      "outputs": [
        {
          "internalType": "uint224",
          "name": "_x",
          "type": "uint224"
        }
      ],
      "stateMutability": "view",
      "type": "function"
    },
    {
      "inputs": [],
      "name": "price1CumulativeLast",
      "outputs": [
        {
          "internalType": "uint256",
          "name": "",
          "type": "uint256"
        }
      ],
      "stateMutability": "view",
      "type": "function"
    },
    {
      "inputs": [],
      "name": "token0",
      "outputs": [
        {
          "internalType": "address",
          "name": "",
          "type": "address"
        }
      ],
      "stateMutability": "view",
      "type": "function"
    },
    {
      "inputs": [],
      "name": "token1",
      "outputs": [
        {
          "internalType": "address",
          "name": "",
          "type": "address"
        }
      ],
      "stateMutability": "view",
      "type": "function"
    },
    {
      "inputs": [],
      "name": "update",
      "outputs": [],
      "stateMutability": "nonpayable",
      "type": "function"
    },
    {
      "inputs": [
        {
          "internalType": "address",
          "name": "token",
          "type": "address"
        },
        {
          "internalType": "uint256",
          "name": "amountIn",
          "type": "uint256"
        }
      ],
      "name": "consult",
      "outputs": [
        {
          "internalType": "uint256",
          "name": "amountOut",
          "type": "uint256"
        }
      ],
      "stateMutability": "view",
      "type": "function"
    }
  ],
  "bytecode": "0x60e060405234801561001057600080fd5b50604051610cec380380610cec8339818101604052606081101561003357600080fd5b5080516020808301516040909301519192919060009061006090859085908590610799610364821b17901c565b9050806001600160a01b03166080816001600160a01b031660601b81525050806001600160a01b0316630dfe16816040518163ffffffff1660e01b815260040160206040518083038186803b1580156100b857600080fd5b505afa1580156100cc573d6000803e3d6000fd5b505050506040513d60208110156100e257600080fd5b505160601b6001600160601b03191660a0526040805163d21220a760e01b815290516001600160a01b0383169163d21220a7916004808301926020929190829003018186803b15801561013457600080fd5b505afa158015610148573d6000803e3d6000fd5b505050506040513d602081101561015e57600080fd5b505160601b6001600160601b03191660c05260408051635909c0d560e01b815290516001600160a01b03831691635909c0d5916004808301926020929190829003018186803b1580156101b057600080fd5b505afa1580156101c4573d6000803e3d6000fd5b505050506040513d60208110156101da57600080fd5b505160005560408051635a3d549360e01b815290516001600160a01b03831691635a3d5493916004808301926020929190829003018186803b15801561021f57600080fd5b505afa158015610233573d6000803e3d6000fd5b505050506040513d602081101561024957600080fd5b505160015560408051630240bc6b60e21b8152905160009182916001600160a01b03851691630902f1ac916004808301926060929190829003018186803b15801561029357600080fd5b505afa1580156102a7573d6000803e3d6000fd5b505050506040513d60608110156102bd57600080fd5b50805160208201516040909201516002805463ffffffff191663ffffffff909216919091179055925090506001600160701b0382161580159061030857506001600160701b03811615155b610359576040805162461bcd60e51b815260206004820181905260248201527f4578616d706c654f7261636c6553696d706c653a204e4f5f5245534552564553604482015290519081900360640190fd5b5050505050506103eb565b6040805163e6a4390560e01b81526001600160a01b0384811660048301528381166024830152915160009286169163e6a43905916044808301926020929190829003018186803b1580156103b757600080fd5b505afa1580156103cb573d6000803e3d6000fd5b505050506040513d60208110156103e157600080fd5b5051949350505050565b60805160601c60a05160601c60c05160601c6108c261042a60003980610220528061044452508061017e52806101a45250806102f252506108c26000f3fe608060405234801561001057600080fd5b506004361061009e5760003560e01c8063a2e6204511610066578063a2e6204514610139578063a6bb453914610143578063b4d1d7951461014b578063c5700a0214610153578063d21220a7146101745761009e565b80630dfe1681146100a35780633ddac953146100c75780635909c0d5146101055780635a3d54931461010d5780635e6aaf2c14610115575b600080fd5b6100ab61017c565b604080516001600160a01b039092168252519081900360200190f35b6100f3600480360360408110156100dd57600080fd5b506001600160a01b0381351690602001356101a0565b60408051918252519081900360200190f35b6100f36102cd565b6100f36102d3565b61011d6102d9565b604080516001600160e01b039092168252519081900360200190f35b6101416102e8565b005b61011d610420565b6100f361042f565b61015b610436565b6040805163ffffffff9092168252519081900360200190f35b6100ab610442565b7f000000000000000000000000000000000000000000000000000000000000000081565b60007f00000000000000000000000000000000000000000000000000000000000000006001600160a01b0316836001600160a01b0316141561021e5760408051602081019091526003546001600160e01b0316815261020e90610209908463ffffffff61046616565b6104e4565b6001600160901b031690506102c7565b7f00000000000000000000000000000000000000000000000000000000000000006001600160a01b0316836001600160a01b03161461028e5760405162461bcd60e51b81526004018080602001828103825260228152602001806108216022913960400191505060405180910390fd5b60408051602081019091526004546001600160e01b031681526102bb90610209908463ffffffff61046616565b6001600160901b031690505b92915050565b60005481565b60015481565b6004546001600160e01b031681565b60008060006103167f00000000000000000000000000000000000000000000000000000000000000006104eb565b600254929550909350915063ffffffff9081168203906201518090821610156103705760405162461bcd60e51b81526004018080602001828103825260278152602001806108436027913960400191505060405180910390fd5b60405180602001604052808263ffffffff1660005487038161038e57fe5b046001600160e01b039081169091529051600380546001600160e01b031916919092161790556040805160208101909152600154819063ffffffff8416908603816103d557fe5b046001600160e01b039081169091529051600480546001600160e01b03191691909216179055506000929092556001556002805463ffffffff191663ffffffff909216919091179055565b6003546001600160e01b031681565b6201518081565b60025463ffffffff1681565b7f000000000000000000000000000000000000000000000000000000000000000081565b61046e610774565b600082158061049457505082516001600160e01b03168281029083828161049157fe5b04145b6104cf5760405162461bcd60e51b815260040180806020018281038252602381526020018061086a6023913960400191505060405180910390fd5b60408051602081019091529081529392505050565b5160701c90565b60008060006104f86106ba565b9050836001600160a01b0316635909c0d56040518163ffffffff1660e01b815260040160206040518083038186803b15801561053357600080fd5b505afa158015610547573d6000803e3d6000fd5b505050506040513d602081101561055d57600080fd5b505160408051635a3d549360e01b815290519194506001600160a01b03861691635a3d549391600480820192602092909190829003018186803b1580156105a357600080fd5b505afa1580156105b7573d6000803e3d6000fd5b505050506040513d60208110156105cd57600080fd5b505160408051630240bc6b60e21b81529051919350600091829182916001600160a01b03891691630902f1ac916004808301926060929190829003018186803b15801561061957600080fd5b505afa15801561062d573d6000803e3d6000fd5b505050506040513d606081101561064357600080fd5b5080516020820151604090920151909450909250905063ffffffff808216908516146106b05780840363ffffffff811661067d84866106c4565b516001600160e01b031602969096019563ffffffff811661069e85856106c4565b516001600160e01b0316029590950194505b5050509193909250565b63ffffffff421690565b6106cc610787565b6000826001600160701b03161161072a576040805162461bcd60e51b815260206004820152601760248201527f4669786564506f696e743a204449565f42595f5a45524f000000000000000000604482015290519081900360640190fd5b6040805160208101909152806001600160701b0384166dffffffffffffffffffffffffffff60701b607087901b168161075f57fe5b046001600160e01b0316815250905092915050565b6040518060200160405280600081525090565b60408051602081019091526000815290565b6040805163e6a4390560e01b81526001600160a01b0384811660048301528381166024830152915160009286169163e6a43905916044808301926020929190829003018186803b1580156107ec57600080fd5b505afa158015610800573d6000803e3d6000fd5b505050506040513d602081101561081657600080fd5b505194935050505056fe4578616d706c654f7261636c6553696d706c653a20494e56414c49445f544f4b454e4578616d706c654f7261636c6553696d706c653a20504552494f445f4e4f545f454c41505345444669786564506f696e743a204d554c5449504c49434154494f4e5f4f564552464c4f57a2646970667358221220923c76390c674dc2fd0795c928d9e9fbcb51ad39820f2e94b1c53d6977b925ec64736f6c63430006060033",
  "immutableReferences": {
    "21857": [
      {
        "length": 32,
        "start": 754
      }
    ],
    "21859": [
      {
        "length": 32,
        "start": 382
      },
      {
        "length": 32,
        "start": 420
      }
    ],
    "21861": [
      {
        "length": 32,
        "start": 544
      },
      {
        "length": 32,
        "start": 1092
      }
    ]
  },
  "source": "pragma solidity =0.6.6;\r\n\r\nimport '@uniswap/v2-core/contracts/interfaces/IUniswapV2Factory.sol';\r\nimport '@uniswap/v2-core/contracts/interfaces/IUniswapV2Pair.sol';\r\nimport '@uniswap/lib/contracts/libraries/FixedPoint.sol';\r\n\r\nimport '../libraries/UniswapV2OracleLibrary.sol';\r\nimport '../libraries/UniswapV2Library.sol';\r\n\r\n// fixed window oracle that recomputes the average price for the entire period once every period\r\n// note that the price average is only guaranteed to be over at least 1 period, but may be over a longer period\r\ncontract ExampleOracleSimple {\r\n    using FixedPoint for *;\r\n\r\n    uint public constant PERIOD = 24 hours;\r\n\r\n    IUniswapV2Pair immutable pair;\r\n    address public immutable token0;\r\n    address public immutable token1;\r\n\r\n    uint    public price0CumulativeLast;\r\n    uint    public price1CumulativeLast;\r\n    uint32  public blockTimestampLast;\r\n    FixedPoint.uq112x112 public price0Average;\r\n    FixedPoint.uq112x112 public price1Average;\r\n\r\n    constructor(address factory, address tokenA, address tokenB) public {\r\n        IUniswapV2Pair _pair = IUniswapV2Pair(UniswapV2Library.pairFor(factory, tokenA, tokenB));\r\n        pair = _pair;\r\n        token0 = _pair.token0();\r\n        token1 = _pair.token1();\r\n        price0CumulativeLast = _pair.price0CumulativeLast(); // fetch the current accumulated price value (1 / 0)\r\n        price1CumulativeLast = _pair.price1CumulativeLast(); // fetch the current accumulated price value (0 / 1)\r\n        uint112 reserve0;\r\n        uint112 reserve1;\r\n        (reserve0, reserve1, blockTimestampLast) = _pair.getReserves();\r\n        require(reserve0 != 0 && reserve1 != 0, 'ExampleOracleSimple: NO_RESERVES'); // ensure that there's liquidity in the pair\r\n    }\r\n\r\n    function update() external {\r\n        (uint price0Cumulative, uint price1Cumulative, uint32 blockTimestamp) =\r\n            UniswapV2OracleLibrary.currentCumulativePrices(address(pair));\r\n        uint32 timeElapsed = blockTimestamp - blockTimestampLast; // overflow is desired\r\n\r\n        // ensure that at least one full period has passed since the last update\r\n        require(timeElapsed >= PERIOD, 'ExampleOracleSimple: PERIOD_NOT_ELAPSED');\r\n\r\n        // overflow is desired, casting never truncates\r\n        // cumulative price is in (uq112x112 price * seconds) units so we simply wrap it after division by time elapsed\r\n        price0Average = FixedPoint.uq112x112(uint224((price0Cumulative - price0CumulativeLast) / timeElapsed));\r\n        price1Average = FixedPoint.uq112x112(uint224((price1Cumulative - price1CumulativeLast) / timeElapsed));\r\n\r\n        price0CumulativeLast = price0Cumulative;\r\n        price1CumulativeLast = price1Cumulative;\r\n        blockTimestampLast = blockTimestamp;\r\n    }\r\n\r\n    // note this will always return 0 before update has been called successfully for the first time.\r\n    function consult(address token, uint amountIn) external view returns (uint amountOut) {\r\n        if (token == token0) {\r\n            amountOut = price0Average.mul(amountIn).decode144();\r\n        } else {\r\n            require(token == token1, 'ExampleOracleSimple: INVALID_TOKEN');\r\n            amountOut = price1Average.mul(amountIn).decode144();\r\n        }\r\n    }\r\n}\r\n",
  "sourcePath": "C:/Users/sonic/Desktop/Unbound/contracts/uniswapPeriph/examples/ExampleOracleSimple.sol",
  "compiler": {
    "name": "solc",
    "version": "0.6.6+commit.6c089d02.Emscripten.clang"
  },
  "schemaVersion": "3.2.3",
  "updatedAt": "2020-09-16T18:14:06.547Z",
  "devdoc": {
    "methods": {}
  },
  "userdoc": {
    "methods": {}
  }
}