{
  "contractName": "feeSplitter",
  "abi": [
    {
      "inputs": [
        {
          "internalType": "address",
          "name": "eFundAddr",
          "type": "address"
        },
        {
          "internalType": "address",
          "name": "devFundAddr",
          "type": "address"
        },
        {
          "internalType": "address",
          "name": "uDai",
          "type": "address"
        }
      ],
      "payable": false,
      "stateMutability": "nonpayable",
      "type": "constructor"
    },
    {
      "constant": false,
      "inputs": [],
      "name": "splitFunds",
      "outputs": [],
      "payable": false,
      "stateMutability": "nonpayable",
      "type": "function"
    },
    {
      "constant": true,
      "inputs": [],
      "name": "isOwner",
      "outputs": [
        {
          "internalType": "bool",
          "name": "",
          "type": "bool"
        }
      ],
      "payable": false,
      "stateMutability": "view",
      "type": "function"
    },
    {
      "constant": false,
      "inputs": [
        {
          "internalType": "address",
          "name": "_newOwner",
          "type": "address"
        }
      ],
      "name": "setOwner",
      "outputs": [],
      "payable": false,
      "stateMutability": "nonpayable",
      "type": "function"
    },
    {
      "constant": false,
      "inputs": [
        {
          "internalType": "address",
          "name": "_newAddr",
          "type": "address"
        }
      ],
      "name": "changeStake",
      "outputs": [],
      "payable": false,
      "stateMutability": "nonpayable",
      "type": "function"
    },
    {
      "constant": false,
      "inputs": [
        {
          "internalType": "address",
          "name": "_newAddr",
          "type": "address"
        }
      ],
      "name": "changeDev",
      "outputs": [],
      "payable": false,
      "stateMutability": "nonpayable",
      "type": "function"
    },
    {
      "constant": false,
      "inputs": [
        {
          "internalType": "address",
          "name": "_newAddr",
          "type": "address"
        }
      ],
      "name": "changeE",
      "outputs": [],
      "payable": false,
      "stateMutability": "nonpayable",
      "type": "function"
    }
  ],
  "bytecode": "0x608060405234801561001057600080fd5b5060405161090a38038061090a8339818101604052606081101561003357600080fd5b5080516020820151604090920151600580546001600160a01b039283166001600160a01b03199182168117909255600080548216331790556002805494841694821694909417909355600380549290941691831691909117909255600480549091169091179055610861806100a96000396000f3fe608060405234801561001057600080fd5b50600436106100625760003560e01c806313af4035146100675780631b814f021461008f57806388a8c95c146100975780638f32d59b146100bd578063e0c56569146100d9578063f7ba97d3146100ff575b600080fd5b61008d6004803603602081101561007d57600080fd5b50356001600160a01b0316610125565b005b61008d61018e565b61008d600480360360208110156100ad57600080fd5b50356001600160a01b0316610463565b6100c56104cc565b604080519115158252519081900360200190f35b61008d600480360360208110156100ef57600080fd5b50356001600160a01b03166104dd565b61008d6004803603602081101561011557600080fd5b50356001600160a01b0316610546565b61012d6104cc565b61016c576040805162461bcd60e51b8152602060048201819052602482015260008051602061080d833981519152604482015290519081900360640190fd5b600080546001600160a01b0319166001600160a01b0392909216919091179055565b600554604080516370a0823160e01b815230600482015290516000926001600160a01b0316916370a08231916024808301926020929190829003018186803b1580156101d957600080fd5b505afa1580156101ed573d6000803e3d6000fd5b505050506040513d602081101561020357600080fd5b505190508061024c576040805162461bcd60e51b815260206004820152601060248201526f139bdd1a1a5b99c81d1bc81cdc1b1a5d60821b604482015290519081900360640190fd5b600061025f82600563ffffffff6105af16565b6005546001549192506001600160a01b039081169163a9059cbb911661028b848063ffffffff6105fa16565b6040518363ffffffff1660e01b815260040180836001600160a01b03166001600160a01b0316815260200182815260200192505050602060405180830381600087803b1580156102da57600080fd5b505af11580156102ee573d6000803e3d6000fd5b505050506040513d602081101561030457600080fd5b50506005546002546001600160a01b039182169163a9059cbb911661032f848063ffffffff6105fa16565b6040518363ffffffff1660e01b815260040180836001600160a01b03166001600160a01b0316815260200182815260200192505050602060405180830381600087803b15801561037e57600080fd5b505af1158015610392573d6000803e3d6000fd5b505050506040513d60208110156103a857600080fd5b50506005546003546001600160a01b039182169163a9059cbb91166103e46103d785600463ffffffff61065416565b869063ffffffff6106ad16565b6040518363ffffffff1660e01b815260040180836001600160a01b03166001600160a01b0316815260200182815260200192505050602060405180830381600087803b15801561043357600080fd5b505af1158015610447573d6000803e3d6000fd5b505050506040513d602081101561045d57600080fd5b50505050565b61046b6104cc565b6104aa576040805162461bcd60e51b8152602060048201819052602482015260008051602061080d833981519152604482015290519081900360640190fd5b600380546001600160a01b0319166001600160a01b0392909216919091179055565b6000546001600160a01b0316331490565b6104e56104cc565b610524576040805162461bcd60e51b8152602060048201819052602482015260008051602061080d833981519152604482015290519081900360640190fd5b600180546001600160a01b0319166001600160a01b0392909216919091179055565b61054e6104cc565b61058d576040805162461bcd60e51b8152602060048201819052602482015260008051602061080d833981519152604482015290519081900360640190fd5b600280546001600160a01b0319166001600160a01b0392909216919091179055565b60006105f183836040518060400160405280601a81526020017f536166654d6174683a206469766973696f6e206279207a65726f0000000000008152506106ef565b90505b92915050565b6000828201838110156105f1576040805162461bcd60e51b815260206004820152601b60248201527f536166654d6174683a206164646974696f6e206f766572666c6f770000000000604482015290519081900360640190fd5b600082610663575060006105f4565b8282028284828161067057fe5b04146105f15760405162461bcd60e51b81526004018080602001828103825260218152602001806107ec6021913960400191505060405180910390fd5b60006105f183836040518060400160405280601e81526020017f536166654d6174683a207375627472616374696f6e206f766572666c6f770000815250610791565b6000818361077b5760405162461bcd60e51b81526004018080602001828103825283818151815260200191508051906020019080838360005b83811015610740578181015183820152602001610728565b50505050905090810190601f16801561076d5780820380516001836020036101000a031916815260200191505b509250505060405180910390fd5b50600083858161078757fe5b0495945050505050565b600081848411156107e35760405162461bcd60e51b8152602060048201818152835160248401528351909283926044909101919085019080838360008315610740578181015183820152602001610728565b50505090039056fe536166654d6174683a206d756c7469706c69636174696f6e206f766572666c6f774f776e61626c653a2063616c6c6572206973206e6f7420746865206f776e6572a265627a7a723158206f4f9e8ce3b312dd072e5e1d57bbd4aa8d2fcc0c19355ebc922f0b68978ee36164736f6c63430005100032",
  "source": "pragma solidity ^0.5.16;\r\n// SPDX-License-Identifier: MIT\r\n\r\nimport \"@openzeppelin/contracts/math/SafeMath.sol\";\r\nimport \"@openzeppelin/contracts/utils/Address.sol\";\r\n\r\n//import \"../utils/IERC223Recipient.sol\";\r\n\r\n// interface stakingInterface {\r\n//     // function _mint(address account, uint256 amount, uint256 fee, address feeAddr) external;\r\n//     // function _burn(address account, uint256 toBurn, uint256 fee, address feeAddr) external;\r\n//     // function checkLoan(address user) external view returns (uint256 owed);\r\n//     // function balanceOf(address account) external view returns (uint256); \r\n// }\r\n\r\ninterface uDaiInterface {\r\n    function balanceOf(address account) external view returns (uint256);\r\n    function transfer(address _to, uint _value) external returns (bool success);\r\n}\r\n\r\ncontract feeSplitter /* is IERC223Recipient */ {\r\n    using SafeMath for uint256;\r\n    using Address for address;\r\n\r\n    //Owner Address\r\n    address _owner;\r\n\r\n    // staking contract address (40%)\r\n    address _stakeAddr;\r\n\r\n    // Emergency fund (40%)\r\n    address _eFundAddr;\r\n\r\n    // Dev fund (20%)\r\n    address _devFundAddr;\r\n    \r\n    // uDai Address\r\n    address _uDaiAddr;\r\n    //Approved Contracts\r\n    // mapping (uint32 => address) listOfLLC;\r\n\r\n\r\n\r\n    //Unbound Token Contracts\r\n    uDaiInterface private uDaiContract;\r\n    // stakingInterface private stakingContract;\r\n\r\n    // Modifiers\r\n    modifier onlyOwner() {\r\n        require(isOwner(), \"Ownable: caller is not the owner\");\r\n        _;\r\n    }\r\n\r\n    // Constructor\r\n    constructor (address eFundAddr, address devFundAddr, address uDai) public {\r\n        // stakingContract = stakingInterface(stakeAddr);\r\n        uDaiContract = uDaiInterface(uDai);\r\n\r\n        // Sets corresponding addresses\r\n        _owner = msg.sender;\r\n        // _stakeAddr = devFundAddr;\r\n        _eFundAddr = eFundAddr;\r\n        _devFundAddr = devFundAddr;\r\n        _uDaiAddr = uDai;\r\n        \r\n    }\r\n\r\n    // onlyOwner Functions\r\n\r\n    // This must be called\r\n    function splitFunds() public {\r\n        uint256 funds = uDaiContract.balanceOf(address(this));\r\n        require(funds > 0, \"Nothing to split\");\r\n\r\n        // to achieve 40/40/20, we will cut funds into fifths.\r\n        // This is hardcoded and cannot be altered. Would require rework to be able to change % distribution.\r\n        uint256 fifth = funds.div(5);\r\n\r\n        // sends 40%\r\n        uDaiContract.transfer(_stakeAddr, fifth.add(fifth));\r\n        uDaiContract.transfer(_eFundAddr, fifth.add(fifth));\r\n\r\n        // sends 20%\r\n        // This math is to ensure we do not accidentally create or destroy tokens out of thin air.\r\n        uDaiContract.transfer(_devFundAddr, funds.sub(fifth.mul(4)));\r\n\r\n    }\r\n\r\n\r\n    // Checks if sender is owner\r\n    function isOwner() public view returns (bool) {\r\n        return msg.sender == _owner;\r\n    }\r\n\r\n    // Changes owner\r\n    function setOwner(address _newOwner) public onlyOwner {\r\n        _owner = _newOwner;\r\n    }\r\n\r\n    // change stake Address\r\n    function changeStake(address _newAddr) public onlyOwner {\r\n        _stakeAddr = _newAddr;\r\n    }\r\n\r\n    // change devFund Address\r\n    function changeDev(address _newAddr) public onlyOwner {\r\n        _devFundAddr = _newAddr;\r\n    }\r\n\r\n    // change emergency Fund Address\r\n    function changeE(address _newAddr) public onlyOwner {\r\n        _eFundAddr = _newAddr;\r\n    }\r\n\r\n    // change uDai? Probably should not...\r\n}",
  "sourcePath": "C:/Users/sonic/Desktop/Unbound/contracts/distribution/feeSplitter.sol",
  "compiler": {
    "name": "solc",
    "version": "0.5.16+commit.9c3226ce.Emscripten.clang"
  },
  "schemaVersion": "3.2.3",
  "updatedAt": "2020-09-13T02:28:40.659Z",
  "networkType": "ethereum",
  "devdoc": {
    "methods": {}
  },
  "userdoc": {
    "methods": {}
  }
}