{
  "contractName": "feeSplitter",
  "abi": [
    {
      "inputs": [
        {
          "internalType": "address",
          "name": "eFundAddr",
          "type": "address"
        },
        {
          "internalType": "address",
          "name": "devFundAddr",
          "type": "address"
        },
        {
          "internalType": "address",
          "name": "uDai",
          "type": "address"
        }
      ],
      "stateMutability": "nonpayable",
      "type": "constructor"
    },
    {
      "inputs": [],
      "name": "splitFunds",
      "outputs": [],
      "stateMutability": "nonpayable",
      "type": "function"
    },
    {
      "inputs": [],
      "name": "isOwner",
      "outputs": [
        {
          "internalType": "bool",
          "name": "",
          "type": "bool"
        }
      ],
      "stateMutability": "view",
      "type": "function"
    },
    {
      "inputs": [
        {
          "internalType": "address",
          "name": "_newOwner",
          "type": "address"
        }
      ],
      "name": "setOwner",
      "outputs": [],
      "stateMutability": "nonpayable",
      "type": "function"
    },
    {
      "inputs": [
        {
          "internalType": "address",
          "name": "_newAddr",
          "type": "address"
        }
      ],
      "name": "changeStake",
      "outputs": [],
      "stateMutability": "nonpayable",
      "type": "function"
    },
    {
      "inputs": [
        {
          "internalType": "address",
          "name": "_newAddr",
          "type": "address"
        }
      ],
      "name": "changeDev",
      "outputs": [],
      "stateMutability": "nonpayable",
      "type": "function"
    },
    {
      "inputs": [
        {
          "internalType": "address",
          "name": "_newAddr",
          "type": "address"
        }
      ],
      "name": "changeE",
      "outputs": [],
      "stateMutability": "nonpayable",
      "type": "function"
    }
  ],
  "bytecode": "0x608060405234801561001057600080fd5b50604051610eec380380610eec8339818101604052606081101561003357600080fd5b8101908080519060200190929190805190602001909291908051906020019092919050505080600560006101000a81548173ffffffffffffffffffffffffffffffffffffffff021916908373ffffffffffffffffffffffffffffffffffffffff160217905550336000806101000a81548173ffffffffffffffffffffffffffffffffffffffff021916908373ffffffffffffffffffffffffffffffffffffffff16021790555082600260006101000a81548173ffffffffffffffffffffffffffffffffffffffff021916908373ffffffffffffffffffffffffffffffffffffffff16021790555081600360006101000a81548173ffffffffffffffffffffffffffffffffffffffff021916908373ffffffffffffffffffffffffffffffffffffffff16021790555080600460006101000a81548173ffffffffffffffffffffffffffffffffffffffff021916908373ffffffffffffffffffffffffffffffffffffffff160217905550505050610d3e806101ae6000396000f3fe608060405234801561001057600080fd5b50600436106100625760003560e01c806313af4035146100675780631b814f02146100ab57806388a8c95c146100b55780638f32d59b146100f9578063e0c565691461011b578063f7ba97d31461015f575b600080fd5b6100a96004803603602081101561007d57600080fd5b81019080803573ffffffffffffffffffffffffffffffffffffffff1690602001909291905050506101a3565b005b6100b3610260565b005b6100f7600480360360208110156100cb57600080fd5b81019080803573ffffffffffffffffffffffffffffffffffffffff16906020019092919050505061072e565b005b6101016107ec565b604051808215151515815260200191505060405180910390f35b61015d6004803603602081101561013157600080fd5b81019080803573ffffffffffffffffffffffffffffffffffffffff169060200190929190505050610843565b005b6101a16004803603602081101561017557600080fd5b81019080803573ffffffffffffffffffffffffffffffffffffffff169060200190929190505050610901565b005b6101ab6107ec565b61021d576040517f08c379a00000000000000000000000000000000000000000000000000000000081526004018080602001828103825260208152602001807f4f776e61626c653a2063616c6c6572206973206e6f7420746865206f776e657281525060200191505060405180910390fd5b806000806101000a81548173ffffffffffffffffffffffffffffffffffffffff021916908373ffffffffffffffffffffffffffffffffffffffff16021790555050565b6000600560009054906101000a900473ffffffffffffffffffffffffffffffffffffffff1673ffffffffffffffffffffffffffffffffffffffff166370a08231306040518263ffffffff1660e01b8152600401808273ffffffffffffffffffffffffffffffffffffffff1673ffffffffffffffffffffffffffffffffffffffff16815260200191505060206040518083038186803b15801561030157600080fd5b505afa158015610315573d6000803e3d6000fd5b505050506040513d602081101561032b57600080fd5b81019080805190602001909291905050509050600081116103b4576040517f08c379a00000000000000000000000000000000000000000000000000000000081526004018080602001828103825260108152602001807f4e6f7468696e6720746f2073706c69740000000000000000000000000000000081525060200191505060405180910390fd5b60006103ca6005836109bf90919063ffffffff16565b9050600560009054906101000a900473ffffffffffffffffffffffffffffffffffffffff1673ffffffffffffffffffffffffffffffffffffffff1663a9059cbb600160009054906101000a900473ffffffffffffffffffffffffffffffffffffffff166104408485610a0990919063ffffffff16565b6040518363ffffffff1660e01b8152600401808373ffffffffffffffffffffffffffffffffffffffff1673ffffffffffffffffffffffffffffffffffffffff16815260200182815260200192505050602060405180830381600087803b1580156104a957600080fd5b505af11580156104bd573d6000803e3d6000fd5b505050506040513d60208110156104d357600080fd5b810190808051906020019092919050505050600560009054906101000a900473ffffffffffffffffffffffffffffffffffffffff1673ffffffffffffffffffffffffffffffffffffffff1663a9059cbb600260009054906101000a900473ffffffffffffffffffffffffffffffffffffffff166105598485610a0990919063ffffffff16565b6040518363ffffffff1660e01b8152600401808373ffffffffffffffffffffffffffffffffffffffff1673ffffffffffffffffffffffffffffffffffffffff16815260200182815260200192505050602060405180830381600087803b1580156105c257600080fd5b505af11580156105d6573d6000803e3d6000fd5b505050506040513d60208110156105ec57600080fd5b810190808051906020019092919050505050600560009054906101000a900473ffffffffffffffffffffffffffffffffffffffff1673ffffffffffffffffffffffffffffffffffffffff1663a9059cbb600360009054906101000a900473ffffffffffffffffffffffffffffffffffffffff16610685610676600486610a9190919063ffffffff16565b86610b1790919063ffffffff16565b6040518363ffffffff1660e01b8152600401808373ffffffffffffffffffffffffffffffffffffffff1673ffffffffffffffffffffffffffffffffffffffff16815260200182815260200192505050602060405180830381600087803b1580156106ee57600080fd5b505af1158015610702573d6000803e3d6000fd5b505050506040513d602081101561071857600080fd5b8101908080519060200190929190505050505050565b6107366107ec565b6107a8576040517f08c379a00000000000000000000000000000000000000000000000000000000081526004018080602001828103825260208152602001807f4f776e61626c653a2063616c6c6572206973206e6f7420746865206f776e657281525060200191505060405180910390fd5b80600360006101000a81548173ffffffffffffffffffffffffffffffffffffffff021916908373ffffffffffffffffffffffffffffffffffffffff16021790555050565b60008060009054906101000a900473ffffffffffffffffffffffffffffffffffffffff1673ffffffffffffffffffffffffffffffffffffffff163373ffffffffffffffffffffffffffffffffffffffff1614905090565b61084b6107ec565b6108bd576040517f08c379a00000000000000000000000000000000000000000000000000000000081526004018080602001828103825260208152602001807f4f776e61626c653a2063616c6c6572206973206e6f7420746865206f776e657281525060200191505060405180910390fd5b80600160006101000a81548173ffffffffffffffffffffffffffffffffffffffff021916908373ffffffffffffffffffffffffffffffffffffffff16021790555050565b6109096107ec565b61097b576040517f08c379a00000000000000000000000000000000000000000000000000000000081526004018080602001828103825260208152602001807f4f776e61626c653a2063616c6c6572206973206e6f7420746865206f776e657281525060200191505060405180910390fd5b80600260006101000a81548173ffffffffffffffffffffffffffffffffffffffff021916908373ffffffffffffffffffffffffffffffffffffffff16021790555050565b6000610a0183836040518060400160405280601a81526020017f536166654d6174683a206469766973696f6e206279207a65726f000000000000815250610b61565b905092915050565b600080828401905083811015610a87576040517f08c379a000000000000000000000000000000000000000000000000000000000815260040180806020018281038252601b8152602001807f536166654d6174683a206164646974696f6e206f766572666c6f77000000000081525060200191505060405180910390fd5b8091505092915050565b600080831415610aa45760009050610b11565b6000828402905082848281610ab557fe5b0414610b0c576040517f08c379a0000000000000000000000000000000000000000000000000000000008152600401808060200182810382526021815260200180610ce86021913960400191505060405180910390fd5b809150505b92915050565b6000610b5983836040518060400160405280601e81526020017f536166654d6174683a207375627472616374696f6e206f766572666c6f770000815250610c27565b905092915050565b60008083118290610c0d576040517f08c379a00000000000000000000000000000000000000000000000000000000081526004018080602001828103825283818151815260200191508051906020019080838360005b83811015610bd2578082015181840152602081019050610bb7565b50505050905090810190601f168015610bff5780820380516001836020036101000a031916815260200191505b509250505060405180910390fd5b506000838581610c1957fe5b049050809150509392505050565b6000838311158290610cd4576040517f08c379a00000000000000000000000000000000000000000000000000000000081526004018080602001828103825283818151815260200191508051906020019080838360005b83811015610c99578082015181840152602081019050610c7e565b50505050905090810190601f168015610cc65780820380516001836020036101000a031916815260200191505b509250505060405180910390fd5b506000838503905080915050939250505056fe536166654d6174683a206d756c7469706c69636174696f6e206f766572666c6f77a26469706673582212201b49fc4e6de04709732d90a652dd9835f4341cca56cad18b2ffa47e2eff5d91564736f6c63430006020033",
  "source": "pragma solidity ^0.6.2;\r\n// SPDX-License-Identifier: MIT\r\n\r\nimport \"@openzeppelin/contracts/math/SafeMath.sol\";\r\nimport \"@openzeppelin/contracts/utils/Address.sol\";\r\n\r\n//import \"../utils/IERC223Recipient.sol\";\r\n\r\n// interface stakingInterface {\r\n//     // function _mint(address account, uint256 amount, uint256 fee, address feeAddr) external;\r\n//     // function _burn(address account, uint256 toBurn, uint256 fee, address feeAddr) external;\r\n//     // function checkLoan(address user) external view returns (uint256 owed);\r\n//     // function balanceOf(address account) external view returns (uint256); \r\n// }\r\n\r\ninterface uDaiInterface {\r\n    function balanceOf(address account) external view returns (uint256);\r\n    function transfer(address _to, uint _value) external returns (bool success);\r\n}\r\n\r\ncontract feeSplitter /* is IERC223Recipient */ {\r\n    using SafeMath for uint256;\r\n    using Address for address;\r\n\r\n    //Owner Address\r\n    address _owner;\r\n\r\n    // staking contract address (40%)\r\n    address _stakeAddr;\r\n\r\n    // Emergency fund (40%)\r\n    address _eFundAddr;\r\n\r\n    // Dev fund (20%)\r\n    address _devFundAddr;\r\n    \r\n    // uDai Address\r\n    address _uDaiAddr;\r\n    //Approved Contracts\r\n    // mapping (uint32 => address) listOfLLC;\r\n\r\n\r\n\r\n    //Unbound Token Contracts\r\n    uDaiInterface private uDaiContract;\r\n    // stakingInterface private stakingContract;\r\n\r\n    // Modifiers\r\n    modifier onlyOwner() {\r\n        require(isOwner(), \"Ownable: caller is not the owner\");\r\n        _;\r\n    }\r\n\r\n    // Constructor\r\n    constructor (address eFundAddr, address devFundAddr, address uDai) public {\r\n        // stakingContract = stakingInterface(stakeAddr);\r\n        uDaiContract = uDaiInterface(uDai);\r\n\r\n        // Sets corresponding addresses\r\n        _owner = msg.sender;\r\n        // _stakeAddr = devFundAddr;\r\n        _eFundAddr = eFundAddr;\r\n        _devFundAddr = devFundAddr;\r\n        _uDaiAddr = uDai;\r\n        \r\n    }\r\n\r\n    // onlyOwner Functions\r\n\r\n    // This must be called\r\n    function splitFunds() public {\r\n        uint256 funds = uDaiContract.balanceOf(address(this));\r\n        require(funds > 0, \"Nothing to split\");\r\n\r\n        // to achieve 40/40/20, we will cut funds into fifths.\r\n        // This is hardcoded and cannot be altered. Would require rework to be able to change % distribution.\r\n        uint256 fifth = funds.div(5);\r\n\r\n        // sends 40%\r\n        uDaiContract.transfer(_stakeAddr, fifth.add(fifth));\r\n        uDaiContract.transfer(_eFundAddr, fifth.add(fifth));\r\n\r\n        // sends 20%\r\n        // This math is to ensure we do not accidentally create or destroy tokens out of thin air.\r\n        uDaiContract.transfer(_devFundAddr, funds.sub(fifth.mul(4)));\r\n\r\n    }\r\n\r\n\r\n    // Checks if sender is owner\r\n    function isOwner() public view returns (bool) {\r\n        return msg.sender == _owner;\r\n    }\r\n\r\n    // Changes owner\r\n    function setOwner(address _newOwner) public onlyOwner {\r\n        _owner = _newOwner;\r\n    }\r\n\r\n    // change stake Address\r\n    function changeStake(address _newAddr) public onlyOwner {\r\n        _stakeAddr = _newAddr;\r\n    }\r\n\r\n    // change devFund Address\r\n    function changeDev(address _newAddr) public onlyOwner {\r\n        _devFundAddr = _newAddr;\r\n    }\r\n\r\n    // change emergency Fund Address\r\n    function changeE(address _newAddr) public onlyOwner {\r\n        _eFundAddr = _newAddr;\r\n    }\r\n\r\n    // change uDai? Probably should not...\r\n}",
  "sourcePath": "C:/Users/sonic/Desktop/Unbound/contracts/distribution/feeSplitter.sol",
  "compiler": {
    "name": "solc",
    "version": "0.6.2+commit.bacdbe57.Emscripten.clang"
  },
  "schemaVersion": "3.2.3",
  "updatedAt": "2020-09-09T23:27:11.943Z",
  "networkType": "ethereum",
  "devdoc": {
    "methods": {}
  },
  "userdoc": {
    "methods": {}
  }
}