{
  "contractName": "GSNRecipientSignature",
  "abi": [
    {
      "inputs": [
        {
          "internalType": "address",
          "name": "trustedSigner",
          "type": "address"
        }
      ],
      "stateMutability": "nonpayable",
      "type": "constructor"
    },
    {
      "anonymous": false,
      "inputs": [
        {
          "indexed": true,
          "internalType": "address",
          "name": "oldRelayHub",
          "type": "address"
        },
        {
          "indexed": true,
          "internalType": "address",
          "name": "newRelayHub",
          "type": "address"
        }
      ],
      "name": "RelayHubChanged",
      "type": "event"
    },
    {
      "inputs": [],
      "name": "getHubAddr",
      "outputs": [
        {
          "internalType": "address",
          "name": "",
          "type": "address"
        }
      ],
      "stateMutability": "view",
      "type": "function"
    },
    {
      "inputs": [
        {
          "internalType": "bytes",
          "name": "context",
          "type": "bytes"
        },
        {
          "internalType": "bool",
          "name": "success",
          "type": "bool"
        },
        {
          "internalType": "uint256",
          "name": "actualCharge",
          "type": "uint256"
        },
        {
          "internalType": "bytes32",
          "name": "preRetVal",
          "type": "bytes32"
        }
      ],
      "name": "postRelayedCall",
      "outputs": [],
      "stateMutability": "nonpayable",
      "type": "function"
    },
    {
      "inputs": [
        {
          "internalType": "bytes",
          "name": "context",
          "type": "bytes"
        }
      ],
      "name": "preRelayedCall",
      "outputs": [
        {
          "internalType": "bytes32",
          "name": "",
          "type": "bytes32"
        }
      ],
      "stateMutability": "nonpayable",
      "type": "function"
    },
    {
      "inputs": [],
      "name": "relayHubVersion",
      "outputs": [
        {
          "internalType": "string",
          "name": "",
          "type": "string"
        }
      ],
      "stateMutability": "view",
      "type": "function"
    },
    {
      "inputs": [
        {
          "internalType": "address",
          "name": "relay",
          "type": "address"
        },
        {
          "internalType": "address",
          "name": "from",
          "type": "address"
        },
        {
          "internalType": "bytes",
          "name": "encodedFunction",
          "type": "bytes"
        },
        {
          "internalType": "uint256",
          "name": "transactionFee",
          "type": "uint256"
        },
        {
          "internalType": "uint256",
          "name": "gasPrice",
          "type": "uint256"
        },
        {
          "internalType": "uint256",
          "name": "gasLimit",
          "type": "uint256"
        },
        {
          "internalType": "uint256",
          "name": "nonce",
          "type": "uint256"
        },
        {
          "internalType": "bytes",
          "name": "approvalData",
          "type": "bytes"
        },
        {
          "internalType": "uint256",
          "name": "",
          "type": "uint256"
        }
      ],
      "name": "acceptRelayedCall",
      "outputs": [
        {
          "internalType": "uint256",
          "name": "",
          "type": "uint256"
        },
        {
          "internalType": "bytes",
          "name": "",
          "type": "bytes"
        }
      ],
      "stateMutability": "view",
      "type": "function"
    }
  ],
  "bytecode": "0x6080604052600080546001600160a01b03191673d216153c06e857cd7f72665e0af1d7d82172f49417905534801561003657600080fd5b50604051610abb380380610abb8339818101604052602081101561005957600080fd5b50516001600160a01b0381166100a05760405162461bcd60e51b8152600401808060200182810382526039815260200180610a826039913960400191505060405180910390fd5b600180546001600160a01b0319166001600160a01b03929092169190911790556109b3806100cf6000396000f3fe608060405234801561001057600080fd5b50600436106100575760003560e01c806374e861d61461005c57806380274db71461008057806383947ea014610136578063ad61ccd514610312578063e06e0e221461038f575b600080fd5b610064610442565b604080516001600160a01b039092168252519081900360200190f35b6101246004803603602081101561009657600080fd5b810190602081018135600160201b8111156100b057600080fd5b8201836020820111156100c257600080fd5b803590602001918460018302840111600160201b831117156100e357600080fd5b91908080601f016020809104026020016040519081016040528093929190818152602001838380828437600092019190915250929550610451945050505050565b60408051918252519081900360200190f35b610293600480360361012081101561014d57600080fd5b6001600160a01b038235811692602081013590911691810190606081016040820135600160201b81111561018057600080fd5b82018360208201111561019257600080fd5b803590602001918460018302840111600160201b831117156101b357600080fd5b91908080601f016020809104026020016040519081016040528093929190818152602001838380828437600092019190915250929584359560208601359560408101359550606081013594509192509060a081019060800135600160201b81111561021d57600080fd5b82018360208201111561022f57600080fd5b803590602001918460018302840111600160201b8311171561025057600080fd5b91908080601f01602080910402602001604051908101604052809392919081815260200183838082843760009201919091525092955050913592506104b9915050565b6040518083815260200180602001828103825283818151815260200191508051906020019080838360005b838110156102d65781810151838201526020016102be565b50505050905090810190601f1680156103035780820380516001836020036101000a031916815260200191505b50935050505060405180910390f35b61031a610612565b6040805160208082528351818301528351919283929083019185019080838360005b8381101561035457818101518382015260200161033c565b50505050905090810190601f1680156103815780820380516001836020036101000a031916815260200191505b509250505060405180910390f35b610440600480360360808110156103a557600080fd5b810190602081018135600160201b8111156103bf57600080fd5b8201836020820111156103d157600080fd5b803590602001918460018302840111600160201b831117156103f257600080fd5b91908080601f01602080910402602001604051908101604052809392919081815260200183838082843760009201919091525092955050505080351515915060208101359060400135610631565b005b6000546001600160a01b031690565b600061045b610442565b6001600160a01b0316336001600160a01b0316146104aa5760405162461bcd60e51b815260040180806020018281038252602481526020018061095a6024913960400191505060405180910390fd5b6104b382610696565b92915050565b60006060808b8b8b8b8b8b8b6104cd610442565b30604051602001808a6001600160a01b03166001600160a01b031660601b8152601401896001600160a01b03166001600160a01b031660601b815260140188805190602001908083835b602083106105365780518252601f199092019160209182019101610517565b51815160209384036101000a6000190180199092169116179052920198895250878101969096525060408087019490945260608087019390935290821b6bffffffffffffffffffffffff199081166080870152911b1660948401528051808403608801815260a890930190526001548251918301919091209195506001600160a01b031693506105d992508891506105cd9061069c565b9063ffffffff6106ed16565b6001600160a01b031614156105fa576105f06108d4565b9250925050610604565b6105f060006108f8565b995099975050505050505050565b6040805180820190915260058152640312e302e360dc1b602082015290565b610639610442565b6001600160a01b0316336001600160a01b0316146106885760405162461bcd60e51b815260040180806020018281038252602481526020018061095a6024913960400191505060405180910390fd5b610690848484845b50505050565b50600090565b604080517f19457468657265756d205369676e6564204d6573736167653a0a333200000000602080830191909152603c8083019490945282518083039094018452605c909101909152815191012090565b60008151604114610745576040805162461bcd60e51b815260206004820152601f60248201527f45434453413a20696e76616c6964207369676e6174757265206c656e67746800604482015290519081900360640190fd5b60208201516040830151606084015160001a7f7fffffffffffffffffffffffffffffff5d576e7357a4501ddfe92f46681b20a08211156107b65760405162461bcd60e51b81526004018080602001828103825260228152602001806109166022913960400191505060405180910390fd5b8060ff16601b141580156107ce57508060ff16601c14155b1561080a5760405162461bcd60e51b81526004018080602001828103825260228152602001806109386022913960400191505060405180910390fd5b60408051600080825260208083018085528a905260ff85168385015260608301879052608083018690529251909260019260a080820193601f1981019281900390910190855afa158015610862573d6000803e3d6000fd5b5050604051601f1901519150506001600160a01b0381166108ca576040805162461bcd60e51b815260206004820152601860248201527f45434453413a20696e76616c6964207369676e61747572650000000000000000604482015290519081900360640190fd5b9695505050505050565b600060606108f060405180602001604052806000815250610910565b915091509091565b604080516020810190915260008152600b9190910191565b60009156fe45434453413a20696e76616c6964207369676e6174757265202773272076616c756545434453413a20696e76616c6964207369676e6174757265202776272076616c756547534e526563697069656e743a2063616c6c6572206973206e6f742052656c6179487562a2646970667358221220246fea92a78c98fc532d54b3a24dd474bf2d4c505950ff61adc0715d412e5cc464736f6c6343000606003347534e526563697069656e745369676e61747572653a2074727573746564207369676e657220697320746865207a65726f2061646472657373",
  "immutableReferences": {},
  "source": "// SPDX-License-Identifier: MIT\r\n\r\npragma solidity ^0.6.0;\r\n\r\nimport \"./GSNRecipient.sol\";\r\nimport \"../cryptography/ECDSA.sol\";\r\n\r\n/**\r\n * @dev A xref:ROOT:gsn-strategies.adoc#gsn-strategies[GSN strategy] that allows relayed transactions through when they are\r\n * accompanied by the signature of a trusted signer. The intent is for this signature to be generated by a server that\r\n * performs validations off-chain. Note that nothing is charged to the user in this scheme. Thus, the server should make\r\n * sure to account for this in their economic and threat model.\r\n */\r\ncontract GSNRecipientSignature is GSNRecipient {\r\n    using ECDSA for bytes32;\r\n\r\n    address private _trustedSigner;\r\n\r\n    enum GSNRecipientSignatureErrorCodes {\r\n        INVALID_SIGNER\r\n    }\r\n\r\n    /**\r\n     * @dev Sets the trusted signer that is going to be producing signatures to approve relayed calls.\r\n     */\r\n    constructor(address trustedSigner) public {\r\n        require(trustedSigner != address(0), \"GSNRecipientSignature: trusted signer is the zero address\");\r\n        _trustedSigner = trustedSigner;\r\n    }\r\n\r\n    /**\r\n     * @dev Ensures that only transactions with a trusted signature can be relayed through the GSN.\r\n     */\r\n    function acceptRelayedCall(\r\n        address relay,\r\n        address from,\r\n        bytes memory encodedFunction,\r\n        uint256 transactionFee,\r\n        uint256 gasPrice,\r\n        uint256 gasLimit,\r\n        uint256 nonce,\r\n        bytes memory approvalData,\r\n        uint256\r\n    )\r\n        public\r\n        view\r\n        virtual\r\n        override\r\n        returns (uint256, bytes memory)\r\n    {\r\n        bytes memory blob = abi.encodePacked(\r\n            relay,\r\n            from,\r\n            encodedFunction,\r\n            transactionFee,\r\n            gasPrice,\r\n            gasLimit,\r\n            nonce, // Prevents replays on RelayHub\r\n            getHubAddr(), // Prevents replays in multiple RelayHubs\r\n            address(this) // Prevents replays in multiple recipients\r\n        );\r\n        if (keccak256(blob).toEthSignedMessageHash().recover(approvalData) == _trustedSigner) {\r\n            return _approveRelayedCall();\r\n        } else {\r\n            return _rejectRelayedCall(uint256(GSNRecipientSignatureErrorCodes.INVALID_SIGNER));\r\n        }\r\n    }\r\n\r\n    function _preRelayedCall(bytes memory) internal virtual override returns (bytes32) { }\r\n\r\n    function _postRelayedCall(bytes memory, bool, uint256, bytes32) internal virtual override { }\r\n}\r\n",
  "sourcePath": "C:/Users/sonic/Desktop/Unbound/contracts/openzeppelin/contracts/GSN/GSNRecipientSignature.sol",
  "compiler": {
    "name": "solc",
    "version": "0.6.6+commit.6c089d02.Emscripten.clang"
  },
  "schemaVersion": "3.2.3",
  "updatedAt": "2020-09-20T05:02:40.403Z",
  "devdoc": {
    "details": "A xref:ROOT:gsn-strategies.adoc#gsn-strategies[GSN strategy] that allows relayed transactions through when they are accompanied by the signature of a trusted signer. The intent is for this signature to be generated by a server that performs validations off-chain. Note that nothing is charged to the user in this scheme. Thus, the server should make sure to account for this in their economic and threat model.",
    "methods": {
      "acceptRelayedCall(address,address,bytes,uint256,uint256,uint256,uint256,bytes,uint256)": {
        "details": "Ensures that only transactions with a trusted signature can be relayed through the GSN."
      },
      "constructor": {
        "details": "Sets the trusted signer that is going to be producing signatures to approve relayed calls."
      },
      "getHubAddr()": {
        "details": "Returns the address of the {IRelayHub} contract for this recipient."
      },
      "postRelayedCall(bytes,bool,uint256,bytes32)": {
        "details": "See `IRelayRecipient.postRelayedCall`.      * This function should not be overridden directly, use `_postRelayedCall` instead.      * * Requirements:      * - the caller must be the `RelayHub` contract."
      },
      "preRelayedCall(bytes)": {
        "details": "See `IRelayRecipient.preRelayedCall`.      * This function should not be overridden directly, use `_preRelayedCall` instead.      * * Requirements:      * - the caller must be the `RelayHub` contract."
      },
      "relayHubVersion()": {
        "details": "Returns the version string of the {IRelayHub} for which this recipient implementation was built. If {_upgradeRelayHub} is used, the new {IRelayHub} instance should be compatible with this version."
      }
    }
  },
  "userdoc": {
    "methods": {}
  }
}