{
  "contractName": "LLC_EthDai",
  "abi": [
    {
      "inputs": [
        {
          "internalType": "address",
          "name": "valuingAddress",
          "type": "address"
        },
        {
          "internalType": "address",
          "name": "LPTaddress",
          "type": "address"
        },
        {
          "internalType": "address",
          "name": "stableCoin",
          "type": "address"
        }
      ],
      "stateMutability": "nonpayable",
      "type": "constructor"
    },
    {
      "inputs": [],
      "name": "_position",
      "outputs": [
        {
          "internalType": "uint8",
          "name": "",
          "type": "uint8"
        }
      ],
      "stateMutability": "view",
      "type": "function"
    },
    {
      "inputs": [
        {
          "internalType": "address",
          "name": "",
          "type": "address"
        }
      ],
      "name": "_tokensLocked",
      "outputs": [
        {
          "internalType": "uint256",
          "name": "",
          "type": "uint256"
        }
      ],
      "stateMutability": "view",
      "type": "function"
    },
    {
      "inputs": [],
      "name": "pair",
      "outputs": [
        {
          "internalType": "address",
          "name": "",
          "type": "address"
        }
      ],
      "stateMutability": "view",
      "type": "function"
    },
    {
      "inputs": [
        {
          "internalType": "uint256",
          "name": "LPTamt",
          "type": "uint256"
        },
        {
          "internalType": "address",
          "name": "uTokenAddr",
          "type": "address"
        },
        {
          "internalType": "uint256",
          "name": "deadline",
          "type": "uint256"
        },
        {
          "internalType": "uint8",
          "name": "v",
          "type": "uint8"
        },
        {
          "internalType": "bytes32",
          "name": "r",
          "type": "bytes32"
        },
        {
          "internalType": "bytes32",
          "name": "s",
          "type": "bytes32"
        }
      ],
      "name": "lockLPTWithPermit",
      "outputs": [],
      "stateMutability": "nonpayable",
      "type": "function"
    },
    {
      "inputs": [
        {
          "internalType": "uint256",
          "name": "LPTamt",
          "type": "uint256"
        },
        {
          "internalType": "address",
          "name": "uTokenAddr",
          "type": "address"
        }
      ],
      "name": "lockLPT",
      "outputs": [],
      "stateMutability": "nonpayable",
      "type": "function"
    },
    {
      "inputs": [
        {
          "internalType": "uint256",
          "name": "LPToken",
          "type": "uint256"
        },
        {
          "internalType": "address",
          "name": "uTokenAddr",
          "type": "address"
        }
      ],
      "name": "unlockLPT",
      "outputs": [],
      "stateMutability": "nonpayable",
      "type": "function"
    },
    {
      "inputs": [
        {
          "internalType": "address",
          "name": "_tokenAddr",
          "type": "address"
        },
        {
          "internalType": "address",
          "name": "to",
          "type": "address"
        }
      ],
      "name": "claimTokens",
      "outputs": [],
      "stateMutability": "nonpayable",
      "type": "function"
    },
    {
      "inputs": [],
      "name": "isOwner",
      "outputs": [
        {
          "internalType": "bool",
          "name": "",
          "type": "bool"
        }
      ],
      "stateMutability": "view",
      "type": "function"
    },
    {
      "inputs": [
        {
          "internalType": "address",
          "name": "_newOwner",
          "type": "address"
        }
      ],
      "name": "setOwner",
      "outputs": [],
      "stateMutability": "nonpayable",
      "type": "function"
    },
    {
      "inputs": [
        {
          "internalType": "address",
          "name": "_newValuing",
          "type": "address"
        }
      ],
      "name": "setValuingAddress",
      "outputs": [],
      "stateMutability": "nonpayable",
      "type": "function"
    }
  ],
  "bytecode": "0x60806040523480156200001157600080fd5b506040516200209b3803806200209b833981810160405260608110156200003757600080fd5b81019080805190602001909291908051906020019092919080519060200190929190505050336000806101000a81548173ffffffffffffffffffffffffffffffffffffffff021916908373ffffffffffffffffffffffffffffffffffffffff16021790555082600360016101000a81548173ffffffffffffffffffffffffffffffffffffffff021916908373ffffffffffffffffffffffffffffffffffffffff16021790555081600460006101000a81548173ffffffffffffffffffffffffffffffffffffffff021916908373ffffffffffffffffffffffffffffffffffffffff16021790555081600160006101000a81548173ffffffffffffffffffffffffffffffffffffffff021916908373ffffffffffffffffffffffffffffffffffffffff1602179055506000600460009054906101000a900473ffffffffffffffffffffffffffffffffffffffff1673ffffffffffffffffffffffffffffffffffffffff16630dfe16816040518163ffffffff1660e01b815260040160206040518083038186803b158015620001ca57600080fd5b505afa158015620001df573d6000803e3d6000fd5b505050506040513d6020811015620001f657600080fd5b810190808051906020019092919050505090506000600460009054906101000a900473ffffffffffffffffffffffffffffffffffffffff1673ffffffffffffffffffffffffffffffffffffffff1663d21220a76040518163ffffffff1660e01b815260040160206040518083038186803b1580156200027457600080fd5b505afa15801562000289573d6000803e3d6000fd5b505050506040513d6020811015620002a057600080fd5b810190808051906020019092919050505090508173ffffffffffffffffffffffffffffffffffffffff168373ffffffffffffffffffffffffffffffffffffffff1614806200031957508073ffffffffffffffffffffffffffffffffffffffff168373ffffffffffffffffffffffffffffffffffffffff16145b6200038c576040517f08c379a00000000000000000000000000000000000000000000000000000000081526004018080602001828103825260078152602001807f696e76616c69640000000000000000000000000000000000000000000000000081525060200191505060405180910390fd5b8173ffffffffffffffffffffffffffffffffffffffff168373ffffffffffffffffffffffffffffffffffffffff161415620003e3576000600360006101000a81548160ff021916908360ff16021790555062000436565b8073ffffffffffffffffffffffffffffffffffffffff168373ffffffffffffffffffffffffffffffffffffffff16141562000435576001600360006101000a81548160ff021916908360ff1602179055505b5b5050505050611c50806200044b6000396000f3fe608060405234801561001057600080fd5b506004361061009e5760003560e01c8063782086011161006657806378208601146102565780638f32d59b146102a4578063a025cd3f146102c6578063a8aa1b31146102ea578063ae51d676146103345761009e565b806304b7c7a4146100a357806304bb770d146100e757806308520a331461016057806313af4035146101ae57806369ffa08a146101f2575b600080fd5b6100e5600480360360208110156100b957600080fd5b81019080803573ffffffffffffffffffffffffffffffffffffffff16906020019092919050505061038c565b005b61015e600480360360c08110156100fd57600080fd5b8101908080359060200190929190803573ffffffffffffffffffffffffffffffffffffffff16906020019092919080359060200190929190803560ff169060200190929190803590602001909291908035906020019092919050505061044a565b005b6101ac6004803603604081101561017657600080fd5b8101908080359060200190929190803573ffffffffffffffffffffffffffffffffffffffff16906020019092919050505061091b565b005b6101f0600480360360208110156101c457600080fd5b81019080803573ffffffffffffffffffffffffffffffffffffffff169060200190929190505050610de3565b005b6102546004803603604081101561020857600080fd5b81019080803573ffffffffffffffffffffffffffffffffffffffff169060200190929190803573ffffffffffffffffffffffffffffffffffffffff169060200190929190505050610ea0565b005b6102a26004803603604081101561026c57600080fd5b8101908080359060200190929190803573ffffffffffffffffffffffffffffffffffffffff169060200190929190505050611162565b005b6102ac6114d1565b604051808215151515815260200191505060405180910390f35b6102ce611528565b604051808260ff1660ff16815260200191505060405180910390f35b6102f261153b565b604051808273ffffffffffffffffffffffffffffffffffffffff1673ffffffffffffffffffffffffffffffffffffffff16815260200191505060405180910390f35b6103766004803603602081101561034a57600080fd5b81019080803573ffffffffffffffffffffffffffffffffffffffff169060200190929190505050611561565b6040518082815260200191505060405180910390f35b6103946114d1565b610406576040517f08c379a00000000000000000000000000000000000000000000000000000000081526004018080602001828103825260208152602001807f4f776e61626c653a2063616c6c6572206973206e6f7420746865206f776e657281525060200191505060405180910390fd5b80600360016101000a81548173ffffffffffffffffffffffffffffffffffffffff021916908373ffffffffffffffffffffffffffffffffffffffff16021790555050565b85600460009054906101000a900473ffffffffffffffffffffffffffffffffffffffff1673ffffffffffffffffffffffffffffffffffffffff166370a08231336040518263ffffffff1660e01b8152600401808273ffffffffffffffffffffffffffffffffffffffff1673ffffffffffffffffffffffffffffffffffffffff16815260200191505060206040518083038186803b1580156104ea57600080fd5b505afa1580156104fe573d6000803e3d6000fd5b505050506040513d602081101561051457600080fd5b81019080805190602001909291905050501015610599576040517f08c379a00000000000000000000000000000000000000000000000000000000081526004018080602001828103825260168152602001807f696e73756666696369656e74204c69717569646974790000000000000000000081525060200191505060405180910390fd5b6000600460009054906101000a900473ffffffffffffffffffffffffffffffffffffffff1673ffffffffffffffffffffffffffffffffffffffff166318160ddd6040518163ffffffff1660e01b815260040160206040518083038186803b15801561060357600080fd5b505afa158015610617573d6000803e3d6000fd5b505050506040513d602081101561062d57600080fd5b81019080805190602001909291905050509050600080600460009054906101000a900473ffffffffffffffffffffffffffffffffffffffff1673ffffffffffffffffffffffffffffffffffffffff16630902f1ac6040518163ffffffff1660e01b815260040160606040518083038186803b1580156106ab57600080fd5b505afa1580156106bf573d6000803e3d6000fd5b505050506040513d60608110156106d557600080fd5b810190808051906020019092919080519060200190929190805190602001909291905050505091509150600080600360009054906101000a900460ff1660ff16141561073657600283026dffffffffffffffffffffffffffff16905061074d565b600282026dffffffffffffffffffffffffffff1690505b6000610774856107668d8561157990919063ffffffff16565b6115ff90919063ffffffff16565b9050610784338c8b8b8b8b611649565b6107d68b600260003373ffffffffffffffffffffffffffffffffffffffff1673ffffffffffffffffffffffffffffffffffffffff1681526020019081526020016000205461188590919063ffffffff16565b600260003373ffffffffffffffffffffffffffffffffffffffff1673ffffffffffffffffffffffffffffffffffffffff16815260200190815260200160002081905550600360019054906101000a900473ffffffffffffffffffffffffffffffffffffffff1673ffffffffffffffffffffffffffffffffffffffff166309caafc282338d6040518463ffffffff1660e01b8152600401808481526020018373ffffffffffffffffffffffffffffffffffffffff1673ffffffffffffffffffffffffffffffffffffffff1681526020018273ffffffffffffffffffffffffffffffffffffffff1673ffffffffffffffffffffffffffffffffffffffff1681526020019350505050600060405180830381600087803b1580156108f657600080fd5b505af115801561090a573d6000803e3d6000fd5b505050505050505050505050505050565b81600460009054906101000a900473ffffffffffffffffffffffffffffffffffffffff1673ffffffffffffffffffffffffffffffffffffffff166370a08231336040518263ffffffff1660e01b8152600401808273ffffffffffffffffffffffffffffffffffffffff1673ffffffffffffffffffffffffffffffffffffffff16815260200191505060206040518083038186803b1580156109bb57600080fd5b505afa1580156109cf573d6000803e3d6000fd5b505050506040513d60208110156109e557600080fd5b81019080805190602001909291905050501015610a6a576040517f08c379a00000000000000000000000000000000000000000000000000000000081526004018080602001828103825260168152602001807f696e73756666696369656e74204c69717569646974790000000000000000000081525060200191505060405180910390fd5b6000600460009054906101000a900473ffffffffffffffffffffffffffffffffffffffff1673ffffffffffffffffffffffffffffffffffffffff166318160ddd6040518163ffffffff1660e01b815260040160206040518083038186803b158015610ad457600080fd5b505afa158015610ae8573d6000803e3d6000fd5b505050506040513d6020811015610afe57600080fd5b81019080805190602001909291905050509050600080600460009054906101000a900473ffffffffffffffffffffffffffffffffffffffff1673ffffffffffffffffffffffffffffffffffffffff16630902f1ac6040518163ffffffff1660e01b815260040160606040518083038186803b158015610b7c57600080fd5b505afa158015610b90573d6000803e3d6000fd5b505050506040513d6060811015610ba657600080fd5b810190808051906020019092919080519060200190929190805190602001909291905050505091509150600080600360009054906101000a900460ff1660ff161415610c0757600283026dffffffffffffffffffffffffffff169050610c1e565b600282026dffffffffffffffffffffffffffff1690505b6000610c4585610c37898561157990919063ffffffff16565b6115ff90919063ffffffff16565b9050610c508761190d565b610ca287600260003373ffffffffffffffffffffffffffffffffffffffff1673ffffffffffffffffffffffffffffffffffffffff1681526020019081526020016000205461188590919063ffffffff16565b600260003373ffffffffffffffffffffffffffffffffffffffff1673ffffffffffffffffffffffffffffffffffffffff16815260200190815260200160002081905550600360019054906101000a900473ffffffffffffffffffffffffffffffffffffffff1673ffffffffffffffffffffffffffffffffffffffff166309caafc28233896040518463ffffffff1660e01b8152600401808481526020018373ffffffffffffffffffffffffffffffffffffffff1673ffffffffffffffffffffffffffffffffffffffff1681526020018273ffffffffffffffffffffffffffffffffffffffff1673ffffffffffffffffffffffffffffffffffffffff1681526020019350505050600060405180830381600087803b158015610dc257600080fd5b505af1158015610dd6573d6000803e3d6000fd5b5050505050505050505050565b610deb6114d1565b610e5d576040517f08c379a00000000000000000000000000000000000000000000000000000000081526004018080602001828103825260208152602001807f4f776e61626c653a2063616c6c6572206973206e6f7420746865206f776e657281525060200191505060405180910390fd5b806000806101000a81548173ffffffffffffffffffffffffffffffffffffffff021916908373ffffffffffffffffffffffffffffffffffffffff16021790555050565b610ea86114d1565b610f1a576040517f08c379a00000000000000000000000000000000000000000000000000000000081526004018080602001828103825260208152602001807f4f776e61626c653a2063616c6c6572206973206e6f7420746865206f776e657281525060200191505060405180910390fd5b600160009054906101000a900473ffffffffffffffffffffffffffffffffffffffff1673ffffffffffffffffffffffffffffffffffffffff168273ffffffffffffffffffffffffffffffffffffffff161415610fde576040517f08c379a00000000000000000000000000000000000000000000000000000000081526004018080602001828103825260158152602001807f43616e6e6f74206d6f7665204c5020746f6b656e73000000000000000000000081525060200191505060405180910390fd5b60008273ffffffffffffffffffffffffffffffffffffffff166370a08231306040518263ffffffff1660e01b8152600401808273ffffffffffffffffffffffffffffffffffffffff1673ffffffffffffffffffffffffffffffffffffffff16815260200191505060206040518083038186803b15801561105d57600080fd5b505afa158015611071573d6000803e3d6000fd5b505050506040513d602081101561108757600080fd5b810190808051906020019092919050505090508273ffffffffffffffffffffffffffffffffffffffff1663a9059cbb83836040518363ffffffff1660e01b8152600401808373ffffffffffffffffffffffffffffffffffffffff1673ffffffffffffffffffffffffffffffffffffffff16815260200182815260200192505050602060405180830381600087803b15801561112157600080fd5b505af1158015611135573d6000803e3d6000fd5b505050506040513d602081101561114b57600080fd5b810190808051906020019092919050505050505050565b81600260003373ffffffffffffffffffffffffffffffffffffffff1673ffffffffffffffffffffffffffffffffffffffff168152602001908152602001600020541015611217576040517f08c379a000000000000000000000000000000000000000000000000000000000815260040180806020018281038252601d8152602001807f496e73756666696369656e74206c6971756964697479206c6f636b656400000081525060200191505060405180910390fd5b600360019054906101000a900473ffffffffffffffffffffffffffffffffffffffff1673ffffffffffffffffffffffffffffffffffffffff1663613d1bb583600260003373ffffffffffffffffffffffffffffffffffffffff1673ffffffffffffffffffffffffffffffffffffffff1681526020019081526020016000205433856040518563ffffffff1660e01b8152600401808581526020018481526020018373ffffffffffffffffffffffffffffffffffffffff1673ffffffffffffffffffffffffffffffffffffffff1681526020018273ffffffffffffffffffffffffffffffffffffffff1673ffffffffffffffffffffffffffffffffffffffff168152602001945050505050600060405180830381600087803b15801561133b57600080fd5b505af115801561134f573d6000803e3d6000fd5b50505050600460009054906101000a900473ffffffffffffffffffffffffffffffffffffffff1673ffffffffffffffffffffffffffffffffffffffff1663a9059cbb33846040518363ffffffff1660e01b8152600401808373ffffffffffffffffffffffffffffffffffffffff1673ffffffffffffffffffffffffffffffffffffffff16815260200182815260200192505050602060405180830381600087803b1580156113fc57600080fd5b505af1158015611410573d6000803e3d6000fd5b505050506040513d602081101561142657600080fd5b81019080805190602001909291905050505061148a82600260003373ffffffffffffffffffffffffffffffffffffffff1673ffffffffffffffffffffffffffffffffffffffff16815260200190815260200160002054611a2990919063ffffffff16565b600260003373ffffffffffffffffffffffffffffffffffffffff1673ffffffffffffffffffffffffffffffffffffffff168152602001908152602001600020819055505050565b60008060009054906101000a900473ffffffffffffffffffffffffffffffffffffffff1673ffffffffffffffffffffffffffffffffffffffff163373ffffffffffffffffffffffffffffffffffffffff1614905090565b600360009054906101000a900460ff1681565b600160009054906101000a900473ffffffffffffffffffffffffffffffffffffffff1681565b60026020528060005260406000206000915090505481565b60008083141561158c57600090506115f9565b600082840290508284828161159d57fe5b04146115f4576040517f08c379a0000000000000000000000000000000000000000000000000000000008152600401808060200182810382526021815260200180611bfa6021913960400191505060405180910390fd5b809150505b92915050565b600061164183836040518060400160405280601a81526020017f536166654d6174683a206469766973696f6e206279207a65726f000000000000815250611a73565b905092915050565b600460009054906101000a900473ffffffffffffffffffffffffffffffffffffffff1673ffffffffffffffffffffffffffffffffffffffff1663d505accf873088888888886040518863ffffffff1660e01b8152600401808873ffffffffffffffffffffffffffffffffffffffff1673ffffffffffffffffffffffffffffffffffffffff1681526020018773ffffffffffffffffffffffffffffffffffffffff1673ffffffffffffffffffffffffffffffffffffffff1681526020018681526020018581526020018460ff1660ff168152602001838152602001828152602001975050505050505050600060405180830381600087803b15801561174c57600080fd5b505af1158015611760573d6000803e3d6000fd5b50505050600460009054906101000a900473ffffffffffffffffffffffffffffffffffffffff1673ffffffffffffffffffffffffffffffffffffffff166323b872dd3330886040518463ffffffff1660e01b8152600401808473ffffffffffffffffffffffffffffffffffffffff1673ffffffffffffffffffffffffffffffffffffffff1681526020018373ffffffffffffffffffffffffffffffffffffffff1673ffffffffffffffffffffffffffffffffffffffff1681526020018281526020019350505050602060405180830381600087803b15801561184157600080fd5b505af1158015611855573d6000803e3d6000fd5b505050506040513d602081101561186b57600080fd5b810190808051906020019092919050505050505050505050565b600080828401905083811015611903576040517f08c379a000000000000000000000000000000000000000000000000000000000815260040180806020018281038252601b8152602001807f536166654d6174683a206164646974696f6e206f766572666c6f77000000000081525060200191505060405180910390fd5b8091505092915050565b600460009054906101000a900473ffffffffffffffffffffffffffffffffffffffff1673ffffffffffffffffffffffffffffffffffffffff166323b872dd3330846040518463ffffffff1660e01b8152600401808473ffffffffffffffffffffffffffffffffffffffff1673ffffffffffffffffffffffffffffffffffffffff1681526020018373ffffffffffffffffffffffffffffffffffffffff1673ffffffffffffffffffffffffffffffffffffffff1681526020018281526020019350505050602060405180830381600087803b1580156119ea57600080fd5b505af11580156119fe573d6000803e3d6000fd5b505050506040513d6020811015611a1457600080fd5b81019080805190602001909291905050505050565b6000611a6b83836040518060400160405280601e81526020017f536166654d6174683a207375627472616374696f6e206f766572666c6f770000815250611b39565b905092915050565b60008083118290611b1f576040517f08c379a00000000000000000000000000000000000000000000000000000000081526004018080602001828103825283818151815260200191508051906020019080838360005b83811015611ae4578082015181840152602081019050611ac9565b50505050905090810190601f168015611b115780820380516001836020036101000a031916815260200191505b509250505060405180910390fd5b506000838581611b2b57fe5b049050809150509392505050565b6000838311158290611be6576040517f08c379a00000000000000000000000000000000000000000000000000000000081526004018080602001828103825283818151815260200191508051906020019080838360005b83811015611bab578082015181840152602081019050611b90565b50505050905090810190601f168015611bd85780820380516001836020036101000a031916815260200191505b509250505060405180910390fd5b506000838503905080915050939250505056fe536166654d6174683a206d756c7469706c69636174696f6e206f766572666c6f77a26469706673582212205dda60aa2e16e32385a39f7769261c85a6c0f40241ec41377d2d463f5b83ac9f64736f6c63430006060033",
  "immutableReferences": {},
  "source": "pragma solidity >=0.4.23 <0.8.0;\r\n// SPDX-License-Identifier: MIT\r\n\r\nimport \"@openzeppelin/contracts/math/SafeMath.sol\";\r\nimport \"@openzeppelin/contracts/utils/Address.sol\";\r\n\r\ninterface erc20Template {\r\n    function transfer(address to, uint value) external returns (bool);\r\n    function balanceOf(address owner) external view returns (uint);\r\n}\r\n\r\ninterface valuingInterface {\r\n    function unboundCreate(uint256 amount, address user, address token) external;\r\n    function unboundRemove(uint256 toUnlock, uint256 totalLocked, address user, address token) external;\r\n    \r\n}\r\n\r\ninterface liquidityPoolToken {\r\n    function totalSupply() external view returns (uint);\r\n    function balanceOf(address owner) external view returns (uint);\r\n    \r\n    function transfer(address to, uint value) external returns (bool);\r\n    function transferFrom(address from, address to, uint value) external returns (bool);\r\n\r\n    function DOMAIN_SEPARATOR() external view returns (bytes32);\r\n    function PERMIT_TYPEHASH() external pure returns (bytes32);\r\n    function nonces(address owner) external view returns (uint);\r\n\r\n    function permit(address owner, address spender, uint value, uint deadline, uint8 v, bytes32 r, bytes32 s) external;\r\n\r\n    function factory() external view returns (address); // needed?\r\n    function token0() external view returns (address);\r\n    function token1() external view returns (address);\r\n    function getReserves() external view returns (uint112 reserve0, uint112 reserve1, uint32 blockTimestampLast);\r\n    function price0CumulativeLast() external view returns (uint);\r\n    function price1CumulativeLast() external view returns (uint);\r\n    function kLast() external view returns (uint);\r\n}\r\n\r\n// Liquidity Lock Contract for ETH/DAI pair\r\ncontract LLC_EthDai {\r\n    using SafeMath for uint256;\r\n    using Address for address;\r\n\r\n    //Owner Address\r\n    address _owner;\r\n\r\n    // LPT address\r\n    address public pair;\r\n\r\n    // tokens locked by users\r\n    mapping (address => uint256) public _tokensLocked;\r\n\r\n    // token position of Stablecoin\r\n    uint8 public _position;\r\n\r\n    // Interfaced Contracts\r\n    valuingInterface private valuingContract;\r\n    liquidityPoolToken private LPTContract;\r\n\r\n    // Modifiers\r\n    modifier onlyOwner() {\r\n        require(isOwner(), \"Ownable: caller is not the owner\");\r\n        _;\r\n    }\r\n\r\n    // Constructor\r\n    constructor (address valuingAddress, address LPTaddress, address stableCoin) public {\r\n        _owner = msg.sender;\r\n        \r\n        valuingContract = valuingInterface(valuingAddress);\r\n        LPTContract = liquidityPoolToken(LPTaddress);\r\n        pair = LPTaddress;\r\n\r\n        address toke0 = LPTContract.token0();\r\n        address toke1 = LPTContract.token1();\r\n\r\n        require (stableCoin == toke0 || stableCoin == toke1, \"invalid\");\r\n        if (stableCoin == toke0) {\r\n            _position = 0;\r\n        } else if (stableCoin == toke1) {\r\n            _position = 1;\r\n        }\r\n\r\n        // Set Position of Stablecoin\r\n        //\r\n        // require(position == 0 || position == 1, \"invalid\");\r\n        // _position = position;\r\n    }\r\n\r\n    // Lock/Unlock functions\r\n    // Mint path\r\n    // tokenNum must be 0 (for now)\r\n    function lockLPTWithPermit (uint256 LPTamt, address uTokenAddr, uint deadline, uint8 v, bytes32 r, bytes32 s) public {\r\n        require(LPTContract.balanceOf(msg.sender) >= LPTamt, \"insufficient Liquidity\");\r\n        uint256 totalLPTokens = LPTContract.totalSupply();\r\n\r\n        (uint112 _token0, uint112 _token1, ) = LPTContract.getReserves();\r\n\r\n        // call Oracle\r\n        uint256 totalUSD;\r\n        if (_position == 0) {\r\n            totalUSD = _token0 * 2; // pricing();\r\n        } else {\r\n            totalUSD = _token1 * 2;\r\n        }\r\n        \r\n        // This should compute % value of Liq pool in Dai. Cannot have decimals in Solidity\r\n        uint256 LPTValueInDai = totalUSD.mul(LPTamt).div(totalLPTokens);  \r\n\r\n        // call Permit and Transfer\r\n\r\n        transferLPTPermit(msg.sender, LPTamt, deadline, v, r, s);\r\n        \r\n        // map locked tokens to user address\r\n        _tokensLocked[msg.sender] = _tokensLocked[msg.sender].add(LPTamt);\r\n\r\n        // Call Valuing Contract\r\n        valuingContract.unboundCreate(LPTValueInDai, msg.sender, uTokenAddr); // Hardcode \"0\" for AAA rating\r\n        \r\n    }\r\n\r\n    // Requires approval first\r\n    function lockLPT (uint256 LPTamt, address uTokenAddr) public {\r\n        require(LPTContract.balanceOf(msg.sender) >= LPTamt, \"insufficient Liquidity\");\r\n        uint256 totalLPTokens = LPTContract.totalSupply();\r\n        \r\n        (uint112 _token0, uint112 _token1, ) = LPTContract.getReserves();\r\n\r\n        uint256 totalUSD;\r\n        if (_position == 0) {\r\n            totalUSD = _token0 * 2; // pricing();\r\n        } else {\r\n            totalUSD = _token1 * 2;\r\n        }\r\n\r\n        // This should compute % value of Liq pool in Dai. Cannot have decimals in Solidity\r\n        uint256 LPTValueInDai = totalUSD.mul(LPTamt).div(totalLPTokens);  \r\n\r\n        transferLPT(LPTamt);\r\n        \r\n        // map locked tokens to user\r\n        _tokensLocked[msg.sender] = _tokensLocked[msg.sender].add(LPTamt);\r\n\r\n        // Call Valuing Contract\r\n        valuingContract.unboundCreate(LPTValueInDai, msg.sender, uTokenAddr); // Hardcode \"0\" for AAA rating\r\n        \r\n    }\r\n\r\n    function transferLPT(uint256 amount) internal {\r\n        LPTContract.transferFrom(msg.sender, address(this), amount);\r\n        \r\n    }\r\n\r\n    function transferLPTPermit(address user, uint256 amount, uint deadline, uint8 v, bytes32 r, bytes32 s) internal {\r\n        LPTContract.permit(user, address(this), amount, deadline, v, r, s);\r\n        LPTContract.transferFrom(msg.sender, address(this), amount);\r\n        \r\n    }\r\n\r\n    // Burn Path\r\n\r\n    // tokenNum must be 0\r\n    function unlockLPT (uint256 LPToken, address uTokenAddr) public {\r\n        require (_tokensLocked[msg.sender] >= LPToken, \"Insufficient liquidity locked\");\r\n\r\n        // Burning of Udai will happen first\r\n        valuingContract.unboundRemove(LPToken, _tokensLocked[msg.sender], msg.sender, uTokenAddr);\r\n        \r\n        LPTContract.transfer(msg.sender, LPToken);\r\n        _tokensLocked[msg.sender] = _tokensLocked[msg.sender].sub(LPToken);\r\n        \r\n    }\r\n\r\n    // onlyOwner Functions\r\n\r\n    // Claim - remove any airdropped tokens\r\n    // currently sends all tokens back\r\n    // ---- TEST THIS ---------\r\n    function claimTokens(address _tokenAddr, address to) public onlyOwner {\r\n        require(_tokenAddr != pair, \"Cannot move LP tokens\");\r\n        uint256 tokenBal = erc20Template(_tokenAddr).balanceOf(address(this));\r\n        erc20Template(_tokenAddr).transfer(to, tokenBal);\r\n    }\r\n\r\n    // Checks if sender is owner\r\n    function isOwner() public view returns (bool) {\r\n        return msg.sender == _owner;\r\n    }\r\n\r\n    // Changes owner\r\n    function setOwner(address _newOwner) public onlyOwner {\r\n        _owner = _newOwner;\r\n    }\r\n\r\n    // Sets new Valuing Address\r\n    function setValuingAddress (address _newValuing) public onlyOwner {\r\n        valuingContract = valuingInterface(_newValuing);\r\n    }\r\n}",
  "sourcePath": "C:/Users/sonic/Desktop/Unbound/contracts/LiquidityLockContracts/LLC_EthDai.sol",
  "compiler": {
    "name": "solc",
    "version": "0.6.6+commit.6c089d02.Emscripten.clang"
  },
  "schemaVersion": "3.2.3",
  "updatedAt": "2020-09-20T04:51:24.559Z",
  "devdoc": {
    "methods": {}
  },
  "userdoc": {
    "methods": {}
  }
}