{
  "contractName": "LLC_EthDai",
  "abi": [
    {
      "inputs": [
        {
          "internalType": "address",
          "name": "valuingAddress",
          "type": "address"
        },
        {
          "internalType": "address",
          "name": "LPTaddress",
          "type": "address"
        },
        {
          "internalType": "uint8",
          "name": "position",
          "type": "uint8"
        }
      ],
      "stateMutability": "nonpayable",
      "type": "constructor"
    },
    {
      "inputs": [],
      "name": "PERIOD",
      "outputs": [
        {
          "internalType": "uint256",
          "name": "",
          "type": "uint256"
        }
      ],
      "stateMutability": "view",
      "type": "function",
      "constant": true
    },
    {
      "inputs": [
        {
          "internalType": "address",
          "name": "",
          "type": "address"
        }
      ],
      "name": "_tokensLocked",
      "outputs": [
        {
          "internalType": "uint256",
          "name": "",
          "type": "uint256"
        }
      ],
      "stateMutability": "view",
      "type": "function",
      "constant": true
    },
    {
      "inputs": [],
      "name": "blockTimestampLast",
      "outputs": [
        {
          "internalType": "uint32",
          "name": "",
          "type": "uint32"
        }
      ],
      "stateMutability": "view",
      "type": "function",
      "constant": true
    },
    {
      "inputs": [],
      "name": "price0Average",
      "outputs": [
        {
          "internalType": "uint224",
          "name": "_x",
          "type": "uint224"
        }
      ],
      "stateMutability": "view",
      "type": "function",
      "constant": true
    },
    {
      "inputs": [],
      "name": "price0CumulativeLast",
      "outputs": [
        {
          "internalType": "uint256",
          "name": "",
          "type": "uint256"
        }
      ],
      "stateMutability": "view",
      "type": "function",
      "constant": true
    },
    {
      "inputs": [],
      "name": "price1Average",
      "outputs": [
        {
          "internalType": "uint224",
          "name": "_x",
          "type": "uint224"
        }
      ],
      "stateMutability": "view",
      "type": "function",
      "constant": true
    },
    {
      "inputs": [],
      "name": "price1CumulativeLast",
      "outputs": [
        {
          "internalType": "uint256",
          "name": "",
          "type": "uint256"
        }
      ],
      "stateMutability": "view",
      "type": "function",
      "constant": true
    },
    {
      "inputs": [
        {
          "internalType": "uint256",
          "name": "LPTamt",
          "type": "uint256"
        },
        {
          "internalType": "address",
          "name": "uTokenAddr",
          "type": "address"
        },
        {
          "internalType": "uint8",
          "name": "v",
          "type": "uint8"
        },
        {
          "internalType": "bytes32",
          "name": "r",
          "type": "bytes32"
        },
        {
          "internalType": "bytes32",
          "name": "s",
          "type": "bytes32"
        }
      ],
      "name": "lockLPT",
      "outputs": [],
      "stateMutability": "nonpayable",
      "type": "function"
    },
    {
      "inputs": [
        {
          "internalType": "uint256",
          "name": "LPTamt",
          "type": "uint256"
        },
        {
          "internalType": "address",
          "name": "uTokenAddr",
          "type": "address"
        }
      ],
      "name": "lockLPT1",
      "outputs": [],
      "stateMutability": "nonpayable",
      "type": "function"
    },
    {
      "inputs": [
        {
          "internalType": "uint256",
          "name": "LPToken",
          "type": "uint256"
        },
        {
          "internalType": "address",
          "name": "uTokenAddr",
          "type": "address"
        }
      ],
      "name": "unlockLPT",
      "outputs": [],
      "stateMutability": "nonpayable",
      "type": "function"
    },
    {
      "inputs": [],
      "name": "isOwner",
      "outputs": [
        {
          "internalType": "bool",
          "name": "",
          "type": "bool"
        }
      ],
      "stateMutability": "view",
      "type": "function",
      "constant": true
    },
    {
      "inputs": [
        {
          "internalType": "address",
          "name": "_newOwner",
          "type": "address"
        }
      ],
      "name": "setOwner",
      "outputs": [],
      "stateMutability": "nonpayable",
      "type": "function"
    },
    {
      "inputs": [
        {
          "internalType": "address",
          "name": "_newValuing",
          "type": "address"
        }
      ],
      "name": "setValuingAddress",
      "outputs": [],
      "stateMutability": "nonpayable",
      "type": "function"
    }
  ],
  "bytecode": "0x60806040523480156200001157600080fd5b506040516200294238038062002942833981810160405260608110156200003757600080fd5b81019080805190602001909291908051906020019092919080519060200190929190505050336000806101000a81548173ffffffffffffffffffffffffffffffffffffffff021916908373ffffffffffffffffffffffffffffffffffffffff16021790555082600860016101000a81548173ffffffffffffffffffffffffffffffffffffffff021916908373ffffffffffffffffffffffffffffffffffffffff16021790555081600960006101000a81548173ffffffffffffffffffffffffffffffffffffffff021916908373ffffffffffffffffffffffffffffffffffffffff16021790555081600160006101000a81548173ffffffffffffffffffffffffffffffffffffffff021916908373ffffffffffffffffffffffffffffffffffffffff16021790555060008160ff16148062000175575060018160ff16145b620001e8576040517f08c379a00000000000000000000000000000000000000000000000000000000081526004018080602001828103825260078152602001807f696e76616c69640000000000000000000000000000000000000000000000000081525060200191505060405180910390fd5b80600860006101000a81548160ff021916908360ff160217905550600960009054906101000a900473ffffffffffffffffffffffffffffffffffffffff1673ffffffffffffffffffffffffffffffffffffffff16635909c0d56040518163ffffffff1660e01b815260040160206040518083038186803b1580156200026c57600080fd5b505afa15801562000281573d6000803e3d6000fd5b505050506040513d60208110156200029857600080fd5b8101908080519060200190929190505050600281905550600960009054906101000a900473ffffffffffffffffffffffffffffffffffffffff1673ffffffffffffffffffffffffffffffffffffffff16635a3d54936040518163ffffffff1660e01b815260040160206040518083038186803b1580156200031857600080fd5b505afa1580156200032d573d6000803e3d6000fd5b505050506040513d60208110156200034457600080fd5b8101908080519060200190929190505050600381905550600080600960009054906101000a900473ffffffffffffffffffffffffffffffffffffffff1673ffffffffffffffffffffffffffffffffffffffff16630902f1ac6040518163ffffffff1660e01b815260040160606040518083038186803b158015620003c757600080fd5b505afa158015620003dc573d6000803e3d6000fd5b505050506040513d6060811015620003f357600080fd5b81019080805190602001909291908051906020019092919080519060200190929190505050600460008291906101000a81548163ffffffff021916908363ffffffff16021790555081935082945050505050505050506124e980620004596000396000f3fe608060405234801561001057600080fd5b50600436106100cf5760003560e01c8063782086011161008c578063a6bb453911610066578063a6bb45391461031f578063ae51d67614610379578063b4d1d795146103d1578063c5700a02146103ef576100cf565b806378208601146102615780638f32d59b146102af578063942350bb146102d1576100cf565b806304b7c7a4146100d457806313af4035146101185780635909c0d51461015c5780635a3d54931461017a5780635e6aaf2c14610198578063740cf93f146101f2575b600080fd5b610116600480360360208110156100ea57600080fd5b81019080803573ffffffffffffffffffffffffffffffffffffffff169060200190929190505050610419565b005b61015a6004803603602081101561012e57600080fd5b81019080803573ffffffffffffffffffffffffffffffffffffffff1690602001909291905050506104d7565b005b610164610594565b6040518082815260200191505060405180910390f35b61018261059a565b6040518082815260200191505060405180910390f35b6101a06105a0565b60405180827bffffffffffffffffffffffffffffffffffffffffffffffffffffffff167bffffffffffffffffffffffffffffffffffffffffffffffffffffffff16815260200191505060405180910390f35b61025f600480360360a081101561020857600080fd5b8101908080359060200190929190803573ffffffffffffffffffffffffffffffffffffffff169060200190929190803560ff16906020019092919080359060200190929190803590602001909291905050506105d4565b005b6102ad6004803603604081101561027757600080fd5b8101908080359060200190929190803573ffffffffffffffffffffffffffffffffffffffff169060200190929190505050610c5b565b005b6102b7610fca565b604051808215151515815260200191505060405180910390f35b61031d600480360360408110156102e757600080fd5b8101908080359060200190929190803573ffffffffffffffffffffffffffffffffffffffff169060200190929190505050611021565b005b610327611686565b60405180827bffffffffffffffffffffffffffffffffffffffffffffffffffffffff167bffffffffffffffffffffffffffffffffffffffffffffffffffffffff16815260200191505060405180910390f35b6103bb6004803603602081101561038f57600080fd5b81019080803573ffffffffffffffffffffffffffffffffffffffff1690602001909291905050506116ba565b6040518082815260200191505060405180910390f35b6103d96116d2565b6040518082815260200191505060405180910390f35b6103f76116d7565b604051808263ffffffff1663ffffffff16815260200191505060405180910390f35b610421610fca565b610493576040517f08c379a00000000000000000000000000000000000000000000000000000000081526004018080602001828103825260208152602001807f4f776e61626c653a2063616c6c6572206973206e6f7420746865206f776e657281525060200191505060405180910390fd5b80600860016101000a81548173ffffffffffffffffffffffffffffffffffffffff021916908373ffffffffffffffffffffffffffffffffffffffff16021790555050565b6104df610fca565b610551576040517f08c379a00000000000000000000000000000000000000000000000000000000081526004018080602001828103825260208152602001807f4f776e61626c653a2063616c6c6572206973206e6f7420746865206f776e657281525060200191505060405180910390fd5b806000806101000a81548173ffffffffffffffffffffffffffffffffffffffff021916908373ffffffffffffffffffffffffffffffffffffffff16021790555050565b60025481565b60035481565b60068060000160009054906101000a90047bffffffffffffffffffffffffffffffffffffffffffffffffffffffff16905081565b84600960009054906101000a900473ffffffffffffffffffffffffffffffffffffffff1673ffffffffffffffffffffffffffffffffffffffff166370a08231336040518263ffffffff1660e01b8152600401808273ffffffffffffffffffffffffffffffffffffffff1673ffffffffffffffffffffffffffffffffffffffff16815260200191505060206040518083038186803b15801561067457600080fd5b505afa158015610688573d6000803e3d6000fd5b505050506040513d602081101561069e57600080fd5b81019080805190602001909291905050501015610723576040517f08c379a00000000000000000000000000000000000000000000000000000000081526004018080602001828103825260168152602001807f696e73756666696369656e74204c69717569646974790000000000000000000081525060200191505060405180910390fd5b6000600960009054906101000a900473ffffffffffffffffffffffffffffffffffffffff1673ffffffffffffffffffffffffffffffffffffffff166318160ddd6040518163ffffffff1660e01b815260040160206040518083038186803b15801561078d57600080fd5b505afa1580156107a1573d6000803e3d6000fd5b505050506040513d60208110156107b757600080fd5b810190808051906020019092919050505090506000806000600960009054906101000a900473ffffffffffffffffffffffffffffffffffffffff1673ffffffffffffffffffffffffffffffffffffffff16630902f1ac6040518163ffffffff1660e01b815260040160606040518083038186803b15801561083757600080fd5b505afa15801561084b573d6000803e3d6000fd5b505050506040513d606081101561086157600080fd5b81019080805190602001909291908051906020019092919080519060200190929190505050925092509250603c600460009054906101000a900463ffffffff16820363ffffffff16106108b7576108b66116ed565b5b600080600860009054906101000a900460ff1660ff1614156109a557610978610973846dffffffffffffffffffffffffffff1660066040518060200160405290816000820160009054906101000a90047bffffffffffffffffffffffffffffffffffffffffffffffffffffffff167bffffffffffffffffffffffffffffffffffffffffffffffffffffffff167bffffffffffffffffffffffffffffffffffffffffffffffffffffffff168152505061190990919063ffffffff16565b6119df565b846dffffffffffffffffffffffffffff160171ffffffffffffffffffffffffffffffffffff169050610a73565b610a4a610a45856dffffffffffffffffffffffffffff1660056040518060200160405290816000820160009054906101000a90047bffffffffffffffffffffffffffffffffffffffffffffffffffffffff167bffffffffffffffffffffffffffffffffffffffffffffffffffffffff167bffffffffffffffffffffffffffffffffffffffffffffffffffffffff168152505061190990919063ffffffff16565b6119df565b836dffffffffffffffffffffffffffff160171ffffffffffffffffffffffffffffffffffff1690505b6000610a9a86610a8c8d856119f490919063ffffffff16565b611a7a90919063ffffffff16565b90506000610ab361025842611ac490919063ffffffff16565b9050610ac3338d838d8d8d611b4c565b610b158c600760003373ffffffffffffffffffffffffffffffffffffffff1673ffffffffffffffffffffffffffffffffffffffff16815260200190815260200160002054611ac490919063ffffffff16565b600760003373ffffffffffffffffffffffffffffffffffffffff1673ffffffffffffffffffffffffffffffffffffffff16815260200190815260200160002081905550600860019054906101000a900473ffffffffffffffffffffffffffffffffffffffff1673ffffffffffffffffffffffffffffffffffffffff166309caafc283338e6040518463ffffffff1660e01b8152600401808481526020018373ffffffffffffffffffffffffffffffffffffffff1673ffffffffffffffffffffffffffffffffffffffff1681526020018273ffffffffffffffffffffffffffffffffffffffff1673ffffffffffffffffffffffffffffffffffffffff1681526020019350505050600060405180830381600087803b158015610c3557600080fd5b505af1158015610c49573d6000803e3d6000fd5b50505050505050505050505050505050565b81600760003373ffffffffffffffffffffffffffffffffffffffff1673ffffffffffffffffffffffffffffffffffffffff168152602001908152602001600020541015610d10576040517f08c379a000000000000000000000000000000000000000000000000000000000815260040180806020018281038252601d8152602001807f496e73756666696369656e74206c6971756964697479206c6f636b656400000081525060200191505060405180910390fd5b600860019054906101000a900473ffffffffffffffffffffffffffffffffffffffff1673ffffffffffffffffffffffffffffffffffffffff1663613d1bb583600760003373ffffffffffffffffffffffffffffffffffffffff1673ffffffffffffffffffffffffffffffffffffffff1681526020019081526020016000205433856040518563ffffffff1660e01b8152600401808581526020018481526020018373ffffffffffffffffffffffffffffffffffffffff1673ffffffffffffffffffffffffffffffffffffffff1681526020018273ffffffffffffffffffffffffffffffffffffffff1673ffffffffffffffffffffffffffffffffffffffff168152602001945050505050600060405180830381600087803b158015610e3457600080fd5b505af1158015610e48573d6000803e3d6000fd5b50505050600960009054906101000a900473ffffffffffffffffffffffffffffffffffffffff1673ffffffffffffffffffffffffffffffffffffffff1663a9059cbb33846040518363ffffffff1660e01b8152600401808373ffffffffffffffffffffffffffffffffffffffff1673ffffffffffffffffffffffffffffffffffffffff16815260200182815260200192505050602060405180830381600087803b158015610ef557600080fd5b505af1158015610f09573d6000803e3d6000fd5b505050506040513d6020811015610f1f57600080fd5b810190808051906020019092919050505050610f8382600760003373ffffffffffffffffffffffffffffffffffffffff1673ffffffffffffffffffffffffffffffffffffffff16815260200190815260200160002054611d8890919063ffffffff16565b600760003373ffffffffffffffffffffffffffffffffffffffff1673ffffffffffffffffffffffffffffffffffffffff168152602001908152602001600020819055505050565b60008060009054906101000a900473ffffffffffffffffffffffffffffffffffffffff1673ffffffffffffffffffffffffffffffffffffffff163373ffffffffffffffffffffffffffffffffffffffff1614905090565b81600960009054906101000a900473ffffffffffffffffffffffffffffffffffffffff1673ffffffffffffffffffffffffffffffffffffffff166370a08231336040518263ffffffff1660e01b8152600401808273ffffffffffffffffffffffffffffffffffffffff1673ffffffffffffffffffffffffffffffffffffffff16815260200191505060206040518083038186803b1580156110c157600080fd5b505afa1580156110d5573d6000803e3d6000fd5b505050506040513d60208110156110eb57600080fd5b81019080805190602001909291905050501015611170576040517f08c379a00000000000000000000000000000000000000000000000000000000081526004018080602001828103825260168152602001807f696e73756666696369656e74204c69717569646974790000000000000000000081525060200191505060405180910390fd5b6000600960009054906101000a900473ffffffffffffffffffffffffffffffffffffffff1673ffffffffffffffffffffffffffffffffffffffff166318160ddd6040518163ffffffff1660e01b815260040160206040518083038186803b1580156111da57600080fd5b505afa1580156111ee573d6000803e3d6000fd5b505050506040513d602081101561120457600080fd5b810190808051906020019092919050505090506000806000600960009054906101000a900473ffffffffffffffffffffffffffffffffffffffff1673ffffffffffffffffffffffffffffffffffffffff16630902f1ac6040518163ffffffff1660e01b815260040160606040518083038186803b15801561128457600080fd5b505afa158015611298573d6000803e3d6000fd5b505050506040513d60608110156112ae57600080fd5b81019080805190602001909291908051906020019092919080519060200190929190505050925092509250603c600460009054906101000a900463ffffffff16820363ffffffff1610611304576113036116ed565b5b600080600860009054906101000a900460ff1660ff1614156113f2576113c56113c0846dffffffffffffffffffffffffffff1660066040518060200160405290816000820160009054906101000a90047bffffffffffffffffffffffffffffffffffffffffffffffffffffffff167bffffffffffffffffffffffffffffffffffffffffffffffffffffffff167bffffffffffffffffffffffffffffffffffffffffffffffffffffffff168152505061190990919063ffffffff16565b6119df565b846dffffffffffffffffffffffffffff160171ffffffffffffffffffffffffffffffffffff1690506114c0565b611497611492856dffffffffffffffffffffffffffff1660056040518060200160405290816000820160009054906101000a90047bffffffffffffffffffffffffffffffffffffffffffffffffffffffff167bffffffffffffffffffffffffffffffffffffffffffffffffffffffff167bffffffffffffffffffffffffffffffffffffffffffffffffffffffff168152505061190990919063ffffffff16565b6119df565b836dffffffffffffffffffffffffffff160171ffffffffffffffffffffffffffffffffffff1690505b60006114e7866114d98a856119f490919063ffffffff16565b611a7a90919063ffffffff16565b90506114f288611dd2565b61154488600760003373ffffffffffffffffffffffffffffffffffffffff1673ffffffffffffffffffffffffffffffffffffffff16815260200190815260200160002054611ac490919063ffffffff16565b600760003373ffffffffffffffffffffffffffffffffffffffff1673ffffffffffffffffffffffffffffffffffffffff16815260200190815260200160002081905550600860019054906101000a900473ffffffffffffffffffffffffffffffffffffffff1673ffffffffffffffffffffffffffffffffffffffff166309caafc282338a6040518463ffffffff1660e01b8152600401808481526020018373ffffffffffffffffffffffffffffffffffffffff1673ffffffffffffffffffffffffffffffffffffffff1681526020018273ffffffffffffffffffffffffffffffffffffffff1673ffffffffffffffffffffffffffffffffffffffff1681526020019350505050600060405180830381600087803b15801561166457600080fd5b505af1158015611678573d6000803e3d6000fd5b505050505050505050505050565b60058060000160009054906101000a90047bffffffffffffffffffffffffffffffffffffffffffffffffffffffff16905081565b60076020528060005260406000206000915090505481565b603c81565b600460009054906101000a900463ffffffff1681565b600080600061171d600160009054906101000a900473ffffffffffffffffffffffffffffffffffffffff16611eee565b9250925092506000600460009054906101000a900463ffffffff1682039050603c8163ffffffff16101561179c576040517f08c379a000000000000000000000000000000000000000000000000000000000815260040180806020018281038252602781526020018061246a6027913960400191505060405180910390fd5b60405180602001604052808263ffffffff166002548703816117ba57fe5b047bffffffffffffffffffffffffffffffffffffffffffffffffffffffff16815250600560008201518160000160006101000a8154817bffffffffffffffffffffffffffffffffffffffffffffffffffffffff02191690837bffffffffffffffffffffffffffffffffffffffffffffffffffffffff16021790555090505060405180602001604052808263ffffffff1660035486038161185657fe5b047bffffffffffffffffffffffffffffffffffffffffffffffffffffffff16815250600660008201518160000160006101000a8154817bffffffffffffffffffffffffffffffffffffffffffffffffffffffff02191690837bffffffffffffffffffffffffffffffffffffffffffffffffffffffff160217905550905050836002819055508260038190555081600460006101000a81548163ffffffff021916908363ffffffff16021790555050505050565b611911612404565b600080831480611972575083600001517bffffffffffffffffffffffffffffffffffffffffffffffffffffffff16838486600001517bffffffffffffffffffffffffffffffffffffffffffffffffffffffff16029250828161196f57fe5b04145b6119c7576040517f08c379a00000000000000000000000000000000000000000000000000000000081526004018080602001828103825260238152602001806124916023913960400191505060405180910390fd5b60405180602001604052808281525091505092915050565b6000607060ff168260000151901c9050919050565b600080831415611a075760009050611a74565b6000828402905082848281611a1857fe5b0414611a6f576040517f08c379a00000000000000000000000000000000000000000000000000000000081526004018080602001828103825260218152602001806124496021913960400191505060405180910390fd5b809150505b92915050565b6000611abc83836040518060400160405280601a81526020017f536166654d6174683a206469766973696f6e206279207a65726f000000000000815250612139565b905092915050565b600080828401905083811015611b42576040517f08c379a000000000000000000000000000000000000000000000000000000000815260040180806020018281038252601b8152602001807f536166654d6174683a206164646974696f6e206f766572666c6f77000000000081525060200191505060405180910390fd5b8091505092915050565b600960009054906101000a900473ffffffffffffffffffffffffffffffffffffffff1673ffffffffffffffffffffffffffffffffffffffff1663d505accf873088888888886040518863ffffffff1660e01b8152600401808873ffffffffffffffffffffffffffffffffffffffff1673ffffffffffffffffffffffffffffffffffffffff1681526020018773ffffffffffffffffffffffffffffffffffffffff1673ffffffffffffffffffffffffffffffffffffffff1681526020018681526020018581526020018460ff1660ff168152602001838152602001828152602001975050505050505050600060405180830381600087803b158015611c4f57600080fd5b505af1158015611c63573d6000803e3d6000fd5b50505050600960009054906101000a900473ffffffffffffffffffffffffffffffffffffffff1673ffffffffffffffffffffffffffffffffffffffff166323b872dd3330886040518463ffffffff1660e01b8152600401808473ffffffffffffffffffffffffffffffffffffffff1673ffffffffffffffffffffffffffffffffffffffff1681526020018373ffffffffffffffffffffffffffffffffffffffff1673ffffffffffffffffffffffffffffffffffffffff1681526020018281526020019350505050602060405180830381600087803b158015611d4457600080fd5b505af1158015611d58573d6000803e3d6000fd5b505050506040513d6020811015611d6e57600080fd5b810190808051906020019092919050505050505050505050565b6000611dca83836040518060400160405280601e81526020017f536166654d6174683a207375627472616374696f6e206f766572666c6f7700008152506121ff565b905092915050565b600960009054906101000a900473ffffffffffffffffffffffffffffffffffffffff1673ffffffffffffffffffffffffffffffffffffffff166323b872dd3330846040518463ffffffff1660e01b8152600401808473ffffffffffffffffffffffffffffffffffffffff1673ffffffffffffffffffffffffffffffffffffffff1681526020018373ffffffffffffffffffffffffffffffffffffffff1673ffffffffffffffffffffffffffffffffffffffff1681526020018281526020019350505050602060405180830381600087803b158015611eaf57600080fd5b505af1158015611ec3573d6000803e3d6000fd5b505050506040513d6020811015611ed957600080fd5b81019080805190602001909291905050505050565b6000806000611efb6122bf565b90508373ffffffffffffffffffffffffffffffffffffffff16635909c0d56040518163ffffffff1660e01b815260040160206040518083038186803b158015611f4357600080fd5b505afa158015611f57573d6000803e3d6000fd5b505050506040513d6020811015611f6d57600080fd5b810190808051906020019092919050505092508373ffffffffffffffffffffffffffffffffffffffff16635a3d54936040518163ffffffff1660e01b815260040160206040518083038186803b158015611fc657600080fd5b505afa158015611fda573d6000803e3d6000fd5b505050506040513d6020811015611ff057600080fd5b8101908080519060200190929190505050915060008060008673ffffffffffffffffffffffffffffffffffffffff16630902f1ac6040518163ffffffff1660e01b815260040160606040518083038186803b15801561204e57600080fd5b505afa158015612062573d6000803e3d6000fd5b505050506040513d606081101561207857600080fd5b810190808051906020019092919080519060200190929190805190602001909291905050509250925092508363ffffffff168163ffffffff161461212f57600081850390508063ffffffff166120ce84866122d5565b600001517bffffffffffffffffffffffffffffffffffffffffffffffffffffffff1602870196508063ffffffff1661210685856122d5565b600001517bffffffffffffffffffffffffffffffffffffffffffffffffffffffff160286019550505b5050509193909250565b600080831182906121e5576040517f08c379a00000000000000000000000000000000000000000000000000000000081526004018080602001828103825283818151815260200191508051906020019080838360005b838110156121aa57808201518184015260208101905061218f565b50505050905090810190601f1680156121d75780820380516001836020036101000a031916815260200191505b509250505060405180910390fd5b5060008385816121f157fe5b049050809150509392505050565b60008383111582906122ac576040517f08c379a00000000000000000000000000000000000000000000000000000000081526004018080602001828103825283818151815260200191508051906020019080838360005b83811015612271578082015181840152602081019050612256565b50505050905090810190601f16801561229e5780820380516001836020036101000a031916815260200191505b509250505060405180910390fd5b5060008385039050809150509392505050565b600064010000000042816122cf57fe5b06905090565b6122dd612417565b6000826dffffffffffffffffffffffffffff1611612363576040517f08c379a00000000000000000000000000000000000000000000000000000000081526004018080602001828103825260178152602001807f4669786564506f696e743a204449565f42595f5a45524f00000000000000000081525060200191505060405180910390fd5b6040518060200160405280836dffffffffffffffffffffffffffff16607060ff16866dffffffffffffffffffffffffffff167bffffffffffffffffffffffffffffffffffffffffffffffffffffffff16901b7bffffffffffffffffffffffffffffffffffffffffffffffffffffffff16816123da57fe5b047bffffffffffffffffffffffffffffffffffffffffffffffffffffffff16815250905092915050565b6040518060200160405280600081525090565b604051806020016040528060007bffffffffffffffffffffffffffffffffffffffffffffffffffffffff168152509056fe536166654d6174683a206d756c7469706c69636174696f6e206f766572666c6f774578616d706c654f7261636c6553696d706c653a20504552494f445f4e4f545f454c41505345444669786564506f696e743a204d554c5449504c49434154494f4e5f4f564552464c4f57a264697066735822122048d0a801308d7a00416f6064c4ea45b211d400830703299c70ebbfb823173c8864736f6c63430006020033",
  "source": "pragma solidity ^0.6.2;\r\n// SPDX-License-Identifier: MIT\r\n\r\nimport \"@openzeppelin/contracts/math/SafeMath.sol\";\r\nimport \"@openzeppelin/contracts/utils/Address.sol\";\r\n\r\nimport '@uniswap/lib/contracts/libraries/FixedPoint.sol';\r\n\r\nimport \"../utils/UniswapV2OracleLibrary.sol\";\r\n\r\ninterface valuingInterface {\r\n    function unboundCreate(uint256 amount, address user, address token) external;\r\n    function unboundRemove(uint256 toUnlock, uint256 totalLocked, address user, address token) external;\r\n    \r\n}\r\n\r\ninterface liquidityPoolToken {\r\n    function totalSupply() external view returns (uint);\r\n    function balanceOf(address owner) external view returns (uint);\r\n    \r\n    function transfer(address to, uint value) external returns (bool);\r\n    function transferFrom(address from, address to, uint value) external returns (bool);\r\n\r\n    function DOMAIN_SEPARATOR() external view returns (bytes32);\r\n    function PERMIT_TYPEHASH() external pure returns (bytes32);\r\n    function nonces(address owner) external view returns (uint);\r\n\r\n    function permit(address owner, address spender, uint value, uint deadline, uint8 v, bytes32 r, bytes32 s) external;\r\n\r\n    function factory() external view returns (address); // needed?\r\n    function token0() external view returns (address);\r\n    function token1() external view returns (address);\r\n    function getReserves() external view returns (uint112 reserve0, uint112 reserve1, uint32 blockTimestampLast);\r\n    function price0CumulativeLast() external view returns (uint);\r\n    function price1CumulativeLast() external view returns (uint);\r\n    function kLast() external view returns (uint);\r\n}\r\n\r\n// Liquidity Lock Contract for ETH/DAI pair\r\ncontract LLC_EthDai {\r\n    using SafeMath for uint256;\r\n    using Address for address;\r\n    using FixedPoint for *;\r\n\r\n    //Owner Address\r\n    address _owner;\r\n\r\n    // LPT address\r\n    address pair;\r\n\r\n    // Oracle Variables\r\n    uint    public price0CumulativeLast;\r\n    uint    public price1CumulativeLast;\r\n    uint32  public blockTimestampLast;\r\n    FixedPoint.uq112x112 public price0Average;\r\n    FixedPoint.uq112x112 public price1Average;\r\n\r\n    uint public constant PERIOD = 60; // set to 60 seconds for easy testing.\r\n\r\n    // tokens locked by users\r\n    mapping (address => uint256) public _tokensLocked;\r\n\r\n    // token position of Stablecoin\r\n    uint8 _position;\r\n\r\n    // Interfaced Contracts\r\n    valuingInterface private valuingContract;\r\n    liquidityPoolToken private LPTContract;\r\n\r\n    // Modifiers\r\n    modifier onlyOwner() {\r\n        require(isOwner(), \"Ownable: caller is not the owner\");\r\n        _;\r\n    }\r\n\r\n    // Constructor\r\n    constructor (address valuingAddress, address LPTaddress, uint8 position) public {\r\n        _owner = msg.sender;\r\n        \r\n        valuingContract = valuingInterface(valuingAddress);\r\n        LPTContract = liquidityPoolToken(LPTaddress);\r\n        pair = LPTaddress;\r\n\r\n        // Set Position of Stablecoin\r\n        require(position == 0 || position == 1, \"invalid\");\r\n        _position = position;\r\n\r\n        // ORACLE\r\n\r\n        // (uint price0Cumulative, uint price1Cumulative, uint32 blockTimestamp) =\r\n        //     UniswapV2OracleLibrary.currentCumulativePrices(address(pair));\r\n\r\n        // price0CumulativeLast = price0Cumulative;\r\n        // price1CumulativeLast = price1Cumulative;\r\n        // blockTimestampLast = blockTimestamp;\r\n\r\n        price0CumulativeLast = LPTContract.price0CumulativeLast(); // fetch the current accumulated price value (1 / 0)\r\n        price1CumulativeLast = LPTContract.price1CumulativeLast(); // fetch the current accumulated price value (0 / 1)\r\n        uint112 reserve0;\r\n        uint112 reserve1;\r\n        (reserve0, reserve1, blockTimestampLast) = LPTContract.getReserves();\r\n\r\n        // require(reserve0 != 0 && reserve1 != 0, 'NO_RESERVES'); // ensure that there's liquidity in the pair\r\n    }\r\n\r\n    // Lock/Unlock functions\r\n    // Mint path\r\n    // tokenNum must be 0 (for now)\r\n    function lockLPT (uint256 LPTamt, address uTokenAddr, uint8 v, bytes32 r, bytes32 s) public {\r\n        require(LPTContract.balanceOf(msg.sender) >= LPTamt, \"insufficient Liquidity\");\r\n        uint256 totalLPTokens = LPTContract.totalSupply();\r\n        \r\n        // Gets reserve values\r\n        (uint112 _token0, uint112 _token1, uint32 _time) = LPTContract.getReserves();\r\n\r\n        // checks if enough time has passed to update price oracle\r\n        if (_time - blockTimestampLast >= PERIOD) {\r\n            update();\r\n        }\r\n\r\n        // makes sure current prices are not zero -- NOT WORKING\r\n        // require(price1Average > 0 && price0Average > 0, \"invalid prices\");\r\n        \r\n        // use oracle pricing to calculate value in Stablecoin\r\n        // TEST!!!!!\r\n        uint256 totalDai;\r\n        if (_position == 0) {\r\n            totalDai = _token0 + price1Average.mul(_token1).decode144(); \r\n        } else {\r\n            totalDai = _token1 + price0Average.mul(_token0).decode144();\r\n        }\r\n\r\n        // This should compute % value of Liq pool in Dai. Cannot have decimals in Solidity\r\n        uint256 LPTValueInDai = totalDai.mul(LPTamt).div(totalLPTokens);  \r\n\r\n        // call Permit and Transfer\r\n        uint deadline = block.timestamp.add(600); // Hardcoding 10 minutes.\r\n        // question for chetan\r\n\r\n\r\n        transferLPT(msg.sender, LPTamt, deadline, v, r, s);\r\n        \r\n\r\n        // map locked tokens to user address\r\n        _tokensLocked[msg.sender] = _tokensLocked[msg.sender].add(LPTamt);\r\n\r\n        // Call Valuing Contract\r\n        valuingContract.unboundCreate(LPTValueInDai, msg.sender, uTokenAddr); // Hardcode \"0\" for AAA rating\r\n        \r\n    }\r\n\r\n    function lockLPT1 (uint256 LPTamt, address uTokenAddr) public {\r\n        require(LPTContract.balanceOf(msg.sender) >= LPTamt, \"insufficient Liquidity\");\r\n        uint256 totalLPTokens = LPTContract.totalSupply();\r\n\r\n        // Gets reserve values\r\n        (uint112 _token0, uint112 _token1, uint32 _time) = LPTContract.getReserves();\r\n\r\n        // checks if enough time has passed to update price oracle\r\n        if (_time - blockTimestampLast >= PERIOD) {\r\n            update();\r\n        }\r\n\r\n        // makes sure current prices are not zero (DOES NOT WORK)\r\n        // require(price1Average > 0 && price0Average > 0, \"invalid prices\");\r\n        \r\n        // use oracle pricing to calculate value in Stablecoin\r\n        // TEST!!!!!\r\n        uint256 totalDai;\r\n        if (_position == 0) {\r\n            totalDai = _token0 + price1Average.mul(_token1).decode144(); \r\n        } else {\r\n            totalDai = _token1 + price0Average.mul(_token0).decode144();\r\n        }\r\n\r\n        // This should compute % value of Liq pool in Dai. Cannot have decimals in Solidity\r\n        uint256 LPTValueInDai = totalDai.mul(LPTamt).div(totalLPTokens);  \r\n\r\n        transferLPT1(LPTamt);\r\n        \r\n        // map locked tokens to user\r\n        _tokensLocked[msg.sender] = _tokensLocked[msg.sender].add(LPTamt);\r\n\r\n        // Call Valuing Contract\r\n        valuingContract.unboundCreate(LPTValueInDai, msg.sender, uTokenAddr); // Hardcode \"0\" for AAA rating\r\n        \r\n    }\r\n\r\n    function transferLPT1(uint256 amount) internal {\r\n        //LPTContract.permit(msg.sender, address(this), amount, deadline, v, r, s);\r\n        LPTContract.transferFrom(msg.sender, address(this), amount);\r\n        \r\n    }\r\n\r\n    function transferLPT(address user, uint256 amount, uint deadline, uint8 v, bytes32 r, bytes32 s) internal {\r\n        LPTContract.permit(user, address(this), amount, deadline, v, r, s);\r\n        LPTContract.transferFrom(msg.sender, address(this), amount);\r\n        \r\n    }\r\n\r\n    // Burn Path\r\n\r\n    // tokenNum must be 0\r\n    function unlockLPT (uint256 LPToken, address uTokenAddr) public {\r\n        require (_tokensLocked[msg.sender] >= LPToken, \"Insufficient liquidity locked\");\r\n\r\n        // Burning of Udai will happen first\r\n        valuingContract.unboundRemove(LPToken, _tokensLocked[msg.sender], msg.sender, uTokenAddr);\r\n        \r\n        LPTContract.transfer(msg.sender, LPToken);\r\n        _tokensLocked[msg.sender] = _tokensLocked[msg.sender].sub(LPToken);\r\n        \r\n    }\r\n\r\n    // Oracle Update Function\r\n    function update() internal {\r\n        (uint price0Cumulative, uint price1Cumulative, uint32 blockTimestamp) =\r\n            UniswapV2OracleLibrary.currentCumulativePrices(address(pair));\r\n        uint32 timeElapsed = blockTimestamp - blockTimestampLast; // overflow is desired\r\n\r\n        // ensure that at least one full period has passed since the last update\r\n        require(timeElapsed >= PERIOD, 'ExampleOracleSimple: PERIOD_NOT_ELAPSED');\r\n\r\n        // overflow is desired, casting never truncates\r\n        // cumulative price is in (uq112x112 price * seconds) units so we simply wrap it after division by time elapsed\r\n        price0Average = FixedPoint.uq112x112(uint224((price0Cumulative - price0CumulativeLast) / timeElapsed));\r\n        price1Average = FixedPoint.uq112x112(uint224((price1Cumulative - price1CumulativeLast) / timeElapsed));\r\n\r\n        price0CumulativeLast = price0Cumulative;\r\n        price1CumulativeLast = price1Cumulative;\r\n        blockTimestampLast = blockTimestamp;\r\n    }\r\n\r\n    // onlyOwner Functions\r\n\r\n    // Checks if sender is owner\r\n    function isOwner() public view returns (bool) {\r\n        return msg.sender == _owner;\r\n    }\r\n\r\n    // Changes owner\r\n    function setOwner(address _newOwner) public onlyOwner {\r\n        _owner = _newOwner;\r\n    }\r\n\r\n    // Sets new Valuing Address\r\n    function setValuingAddress (address _newValuing) public onlyOwner {\r\n        valuingContract = valuingInterface(_newValuing);\r\n    }\r\n}",
  "sourcePath": "C:/Users/sonic/Desktop/Unbound/contracts/LiquidityLockContracts/LLC_EthDai.sol",
  "compiler": {
    "name": "solc",
    "version": "0.6.2+commit.bacdbe57.Emscripten.clang"
  },
  "schemaVersion": "3.2.3",
  "updatedAt": "2020-09-08T05:33:33.534Z",
  "networkType": "ethereum",
  "devdoc": {
    "methods": {}
  },
  "userdoc": {
    "methods": {}
  }
}