{
  "contractName": "LLC_EthDai",
  "abi": [
    {
      "inputs": [
        {
          "internalType": "address",
          "name": "valuingAddress",
          "type": "address"
        },
        {
          "internalType": "address",
          "name": "LPTaddress",
          "type": "address"
        },
        {
          "internalType": "uint8",
          "name": "position",
          "type": "uint8"
        }
      ],
      "stateMutability": "nonpayable",
      "type": "constructor"
    },
    {
      "inputs": [],
      "name": "PERIOD",
      "outputs": [
        {
          "internalType": "uint256",
          "name": "",
          "type": "uint256"
        }
      ],
      "stateMutability": "view",
      "type": "function",
      "constant": true
    },
    {
      "inputs": [
        {
          "internalType": "address",
          "name": "",
          "type": "address"
        }
      ],
      "name": "_tokensLocked",
      "outputs": [
        {
          "internalType": "uint256",
          "name": "",
          "type": "uint256"
        }
      ],
      "stateMutability": "view",
      "type": "function",
      "constant": true
    },
    {
      "inputs": [],
      "name": "blockTimestampLast",
      "outputs": [
        {
          "internalType": "uint32",
          "name": "",
          "type": "uint32"
        }
      ],
      "stateMutability": "view",
      "type": "function",
      "constant": true
    },
    {
      "inputs": [],
      "name": "pair",
      "outputs": [
        {
          "internalType": "address",
          "name": "",
          "type": "address"
        }
      ],
      "stateMutability": "view",
      "type": "function",
      "constant": true
    },
    {
      "inputs": [],
      "name": "price0CumulativeLast",
      "outputs": [
        {
          "internalType": "uint256",
          "name": "",
          "type": "uint256"
        }
      ],
      "stateMutability": "view",
      "type": "function",
      "constant": true
    },
    {
      "inputs": [],
      "name": "price1CumulativeLast",
      "outputs": [
        {
          "internalType": "uint256",
          "name": "",
          "type": "uint256"
        }
      ],
      "stateMutability": "view",
      "type": "function",
      "constant": true
    },
    {
      "inputs": [
        {
          "internalType": "uint256",
          "name": "LPTamt",
          "type": "uint256"
        },
        {
          "internalType": "address",
          "name": "uTokenAddr",
          "type": "address"
        },
        {
          "internalType": "uint8",
          "name": "v",
          "type": "uint8"
        },
        {
          "internalType": "bytes32",
          "name": "r",
          "type": "bytes32"
        },
        {
          "internalType": "bytes32",
          "name": "s",
          "type": "bytes32"
        }
      ],
      "name": "lockLPT",
      "outputs": [],
      "stateMutability": "nonpayable",
      "type": "function"
    },
    {
      "inputs": [
        {
          "internalType": "uint256",
          "name": "LPTamt",
          "type": "uint256"
        },
        {
          "internalType": "address",
          "name": "uTokenAddr",
          "type": "address"
        }
      ],
      "name": "lockLPT1",
      "outputs": [],
      "stateMutability": "nonpayable",
      "type": "function"
    },
    {
      "inputs": [
        {
          "internalType": "uint256",
          "name": "LPToken",
          "type": "uint256"
        },
        {
          "internalType": "address",
          "name": "uTokenAddr",
          "type": "address"
        }
      ],
      "name": "unlockLPT",
      "outputs": [],
      "stateMutability": "nonpayable",
      "type": "function"
    },
    {
      "inputs": [],
      "name": "isOwner",
      "outputs": [
        {
          "internalType": "bool",
          "name": "",
          "type": "bool"
        }
      ],
      "stateMutability": "view",
      "type": "function",
      "constant": true
    },
    {
      "inputs": [
        {
          "internalType": "address",
          "name": "_newOwner",
          "type": "address"
        }
      ],
      "name": "setOwner",
      "outputs": [],
      "stateMutability": "nonpayable",
      "type": "function"
    },
    {
      "inputs": [
        {
          "internalType": "address",
          "name": "_newValuing",
          "type": "address"
        }
      ],
      "name": "setValuingAddress",
      "outputs": [],
      "stateMutability": "nonpayable",
      "type": "function"
    }
  ],
  "bytecode": "0x60806040523480156200001157600080fd5b5060405162001fce38038062001fce833981810160405260608110156200003757600080fd5b81019080805190602001909291908051906020019092919080519060200190929190505050336000806101000a81548173ffffffffffffffffffffffffffffffffffffffff021916908373ffffffffffffffffffffffffffffffffffffffff16021790555082600660016101000a81548173ffffffffffffffffffffffffffffffffffffffff021916908373ffffffffffffffffffffffffffffffffffffffff16021790555081600760006101000a81548173ffffffffffffffffffffffffffffffffffffffff021916908373ffffffffffffffffffffffffffffffffffffffff16021790555081600160006101000a81548173ffffffffffffffffffffffffffffffffffffffff021916908373ffffffffffffffffffffffffffffffffffffffff16021790555060008160ff16148062000175575060018160ff16145b620001e8576040517f08c379a00000000000000000000000000000000000000000000000000000000081526004018080602001828103825260078152602001807f696e76616c69640000000000000000000000000000000000000000000000000081525060200191505060405180910390fd5b80600660006101000a81548160ff021916908360ff160217905550600760009054906101000a900473ffffffffffffffffffffffffffffffffffffffff1673ffffffffffffffffffffffffffffffffffffffff16635909c0d56040518163ffffffff1660e01b815260040160206040518083038186803b1580156200026c57600080fd5b505afa15801562000281573d6000803e3d6000fd5b505050506040513d60208110156200029857600080fd5b8101908080519060200190929190505050600281905550600760009054906101000a900473ffffffffffffffffffffffffffffffffffffffff1673ffffffffffffffffffffffffffffffffffffffff16635a3d54936040518163ffffffff1660e01b815260040160206040518083038186803b1580156200031857600080fd5b505afa1580156200032d573d6000803e3d6000fd5b505050506040513d60208110156200034457600080fd5b8101908080519060200190929190505050600381905550600080600760009054906101000a900473ffffffffffffffffffffffffffffffffffffffff1673ffffffffffffffffffffffffffffffffffffffff16630902f1ac6040518163ffffffff1660e01b815260040160606040518083038186803b158015620003c757600080fd5b505afa158015620003dc573d6000803e3d6000fd5b505050506040513d6060811015620003f357600080fd5b81019080805190602001909291908051906020019092919080519060200190929190505050600460008291906101000a81548163ffffffff021916908363ffffffff1602179055508193508294505050505050505050611b7580620004596000396000f3fe608060405234801561001057600080fd5b50600436106100b45760003560e01c80638f32d59b116100715780638f32d59b1461023a578063942350bb1461025c578063a8aa1b31146102aa578063ae51d676146102f4578063b4d1d7951461034c578063c5700a021461036a576100b4565b806304b7c7a4146100b957806313af4035146100fd5780635909c0d5146101415780635a3d54931461015f578063740cf93f1461017d57806378208601146101ec575b600080fd5b6100fb600480360360208110156100cf57600080fd5b81019080803573ffffffffffffffffffffffffffffffffffffffff169060200190929190505050610394565b005b61013f6004803603602081101561011357600080fd5b81019080803573ffffffffffffffffffffffffffffffffffffffff169060200190929190505050610452565b005b61014961050f565b6040518082815260200191505060405180910390f35b610167610515565b6040518082815260200191505060405180910390f35b6101ea600480360360a081101561019357600080fd5b8101908080359060200190929190803573ffffffffffffffffffffffffffffffffffffffff169060200190929190803560ff169060200190929190803590602001909291908035906020019092919050505061051b565b005b6102386004803603604081101561020257600080fd5b8101908080359060200190929190803573ffffffffffffffffffffffffffffffffffffffff169060200190929190505050610902565b005b610242610c71565b604051808215151515815260200191505060405180910390f35b6102a86004803603604081101561027257600080fd5b8101908080359060200190929190803573ffffffffffffffffffffffffffffffffffffffff169060200190929190505050610cc8565b005b6102b261108d565b604051808273ffffffffffffffffffffffffffffffffffffffff1673ffffffffffffffffffffffffffffffffffffffff16815260200191505060405180910390f35b6103366004803603602081101561030a57600080fd5b81019080803573ffffffffffffffffffffffffffffffffffffffff1690602001909291905050506110b3565b6040518082815260200191505060405180910390f35b6103546110cb565b6040518082815260200191505060405180910390f35b6103726110d0565b604051808263ffffffff1663ffffffff16815260200191505060405180910390f35b61039c610c71565b61040e576040517f08c379a00000000000000000000000000000000000000000000000000000000081526004018080602001828103825260208152602001807f4f776e61626c653a2063616c6c6572206973206e6f7420746865206f776e657281525060200191505060405180910390fd5b80600660016101000a81548173ffffffffffffffffffffffffffffffffffffffff021916908373ffffffffffffffffffffffffffffffffffffffff16021790555050565b61045a610c71565b6104cc576040517f08c379a00000000000000000000000000000000000000000000000000000000081526004018080602001828103825260208152602001807f4f776e61626c653a2063616c6c6572206973206e6f7420746865206f776e657281525060200191505060405180910390fd5b806000806101000a81548173ffffffffffffffffffffffffffffffffffffffff021916908373ffffffffffffffffffffffffffffffffffffffff16021790555050565b60025481565b60035481565b84600760009054906101000a900473ffffffffffffffffffffffffffffffffffffffff1673ffffffffffffffffffffffffffffffffffffffff166370a08231336040518263ffffffff1660e01b8152600401808273ffffffffffffffffffffffffffffffffffffffff1673ffffffffffffffffffffffffffffffffffffffff16815260200191505060206040518083038186803b1580156105bb57600080fd5b505afa1580156105cf573d6000803e3d6000fd5b505050506040513d60208110156105e557600080fd5b8101908080519060200190929190505050101561066a576040517f08c379a00000000000000000000000000000000000000000000000000000000081526004018080602001828103825260168152602001807f696e73756666696369656e74204c69717569646974790000000000000000000081525060200191505060405180910390fd5b6000600760009054906101000a900473ffffffffffffffffffffffffffffffffffffffff1673ffffffffffffffffffffffffffffffffffffffff166318160ddd6040518163ffffffff1660e01b815260040160206040518083038186803b1580156106d457600080fd5b505afa1580156106e8573d6000803e3d6000fd5b505050506040513d60208110156106fe57600080fd5b81019080805190602001909291905050509050600061071b6110e6565b90506000610744836107368a8561149e90919063ffffffff16565b61152490919063ffffffff16565b9050600061075d6102584261156e90919063ffffffff16565b905061076d338a838a8a8a6115f6565b6107bf89600560003373ffffffffffffffffffffffffffffffffffffffff1673ffffffffffffffffffffffffffffffffffffffff1681526020019081526020016000205461156e90919063ffffffff16565b600560003373ffffffffffffffffffffffffffffffffffffffff1673ffffffffffffffffffffffffffffffffffffffff16815260200190815260200160002081905550600660019054906101000a900473ffffffffffffffffffffffffffffffffffffffff1673ffffffffffffffffffffffffffffffffffffffff166309caafc283338b6040518463ffffffff1660e01b8152600401808481526020018373ffffffffffffffffffffffffffffffffffffffff1673ffffffffffffffffffffffffffffffffffffffff1681526020018273ffffffffffffffffffffffffffffffffffffffff1673ffffffffffffffffffffffffffffffffffffffff1681526020019350505050600060405180830381600087803b1580156108df57600080fd5b505af11580156108f3573d6000803e3d6000fd5b50505050505050505050505050565b81600560003373ffffffffffffffffffffffffffffffffffffffff1673ffffffffffffffffffffffffffffffffffffffff1681526020019081526020016000205410156109b7576040517f08c379a000000000000000000000000000000000000000000000000000000000815260040180806020018281038252601d8152602001807f496e73756666696369656e74206c6971756964697479206c6f636b656400000081525060200191505060405180910390fd5b600660019054906101000a900473ffffffffffffffffffffffffffffffffffffffff1673ffffffffffffffffffffffffffffffffffffffff1663613d1bb583600560003373ffffffffffffffffffffffffffffffffffffffff1673ffffffffffffffffffffffffffffffffffffffff1681526020019081526020016000205433856040518563ffffffff1660e01b8152600401808581526020018481526020018373ffffffffffffffffffffffffffffffffffffffff1673ffffffffffffffffffffffffffffffffffffffff1681526020018273ffffffffffffffffffffffffffffffffffffffff1673ffffffffffffffffffffffffffffffffffffffff168152602001945050505050600060405180830381600087803b158015610adb57600080fd5b505af1158015610aef573d6000803e3d6000fd5b50505050600760009054906101000a900473ffffffffffffffffffffffffffffffffffffffff1673ffffffffffffffffffffffffffffffffffffffff1663a9059cbb33846040518363ffffffff1660e01b8152600401808373ffffffffffffffffffffffffffffffffffffffff1673ffffffffffffffffffffffffffffffffffffffff16815260200182815260200192505050602060405180830381600087803b158015610b9c57600080fd5b505af1158015610bb0573d6000803e3d6000fd5b505050506040513d6020811015610bc657600080fd5b810190808051906020019092919050505050610c2a82600560003373ffffffffffffffffffffffffffffffffffffffff1673ffffffffffffffffffffffffffffffffffffffff1681526020019081526020016000205461183290919063ffffffff16565b600560003373ffffffffffffffffffffffffffffffffffffffff1673ffffffffffffffffffffffffffffffffffffffff168152602001908152602001600020819055505050565b60008060009054906101000a900473ffffffffffffffffffffffffffffffffffffffff1673ffffffffffffffffffffffffffffffffffffffff163373ffffffffffffffffffffffffffffffffffffffff1614905090565b81600760009054906101000a900473ffffffffffffffffffffffffffffffffffffffff1673ffffffffffffffffffffffffffffffffffffffff166370a08231336040518263ffffffff1660e01b8152600401808273ffffffffffffffffffffffffffffffffffffffff1673ffffffffffffffffffffffffffffffffffffffff16815260200191505060206040518083038186803b158015610d6857600080fd5b505afa158015610d7c573d6000803e3d6000fd5b505050506040513d6020811015610d9257600080fd5b81019080805190602001909291905050501015610e17576040517f08c379a00000000000000000000000000000000000000000000000000000000081526004018080602001828103825260168152602001807f696e73756666696369656e74204c69717569646974790000000000000000000081525060200191505060405180910390fd5b6000600760009054906101000a900473ffffffffffffffffffffffffffffffffffffffff1673ffffffffffffffffffffffffffffffffffffffff166318160ddd6040518163ffffffff1660e01b815260040160206040518083038186803b158015610e8157600080fd5b505afa158015610e95573d6000803e3d6000fd5b505050506040513d6020811015610eab57600080fd5b810190808051906020019092919050505090506000610ec86110e6565b90506000610ef183610ee3878561149e90919063ffffffff16565b61152490919063ffffffff16565b9050610efc8561187c565b610f4e85600560003373ffffffffffffffffffffffffffffffffffffffff1673ffffffffffffffffffffffffffffffffffffffff1681526020019081526020016000205461156e90919063ffffffff16565b600560003373ffffffffffffffffffffffffffffffffffffffff1673ffffffffffffffffffffffffffffffffffffffff16815260200190815260200160002081905550600660019054906101000a900473ffffffffffffffffffffffffffffffffffffffff1673ffffffffffffffffffffffffffffffffffffffff166309caafc28233876040518463ffffffff1660e01b8152600401808481526020018373ffffffffffffffffffffffffffffffffffffffff1673ffffffffffffffffffffffffffffffffffffffff1681526020018273ffffffffffffffffffffffffffffffffffffffff1673ffffffffffffffffffffffffffffffffffffffff1681526020019350505050600060405180830381600087803b15801561106e57600080fd5b505af1158015611082573d6000803e3d6000fd5b505050505050505050565b600160009054906101000a900473ffffffffffffffffffffffffffffffffffffffff1681565b60056020528060005260406000206000915090505481565b603c81565b600460009054906101000a900463ffffffff1681565b600080600760009054906101000a900473ffffffffffffffffffffffffffffffffffffffff1673ffffffffffffffffffffffffffffffffffffffff16635909c0d56040518163ffffffff1660e01b815260040160206040518083038186803b15801561115157600080fd5b505afa158015611165573d6000803e3d6000fd5b505050506040513d602081101561117b57600080fd5b810190808051906020019092919050505090506000600760009054906101000a900473ffffffffffffffffffffffffffffffffffffffff1673ffffffffffffffffffffffffffffffffffffffff16635a3d54936040518163ffffffff1660e01b815260040160206040518083038186803b1580156111f857600080fd5b505afa15801561120c573d6000803e3d6000fd5b505050506040513d602081101561122257600080fd5b810190808051906020019092919050505090506000806000600760009054906101000a900473ffffffffffffffffffffffffffffffffffffffff1673ffffffffffffffffffffffffffffffffffffffff16630902f1ac6040518163ffffffff1660e01b815260040160606040518083038186803b1580156112a257600080fd5b505afa1580156112b6573d6000803e3d6000fd5b505050506040513d60608110156112cc57600080fd5b810190808051906020019092919080519060200190929190805190602001909291905050509250925092506000600460009054906101000a900463ffffffff16820363ffffffff1611611387576040517f08c379a000000000000000000000000000000000000000000000000000000000815260040180806020018281038252600e8152602001807f6e656564206d6f72652074696d6500000000000000000000000000000000000081525060200191505060405180910390fd5b6000600660009054906101000a900460ff1660ff1614156113f557600460009054906101000a900463ffffffff16810363ffffffff168460035403836dffffffffffffffffffffffffffff1602816113db57fe5b04836dffffffffffffffffffffffffffff16019550611444565b600460009054906101000a900463ffffffff16810363ffffffff168560025403846dffffffffffffffffffffffffffff16028161142e57fe5b04826dffffffffffffffffffffffffffff160195505b603c600460009054906101000a900463ffffffff16820363ffffffff161061149657846002819055508360038190555080600460006101000a81548163ffffffff021916908363ffffffff1602179055505b505050505090565b6000808314156114b1576000905061151e565b60008284029050828482816114c257fe5b0414611519576040517f08c379a0000000000000000000000000000000000000000000000000000000008152600401808060200182810382526021815260200180611b1f6021913960400191505060405180910390fd5b809150505b92915050565b600061156683836040518060400160405280601a81526020017f536166654d6174683a206469766973696f6e206279207a65726f000000000000815250611998565b905092915050565b6000808284019050838110156115ec576040517f08c379a000000000000000000000000000000000000000000000000000000000815260040180806020018281038252601b8152602001807f536166654d6174683a206164646974696f6e206f766572666c6f77000000000081525060200191505060405180910390fd5b8091505092915050565b600760009054906101000a900473ffffffffffffffffffffffffffffffffffffffff1673ffffffffffffffffffffffffffffffffffffffff1663d505accf873088888888886040518863ffffffff1660e01b8152600401808873ffffffffffffffffffffffffffffffffffffffff1673ffffffffffffffffffffffffffffffffffffffff1681526020018773ffffffffffffffffffffffffffffffffffffffff1673ffffffffffffffffffffffffffffffffffffffff1681526020018681526020018581526020018460ff1660ff168152602001838152602001828152602001975050505050505050600060405180830381600087803b1580156116f957600080fd5b505af115801561170d573d6000803e3d6000fd5b50505050600760009054906101000a900473ffffffffffffffffffffffffffffffffffffffff1673ffffffffffffffffffffffffffffffffffffffff166323b872dd3330886040518463ffffffff1660e01b8152600401808473ffffffffffffffffffffffffffffffffffffffff1673ffffffffffffffffffffffffffffffffffffffff1681526020018373ffffffffffffffffffffffffffffffffffffffff1673ffffffffffffffffffffffffffffffffffffffff1681526020018281526020019350505050602060405180830381600087803b1580156117ee57600080fd5b505af1158015611802573d6000803e3d6000fd5b505050506040513d602081101561181857600080fd5b810190808051906020019092919050505050505050505050565b600061187483836040518060400160405280601e81526020017f536166654d6174683a207375627472616374696f6e206f766572666c6f770000815250611a5e565b905092915050565b600760009054906101000a900473ffffffffffffffffffffffffffffffffffffffff1673ffffffffffffffffffffffffffffffffffffffff166323b872dd3330846040518463ffffffff1660e01b8152600401808473ffffffffffffffffffffffffffffffffffffffff1673ffffffffffffffffffffffffffffffffffffffff1681526020018373ffffffffffffffffffffffffffffffffffffffff1673ffffffffffffffffffffffffffffffffffffffff1681526020018281526020019350505050602060405180830381600087803b15801561195957600080fd5b505af115801561196d573d6000803e3d6000fd5b505050506040513d602081101561198357600080fd5b81019080805190602001909291905050505050565b60008083118290611a44576040517f08c379a00000000000000000000000000000000000000000000000000000000081526004018080602001828103825283818151815260200191508051906020019080838360005b83811015611a095780820151818401526020810190506119ee565b50505050905090810190601f168015611a365780820380516001836020036101000a031916815260200191505b509250505060405180910390fd5b506000838581611a5057fe5b049050809150509392505050565b6000838311158290611b0b576040517f08c379a00000000000000000000000000000000000000000000000000000000081526004018080602001828103825283818151815260200191508051906020019080838360005b83811015611ad0578082015181840152602081019050611ab5565b50505050905090810190601f168015611afd5780820380516001836020036101000a031916815260200191505b509250505060405180910390fd5b506000838503905080915050939250505056fe536166654d6174683a206d756c7469706c69636174696f6e206f766572666c6f77a2646970667358221220bce4d332bdeab11d94764e88faad66a0ad018aa7c73bf9a1c10801c84597b66b64736f6c63430006020033",
  "source": "pragma solidity ^0.6.2;\r\n// SPDX-License-Identifier: MIT\r\n\r\nimport \"@openzeppelin/contracts/math/SafeMath.sol\";\r\nimport \"@openzeppelin/contracts/utils/Address.sol\";\r\n\r\n\r\n\r\ninterface valuingInterface {\r\n    function unboundCreate(uint256 amount, address user, address token) external;\r\n    function unboundRemove(uint256 toUnlock, uint256 totalLocked, address user, address token) external;\r\n    \r\n}\r\n\r\ninterface liquidityPoolToken {\r\n    function totalSupply() external view returns (uint);\r\n    function balanceOf(address owner) external view returns (uint);\r\n    \r\n    function transfer(address to, uint value) external returns (bool);\r\n    function transferFrom(address from, address to, uint value) external returns (bool);\r\n\r\n    function DOMAIN_SEPARATOR() external view returns (bytes32);\r\n    function PERMIT_TYPEHASH() external pure returns (bytes32);\r\n    function nonces(address owner) external view returns (uint);\r\n\r\n    function permit(address owner, address spender, uint value, uint deadline, uint8 v, bytes32 r, bytes32 s) external;\r\n\r\n    function factory() external view returns (address); // needed?\r\n    function token0() external view returns (address);\r\n    function token1() external view returns (address);\r\n    function getReserves() external view returns (uint112 reserve0, uint112 reserve1, uint32 blockTimestampLast);\r\n    function price0CumulativeLast() external view returns (uint);\r\n    function price1CumulativeLast() external view returns (uint);\r\n    function kLast() external view returns (uint);\r\n}\r\n\r\n// Liquidity Lock Contract for ETH/DAI pair\r\ncontract LLC_EthDai {\r\n    using SafeMath for uint256;\r\n    using Address for address;\r\n\r\n    //Owner Address\r\n    address _owner;\r\n\r\n    // LPT address\r\n    address public pair;\r\n\r\n    // Oracle Variables\r\n    uint    public price0CumulativeLast;\r\n    uint    public price1CumulativeLast;\r\n    uint32  public blockTimestampLast;\r\n\r\n    uint public constant PERIOD = 60; // set to 60 seconds for easy testing.\r\n\r\n    // tokens locked by users\r\n    mapping (address => uint256) public _tokensLocked;\r\n\r\n    // token position of Stablecoin\r\n    uint8 _position;\r\n\r\n    // Interfaced Contracts\r\n    valuingInterface private valuingContract;\r\n    liquidityPoolToken private LPTContract;\r\n\r\n    // Modifiers\r\n    modifier onlyOwner() {\r\n        require(isOwner(), \"Ownable: caller is not the owner\");\r\n        _;\r\n    }\r\n\r\n    // Constructor\r\n    constructor (address valuingAddress, address LPTaddress, uint8 position) public {\r\n        _owner = msg.sender;\r\n        \r\n        valuingContract = valuingInterface(valuingAddress);\r\n        LPTContract = liquidityPoolToken(LPTaddress);\r\n        pair = LPTaddress;\r\n\r\n        // Set Position of Stablecoin\r\n        require(position == 0 || position == 1, \"invalid\");\r\n        _position = position;\r\n\r\n        // ORACLE\r\n\r\n        // (uint price0Cumulative, uint price1Cumulative, uint32 blockTimestamp) =\r\n        //     UniswapV2OracleLibrary.currentCumulativePrices(address(pair));\r\n\r\n        // price0CumulativeLast = price0Cumulative;\r\n        // price1CumulativeLast = price1Cumulative;\r\n        // blockTimestampLast = blockTimestamp;\r\n\r\n        price0CumulativeLast = LPTContract.price0CumulativeLast(); // fetch the current accumulated price value (1 / 0)\r\n        price1CumulativeLast = LPTContract.price1CumulativeLast(); // fetch the current accumulated price value (0 / 1)\r\n        uint112 reserve0;\r\n        uint112 reserve1;\r\n        (reserve0, reserve1, blockTimestampLast) = LPTContract.getReserves();\r\n\r\n        // require(reserve0 != 0 && reserve1 != 0, 'NO_RESERVES'); // ensure that there's liquidity in the pair\r\n    }\r\n\r\n    // Lock/Unlock functions\r\n    // Mint path\r\n    // tokenNum must be 0 (for now)\r\n    function lockLPT (uint256 LPTamt, address uTokenAddr, uint8 v, bytes32 r, bytes32 s) public {\r\n        require(LPTContract.balanceOf(msg.sender) >= LPTamt, \"insufficient Liquidity\");\r\n        uint256 totalLPTokens = LPTContract.totalSupply();\r\n        \r\n        uint256 totalUSD = pricing();\r\n        \r\n        // This should compute % value of Liq pool in Dai. Cannot have decimals in Solidity\r\n        uint256 LPTValueInDai = totalUSD.mul(LPTamt).div(totalLPTokens);  \r\n\r\n        // call Permit and Transfer\r\n        uint deadline = block.timestamp.add(600); // Hardcoding 10 minutes.\r\n        // question for chetan\r\n\r\n\r\n        transferLPT(msg.sender, LPTamt, deadline, v, r, s);\r\n        \r\n\r\n        // map locked tokens to user address\r\n        _tokensLocked[msg.sender] = _tokensLocked[msg.sender].add(LPTamt);\r\n\r\n        // Call Valuing Contract\r\n        valuingContract.unboundCreate(LPTValueInDai, msg.sender, uTokenAddr); // Hardcode \"0\" for AAA rating\r\n        \r\n    }\r\n\r\n    function lockLPT1 (uint256 LPTamt, address uTokenAddr) public {\r\n        require(LPTContract.balanceOf(msg.sender) >= LPTamt, \"insufficient Liquidity\");\r\n        uint256 totalLPTokens = LPTContract.totalSupply();\r\n\r\n\r\n        uint256 totalUSD = pricing();\r\n\r\n        // This should compute % value of Liq pool in Dai. Cannot have decimals in Solidity\r\n        uint256 LPTValueInDai = totalUSD.mul(LPTamt).div(totalLPTokens);  \r\n\r\n        transferLPT1(LPTamt);\r\n        \r\n        // map locked tokens to user\r\n        _tokensLocked[msg.sender] = _tokensLocked[msg.sender].add(LPTamt);\r\n\r\n        // Call Valuing Contract\r\n        valuingContract.unboundCreate(LPTValueInDai, msg.sender, uTokenAddr); // Hardcode \"0\" for AAA rating\r\n        \r\n    }\r\n\r\n    function transferLPT1(uint256 amount) internal {\r\n        //LPTContract.permit(msg.sender, address(this), amount, deadline, v, r, s);\r\n        LPTContract.transferFrom(msg.sender, address(this), amount);\r\n        \r\n    }\r\n\r\n    function transferLPT(address user, uint256 amount, uint deadline, uint8 v, bytes32 r, bytes32 s) internal {\r\n        LPTContract.permit(user, address(this), amount, deadline, v, r, s);\r\n        LPTContract.transferFrom(msg.sender, address(this), amount);\r\n        \r\n    }\r\n\r\n    // Burn Path\r\n\r\n    // tokenNum must be 0\r\n    function unlockLPT (uint256 LPToken, address uTokenAddr) public {\r\n        require (_tokensLocked[msg.sender] >= LPToken, \"Insufficient liquidity locked\");\r\n\r\n        // Burning of Udai will happen first\r\n        valuingContract.unboundRemove(LPToken, _tokensLocked[msg.sender], msg.sender, uTokenAddr);\r\n        \r\n        LPTContract.transfer(msg.sender, LPToken);\r\n        _tokensLocked[msg.sender] = _tokensLocked[msg.sender].sub(LPToken);\r\n        \r\n    }\r\n\r\n    function pricing() internal returns (uint256 totalDai) {\r\n        uint256 price0cumulative = LPTContract.price0CumulativeLast();\r\n        uint256 price1cumulative = LPTContract.price1CumulativeLast();\r\n\r\n        // Gets reserve values\r\n        (uint112 _token0, uint112 _token1, uint32 _time) = LPTContract.getReserves();\r\n\r\n        // reverts if priceCumul - priceCumulLast = 0\r\n        require( _time - blockTimestampLast > 0, \"need more time\");\r\n        \r\n        // use oracle pricing to calculate value in Stablecoin\r\n        // TEST!!!!!\r\n        if (_position == 0) {\r\n            // totalDai = _token0 + _token1.mul((price1CumulativeLast.sub(price1cumulative)).div(_time - blockTimestampLast)); \r\n            totalDai = _token0 + _token1 * (price1CumulativeLast - price1cumulative) / (_time - blockTimestampLast);\r\n        } else {\r\n            // totalDai = _token1 + _token0.mul((price0CumulativeLast.sub(price0cumulative)).div(_time - blockTimestampLast));\r\n            totalDai = _token1 + _token0 * (price0CumulativeLast - price0cumulative) / (_time - blockTimestampLast);\r\n        }\r\n\r\n        // checks if enough time has passed to update price cumulative last\r\n        if (_time - blockTimestampLast >= PERIOD) {\r\n            price0CumulativeLast = price0cumulative;\r\n            price1CumulativeLast = price1cumulative;\r\n            blockTimestampLast = _time;\r\n        }\r\n\r\n    }\r\n\r\n    // onlyOwner Functions\r\n\r\n    // Checks if sender is owner\r\n    function isOwner() public view returns (bool) {\r\n        return msg.sender == _owner;\r\n    }\r\n\r\n    // Changes owner\r\n    function setOwner(address _newOwner) public onlyOwner {\r\n        _owner = _newOwner;\r\n    }\r\n\r\n    // Sets new Valuing Address\r\n    function setValuingAddress (address _newValuing) public onlyOwner {\r\n        valuingContract = valuingInterface(_newValuing);\r\n    }\r\n}",
  "sourcePath": "C:/Users/sonic/Desktop/Unbound/contracts/LiquidityLockContracts/LLC_EthDai.sol",
  "compiler": {
    "name": "solc",
    "version": "0.6.2+commit.bacdbe57.Emscripten.clang"
  },
  "schemaVersion": "3.2.3",
  "updatedAt": "2020-09-08T23:17:57.271Z",
  "networkType": "ethereum",
  "devdoc": {
    "methods": {}
  },
  "userdoc": {
    "methods": {}
  }
}