{
  "contractName": "LLC_EthDai",
  "abi": [
    {
      "inputs": [
        {
          "internalType": "address",
          "name": "valuingAddress",
          "type": "address"
        },
        {
          "internalType": "address",
          "name": "LPTaddress",
          "type": "address"
        }
      ],
      "stateMutability": "nonpayable",
      "type": "constructor"
    },
    {
      "inputs": [
        {
          "internalType": "address",
          "name": "",
          "type": "address"
        }
      ],
      "name": "_tokensLocked",
      "outputs": [
        {
          "internalType": "uint256",
          "name": "",
          "type": "uint256"
        }
      ],
      "stateMutability": "view",
      "type": "function"
    },
    {
      "inputs": [
        {
          "internalType": "uint256",
          "name": "LPTamt",
          "type": "uint256"
        },
        {
          "internalType": "uint8",
          "name": "tokenNum",
          "type": "uint8"
        },
        {
          "internalType": "uint256",
          "name": "extraTime",
          "type": "uint256"
        },
        {
          "internalType": "uint8",
          "name": "v",
          "type": "uint8"
        },
        {
          "internalType": "bytes32",
          "name": "r",
          "type": "bytes32"
        },
        {
          "internalType": "bytes32",
          "name": "s",
          "type": "bytes32"
        }
      ],
      "name": "lockLPT",
      "outputs": [],
      "stateMutability": "nonpayable",
      "type": "function"
    },
    {
      "inputs": [
        {
          "internalType": "uint256",
          "name": "LPTamt",
          "type": "uint256"
        },
        {
          "internalType": "uint8",
          "name": "tokenNum",
          "type": "uint8"
        }
      ],
      "name": "lockLPT1",
      "outputs": [],
      "stateMutability": "nonpayable",
      "type": "function"
    },
    {
      "inputs": [
        {
          "internalType": "uint256",
          "name": "LPToken",
          "type": "uint256"
        },
        {
          "internalType": "uint8",
          "name": "tokenNum",
          "type": "uint8"
        }
      ],
      "name": "unlockLPT",
      "outputs": [],
      "stateMutability": "nonpayable",
      "type": "function"
    },
    {
      "inputs": [],
      "name": "isOwner",
      "outputs": [
        {
          "internalType": "bool",
          "name": "",
          "type": "bool"
        }
      ],
      "stateMutability": "view",
      "type": "function"
    },
    {
      "inputs": [
        {
          "internalType": "address",
          "name": "_newOwner",
          "type": "address"
        }
      ],
      "name": "setOwner",
      "outputs": [],
      "stateMutability": "nonpayable",
      "type": "function"
    },
    {
      "inputs": [
        {
          "internalType": "address",
          "name": "_newValuing",
          "type": "address"
        }
      ],
      "name": "setValuingAddress",
      "outputs": [],
      "stateMutability": "nonpayable",
      "type": "function"
    }
  ],
  "bytecode": "0x608060405234801561001057600080fd5b5060405161188c38038061188c8339818101604052604081101561003357600080fd5b810190808051906020019092919080519060200190929190505050336000806101000a81548173ffffffffffffffffffffffffffffffffffffffff021916908373ffffffffffffffffffffffffffffffffffffffff16021790555081600260006101000a81548173ffffffffffffffffffffffffffffffffffffffff021916908373ffffffffffffffffffffffffffffffffffffffff16021790555080600360006101000a81548173ffffffffffffffffffffffffffffffffffffffff021916908373ffffffffffffffffffffffffffffffffffffffff160217905550505061176b806101216000396000f3fe608060405234801561001057600080fd5b506004361061007d5760003560e01c80638f32d59b1161005b5780638f32d59b146101455780639107886314610167578063ae51d676146101a2578063c5bf1748146101fa5761007d565b806304b7c7a4146100825780630cb55454146100c657806313af403514610101575b600080fd5b6100c46004803603602081101561009857600080fd5b81019080803573ffffffffffffffffffffffffffffffffffffffff169060200190929190505050610260565b005b6100ff600480360360408110156100dc57600080fd5b8101908080359060200190929190803560ff16906020019092919050505061031e565b005b6101436004803603602081101561011757600080fd5b81019080803573ffffffffffffffffffffffffffffffffffffffff16906020019092919050505061078e565b005b61014d61084b565b604051808215151515815260200191505060405180910390f35b6101a06004803603604081101561017d57600080fd5b8101908080359060200190929190803560ff1690602001909291905050506108a2565b005b6101e4600480360360208110156101b857600080fd5b81019080803573ffffffffffffffffffffffffffffffffffffffff169060200190929190505050610beb565b6040518082815260200191505060405180910390f35b61025e600480360360c081101561021057600080fd5b8101908080359060200190929190803560ff16906020019092919080359060200190929190803560ff1690602001909291908035906020019092919080359060200190929190505050610c03565b005b61026861084b565b6102da576040517f08c379a00000000000000000000000000000000000000000000000000000000081526004018080602001828103825260208152602001807f4f776e61626c653a2063616c6c6572206973206e6f7420746865206f776e657281525060200191505060405180910390fd5b80600260006101000a81548173ffffffffffffffffffffffffffffffffffffffff021916908373ffffffffffffffffffffffffffffffffffffffff16021790555050565b81600360009054906101000a900473ffffffffffffffffffffffffffffffffffffffff1673ffffffffffffffffffffffffffffffffffffffff166370a08231336040518263ffffffff1660e01b8152600401808273ffffffffffffffffffffffffffffffffffffffff1673ffffffffffffffffffffffffffffffffffffffff16815260200191505060206040518083038186803b1580156103be57600080fd5b505afa1580156103d2573d6000803e3d6000fd5b505050506040513d60208110156103e857600080fd5b8101908080519060200190929190505050101561046d576040517f08c379a00000000000000000000000000000000000000000000000000000000081526004018080602001828103825260168152602001807f696e73756666696369656e74204c69717569646974790000000000000000000081525060200191505060405180910390fd5b6000600360009054906101000a900473ffffffffffffffffffffffffffffffffffffffff1673ffffffffffffffffffffffffffffffffffffffff166318160ddd6040518163ffffffff1660e01b815260040160206040518083038186803b1580156104d757600080fd5b505afa1580156104eb573d6000803e3d6000fd5b505050506040513d602081101561050157600080fd5b810190808051906020019092919050505090506000806000600360009054906101000a900473ffffffffffffffffffffffffffffffffffffffff1673ffffffffffffffffffffffffffffffffffffffff16630902f1ac6040518163ffffffff1660e01b815260040160606040518083038186803b15801561058157600080fd5b505afa158015610595573d6000803e3d6000fd5b505050506040513d60608110156105ab57600080fd5b810190808051906020019092919080519060200190929190805190602001909291905050509250925092506000600284026dffffffffffffffffffffffffffff1690506000610615866106078a8561109490919063ffffffff16565b61111a90919063ffffffff16565b905061062088611164565b61067288600160003373ffffffffffffffffffffffffffffffffffffffff1673ffffffffffffffffffffffffffffffffffffffff1681526020019081526020016000205461128090919063ffffffff16565b600160003373ffffffffffffffffffffffffffffffffffffffff1673ffffffffffffffffffffffffffffffffffffffff16815260200190815260200160002081905550600260009054906101000a900473ffffffffffffffffffffffffffffffffffffffff1673ffffffffffffffffffffffffffffffffffffffff16635876694582338a6040518463ffffffff1660e01b8152600401808481526020018373ffffffffffffffffffffffffffffffffffffffff1673ffffffffffffffffffffffffffffffffffffffff1681526020018260ff1660ff1681526020019350505050600060405180830381600087803b15801561076c57600080fd5b505af1158015610780573d6000803e3d6000fd5b505050505050505050505050565b61079661084b565b610808576040517f08c379a00000000000000000000000000000000000000000000000000000000081526004018080602001828103825260208152602001807f4f776e61626c653a2063616c6c6572206973206e6f7420746865206f776e657281525060200191505060405180910390fd5b806000806101000a81548173ffffffffffffffffffffffffffffffffffffffff021916908373ffffffffffffffffffffffffffffffffffffffff16021790555050565b60008060009054906101000a900473ffffffffffffffffffffffffffffffffffffffff1673ffffffffffffffffffffffffffffffffffffffff163373ffffffffffffffffffffffffffffffffffffffff1614905090565b81600160003373ffffffffffffffffffffffffffffffffffffffff1673ffffffffffffffffffffffffffffffffffffffff168152602001908152602001600020541015610957576040517f08c379a000000000000000000000000000000000000000000000000000000000815260040180806020018281038252601d8152602001807f496e73756666696369656e74206c6971756964697479206c6f636b656400000081525060200191505060405180910390fd5b600260009054906101000a900473ffffffffffffffffffffffffffffffffffffffff1673ffffffffffffffffffffffffffffffffffffffff166389cffb7083600160003373ffffffffffffffffffffffffffffffffffffffff1673ffffffffffffffffffffffffffffffffffffffff1681526020019081526020016000205433856040518563ffffffff1660e01b8152600401808581526020018481526020018373ffffffffffffffffffffffffffffffffffffffff1673ffffffffffffffffffffffffffffffffffffffff1681526020018260ff1660ff168152602001945050505050600060405180830381600087803b158015610a5557600080fd5b505af1158015610a69573d6000803e3d6000fd5b50505050600360009054906101000a900473ffffffffffffffffffffffffffffffffffffffff1673ffffffffffffffffffffffffffffffffffffffff1663a9059cbb33846040518363ffffffff1660e01b8152600401808373ffffffffffffffffffffffffffffffffffffffff1673ffffffffffffffffffffffffffffffffffffffff16815260200182815260200192505050602060405180830381600087803b158015610b1657600080fd5b505af1158015610b2a573d6000803e3d6000fd5b505050506040513d6020811015610b4057600080fd5b810190808051906020019092919050505050610ba482600160003373ffffffffffffffffffffffffffffffffffffffff1673ffffffffffffffffffffffffffffffffffffffff1681526020019081526020016000205461130890919063ffffffff16565b600160003373ffffffffffffffffffffffffffffffffffffffff1673ffffffffffffffffffffffffffffffffffffffff168152602001908152602001600020819055505050565b60016020528060005260406000206000915090505481565b85600360009054906101000a900473ffffffffffffffffffffffffffffffffffffffff1673ffffffffffffffffffffffffffffffffffffffff166370a08231336040518263ffffffff1660e01b8152600401808273ffffffffffffffffffffffffffffffffffffffff1673ffffffffffffffffffffffffffffffffffffffff16815260200191505060206040518083038186803b158015610ca357600080fd5b505afa158015610cb7573d6000803e3d6000fd5b505050506040513d6020811015610ccd57600080fd5b81019080805190602001909291905050501015610d52576040517f08c379a00000000000000000000000000000000000000000000000000000000081526004018080602001828103825260168152602001807f696e73756666696369656e74204c69717569646974790000000000000000000081525060200191505060405180910390fd5b6000600360009054906101000a900473ffffffffffffffffffffffffffffffffffffffff1673ffffffffffffffffffffffffffffffffffffffff166318160ddd6040518163ffffffff1660e01b815260040160206040518083038186803b158015610dbc57600080fd5b505afa158015610dd0573d6000803e3d6000fd5b505050506040513d6020811015610de657600080fd5b810190808051906020019092919050505090506000806000600360009054906101000a900473ffffffffffffffffffffffffffffffffffffffff1673ffffffffffffffffffffffffffffffffffffffff16630902f1ac6040518163ffffffff1660e01b815260040160606040518083038186803b158015610e6657600080fd5b505afa158015610e7a573d6000803e3d6000fd5b505050506040513d6060811015610e9057600080fd5b810190808051906020019092919080519060200190929190805190602001909291905050509250925092506000600284026dffffffffffffffffffffffffffff1690506000610efa86610eec8e8561109490919063ffffffff16565b61111a90919063ffffffff16565b90506000610f118b4261128090919063ffffffff16565b9050610f21338e838d8d8d611352565b610f738d600160003373ffffffffffffffffffffffffffffffffffffffff1673ffffffffffffffffffffffffffffffffffffffff1681526020019081526020016000205461128090919063ffffffff16565b600160003373ffffffffffffffffffffffffffffffffffffffff1673ffffffffffffffffffffffffffffffffffffffff16815260200190815260200160002081905550600260009054906101000a900473ffffffffffffffffffffffffffffffffffffffff1673ffffffffffffffffffffffffffffffffffffffff16635876694583338f6040518463ffffffff1660e01b8152600401808481526020018373ffffffffffffffffffffffffffffffffffffffff1673ffffffffffffffffffffffffffffffffffffffff1681526020018260ff1660ff1681526020019350505050600060405180830381600087803b15801561106d57600080fd5b505af1158015611081573d6000803e3d6000fd5b5050505050505050505050505050505050565b6000808314156110a75760009050611114565b60008284029050828482816110b857fe5b041461110f576040517f08c379a00000000000000000000000000000000000000000000000000000000081526004018080602001828103825260218152602001806117156021913960400191505060405180910390fd5b809150505b92915050565b600061115c83836040518060400160405280601a81526020017f536166654d6174683a206469766973696f6e206279207a65726f00000000000081525061158e565b905092915050565b600360009054906101000a900473ffffffffffffffffffffffffffffffffffffffff1673ffffffffffffffffffffffffffffffffffffffff166323b872dd3330846040518463ffffffff1660e01b8152600401808473ffffffffffffffffffffffffffffffffffffffff1673ffffffffffffffffffffffffffffffffffffffff1681526020018373ffffffffffffffffffffffffffffffffffffffff1673ffffffffffffffffffffffffffffffffffffffff1681526020018281526020019350505050602060405180830381600087803b15801561124157600080fd5b505af1158015611255573d6000803e3d6000fd5b505050506040513d602081101561126b57600080fd5b81019080805190602001909291905050505050565b6000808284019050838110156112fe576040517f08c379a000000000000000000000000000000000000000000000000000000000815260040180806020018281038252601b8152602001807f536166654d6174683a206164646974696f6e206f766572666c6f77000000000081525060200191505060405180910390fd5b8091505092915050565b600061134a83836040518060400160405280601e81526020017f536166654d6174683a207375627472616374696f6e206f766572666c6f770000815250611654565b905092915050565b600360009054906101000a900473ffffffffffffffffffffffffffffffffffffffff1673ffffffffffffffffffffffffffffffffffffffff1663d505accf873088888888886040518863ffffffff1660e01b8152600401808873ffffffffffffffffffffffffffffffffffffffff1673ffffffffffffffffffffffffffffffffffffffff1681526020018773ffffffffffffffffffffffffffffffffffffffff1673ffffffffffffffffffffffffffffffffffffffff1681526020018681526020018581526020018460ff1660ff168152602001838152602001828152602001975050505050505050600060405180830381600087803b15801561145557600080fd5b505af1158015611469573d6000803e3d6000fd5b50505050600360009054906101000a900473ffffffffffffffffffffffffffffffffffffffff1673ffffffffffffffffffffffffffffffffffffffff166323b872dd3330886040518463ffffffff1660e01b8152600401808473ffffffffffffffffffffffffffffffffffffffff1673ffffffffffffffffffffffffffffffffffffffff1681526020018373ffffffffffffffffffffffffffffffffffffffff1673ffffffffffffffffffffffffffffffffffffffff1681526020018281526020019350505050602060405180830381600087803b15801561154a57600080fd5b505af115801561155e573d6000803e3d6000fd5b505050506040513d602081101561157457600080fd5b810190808051906020019092919050505050505050505050565b6000808311829061163a576040517f08c379a00000000000000000000000000000000000000000000000000000000081526004018080602001828103825283818151815260200191508051906020019080838360005b838110156115ff5780820151818401526020810190506115e4565b50505050905090810190601f16801561162c5780820380516001836020036101000a031916815260200191505b509250505060405180910390fd5b50600083858161164657fe5b049050809150509392505050565b6000838311158290611701576040517f08c379a00000000000000000000000000000000000000000000000000000000081526004018080602001828103825283818151815260200191508051906020019080838360005b838110156116c65780820151818401526020810190506116ab565b50505050905090810190601f1680156116f35780820380516001836020036101000a031916815260200191505b509250505060405180910390fd5b506000838503905080915050939250505056fe536166654d6174683a206d756c7469706c69636174696f6e206f766572666c6f77a26469706673582212205706f00a1e7884dfb820fad8d6725f34692cf97506b28ef28f3179884d2a61ad64736f6c63430006020033",
  "source": "pragma solidity ^0.6.2;\r\n// SPDX-License-Identifier: MIT\r\n\r\nimport \"@openzeppelin/contracts/math/SafeMath.sol\";\r\nimport \"@openzeppelin/contracts/utils/Address.sol\";\r\n\r\ninterface valuingInterface {\r\n    function unboundCreate(uint256 amount, address user, uint8 token) external;\r\n    function unboundRemove(uint256 toUnlock, uint256 totalLocked, address user, uint8 token) external;\r\n    \r\n}\r\n\r\ninterface liquidityPoolToken {\r\n    function totalSupply() external view returns (uint);\r\n    function balanceOf(address owner) external view returns (uint);\r\n    \r\n    function transfer(address to, uint value) external returns (bool);\r\n    function transferFrom(address from, address to, uint value) external returns (bool);\r\n\r\n    function DOMAIN_SEPARATOR() external view returns (bytes32);\r\n    function PERMIT_TYPEHASH() external pure returns (bytes32);\r\n    function nonces(address owner) external view returns (uint);\r\n\r\n    function permit(address owner, address spender, uint value, uint deadline, uint8 v, bytes32 r, bytes32 s) external;\r\n\r\n    function factory() external view returns (address); // needed?\r\n    function token0() external view returns (address);\r\n    function token1() external view returns (address);\r\n    function getReserves() external view returns (uint112 reserve0, uint112 reserve1, uint32 blockTimestampLast);\r\n    function price0CumulativeLast() external view returns (uint);\r\n    function price1CumulativeLast() external view returns (uint);\r\n    function kLast() external view returns (uint);\r\n}\r\n\r\n// Liquidity Lock Contract for ETH/DAI pair\r\ncontract LLC_EthDai {\r\n    using SafeMath for uint256;\r\n    using Address for address;\r\n\r\n    //Owner Address\r\n    address _owner;\r\n\r\n    // Position in Valuing - eth/dai is zero \r\n    // uint32 position = 0;  REMOVE ONCE TESTED\r\n\r\n    // tokens locked by users\r\n    mapping (address => uint256) public _tokensLocked;\r\n\r\n    // Interfaced Contracts\r\n    valuingInterface private valuingContract;\r\n    liquidityPoolToken private LPTContract;\r\n\r\n    // Modifiers\r\n    modifier onlyOwner() {\r\n        require(isOwner(), \"Ownable: caller is not the owner\");\r\n        _;\r\n    }\r\n\r\n    // Constructor\r\n    constructor (address valuingAddress, address LPTaddress) public {\r\n        _owner = msg.sender;\r\n        \r\n        valuingContract = valuingInterface(valuingAddress);\r\n        LPTContract = liquidityPoolToken(LPTaddress);\r\n    }\r\n\r\n    // Lock/Unlock functions\r\n    // Mint path\r\n    // tokenNum must be 0 (for now)\r\n    function lockLPT (uint256 LPTamt, uint8 tokenNum, uint extraTime, uint8 v, bytes32 r, bytes32 s) public {\r\n        require(LPTContract.balanceOf(msg.sender) >= LPTamt, \"insufficient Liquidity\");\r\n        uint256 totalLPTokens = LPTContract.totalSupply();\r\n\r\n        // token0 is DAI, token1 is WETH\r\n        // COULD REMOVE _token1 and _time. They are not used. But we need to test this first.\r\n        (uint112 _token0, uint112 _token1, uint32 _time) = LPTContract.getReserves();\r\n        \r\n        uint256 totalDai = _token0 * 2; // This is assuming the value of WETH is equal to value in DAI\r\n\r\n        // Use Uniswap oracle to compute average of valuations\r\n\r\n        // This should compute % value of Liq pool in Dai. Cannot have decimals in Solidity\r\n        uint256 LPTValueInDai = totalDai.mul(LPTamt).div(totalLPTokens);  \r\n\r\n        // call Permit and Transfer\r\n        uint deadline = block.timestamp.add(extraTime);\r\n\r\n        transferLPT(msg.sender, LPTamt, deadline, v, r, s);\r\n        \r\n\r\n        // map locked tokens to user\r\n        _tokensLocked[msg.sender] = _tokensLocked[msg.sender].add(LPTamt);\r\n\r\n        // Call Valuing Contract\r\n        valuingContract.unboundCreate(LPTValueInDai, msg.sender, tokenNum); // Hardcode \"0\" for AAA rating\r\n        \r\n    }\r\n\r\n    function lockLPT1 (uint256 LPTamt, uint8 tokenNum) public {\r\n        require(LPTContract.balanceOf(msg.sender) >= LPTamt, \"insufficient Liquidity\");\r\n        uint256 totalLPTokens = LPTContract.totalSupply();\r\n\r\n        // token0 is DAI, token1 is WETH\r\n        // COULD REMOVE _token1 and _time. They are not used. But we need to test this first.\r\n        (uint112 _token0, uint112 _token1, uint32 _time) = LPTContract.getReserves();\r\n        \r\n        uint256 totalDai = _token0 * 2; // This is assuming the value of WETH is equal to value in DAI\r\n\r\n        // Use Uniswap oracle to compute average of valuations\r\n\r\n        // This should compute % value of Liq pool in Dai. Cannot have decimals in Solidity\r\n        uint256 LPTValueInDai = totalDai.mul(LPTamt).div(totalLPTokens);  \r\n\r\n        \r\n\r\n        transferLPT1(LPTamt);\r\n        \r\n\r\n        // map locked tokens to user\r\n        _tokensLocked[msg.sender] = _tokensLocked[msg.sender].add(LPTamt);\r\n\r\n        // Call Valuing Contract\r\n        valuingContract.unboundCreate(LPTValueInDai, msg.sender, tokenNum); // Hardcode \"0\" for AAA rating\r\n        \r\n    }\r\n\r\n    function transferLPT1(uint256 amount) internal {\r\n        //LPTContract.permit(msg.sender, address(this), amount, deadline, v, r, s);\r\n        LPTContract.transferFrom(msg.sender, address(this), amount);\r\n        \r\n    }\r\n\r\n    function transferLPT(address user, uint256 amount, uint deadline, uint8 v, bytes32 r, bytes32 s) internal {\r\n        LPTContract.permit(user, address(this), amount, deadline, v, r, s);\r\n        LPTContract.transferFrom(msg.sender, address(this), amount);\r\n        \r\n    }\r\n\r\n    // Burn Path\r\n\r\n    // tokenNum must be 0\r\n    function unlockLPT (uint256 LPToken, uint8 tokenNum) public {\r\n        require (_tokensLocked[msg.sender] >= LPToken, \"Insufficient liquidity locked\");\r\n\r\n        // Burning of Udai will happen first\r\n        valuingContract.unboundRemove(LPToken, _tokensLocked[msg.sender], msg.sender, tokenNum);\r\n        \r\n        LPTContract.transfer(msg.sender, LPToken);\r\n        _tokensLocked[msg.sender] = _tokensLocked[msg.sender].sub(LPToken);\r\n        // compute amount to burn based on this\r\n        // I think with this formula, even if all valuing variables are constant, it is possible that the amount of Udai to burn may be more/less than on Mint.\r\n\r\n    }\r\n    \r\n\r\n    // onlyOwner Functions\r\n\r\n    // Checks if sender is owner\r\n    function isOwner() public view returns (bool) {\r\n        return msg.sender == _owner;\r\n    }\r\n\r\n    // Changes owner\r\n    function setOwner(address _newOwner) public onlyOwner {\r\n        _owner = _newOwner;\r\n    }\r\n\r\n    // Sets new Valuing Address\r\n    function setValuingAddress (address _newValuing) public onlyOwner {\r\n        valuingContract = valuingInterface(_newValuing);\r\n    }\r\n}",
  "sourcePath": "C:/Users/sonic/Desktop/Unbound/contracts/LiquidityLockContracts/LLC_EthDai.sol",
  "compiler": {
    "name": "solc",
    "version": "0.6.2+commit.bacdbe57.Emscripten.clang"
  },
  "schemaVersion": "3.2.3",
  "updatedAt": "2020-09-05T19:43:25.179Z",
  "devdoc": {
    "methods": {}
  },
  "userdoc": {
    "methods": {}
  }
}