{
  "contractName": "TestDai",
  "abi": [
    {
      "inputs": [
        {
          "internalType": "address",
          "name": "tester",
          "type": "address"
        },
        {
          "internalType": "uint256",
          "name": "chainId_",
          "type": "uint256"
        }
      ],
      "stateMutability": "nonpayable",
      "type": "constructor"
    },
    {
      "anonymous": false,
      "inputs": [
        {
          "indexed": true,
          "internalType": "address",
          "name": "owner",
          "type": "address"
        },
        {
          "indexed": true,
          "internalType": "address",
          "name": "spender",
          "type": "address"
        },
        {
          "indexed": false,
          "internalType": "uint256",
          "name": "value",
          "type": "uint256"
        }
      ],
      "name": "Approval",
      "type": "event"
    },
    {
      "anonymous": false,
      "inputs": [
        {
          "indexed": true,
          "internalType": "address",
          "name": "from",
          "type": "address"
        },
        {
          "indexed": true,
          "internalType": "address",
          "name": "to",
          "type": "address"
        },
        {
          "indexed": false,
          "internalType": "uint256",
          "name": "value",
          "type": "uint256"
        }
      ],
      "name": "Transfer",
      "type": "event"
    },
    {
      "inputs": [],
      "name": "DOMAIN_SEPARATOR",
      "outputs": [
        {
          "internalType": "bytes32",
          "name": "",
          "type": "bytes32"
        }
      ],
      "stateMutability": "view",
      "type": "function"
    },
    {
      "inputs": [],
      "name": "PERMIT_TYPEHASH",
      "outputs": [
        {
          "internalType": "bytes32",
          "name": "",
          "type": "bytes32"
        }
      ],
      "stateMutability": "view",
      "type": "function"
    },
    {
      "inputs": [
        {
          "internalType": "address",
          "name": "",
          "type": "address"
        },
        {
          "internalType": "address",
          "name": "",
          "type": "address"
        }
      ],
      "name": "allowance",
      "outputs": [
        {
          "internalType": "uint256",
          "name": "",
          "type": "uint256"
        }
      ],
      "stateMutability": "view",
      "type": "function"
    },
    {
      "inputs": [
        {
          "internalType": "address",
          "name": "",
          "type": "address"
        }
      ],
      "name": "balanceOf",
      "outputs": [
        {
          "internalType": "uint256",
          "name": "",
          "type": "uint256"
        }
      ],
      "stateMutability": "view",
      "type": "function"
    },
    {
      "inputs": [],
      "name": "decimals",
      "outputs": [
        {
          "internalType": "uint8",
          "name": "",
          "type": "uint8"
        }
      ],
      "stateMutability": "view",
      "type": "function"
    },
    {
      "inputs": [],
      "name": "name",
      "outputs": [
        {
          "internalType": "string",
          "name": "",
          "type": "string"
        }
      ],
      "stateMutability": "view",
      "type": "function"
    },
    {
      "inputs": [
        {
          "internalType": "address",
          "name": "",
          "type": "address"
        }
      ],
      "name": "nonces",
      "outputs": [
        {
          "internalType": "uint256",
          "name": "",
          "type": "uint256"
        }
      ],
      "stateMutability": "view",
      "type": "function"
    },
    {
      "inputs": [],
      "name": "symbol",
      "outputs": [
        {
          "internalType": "string",
          "name": "",
          "type": "string"
        }
      ],
      "stateMutability": "view",
      "type": "function"
    },
    {
      "inputs": [],
      "name": "totalSupply",
      "outputs": [
        {
          "internalType": "uint256",
          "name": "",
          "type": "uint256"
        }
      ],
      "stateMutability": "view",
      "type": "function"
    },
    {
      "inputs": [],
      "name": "version",
      "outputs": [
        {
          "internalType": "string",
          "name": "",
          "type": "string"
        }
      ],
      "stateMutability": "view",
      "type": "function"
    },
    {
      "inputs": [
        {
          "internalType": "address",
          "name": "to",
          "type": "address"
        },
        {
          "internalType": "uint256",
          "name": "value",
          "type": "uint256"
        }
      ],
      "name": "_mint",
      "outputs": [],
      "stateMutability": "nonpayable",
      "type": "function"
    },
    {
      "inputs": [
        {
          "internalType": "address",
          "name": "from",
          "type": "address"
        },
        {
          "internalType": "uint256",
          "name": "value",
          "type": "uint256"
        }
      ],
      "name": "_burn",
      "outputs": [],
      "stateMutability": "nonpayable",
      "type": "function"
    },
    {
      "inputs": [
        {
          "internalType": "address",
          "name": "spender",
          "type": "address"
        },
        {
          "internalType": "uint256",
          "name": "value",
          "type": "uint256"
        }
      ],
      "name": "approve",
      "outputs": [
        {
          "internalType": "bool",
          "name": "",
          "type": "bool"
        }
      ],
      "stateMutability": "nonpayable",
      "type": "function"
    },
    {
      "inputs": [
        {
          "internalType": "address",
          "name": "to",
          "type": "address"
        },
        {
          "internalType": "uint256",
          "name": "value",
          "type": "uint256"
        }
      ],
      "name": "transfer",
      "outputs": [
        {
          "internalType": "bool",
          "name": "",
          "type": "bool"
        }
      ],
      "stateMutability": "nonpayable",
      "type": "function"
    },
    {
      "inputs": [
        {
          "internalType": "address",
          "name": "from",
          "type": "address"
        },
        {
          "internalType": "address",
          "name": "to",
          "type": "address"
        },
        {
          "internalType": "uint256",
          "name": "value",
          "type": "uint256"
        }
      ],
      "name": "transferFrom",
      "outputs": [
        {
          "internalType": "bool",
          "name": "",
          "type": "bool"
        }
      ],
      "stateMutability": "nonpayable",
      "type": "function"
    },
    {
      "inputs": [
        {
          "internalType": "address",
          "name": "holder",
          "type": "address"
        },
        {
          "internalType": "address",
          "name": "spender",
          "type": "address"
        },
        {
          "internalType": "uint256",
          "name": "nonce",
          "type": "uint256"
        },
        {
          "internalType": "uint256",
          "name": "expiry",
          "type": "uint256"
        },
        {
          "internalType": "bool",
          "name": "allowed",
          "type": "bool"
        },
        {
          "internalType": "uint8",
          "name": "v",
          "type": "uint8"
        },
        {
          "internalType": "bytes32",
          "name": "r",
          "type": "bytes32"
        },
        {
          "internalType": "bytes32",
          "name": "s",
          "type": "bytes32"
        }
      ],
      "name": "permit",
      "outputs": [],
      "stateMutability": "nonpayable",
      "type": "function"
    }
  ],
  "bytecode": "0x608060405234801561001057600080fd5b50604051610e66380380610e668339818101604052604081101561003357600080fd5b5080516020918201513360009081526001845260409020549192909161006d916a52b7d2dcc80cd2e400000090610abd6101c0821b17901c565b336000908152600160209081526040808320939093556001600160a01b0385168252919020546100b1916a52b7d2dcc80cd2e400000090610abd6101c0821b17901c565b6001600160a01b0383166000908152600160209081526040822092909255546100ed9169d3c21bcecceda100000090610abd6101c0821b17901c565b600055604051806052610e14823960408051918290036052018220828201825260078352665465737444616960c81b6020938401528151808301835260018152603160f81b908401528151808401919091527ffb56ce01eb8fb71566d85cbf8ded48f63ccebe4bba6060694f928f7ddb4156bc818301527fc89efdaa54c0f20c7adf612882df0950f5a951637e0307cdcb4c672f298b8bc6606082015260808101949094523060a0808601919091528151808603909101815260c090940190528251920191909120600355506102219050565b60008282018381101561021a576040805162461bcd60e51b815260206004820152601b60248201527f536166654d6174683a206164646974696f6e206f766572666c6f770000000000604482015290519081900360640190fd5b9392505050565b610be4806102306000396000f3fe608060405234801561001057600080fd5b50600436106101005760003560e01c806354fd4d50116100975780638fcbaf0c116100665780638fcbaf0c146102ee57806395d89b4114610348578063a9059cbb14610350578063dd62ed3e1461037c57610100565b806354fd4d501461026e5780636161eb181461027657806370a08231146102a25780637ecebe00146102c857610100565b806330adf81f116100d357806330adf81f14610212578063313ce5671461021a5780633644e515146102385780634e6ec2471461024057610100565b806306fdde0314610105578063095ea7b31461018257806318160ddd146101c257806323b872dd146101dc575b600080fd5b61010d6103aa565b6040805160208082528351818301528351919283929083019185019080838360005b8381101561014757818101518382015260200161012f565b50505050905090810190601f1680156101745780820380516001836020036101000a031916815260200191505b509250505060405180910390f35b6101ae6004803603604081101561019857600080fd5b506001600160a01b0381351690602001356103cd565b604080519115158252519081900360200190f35b6101ca6103e3565b60408051918252519081900360200190f35b6101ae600480360360608110156101f257600080fd5b506001600160a01b038135811691602081013590911690604001356103e9565b6101ca610483565b6102226104a7565b6040805160ff9092168252519081900360200190f35b6101ca6104ac565b61026c6004803603604081101561025657600080fd5b506001600160a01b0381351690602001356104b2565b005b61010d610548565b61026c6004803603604081101561028c57600080fd5b506001600160a01b038135169060200135610565565b6101ca600480360360208110156102b857600080fd5b50356001600160a01b0316610603565b6101ca600480360360208110156102de57600080fd5b50356001600160a01b0316610615565b61026c600480360361010081101561030557600080fd5b506001600160a01b038135811691602081013590911690604081013590606081013590608081013515159060ff60a0820135169060c08101359060e00135610627565b61010d61090e565b6101ae6004803603604081101561036657600080fd5b506001600160a01b03813516906020013561092e565b6101ca6004803603604081101561039257600080fd5b506001600160a01b038135811691602001351661093b565b604051806040016040528060078152602001665465737444616960c81b81525081565b60006103da338484610958565b50600192915050565b60005481565b6001600160a01b03831660009081526002602090815260408083203384529091528120546000191461046e576001600160a01b0384166000908152600260209081526040808320338452909152902054610449908363ffffffff6109ba16565b6001600160a01b03851660009081526002602090815260408083203384529091529020555b610479848484610a03565b5060019392505050565b7f6e71edae12b1b97f4d1f60370fef10105fa2faae0126114a169c64845d6126c981565b601281565b60035481565b6000546104c5908263ffffffff610abd16565b60009081556001600160a01b0383168152600160205260409020546104f0908263ffffffff610abd16565b6001600160a01b03831660008181526001602090815260408083209490945583518581529351929391927fddf252ad1be2c89b69c2b068fc378daa952ba7f163c4a11628f55a4df523b3ef9281900390910190a35050565b604051806040016040528060018152602001603160f81b81525081565b6001600160a01b03821660009081526001602052604090205461058e908263ffffffff6109ba16565b6001600160a01b038316600090815260016020526040812091909155546105bb908263ffffffff6109ba16565b60009081556040805183815290516001600160a01b038516917fddf252ad1be2c89b69c2b068fc378daa952ba7f163c4a11628f55a4df523b3ef919081900360200190a35050565b60016020526000908152604090205481565b60046020526000908152604090205481565b600354604080517f6e71edae12b1b97f4d1f60370fef10105fa2faae0126114a169c64845d6126c96020808301919091526001600160a01b03808d16838501819052908c166060840152608083018b905260a083018a905288151560c0808501919091528451808503909101815260e08401855280519083012061190160f01b61010085015261010284019590955261012280840195909552835180840390950185526101429092019092528251929091019190912090610723576040805162461bcd60e51b81526020600482015260116024820152700696e76616c69642d616464726573732d3607c1b604482015290519081900360640190fd5b6040805160008152602080820180845284905260ff8716828401526060820186905260808201859052915160019260a0808401939192601f1981019281900390910190855afa15801561077a573d6000803e3d6000fd5b505050602060405103516001600160a01b0316896001600160a01b0316146107da576040805162461bcd60e51b815260206004820152600e60248201526d1a5b9d985b1a590b5c195c9b5a5d60921b604482015290519081900360640190fd5b8515806107e75750854211155b610829576040805162461bcd60e51b815260206004820152600e60248201526d1c195c9b5a5d0b595e1c1a5c995960921b604482015290519081900360640190fd5b6001600160a01b0389166000908152600460205260409020805460018101909155871461088d576040805162461bcd60e51b815260206004820152600d60248201526c696e76616c69642d6e6f6e636560981b604482015290519081900360640190fd5b60008561089b57600061089f565b6000195b6001600160a01b03808c166000818152600260209081526040808320948f168084529482529182902085905581518581529151949550929391927f8c5be1e5ebec7d5bd14f71427d1e84f3dd0314c0f7b2291e5b200ac8c7c3b92592918290030190a350505050505050505050565b604051806040016040528060048152602001635444414960e01b81525081565b60006103da338484610a03565b600260209081526000928352604080842090915290825290205481565b6001600160a01b03808416600081815260026020908152604080832094871680845294825291829020859055815185815291517f8c5be1e5ebec7d5bd14f71427d1e84f3dd0314c0f7b2291e5b200ac8c7c3b9259281900390910190a3505050565b60006109fc83836040518060400160405280601e81526020017f536166654d6174683a207375627472616374696f6e206f766572666c6f770000815250610b17565b9392505050565b6001600160a01b038316600090815260016020526040902054610a2c908263ffffffff6109ba16565b6001600160a01b038085166000908152600160205260408082209390935590841681522054610a61908263ffffffff610abd16565b6001600160a01b0380841660008181526001602090815260409182902094909455805185815290519193928716927fddf252ad1be2c89b69c2b068fc378daa952ba7f163c4a11628f55a4df523b3ef92918290030190a3505050565b6000828201838110156109fc576040805162461bcd60e51b815260206004820152601b60248201527f536166654d6174683a206164646974696f6e206f766572666c6f770000000000604482015290519081900360640190fd5b60008184841115610ba65760405162461bcd60e51b81526004018080602001828103825283818151815260200191508051906020019080838360005b83811015610b6b578181015183820152602001610b53565b50505050905090810190601f168015610b985780820380516001836020036101000a031916815260200191505b509250505060405180910390fd5b50505090039056fea26469706673582212205c28169112a635f809cd59b0f6fb50fa73982c4474ab0654dbfa38d30ccb4a3764736f6c63430006060033454950373132446f6d61696e28737472696e67206e616d652c737472696e672076657273696f6e2c75696e7432353620636861696e49642c6164647265737320766572696679696e67436f6e747261637429",
  "immutableReferences": {},
  "source": "pragma solidity >=0.4.23 <0.8.0;\r\n\r\nimport \"../openzeppelin/contracts/token/ERC20/IERC20.sol\";\r\nimport \"../openzeppelin/contracts/math/SafeMath.sol\";\r\n\r\ncontract TestDai is IERC20 {\r\n    using SafeMath for uint;\r\n\r\n    string public constant name = 'TestDai';\r\n    string public constant symbol = 'TDAI';\r\n    uint8 public constant decimals = 18;\r\n    uint  public override totalSupply;\r\n    string public constant version = \"1\";  // From DAI contract\r\n    mapping(address => uint) public override balanceOf;\r\n    mapping(address => mapping(address => uint)) public override allowance;\r\n\r\n    // PERMIT VARIABLES\r\n    bytes32 public DOMAIN_SEPARATOR;\r\n    // keccak256(\"Permit(address owner,address spender,uint256 value,uint256 nonce,uint256 deadline)\");\r\n    bytes32 public constant PERMIT_TYPEHASH = 0x6e71edae12b1b97f4d1f60370fef10105fa2faae0126114a169c64845d6126c9;\r\n    mapping(address => uint) public nonces;\r\n\r\n\r\n    // event Approval(address indexed owner, address indexed spender, uint value);\r\n    // event Transfer(address indexed from, address indexed to, uint value);\r\n\r\n    constructor(address tester, uint256 chainId_) public {\r\n        balanceOf[msg.sender] = balanceOf[msg.sender].add(100000000 * (10 ** 18));\r\n        balanceOf[tester] = balanceOf[tester].add(100000000 * (10 ** 18));\r\n        totalSupply = totalSupply.add(1000000 * (10 ** 18));\r\n\r\n        // Permit??\r\n        DOMAIN_SEPARATOR = keccak256(abi.encode(\r\n            keccak256(\"EIP712Domain(string name,string version,uint256 chainId,address verifyingContract)\"),\r\n            keccak256(bytes(name)),\r\n            keccak256(bytes(version)),\r\n            chainId_,\r\n            address(this)\r\n        ));\r\n    }\r\n\r\n    function _mint(address to, uint value) public {\r\n        totalSupply = totalSupply.add(value);\r\n        balanceOf[to] = balanceOf[to].add(value);\r\n        emit Transfer(address(0), to, value);\r\n    }\r\n\r\n    function _burn(address from, uint value) public {\r\n        balanceOf[from] = balanceOf[from].sub(value);\r\n        totalSupply = totalSupply.sub(value);\r\n        emit Transfer(from, address(0), value);\r\n    }\r\n\r\n    function _approve(address owner, address spender, uint value) private {\r\n        allowance[owner][spender] = value;\r\n        emit Approval(owner, spender, value);\r\n    }\r\n\r\n    function _transfer(address from, address to, uint value) private {\r\n        balanceOf[from] = balanceOf[from].sub(value);\r\n        balanceOf[to] = balanceOf[to].add(value);\r\n        emit Transfer(from, to, value);\r\n    }\r\n\r\n    function approve(address spender, uint value) external override returns (bool) {\r\n        _approve(msg.sender, spender, value);\r\n        return true;\r\n    }\r\n\r\n    function transfer(address to, uint value) external override returns (bool) {\r\n        _transfer(msg.sender, to, value);\r\n        return true;\r\n    }\r\n\r\n    function transferFrom(address from, address to, uint value) external override returns (bool) {\r\n        if (allowance[from][msg.sender] != uint(-1)) {\r\n            allowance[from][msg.sender] = allowance[from][msg.sender].sub(value);\r\n        }\r\n        _transfer(from, to, value);\r\n        return true;\r\n    }\r\n\r\n    //  PERMIT FUNCTION - from DAI contract\r\n    function permit(address holder, address spender, uint256 nonce, uint256 expiry,\r\n                    bool allowed, uint8 v, bytes32 r, bytes32 s) external\r\n    {\r\n        bytes32 digest =\r\n            keccak256(abi.encodePacked(\r\n                \"\\x19\\x01\",                    // Do not understand what this is for\r\n                DOMAIN_SEPARATOR,              \r\n                keccak256(abi.encode(          // are we just taking a hash of a hash here?\r\n                    PERMIT_TYPEHASH,\r\n                    holder,\r\n                    spender,\r\n                    nonce,\r\n                    expiry,\r\n                    allowed))\r\n        ));\r\n\r\n        require(holder != address(0), \"invalid-address-0\");\r\n        require(holder == ecrecover(digest, v, r, s), \"invalid-permit\");\r\n        require(expiry == 0 || block.timestamp <= expiry, \"permit-expired\");\r\n        require(nonce == nonces[holder]++, \"invalid-nonce\");           // When does nonces[holder] actually change?\r\n        uint wad = allowed ? uint(-1) : 0;\r\n        allowance[holder][spender] = wad;\r\n        emit Approval(holder, spender, wad);\r\n    }\r\n}",
  "sourcePath": "C:/Users/sonic/Desktop/Unbound/contracts/testERC20/testDai.sol",
  "compiler": {
    "name": "solc",
    "version": "0.6.6+commit.6c089d02.Emscripten.clang"
  },
  "schemaVersion": "3.2.3",
  "updatedAt": "2020-09-20T05:02:40.600Z",
  "devdoc": {
    "methods": {}
  },
  "userdoc": {
    "methods": {}
  }
}