{
  "contractName": "UnboundDai",
  "abi": [
    {
      "inputs": [
        {
          "internalType": "string",
          "name": "name",
          "type": "string"
        },
        {
          "internalType": "string",
          "name": "symbol",
          "type": "string"
        },
        {
          "internalType": "uint256",
          "name": "chainId_",
          "type": "uint256"
        },
        {
          "internalType": "address",
          "name": "Safu",
          "type": "address"
        },
        {
          "internalType": "address",
          "name": "devFund",
          "type": "address"
        }
      ],
      "stateMutability": "nonpayable",
      "type": "constructor"
    },
    {
      "anonymous": false,
      "inputs": [
        {
          "indexed": true,
          "internalType": "address",
          "name": "owner",
          "type": "address"
        },
        {
          "indexed": true,
          "internalType": "address",
          "name": "spender",
          "type": "address"
        },
        {
          "indexed": false,
          "internalType": "uint256",
          "name": "value",
          "type": "uint256"
        }
      ],
      "name": "Approval",
      "type": "event"
    },
    {
      "anonymous": false,
      "inputs": [
        {
          "indexed": false,
          "internalType": "address",
          "name": "user",
          "type": "address"
        },
        {
          "indexed": false,
          "internalType": "uint256",
          "name": "burned",
          "type": "uint256"
        }
      ],
      "name": "Burn",
      "type": "event"
    },
    {
      "anonymous": false,
      "inputs": [
        {
          "indexed": false,
          "internalType": "address",
          "name": "user",
          "type": "address"
        },
        {
          "indexed": false,
          "internalType": "uint256",
          "name": "newMint",
          "type": "uint256"
        }
      ],
      "name": "Mint",
      "type": "event"
    },
    {
      "anonymous": false,
      "inputs": [
        {
          "indexed": true,
          "internalType": "address",
          "name": "from",
          "type": "address"
        },
        {
          "indexed": true,
          "internalType": "address",
          "name": "to",
          "type": "address"
        },
        {
          "indexed": false,
          "internalType": "uint256",
          "name": "value",
          "type": "uint256"
        }
      ],
      "name": "Transfer",
      "type": "event"
    },
    {
      "inputs": [],
      "name": "DOMAIN_SEPARATOR",
      "outputs": [
        {
          "internalType": "bytes32",
          "name": "",
          "type": "bytes32"
        }
      ],
      "stateMutability": "view",
      "type": "function"
    },
    {
      "inputs": [],
      "name": "PERMIT_TYPEHASH",
      "outputs": [
        {
          "internalType": "bytes32",
          "name": "",
          "type": "bytes32"
        }
      ],
      "stateMutability": "view",
      "type": "function"
    },
    {
      "inputs": [],
      "name": "_decimals",
      "outputs": [
        {
          "internalType": "uint8",
          "name": "",
          "type": "uint8"
        }
      ],
      "stateMutability": "view",
      "type": "function"
    },
    {
      "inputs": [],
      "name": "_devFundAddr",
      "outputs": [
        {
          "internalType": "address",
          "name": "",
          "type": "address"
        }
      ],
      "stateMutability": "view",
      "type": "function"
    },
    {
      "inputs": [],
      "name": "_name",
      "outputs": [
        {
          "internalType": "string",
          "name": "",
          "type": "string"
        }
      ],
      "stateMutability": "view",
      "type": "function"
    },
    {
      "inputs": [],
      "name": "_safuAddr",
      "outputs": [
        {
          "internalType": "address",
          "name": "",
          "type": "address"
        }
      ],
      "stateMutability": "view",
      "type": "function"
    },
    {
      "inputs": [],
      "name": "_safuShares",
      "outputs": [
        {
          "internalType": "uint256",
          "name": "",
          "type": "uint256"
        }
      ],
      "stateMutability": "view",
      "type": "function"
    },
    {
      "inputs": [],
      "name": "_stakeAddr",
      "outputs": [
        {
          "internalType": "address",
          "name": "",
          "type": "address"
        }
      ],
      "stateMutability": "view",
      "type": "function"
    },
    {
      "inputs": [],
      "name": "_stakeShares",
      "outputs": [
        {
          "internalType": "uint256",
          "name": "",
          "type": "uint256"
        }
      ],
      "stateMutability": "view",
      "type": "function"
    },
    {
      "inputs": [],
      "name": "_symbol",
      "outputs": [
        {
          "internalType": "string",
          "name": "",
          "type": "string"
        }
      ],
      "stateMutability": "view",
      "type": "function"
    },
    {
      "inputs": [],
      "name": "_totalSupply",
      "outputs": [
        {
          "internalType": "uint256",
          "name": "",
          "type": "uint256"
        }
      ],
      "stateMutability": "view",
      "type": "function"
    },
    {
      "inputs": [
        {
          "internalType": "address",
          "name": "",
          "type": "address"
        }
      ],
      "name": "nonces",
      "outputs": [
        {
          "internalType": "uint256",
          "name": "",
          "type": "uint256"
        }
      ],
      "stateMutability": "view",
      "type": "function"
    },
    {
      "inputs": [],
      "name": "version",
      "outputs": [
        {
          "internalType": "string",
          "name": "",
          "type": "string"
        }
      ],
      "stateMutability": "view",
      "type": "function"
    },
    {
      "inputs": [],
      "name": "name",
      "outputs": [
        {
          "internalType": "string",
          "name": "",
          "type": "string"
        }
      ],
      "stateMutability": "view",
      "type": "function"
    },
    {
      "inputs": [],
      "name": "symbol",
      "outputs": [
        {
          "internalType": "string",
          "name": "",
          "type": "string"
        }
      ],
      "stateMutability": "view",
      "type": "function"
    },
    {
      "inputs": [],
      "name": "decimals",
      "outputs": [
        {
          "internalType": "uint8",
          "name": "",
          "type": "uint8"
        }
      ],
      "stateMutability": "view",
      "type": "function"
    },
    {
      "inputs": [],
      "name": "totalSupply",
      "outputs": [
        {
          "internalType": "uint256",
          "name": "",
          "type": "uint256"
        }
      ],
      "stateMutability": "view",
      "type": "function"
    },
    {
      "inputs": [
        {
          "internalType": "address",
          "name": "account",
          "type": "address"
        }
      ],
      "name": "balanceOf",
      "outputs": [
        {
          "internalType": "uint256",
          "name": "",
          "type": "uint256"
        }
      ],
      "stateMutability": "view",
      "type": "function"
    },
    {
      "inputs": [
        {
          "internalType": "address",
          "name": "holder",
          "type": "address"
        },
        {
          "internalType": "address",
          "name": "spender",
          "type": "address"
        },
        {
          "internalType": "uint256",
          "name": "nonce",
          "type": "uint256"
        },
        {
          "internalType": "uint256",
          "name": "expiry",
          "type": "uint256"
        },
        {
          "internalType": "bool",
          "name": "allowed",
          "type": "bool"
        },
        {
          "internalType": "uint8",
          "name": "v",
          "type": "uint8"
        },
        {
          "internalType": "bytes32",
          "name": "r",
          "type": "bytes32"
        },
        {
          "internalType": "bytes32",
          "name": "s",
          "type": "bytes32"
        }
      ],
      "name": "permit",
      "outputs": [],
      "stateMutability": "nonpayable",
      "type": "function"
    },
    {
      "inputs": [
        {
          "internalType": "address",
          "name": "recipient",
          "type": "address"
        },
        {
          "internalType": "uint256",
          "name": "amount",
          "type": "uint256"
        }
      ],
      "name": "transfer",
      "outputs": [
        {
          "internalType": "bool",
          "name": "",
          "type": "bool"
        }
      ],
      "stateMutability": "nonpayable",
      "type": "function"
    },
    {
      "inputs": [
        {
          "internalType": "address",
          "name": "sender",
          "type": "address"
        },
        {
          "internalType": "address",
          "name": "recipient",
          "type": "address"
        },
        {
          "internalType": "uint256",
          "name": "amount",
          "type": "uint256"
        }
      ],
      "name": "transferFrom",
      "outputs": [
        {
          "internalType": "bool",
          "name": "",
          "type": "bool"
        }
      ],
      "stateMutability": "nonpayable",
      "type": "function"
    },
    {
      "inputs": [
        {
          "internalType": "address",
          "name": "owner",
          "type": "address"
        },
        {
          "internalType": "address",
          "name": "spender",
          "type": "address"
        }
      ],
      "name": "allowance",
      "outputs": [
        {
          "internalType": "uint256",
          "name": "",
          "type": "uint256"
        }
      ],
      "stateMutability": "view",
      "type": "function"
    },
    {
      "inputs": [
        {
          "internalType": "address",
          "name": "spender",
          "type": "address"
        },
        {
          "internalType": "uint256",
          "name": "amount",
          "type": "uint256"
        }
      ],
      "name": "approve",
      "outputs": [
        {
          "internalType": "bool",
          "name": "",
          "type": "bool"
        }
      ],
      "stateMutability": "nonpayable",
      "type": "function"
    },
    {
      "inputs": [
        {
          "internalType": "address",
          "name": "spender",
          "type": "address"
        },
        {
          "internalType": "uint256",
          "name": "addedValue",
          "type": "uint256"
        }
      ],
      "name": "increaseAllowance",
      "outputs": [
        {
          "internalType": "bool",
          "name": "",
          "type": "bool"
        }
      ],
      "stateMutability": "nonpayable",
      "type": "function"
    },
    {
      "inputs": [
        {
          "internalType": "address",
          "name": "spender",
          "type": "address"
        },
        {
          "internalType": "uint256",
          "name": "subtractedValue",
          "type": "uint256"
        }
      ],
      "name": "decreaseAllowance",
      "outputs": [
        {
          "internalType": "bool",
          "name": "",
          "type": "bool"
        }
      ],
      "stateMutability": "nonpayable",
      "type": "function"
    },
    {
      "inputs": [
        {
          "internalType": "address",
          "name": "account",
          "type": "address"
        },
        {
          "internalType": "uint256",
          "name": "amount",
          "type": "uint256"
        },
        {
          "internalType": "uint256",
          "name": "fee",
          "type": "uint256"
        }
      ],
      "name": "_mint",
      "outputs": [],
      "stateMutability": "nonpayable",
      "type": "function"
    },
    {
      "inputs": [
        {
          "internalType": "address",
          "name": "account",
          "type": "address"
        },
        {
          "internalType": "uint256",
          "name": "toBurn",
          "type": "uint256"
        }
      ],
      "name": "_burn",
      "outputs": [],
      "stateMutability": "nonpayable",
      "type": "function"
    },
    {
      "inputs": [
        {
          "internalType": "address",
          "name": "user",
          "type": "address"
        }
      ],
      "name": "checkLoan",
      "outputs": [
        {
          "internalType": "uint256",
          "name": "owed",
          "type": "uint256"
        }
      ],
      "stateMutability": "view",
      "type": "function"
    },
    {
      "inputs": [
        {
          "internalType": "uint256",
          "name": "rate",
          "type": "uint256"
        }
      ],
      "name": "changeSafuShare",
      "outputs": [],
      "stateMutability": "nonpayable",
      "type": "function"
    },
    {
      "inputs": [
        {
          "internalType": "uint256",
          "name": "rate",
          "type": "uint256"
        }
      ],
      "name": "changeStakeShare",
      "outputs": [],
      "stateMutability": "nonpayable",
      "type": "function"
    },
    {
      "inputs": [
        {
          "internalType": "address",
          "name": "newStaking",
          "type": "address"
        }
      ],
      "name": "changeStaking",
      "outputs": [],
      "stateMutability": "nonpayable",
      "type": "function"
    },
    {
      "inputs": [
        {
          "internalType": "address",
          "name": "newSafuFund",
          "type": "address"
        }
      ],
      "name": "changeSafuFund",
      "outputs": [],
      "stateMutability": "nonpayable",
      "type": "function"
    },
    {
      "inputs": [
        {
          "internalType": "address",
          "name": "newDevFund",
          "type": "address"
        }
      ],
      "name": "changeDevFund",
      "outputs": [],
      "stateMutability": "nonpayable",
      "type": "function"
    },
    {
      "inputs": [
        {
          "internalType": "address",
          "name": "newValuator",
          "type": "address"
        }
      ],
      "name": "changeValuator",
      "outputs": [],
      "stateMutability": "nonpayable",
      "type": "function"
    },
    {
      "inputs": [],
      "name": "isOwner",
      "outputs": [
        {
          "internalType": "bool",
          "name": "",
          "type": "bool"
        }
      ],
      "stateMutability": "view",
      "type": "function"
    },
    {
      "inputs": [
        {
          "internalType": "address",
          "name": "_newOwner",
          "type": "address"
        }
      ],
      "name": "setOwner",
      "outputs": [],
      "stateMutability": "nonpayable",
      "type": "function"
    }
  ],
  "bytecode": "0x60806040523480156200001157600080fd5b506040516200396138038062003961833981810160405260a08110156200003757600080fd5b81019080805160405193929190846401000000008211156200005857600080fd5b838201915060208201858111156200006f57600080fd5b82518660018202830111640100000000821117156200008d57600080fd5b8083526020830192505050908051906020019080838360005b83811015620000c3578082015181840152602081019050620000a6565b50505050905090810190601f168015620000f15780820380516001836020036101000a031916815260200191505b50604052602001805160405193929190846401000000008211156200011557600080fd5b838201915060208201858111156200012c57600080fd5b82518660018202830111640100000000821117156200014a57600080fd5b8083526020830192505050908051906020019080838360005b838110156200018057808201518184015260208101905062000163565b50505050905090810190601f168015620001ae5780820380516001836020036101000a031916815260200191505b506040526020018051906020019092919080519060200190929190805190602001909291905050508460039080519060200190620001ee92919062000420565b5083600490805190602001906200020792919062000420565b506012600560006101000a81548160ff021916908360ff16021790555033600e60006101000a81548173ffffffffffffffffffffffffffffffffffffffff021916908373ffffffffffffffffffffffffffffffffffffffff160217905550600060028190555081600960006101000a81548173ffffffffffffffffffffffffffffffffffffffff021916908373ffffffffffffffffffffffffffffffffffffffff16021790555080600a60006101000a81548173ffffffffffffffffffffffffffffffffffffffff021916908373ffffffffffffffffffffffffffffffffffffffff1602179055506008600b819055506008600c8190555081600860006101000a81548173ffffffffffffffffffffffffffffffffffffffff021916908373ffffffffffffffffffffffffffffffffffffffff16021790555060405180806200390f605291396052019050604051809103902085805190602001206040518060400160405280600181526020017f3100000000000000000000000000000000000000000000000000000000000000815250805190602001208530604051602001808681526020018581526020018481526020018381526020018273ffffffffffffffffffffffffffffffffffffffff1673ffffffffffffffffffffffffffffffffffffffff16815260200195505050505050604051602081830303815290604052805190602001206006819055505050505050620004cf565b828054600181600116156101000203166002900490600052602060002090601f016020900481019282601f106200046357805160ff191683800117855562000494565b8280016001018555821562000494579182015b828111156200049357825182559160200191906001019062000476565b5b509050620004a39190620004a7565b5090565b620004cc91905b80821115620004c8576000816000905550600101620004ae565b5090565b90565b61343080620004df6000396000f3fe608060405234801561001057600080fd5b506004361061021c5760003560e01c80636b4b67841161012557806395d89b41116100ad578063b09f12661161007c578063b09f126614610b3a578063ba13976314610bbd578063d28d885214610c01578063dd62ed3e14610c84578063f57c33fe14610cfc5761021c565b806395d89b41146109bd578063a0fbc6a814610a40578063a457c2d714610a6e578063a9059cbb14610ad45761021c565b80637d558c46116100f45780637d558c461461080f5780637ecebe001461085357806384a88e04146108ab5780638f32d59b146108f55780638fcbaf0c146109175761021c565b80636b4b6784146107235780636daaa73e1461074157806370a082311461075f5780637776afa0146107b75761021c565b8063313ce567116101a85780633950935111610177578063395093511461058a5780633eaaf86b146105f057806354fd4d501461060e5780636161eb181461069157806366ca4488146106df5761021c565b8063313ce567146104da57806332424aa3146104fe5780633644e5151461052257806339317493146105405761021c565b806313af4035116101ef57806313af4035146103a657806318160ddd146103ea57806323b872dd146104085780632eb96c9a1461048e57806330adf81f146104bc5761021c565b806305a7bed11461022157806306fdde0314610265578063095ea7b3146102e85780630b494ff81461034e575b600080fd5b6102636004803603602081101561023757600080fd5b81019080803573ffffffffffffffffffffffffffffffffffffffff169060200190929190505050610d46565b005b61026d610e04565b6040518080602001828103825283818151815260200191508051906020019080838360005b838110156102ad578082015181840152602081019050610292565b50505050905090810190601f1680156102da5780820380516001836020036101000a031916815260200191505b509250505060405180910390f35b610334600480360360408110156102fe57600080fd5b81019080803573ffffffffffffffffffffffffffffffffffffffff16906020019092919080359060200190929190505050610ea6565b604051808215151515815260200191505060405180910390f35b6103906004803603602081101561036457600080fd5b81019080803573ffffffffffffffffffffffffffffffffffffffff169060200190929190505050610ec4565b6040518082815260200191505060405180910390f35b6103e8600480360360208110156103bc57600080fd5b81019080803573ffffffffffffffffffffffffffffffffffffffff169060200190929190505050610f0d565b005b6103f2610fcb565b6040518082815260200191505060405180910390f35b6104746004803603606081101561041e57600080fd5b81019080803573ffffffffffffffffffffffffffffffffffffffff169060200190929190803573ffffffffffffffffffffffffffffffffffffffff16906020019092919080359060200190929190505050610fd5565b604051808215151515815260200191505060405180910390f35b6104ba600480360360208110156104a457600080fd5b81019080803590602001909291905050506110ae565b005b6104c46111b5565b6040518082815260200191505060405180910390f35b6104e26111dc565b604051808260ff1660ff16815260200191505060405180910390f35b6105066111f3565b604051808260ff1660ff16815260200191505060405180910390f35b61052a611206565b6040518082815260200191505060405180910390f35b61054861120c565b604051808273ffffffffffffffffffffffffffffffffffffffff1673ffffffffffffffffffffffffffffffffffffffff16815260200191505060405180910390f35b6105d6600480360360408110156105a057600080fd5b81019080803573ffffffffffffffffffffffffffffffffffffffff16906020019092919080359060200190929190505050611232565b604051808215151515815260200191505060405180910390f35b6105f86112e5565b6040518082815260200191505060405180910390f35b6106166112eb565b6040518080602001828103825283818151815260200191508051906020019080838360005b8381101561065657808201518184015260208101905061063b565b50505050905090810190601f1680156106835780820380516001836020036101000a031916815260200191505b509250505060405180910390f35b6106dd600480360360408110156106a757600080fd5b81019080803573ffffffffffffffffffffffffffffffffffffffff16906020019092919080359060200190929190505050611324565b005b610721600480360360208110156106f557600080fd5b81019080803573ffffffffffffffffffffffffffffffffffffffff169060200190929190505050611769565b005b61072b611827565b6040518082815260200191505060405180910390f35b61074961182d565b6040518082815260200191505060405180910390f35b6107a16004803603602081101561077557600080fd5b81019080803573ffffffffffffffffffffffffffffffffffffffff169060200190929190505050611833565b6040518082815260200191505060405180910390f35b61080d600480360360608110156107cd57600080fd5b81019080803573ffffffffffffffffffffffffffffffffffffffff169060200190929190803590602001909291908035906020019092919050505061187b565b005b6108516004803603602081101561082557600080fd5b81019080803573ffffffffffffffffffffffffffffffffffffffff169060200190929190505050611ea7565b005b6108956004803603602081101561086957600080fd5b81019080803573ffffffffffffffffffffffffffffffffffffffff169060200190929190505050611f65565b6040518082815260200191505060405180910390f35b6108b3611f7d565b604051808273ffffffffffffffffffffffffffffffffffffffff1673ffffffffffffffffffffffffffffffffffffffff16815260200191505060405180910390f35b6108fd611fa3565b604051808215151515815260200191505060405180910390f35b6109bb600480360361010081101561092e57600080fd5b81019080803573ffffffffffffffffffffffffffffffffffffffff169060200190929190803573ffffffffffffffffffffffffffffffffffffffff1690602001909291908035906020019092919080359060200190929190803515159060200190929190803560ff1690602001909291908035906020019092919080359060200190929190505050611ffb565b005b6109c5612536565b6040518080602001828103825283818151815260200191508051906020019080838360005b83811015610a055780820151818401526020810190506109ea565b50505050905090810190601f168015610a325780820380516001836020036101000a031916815260200191505b509250505060405180910390f35b610a6c60048036036020811015610a5657600080fd5b81019080803590602001909291905050506125d8565b005b610aba60048036036040811015610a8457600080fd5b81019080803573ffffffffffffffffffffffffffffffffffffffff169060200190929190803590602001909291905050506126df565b604051808215151515815260200191505060405180910390f35b610b2060048036036040811015610aea57600080fd5b81019080803573ffffffffffffffffffffffffffffffffffffffff169060200190929190803590602001909291905050506127ac565b604051808215151515815260200191505060405180910390f35b610b426127ca565b6040518080602001828103825283818151815260200191508051906020019080838360005b83811015610b82578082015181840152602081019050610b67565b50505050905090810190601f168015610baf5780820380516001836020036101000a031916815260200191505b509250505060405180910390f35b610bff60048036036020811015610bd357600080fd5b81019080803573ffffffffffffffffffffffffffffffffffffffff169060200190929190505050612868565b005b610c09612926565b6040518080602001828103825283818151815260200191508051906020019080838360005b83811015610c49578082015181840152602081019050610c2e565b50505050905090810190601f168015610c765780820380516001836020036101000a031916815260200191505b509250505060405180910390f35b610ce660048036036040811015610c9a57600080fd5b81019080803573ffffffffffffffffffffffffffffffffffffffff169060200190929190803573ffffffffffffffffffffffffffffffffffffffff1690602001909291905050506129c4565b6040518082815260200191505060405180910390f35b610d04612a4b565b604051808273ffffffffffffffffffffffffffffffffffffffff1673ffffffffffffffffffffffffffffffffffffffff16815260200191505060405180910390f35b610d4e611fa3565b610dc0576040517f08c379a00000000000000000000000000000000000000000000000000000000081526004018080602001828103825260208152602001807f4f776e61626c653a2063616c6c6572206973206e6f7420746865206f776e657281525060200191505060405180910390fd5b80600a60006101000a81548173ffffffffffffffffffffffffffffffffffffffff021916908373ffffffffffffffffffffffffffffffffffffffff16021790555050565b606060038054600181600116156101000203166002900480601f016020809104026020016040519081016040528092919081815260200182805460018160011615610100020316600290048015610e9c5780601f10610e7157610100808354040283529160200191610e9c565b820191906000526020600020905b815481529060010190602001808311610e7f57829003601f168201915b5050505050905090565b6000610eba610eb3612a71565b8484612a79565b6001905092915050565b6000600d60008373ffffffffffffffffffffffffffffffffffffffff1673ffffffffffffffffffffffffffffffffffffffff168152602001908152602001600020549050919050565b610f15611fa3565b610f87576040517f08c379a00000000000000000000000000000000000000000000000000000000081526004018080602001828103825260208152602001807f4f776e61626c653a2063616c6c6572206973206e6f7420746865206f776e657281525060200191505060405180910390fd5b80600e60006101000a81548173ffffffffffffffffffffffffffffffffffffffff021916908373ffffffffffffffffffffffffffffffffffffffff16021790555050565b6000600254905090565b6000610fe2848484612c70565b6110a384610fee612a71565b61109e856040518060600160405280602881526020016132fd60289139600160008b73ffffffffffffffffffffffffffffffffffffffff1673ffffffffffffffffffffffffffffffffffffffff1681526020019081526020016000206000611054612a71565b73ffffffffffffffffffffffffffffffffffffffff1673ffffffffffffffffffffffffffffffffffffffff16815260200190815260200160002054612f269092919063ffffffff16565b612a79565b600190509392505050565b6110b6611fa3565b611128576040517f08c379a00000000000000000000000000000000000000000000000000000000081526004018080602001828103825260208152602001807f4f776e61626c653a2063616c6c6572206973206e6f7420746865206f776e657281525060200191505060405180910390fd5b601481111580156111395750600081115b6111ab576040517f08c379a00000000000000000000000000000000000000000000000000000000081526004018080602001828103825260098152602001807f62616420696e707574000000000000000000000000000000000000000000000081525060200191505060405180910390fd5b80600c8190555050565b7f6e71edae12b1b97f4d1f60370fef10105fa2faae0126114a169c64845d6126c960001b81565b6000600560009054906101000a900460ff16905090565b600560009054906101000a900460ff1681565b60065481565b600860009054906101000a900473ffffffffffffffffffffffffffffffffffffffff1681565b60006112db61123f612a71565b846112d68560016000611250612a71565b73ffffffffffffffffffffffffffffffffffffffff1673ffffffffffffffffffffffffffffffffffffffff16815260200190815260200160002060008973ffffffffffffffffffffffffffffffffffffffff1673ffffffffffffffffffffffffffffffffffffffff16815260200190815260200160002054612fe690919063ffffffff16565b612a79565b6001905092915050565b60025481565b6040518060400160405280600181526020017f310000000000000000000000000000000000000000000000000000000000000081525081565b600073ffffffffffffffffffffffffffffffffffffffff168273ffffffffffffffffffffffffffffffffffffffff1614156113aa576040517f08c379a00000000000000000000000000000000000000000000000000000000081526004018080602001828103825260218152602001806133256021913960400191505060405180910390fd5b600f60009054906101000a900473ffffffffffffffffffffffffffffffffffffffff1673ffffffffffffffffffffffffffffffffffffffff163373ffffffffffffffffffffffffffffffffffffffff1614611450576040517f08c379a00000000000000000000000000000000000000000000000000000000081526004018080602001828103825260258152602001806133b16025913960400191505060405180910390fd5b6000600d60008473ffffffffffffffffffffffffffffffffffffffff1673ffffffffffffffffffffffffffffffffffffffff168152602001908152602001600020541015611506576040517f08c379a00000000000000000000000000000000000000000000000000000000081526004018080602001828103825260108152602001807f596f752068617665206e6f206c6f616e0000000000000000000000000000000081525060200191505060405180910390fd5b806000808473ffffffffffffffffffffffffffffffffffffffff1673ffffffffffffffffffffffffffffffffffffffff16815260200190815260200160002054101561159d576040517f08c379a00000000000000000000000000000000000000000000000000000000081526004018080602001828103825260228152602001806133466022913960400191505060405180910390fd5b6115ef81600d60008573ffffffffffffffffffffffffffffffffffffffff1673ffffffffffffffffffffffffffffffffffffffff1681526020019081526020016000205461306e90919063ffffffff16565b600d60008473ffffffffffffffffffffffffffffffffffffffff1673ffffffffffffffffffffffffffffffffffffffff1681526020019081526020016000208190555061169d81604051806060016040528060228152602001613272602291396000808673ffffffffffffffffffffffffffffffffffffffff1673ffffffffffffffffffffffffffffffffffffffff16815260200190815260200160002054612f269092919063ffffffff16565b6000808473ffffffffffffffffffffffffffffffffffffffff1673ffffffffffffffffffffffffffffffffffffffff168152602001908152602001600020819055506116f48160025461306e90919063ffffffff16565b6002819055507fcc16f5dbb4873280815c1ee09dbd06736cffcc184412cf7a71a0fdb75d397ca58282604051808373ffffffffffffffffffffffffffffffffffffffff1673ffffffffffffffffffffffffffffffffffffffff1681526020018281526020019250505060405180910390a15050565b611771611fa3565b6117e3576040517f08c379a00000000000000000000000000000000000000000000000000000000081526004018080602001828103825260208152602001807f4f776e61626c653a2063616c6c6572206973206e6f7420746865206f776e657281525060200191505060405180910390fd5b80600960006101000a81548173ffffffffffffffffffffffffffffffffffffffff021916908373ffffffffffffffffffffffffffffffffffffffff16021790555050565b600b5481565b600c5481565b60008060008373ffffffffffffffffffffffffffffffffffffffff1673ffffffffffffffffffffffffffffffffffffffff168152602001908152602001600020549050919050565b600073ffffffffffffffffffffffffffffffffffffffff168373ffffffffffffffffffffffffffffffffffffffff16141561191e576040517f08c379a000000000000000000000000000000000000000000000000000000000815260040180806020018281038252601f8152602001807f45524332303a206d696e7420746f20746865207a65726f20616464726573730081525060200191505060405180910390fd5b600f60009054906101000a900473ffffffffffffffffffffffffffffffffffffffff1673ffffffffffffffffffffffffffffffffffffffff163373ffffffffffffffffffffffffffffffffffffffff16146119c4576040517f08c379a00000000000000000000000000000000000000000000000000000000081526004018080602001828103825260258152602001806133b16025913960400191505060405180910390fd5b60006119d982846130b890919063ffffffff16565b905060006119f0828561306e90919063ffffffff16565b90506000611a086014846130b890919063ffffffff16565b9050611a5c85600d60008973ffffffffffffffffffffffffffffffffffffffff1673ffffffffffffffffffffffffffffffffffffffff16815260200190815260200160002054612fe690919063ffffffff16565b600d60008873ffffffffffffffffffffffffffffffffffffffff1673ffffffffffffffffffffffffffffffffffffffff16815260200190815260200160002081905550611ab485600254612fe690919063ffffffff16565b600281905550611b0b826000808973ffffffffffffffffffffffffffffffffffffffff1673ffffffffffffffffffffffffffffffffffffffff16815260200190815260200160002054612fe690919063ffffffff16565b6000808873ffffffffffffffffffffffffffffffffffffffff1673ffffffffffffffffffffffffffffffffffffffff16815260200190815260200160002081905550611bd4611b65600b548361310290919063ffffffff16565b600080600860009054906101000a900473ffffffffffffffffffffffffffffffffffffffff1673ffffffffffffffffffffffffffffffffffffffff1673ffffffffffffffffffffffffffffffffffffffff16815260200190815260200160002054612fe690919063ffffffff16565b600080600860009054906101000a900473ffffffffffffffffffffffffffffffffffffffff1673ffffffffffffffffffffffffffffffffffffffff1673ffffffffffffffffffffffffffffffffffffffff16815260200190815260200160002081905550611cbf611c50600c548361310290919063ffffffff16565b600080600960009054906101000a900473ffffffffffffffffffffffffffffffffffffffff1673ffffffffffffffffffffffffffffffffffffffff1673ffffffffffffffffffffffffffffffffffffffff16815260200190815260200160002054612fe690919063ffffffff16565b600080600960009054906101000a900473ffffffffffffffffffffffffffffffffffffffff1673ffffffffffffffffffffffffffffffffffffffff1673ffffffffffffffffffffffffffffffffffffffff16815260200190815260200160002081905550611dd0611d61611d52611d43600b54600c54612fe690919063ffffffff16565b8461310290919063ffffffff16565b8561306e90919063ffffffff16565b600080600a60009054906101000a900473ffffffffffffffffffffffffffffffffffffffff1673ffffffffffffffffffffffffffffffffffffffff1673ffffffffffffffffffffffffffffffffffffffff16815260200190815260200160002054612fe690919063ffffffff16565b600080600a60009054906101000a900473ffffffffffffffffffffffffffffffffffffffff1673ffffffffffffffffffffffffffffffffffffffff1673ffffffffffffffffffffffffffffffffffffffff168152602001908152602001600020819055507f0f6798a560793a54c3bcfe86a93cde1e73087d944c0ea20544137d41213968858686604051808373ffffffffffffffffffffffffffffffffffffffff1673ffffffffffffffffffffffffffffffffffffffff1681526020018281526020019250505060405180910390a1505050505050565b611eaf611fa3565b611f21576040517f08c379a00000000000000000000000000000000000000000000000000000000081526004018080602001828103825260208152602001807f4f776e61626c653a2063616c6c6572206973206e6f7420746865206f776e657281525060200191505060405180910390fd5b80600860006101000a81548173ffffffffffffffffffffffffffffffffffffffff021916908373ffffffffffffffffffffffffffffffffffffffff16021790555050565b60076020528060005260406000206000915090505481565b600960009054906101000a900473ffffffffffffffffffffffffffffffffffffffff1681565b6000600e60009054906101000a900473ffffffffffffffffffffffffffffffffffffffff1673ffffffffffffffffffffffffffffffffffffffff163373ffffffffffffffffffffffffffffffffffffffff1614905090565b60006006547f6e71edae12b1b97f4d1f60370fef10105fa2faae0126114a169c64845d6126c960001b8a8a8a8a8a604051602001808781526020018673ffffffffffffffffffffffffffffffffffffffff1673ffffffffffffffffffffffffffffffffffffffff1681526020018573ffffffffffffffffffffffffffffffffffffffff1673ffffffffffffffffffffffffffffffffffffffff1681526020018481526020018381526020018215151515815260200196505050505050506040516020818303038152906040528051906020012060405160200180807f190100000000000000000000000000000000000000000000000000000000000081525060020183815260200182815260200192505050604051602081830303815290604052805190602001209050600073ffffffffffffffffffffffffffffffffffffffff168973ffffffffffffffffffffffffffffffffffffffff1614156121c8576040517f08c379a00000000000000000000000000000000000000000000000000000000081526004018080602001828103825260118152602001807f696e76616c69642d616464726573732d3000000000000000000000000000000081525060200191505060405180910390fd5b60018185858560405160008152602001604052604051808581526020018460ff1660ff1681526020018381526020018281526020019450505050506020604051602081039080840390855afa158015612225573d6000803e3d6000fd5b5050506020604051035173ffffffffffffffffffffffffffffffffffffffff168973ffffffffffffffffffffffffffffffffffffffff16146122cf576040517f08c379a000000000000000000000000000000000000000000000000000000000815260040180806020018281038252600e8152602001807f696e76616c69642d7065726d697400000000000000000000000000000000000081525060200191505060405180910390fd5b60008614806122de5750854211155b612350576040517f08c379a000000000000000000000000000000000000000000000000000000000815260040180806020018281038252600e8152602001807f7065726d69742d6578706972656400000000000000000000000000000000000081525060200191505060405180910390fd5b600760008a73ffffffffffffffffffffffffffffffffffffffff1673ffffffffffffffffffffffffffffffffffffffff1681526020019081526020016000206000815480929190600101919050558714612412576040517f08c379a000000000000000000000000000000000000000000000000000000000815260040180806020018281038252600d8152602001807f696e76616c69642d6e6f6e63650000000000000000000000000000000000000081525060200191505060405180910390fd5b600085612420576000612442565b7fffffffffffffffffffffffffffffffffffffffffffffffffffffffffffffffff5b905080600160008c73ffffffffffffffffffffffffffffffffffffffff1673ffffffffffffffffffffffffffffffffffffffff16815260200190815260200160002060008b73ffffffffffffffffffffffffffffffffffffffff1673ffffffffffffffffffffffffffffffffffffffff168152602001908152602001600020819055508873ffffffffffffffffffffffffffffffffffffffff168a73ffffffffffffffffffffffffffffffffffffffff167f8c5be1e5ebec7d5bd14f71427d1e84f3dd0314c0f7b2291e5b200ac8c7c3b925836040518082815260200191505060405180910390a350505050505050505050565b606060048054600181600116156101000203166002900480601f0160208091040260200160405190810160405280929190818152602001828054600181600116156101000203166002900480156125ce5780601f106125a3576101008083540402835291602001916125ce565b820191906000526020600020905b8154815290600101906020018083116125b157829003601f168201915b5050505050905090565b6125e0611fa3565b612652576040517f08c379a00000000000000000000000000000000000000000000000000000000081526004018080602001828103825260208152602001807f4f776e61626c653a2063616c6c6572206973206e6f7420746865206f776e657281525060200191505060405180910390fd5b601481111580156126635750600081115b6126d5576040517f08c379a00000000000000000000000000000000000000000000000000000000081526004018080602001828103825260098152602001807f62616420696e707574000000000000000000000000000000000000000000000081525060200191505060405180910390fd5b80600b8190555050565b60006127a26126ec612a71565b8461279d856040518060600160405280602581526020016133d66025913960016000612716612a71565b73ffffffffffffffffffffffffffffffffffffffff1673ffffffffffffffffffffffffffffffffffffffff16815260200190815260200160002060008a73ffffffffffffffffffffffffffffffffffffffff1673ffffffffffffffffffffffffffffffffffffffff16815260200190815260200160002054612f269092919063ffffffff16565b612a79565b6001905092915050565b60006127c06127b9612a71565b8484612c70565b6001905092915050565b60048054600181600116156101000203166002900480601f0160208091040260200160405190810160405280929190818152602001828054600181600116156101000203166002900480156128605780601f1061283557610100808354040283529160200191612860565b820191906000526020600020905b81548152906001019060200180831161284357829003601f168201915b505050505081565b612870611fa3565b6128e2576040517f08c379a00000000000000000000000000000000000000000000000000000000081526004018080602001828103825260208152602001807f4f776e61626c653a2063616c6c6572206973206e6f7420746865206f776e657281525060200191505060405180910390fd5b80600f60006101000a81548173ffffffffffffffffffffffffffffffffffffffff021916908373ffffffffffffffffffffffffffffffffffffffff16021790555050565b60038054600181600116156101000203166002900480601f0160208091040260200160405190810160405280929190818152602001828054600181600116156101000203166002900480156129bc5780601f10612991576101008083540402835291602001916129bc565b820191906000526020600020905b81548152906001019060200180831161299f57829003601f168201915b505050505081565b6000600160008473ffffffffffffffffffffffffffffffffffffffff1673ffffffffffffffffffffffffffffffffffffffff16815260200190815260200160002060008373ffffffffffffffffffffffffffffffffffffffff1673ffffffffffffffffffffffffffffffffffffffff16815260200190815260200160002054905092915050565b600a60009054906101000a900473ffffffffffffffffffffffffffffffffffffffff1681565b600033905090565b600073ffffffffffffffffffffffffffffffffffffffff168373ffffffffffffffffffffffffffffffffffffffff161415612aff576040517f08c379a000000000000000000000000000000000000000000000000000000000815260040180806020018281038252602481526020018061338d6024913960400191505060405180910390fd5b600073ffffffffffffffffffffffffffffffffffffffff168273ffffffffffffffffffffffffffffffffffffffff161415612b85576040517f08c379a00000000000000000000000000000000000000000000000000000000081526004018080602001828103825260228152602001806132946022913960400191505060405180910390fd5b80600160008573ffffffffffffffffffffffffffffffffffffffff1673ffffffffffffffffffffffffffffffffffffffff16815260200190815260200160002060008473ffffffffffffffffffffffffffffffffffffffff1673ffffffffffffffffffffffffffffffffffffffff168152602001908152602001600020819055508173ffffffffffffffffffffffffffffffffffffffff168373ffffffffffffffffffffffffffffffffffffffff167f8c5be1e5ebec7d5bd14f71427d1e84f3dd0314c0f7b2291e5b200ac8c7c3b925836040518082815260200191505060405180910390a3505050565b600073ffffffffffffffffffffffffffffffffffffffff168373ffffffffffffffffffffffffffffffffffffffff161415612cf6576040517f08c379a00000000000000000000000000000000000000000000000000000000081526004018080602001828103825260258152602001806133686025913960400191505060405180910390fd5b600073ffffffffffffffffffffffffffffffffffffffff168273ffffffffffffffffffffffffffffffffffffffff161415612d7c576040517f08c379a000000000000000000000000000000000000000000000000000000000815260040180806020018281038252602381526020018061324f6023913960400191505060405180910390fd5b612de7816040518060600160405280602681526020016132b6602691396000808773ffffffffffffffffffffffffffffffffffffffff1673ffffffffffffffffffffffffffffffffffffffff16815260200190815260200160002054612f269092919063ffffffff16565b6000808573ffffffffffffffffffffffffffffffffffffffff1673ffffffffffffffffffffffffffffffffffffffff16815260200190815260200160002081905550612e7a816000808573ffffffffffffffffffffffffffffffffffffffff1673ffffffffffffffffffffffffffffffffffffffff16815260200190815260200160002054612fe690919063ffffffff16565b6000808473ffffffffffffffffffffffffffffffffffffffff1673ffffffffffffffffffffffffffffffffffffffff168152602001908152602001600020819055508173ffffffffffffffffffffffffffffffffffffffff168373ffffffffffffffffffffffffffffffffffffffff167fddf252ad1be2c89b69c2b068fc378daa952ba7f163c4a11628f55a4df523b3ef836040518082815260200191505060405180910390a3505050565b6000838311158290612fd3576040517f08c379a00000000000000000000000000000000000000000000000000000000081526004018080602001828103825283818151815260200191508051906020019080838360005b83811015612f98578082015181840152602081019050612f7d565b50505050905090810190601f168015612fc55780820380516001836020036101000a031916815260200191505b509250505060405180910390fd5b5060008385039050809150509392505050565b600080828401905083811015613064576040517f08c379a000000000000000000000000000000000000000000000000000000000815260040180806020018281038252601b8152602001807f536166654d6174683a206164646974696f6e206f766572666c6f77000000000081525060200191505060405180910390fd5b8091505092915050565b60006130b083836040518060400160405280601e81526020017f536166654d6174683a207375627472616374696f6e206f766572666c6f770000815250612f26565b905092915050565b60006130fa83836040518060400160405280601a81526020017f536166654d6174683a206469766973696f6e206279207a65726f000000000000815250613188565b905092915050565b6000808314156131155760009050613182565b600082840290508284828161312657fe5b041461317d576040517f08c379a00000000000000000000000000000000000000000000000000000000081526004018080602001828103825260218152602001806132dc6021913960400191505060405180910390fd5b809150505b92915050565b60008083118290613234576040517f08c379a00000000000000000000000000000000000000000000000000000000081526004018080602001828103825283818151815260200191508051906020019080838360005b838110156131f95780820151818401526020810190506131de565b50505050905090810190601f1680156132265780820380516001836020036101000a031916815260200191505b509250505060405180910390fd5b50600083858161324057fe5b04905080915050939250505056fe45524332303a207472616e7366657220746f20746865207a65726f206164647265737345524332303a206275726e20616d6f756e7420657863656564732062616c616e636545524332303a20617070726f766520746f20746865207a65726f206164647265737345524332303a207472616e7366657220616d6f756e7420657863656564732062616c616e6365536166654d6174683a206d756c7469706c69636174696f6e206f766572666c6f7745524332303a207472616e7366657220616d6f756e74206578636565647320616c6c6f77616e636545524332303a206275726e2066726f6d20746865207a65726f2061646472657373496e73756666696369656e74207544616920746f20706179206261636b206c6f616e45524332303a207472616e736665722066726f6d20746865207a65726f206164647265737345524332303a20617070726f76652066726f6d20746865207a65726f206164647265737343616c6c20646f6573206e6f74206f726967696e6174652066726f6d2056616c7561746f7245524332303a2064656372656173656420616c6c6f77616e63652062656c6f77207a65726fa264697066735822122097b561887bc43229584c1e3647f532f6bc607357f1357a5e508f6d0073bcfd3164736f6c63430006020033454950373132446f6d61696e28737472696e67206e616d652c737472696e672076657273696f6e2c75696e7432353620636861696e49642c6164647265737320766572696679696e67436f6e747261637429",
  "source": "// SPDX-License-Identifier: MIT\r\n\r\npragma solidity >=0.4.23 <0.8.0;\r\n\r\nimport \"@openzeppelin/contracts/GSN/Context.sol\";\r\nimport \"@openzeppelin/contracts/token/ERC20/IERC20.sol\";\r\nimport \"@openzeppelin/contracts/math/SafeMath.sol\";\r\nimport \"@openzeppelin/contracts/utils/Address.sol\";\r\n\r\n// import \"../utils/IERC223.sol\";\r\n// import \"../utils/IERC223Recipient.sol\";\r\n\r\n\r\ncontract UnboundDai is Context, IERC20 {\r\n    using SafeMath for uint256;\r\n    using Address for address;\r\n\r\n    event Mint(address user, uint256 newMint);\r\n    event Burn(address user, uint256 burned);\r\n\r\n    mapping (address => uint256) private _balances;\r\n\r\n    mapping (address => mapping (address => uint256)) private _allowances;\r\n\r\n    uint256 public _totalSupply;\r\n\r\n    string public _name;\r\n    string public _symbol;\r\n    string public constant version = \"1\";  // From DAI contract\r\n    uint8 public _decimals;\r\n\r\n\r\n    // PERMIT VARIABLES\r\n    bytes32 public DOMAIN_SEPARATOR;\r\n    // keccak256(\"Permit(address owner,address spender,uint256 value,uint256 nonce,uint256 deadline)\");\r\n    bytes32 public constant PERMIT_TYPEHASH = 0x6e71edae12b1b97f4d1f60370fef10105fa2faae0126114a169c64845d6126c9;\r\n    mapping(address => uint) public nonces;\r\n\r\n    // staking contract address (40%)\r\n    address public _stakeAddr;\r\n\r\n    // Emergency fund (40%)\r\n    address public _safuAddr;\r\n\r\n    // Dev fund (20%)\r\n    address public _devFundAddr;\r\n\r\n    // Dev Fund split\r\n    uint256 public _stakeShares;\r\n    uint256 public _safuShares;\r\n\r\n\r\n\r\n    // tracks users who minted. Need or don't need?\r\n    mapping (address => uint256) private _minted;\r\n\r\n    //Owner Address\r\n    address _owner;\r\n\r\n    //Valuator Contract Address\r\n    address _valuator;\r\n\r\n    modifier onlyOwner() {\r\n        require(isOwner(), \"Ownable: caller is not the owner\");\r\n        _;\r\n    }\r\n\r\n    modifier onlyValuator() {\r\n        require(msg.sender == _valuator, \"Call does not originate from Valuator\");\r\n        _;\r\n    }\r\n\r\n    constructor (string memory name, string memory symbol, uint256 chainId_, address Safu, address devFund) public {\r\n        _name = name;\r\n        _symbol = symbol;\r\n        _decimals = 18;\r\n        _owner = msg.sender;\r\n        _totalSupply = 0;\r\n        _safuAddr = Safu;\r\n        _devFundAddr = devFund;\r\n\r\n        _stakeShares = 8;\r\n        _safuShares = 8;\r\n\r\n        // MUST BE MANUALLY CHANGED TO uDai LIQ pool.\r\n        _stakeAddr = Safu;\r\n\r\n        // Permit??\r\n        DOMAIN_SEPARATOR = keccak256(abi.encode(\r\n            keccak256(\"EIP712Domain(string name,string version,uint256 chainId,address verifyingContract)\"),\r\n            keccak256(bytes(name)),\r\n            keccak256(bytes(version)),\r\n            chainId_,\r\n            address(this)\r\n        ));\r\n    }\r\n\r\n    function name() public view returns (string memory) {\r\n        return _name;\r\n    }\r\n\r\n   \r\n    function symbol() public view returns (string memory) {\r\n        return _symbol;\r\n    }\r\n\r\n    \r\n    function decimals() public view returns (uint8) {\r\n        return _decimals;\r\n    }\r\n\r\n   \r\n    function totalSupply() public view override returns (uint256) {\r\n        return _totalSupply;\r\n    }\r\n\r\n\r\n    function balanceOf(address account) public view override returns (uint256) {\r\n        return _balances[account];\r\n    }\r\n\r\n    //  PERMIT FUNCTION\r\n    function permit(address holder, address spender, uint256 nonce, uint256 expiry,\r\n                    bool allowed, uint8 v, bytes32 r, bytes32 s) external\r\n    {\r\n        bytes32 digest =\r\n            keccak256(abi.encodePacked(\r\n                \"\\x19\\x01\",                    // Do not understand what this is for\r\n                DOMAIN_SEPARATOR,              \r\n                keccak256(abi.encode(          // are we just taking a hash of a hash here?\r\n                    PERMIT_TYPEHASH,\r\n                    holder,\r\n                    spender,\r\n                    nonce,\r\n                    expiry,\r\n                    allowed))\r\n        ));\r\n\r\n        require(holder != address(0), \"invalid-address-0\");\r\n        require(holder == ecrecover(digest, v, r, s), \"invalid-permit\");\r\n        require(expiry == 0 || now <= expiry, \"permit-expired\");\r\n        require(nonce == nonces[holder]++, \"invalid-nonce\");           // When does nonces[holder] actually change?\r\n        uint wad = allowed ? uint(-1) : 0;\r\n        _allowances[holder][spender] = wad;\r\n        emit Approval(holder, spender, wad);\r\n    }\r\n\r\n    // Transfer and transferFrom\r\n    function transfer(address recipient, uint256 amount) public virtual override returns (bool) {\r\n        _transfer(_msgSender(), recipient, amount);\r\n        return true;\r\n    }\r\n\r\n    function transferFrom(address sender, address recipient, uint256 amount) public virtual override returns (bool) {\r\n        _transfer(sender, recipient, amount);\r\n        _approve(sender, _msgSender(), _allowances[sender][_msgSender()].sub(amount, \"ERC20: transfer amount exceeds allowance\"));\r\n        return true;\r\n    }\r\n\r\n    function _transfer(address sender, address recipient, uint256 amount) internal virtual {\r\n        require(sender != address(0), \"ERC20: transfer from the zero address\");\r\n        require(recipient != address(0), \"ERC20: transfer to the zero address\");\r\n\r\n        //_beforeTokenTransfer(sender, recipient, amount);\r\n\r\n        _balances[sender] = _balances[sender].sub(amount, \"ERC20: transfer amount exceeds balance\");\r\n        _balances[recipient] = _balances[recipient].add(amount);\r\n        emit Transfer(sender, recipient, amount);\r\n    }\r\n    \r\n    function allowance(address owner, address spender) public view virtual override returns (uint256) {\r\n        return _allowances[owner][spender];\r\n    }\r\n\r\n    function approve(address spender, uint256 amount) public virtual override returns (bool) {\r\n        _approve(_msgSender(), spender, amount);\r\n        return true;\r\n    }\r\n\r\n    function _approve(address owner, address spender, uint256 amount) internal virtual {\r\n        require(owner != address(0), \"ERC20: approve from the zero address\");\r\n        require(spender != address(0), \"ERC20: approve to the zero address\");\r\n\r\n        _allowances[owner][spender] = amount;\r\n        emit Approval(owner, spender, amount);\r\n    }\r\n\r\n    function increaseAllowance(address spender, uint256 addedValue) public virtual returns (bool) {\r\n        _approve(_msgSender(), spender, _allowances[_msgSender()][spender].add(addedValue));\r\n        return true;\r\n    }\r\n\r\n    \r\n    function decreaseAllowance(address spender, uint256 subtractedValue) public virtual returns (bool) {\r\n        _approve(_msgSender(), spender, _allowances[_msgSender()][spender].sub(subtractedValue, \"ERC20: decreased allowance below zero\"));\r\n        return true;\r\n    }\r\n\r\n    \r\n    // MINT: Only callable by valuing contract - Now splits fees\r\n    function _mint(address account, uint256 amount, uint256 fee) external virtual {\r\n        require(account != address(0), \"ERC20: mint to the zero address\");\r\n        require(msg.sender == _valuator, \"Call does not originate from Valuator\");\r\n        // _beforeTokenTransfer(address(0), account, amount);\r\n\r\n        uint256 feeAmount = amount.div(fee); // fee variable should be 400 to produce 0.25%\r\n        \r\n        // The amount the user will receive\r\n        uint256 toMint = amount.sub(feeAmount);\r\n\r\n        // Splitting of fees\r\n        uint256 share = feeAmount.div(20);\r\n\r\n        // crediting loan to user\r\n        _minted[account] = _minted[account].add(amount);\r\n\r\n        // adding total amount of new tokens to totalSupply\r\n        _totalSupply = _totalSupply.add(amount);\r\n\r\n        // Credits user with their uDai loan, minus fees\r\n        _balances[account] = _balances[account].add(toMint);\r\n\r\n        // sends 40% to staking. MUST SET uDai Liquidity pool first\r\n        _balances[_stakeAddr] = _balances[_stakeAddr].add(share.mul(_stakeShares));\r\n\r\n        // sends 40% to Safu Fund\r\n        _balances[_safuAddr] = _balances[_safuAddr].add(share.mul(_safuShares));\r\n\r\n        // sends the remaineder to dev fund\r\n        _balances[_devFundAddr] = _balances[_devFundAddr].add(feeAmount.sub(share.mul(_safuShares.add(_stakeShares))));\r\n\r\n        emit Mint(account, amount);\r\n    }\r\n\r\n    // BURN function. Only callable from Valuing.\r\n    function _burn(address account, uint256 toBurn) external virtual {\r\n        require(account != address(0), \"ERC20: burn from the zero address\");\r\n        require(msg.sender == _valuator, \"Call does not originate from Valuator\");\r\n        require(_minted[account] >= 0, \"You have no loan\");\r\n        \r\n        // Computes the 0.25% fee\r\n        // uint256 burnFee = toBurn.div(fee);\r\n        // uint256 totalToRemove = toBurn.add(burnFee);\r\n\r\n        // checks if user has enough uDai to cover loan and 0.25% fee\r\n        require(_balances[account] >= toBurn, \"Insufficient uDai to pay back loan\");\r\n\r\n        // Splitting of fees\r\n        // uint256 share = burnFee.div(20);\r\n\r\n        // removes the amount of uDai to burn from _minted mapping/\r\n        _minted[account] = _minted[account].sub(toBurn);\r\n        \r\n        // Removes loan AND fee from user balance\r\n        _balances[account] = _balances[account].sub(toBurn, \"ERC20: burn amount exceeds balance\");\r\n\r\n        // // sends 40% to staking. MUST SET uDai Liquidity pool first\r\n        // _balances[_stakeAddr] = _balances[_stakeAddr].add(share.mul(_stakeShares));\r\n\r\n        // // sends 40% to Safu Fund\r\n        // _balances[_safuAddr] = _balances[_safuAddr].add(share.mul(_safuShares));\r\n\r\n        // // sends the remaineder to dev fund\r\n        // _balances[_devFundAddr] = _balances[_devFundAddr].add(burnFee.sub(share.mul(_safuShares.add(_stakeShares))));\r\n\r\n        // Removes the loan amount of uDai from circulation\r\n        _totalSupply = _totalSupply.sub(toBurn);\r\n\r\n        // This event could be renamed for easier identification.\r\n        emit Burn(account, toBurn);\r\n    }\r\n\r\n    // Checks how much uDai the user has minted (and owes to get liquidity back)\r\n    function checkLoan(address user) public view returns (uint256 owed) {\r\n        owed = _minted[user];\r\n    }\r\n    \r\n    // onlyOwner Functions\r\n\r\n    // change safuShare\r\n    function changeSafuShare(uint256 rate) public onlyOwner {\r\n        require(rate <= 20 && rate > 0, \"bad input\");\r\n        _safuShares = rate;\r\n    }\r\n\r\n    // change stakeShare\r\n    function changeStakeShare(uint256 rate) public onlyOwner {\r\n        require(rate <= 20 && rate > 0, \"bad input\");\r\n        _stakeShares = rate;\r\n    }\r\n\r\n    // Changes stakingAddr\r\n    function changeStaking(address newStaking) public onlyOwner {\r\n        _stakeAddr = newStaking;\r\n    }\r\n\r\n    // Changes safuFund\r\n    function changeSafuFund(address newSafuFund) public onlyOwner {\r\n        _safuAddr = newSafuFund;\r\n    }\r\n\r\n    // Changes devFund\r\n    function changeDevFund(address newDevFund) public onlyOwner {\r\n        _devFundAddr = newDevFund;\r\n    }\r\n\r\n    // Changes Valuator Contract Address\r\n    function changeValuator(address newValuator) public onlyOwner {\r\n        _valuator = newValuator;\r\n    }\r\n\r\n    // Checks if sender is owner\r\n    function isOwner() public view returns (bool) {\r\n        return msg.sender == _owner;\r\n    }\r\n\r\n    // Changes owner\r\n    function setOwner(address _newOwner) public onlyOwner {\r\n        _owner = _newOwner;\r\n    }\r\n}\r\n",
  "sourcePath": "C:/Users/sonic/Desktop/Unbound/contracts/UnboundTokens/unboundDai.sol",
  "compiler": {
    "name": "solc",
    "version": "0.6.2+commit.bacdbe57.Emscripten.clang"
  },
  "schemaVersion": "3.2.3",
  "updatedAt": "2020-09-14T22:04:07.886Z",
  "devdoc": {
    "methods": {}
  },
  "userdoc": {
    "methods": {}
  }
}