{
  "contractName": "UnboundDai",
  "abi": [
    {
      "inputs": [
        {
          "internalType": "string",
          "name": "name",
          "type": "string"
        },
        {
          "internalType": "string",
          "name": "symbol",
          "type": "string"
        },
        {
          "internalType": "uint256",
          "name": "chainId_",
          "type": "uint256"
        },
        {
          "internalType": "address",
          "name": "Safu",
          "type": "address"
        },
        {
          "internalType": "address",
          "name": "devFund",
          "type": "address"
        }
      ],
      "stateMutability": "nonpayable",
      "type": "constructor"
    },
    {
      "anonymous": false,
      "inputs": [
        {
          "indexed": true,
          "internalType": "address",
          "name": "owner",
          "type": "address"
        },
        {
          "indexed": true,
          "internalType": "address",
          "name": "spender",
          "type": "address"
        },
        {
          "indexed": false,
          "internalType": "uint256",
          "name": "value",
          "type": "uint256"
        }
      ],
      "name": "Approval",
      "type": "event"
    },
    {
      "anonymous": false,
      "inputs": [
        {
          "indexed": false,
          "internalType": "address",
          "name": "user",
          "type": "address"
        },
        {
          "indexed": false,
          "internalType": "uint256",
          "name": "burned",
          "type": "uint256"
        }
      ],
      "name": "Burn",
      "type": "event"
    },
    {
      "anonymous": false,
      "inputs": [
        {
          "indexed": false,
          "internalType": "address",
          "name": "user",
          "type": "address"
        },
        {
          "indexed": false,
          "internalType": "uint256",
          "name": "newMint",
          "type": "uint256"
        }
      ],
      "name": "Mint",
      "type": "event"
    },
    {
      "anonymous": false,
      "inputs": [
        {
          "indexed": true,
          "internalType": "address",
          "name": "from",
          "type": "address"
        },
        {
          "indexed": true,
          "internalType": "address",
          "name": "to",
          "type": "address"
        },
        {
          "indexed": false,
          "internalType": "uint256",
          "name": "value",
          "type": "uint256"
        }
      ],
      "name": "Transfer",
      "type": "event"
    },
    {
      "inputs": [],
      "name": "DOMAIN_SEPARATOR",
      "outputs": [
        {
          "internalType": "bytes32",
          "name": "",
          "type": "bytes32"
        }
      ],
      "stateMutability": "view",
      "type": "function"
    },
    {
      "inputs": [],
      "name": "PERMIT_TYPEHASH",
      "outputs": [
        {
          "internalType": "bytes32",
          "name": "",
          "type": "bytes32"
        }
      ],
      "stateMutability": "view",
      "type": "function"
    },
    {
      "inputs": [],
      "name": "_decimals",
      "outputs": [
        {
          "internalType": "uint8",
          "name": "",
          "type": "uint8"
        }
      ],
      "stateMutability": "view",
      "type": "function"
    },
    {
      "inputs": [],
      "name": "_devFundAddr",
      "outputs": [
        {
          "internalType": "address",
          "name": "",
          "type": "address"
        }
      ],
      "stateMutability": "view",
      "type": "function"
    },
    {
      "inputs": [],
      "name": "_name",
      "outputs": [
        {
          "internalType": "string",
          "name": "",
          "type": "string"
        }
      ],
      "stateMutability": "view",
      "type": "function"
    },
    {
      "inputs": [],
      "name": "_owner",
      "outputs": [
        {
          "internalType": "address",
          "name": "",
          "type": "address"
        }
      ],
      "stateMutability": "view",
      "type": "function"
    },
    {
      "inputs": [],
      "name": "_safuAddr",
      "outputs": [
        {
          "internalType": "address",
          "name": "",
          "type": "address"
        }
      ],
      "stateMutability": "view",
      "type": "function"
    },
    {
      "inputs": [],
      "name": "_safuShares",
      "outputs": [
        {
          "internalType": "uint256",
          "name": "",
          "type": "uint256"
        }
      ],
      "stateMutability": "view",
      "type": "function"
    },
    {
      "inputs": [],
      "name": "_stakeAddr",
      "outputs": [
        {
          "internalType": "address",
          "name": "",
          "type": "address"
        }
      ],
      "stateMutability": "view",
      "type": "function"
    },
    {
      "inputs": [],
      "name": "_stakeShares",
      "outputs": [
        {
          "internalType": "uint256",
          "name": "",
          "type": "uint256"
        }
      ],
      "stateMutability": "view",
      "type": "function"
    },
    {
      "inputs": [],
      "name": "_symbol",
      "outputs": [
        {
          "internalType": "string",
          "name": "",
          "type": "string"
        }
      ],
      "stateMutability": "view",
      "type": "function"
    },
    {
      "inputs": [],
      "name": "_totalSupply",
      "outputs": [
        {
          "internalType": "uint256",
          "name": "",
          "type": "uint256"
        }
      ],
      "stateMutability": "view",
      "type": "function"
    },
    {
      "inputs": [],
      "name": "_valuator",
      "outputs": [
        {
          "internalType": "address",
          "name": "",
          "type": "address"
        }
      ],
      "stateMutability": "view",
      "type": "function"
    },
    {
      "inputs": [
        {
          "internalType": "address",
          "name": "",
          "type": "address"
        }
      ],
      "name": "nonces",
      "outputs": [
        {
          "internalType": "uint256",
          "name": "",
          "type": "uint256"
        }
      ],
      "stateMutability": "view",
      "type": "function"
    },
    {
      "inputs": [],
      "name": "version",
      "outputs": [
        {
          "internalType": "string",
          "name": "",
          "type": "string"
        }
      ],
      "stateMutability": "view",
      "type": "function"
    },
    {
      "inputs": [],
      "name": "name",
      "outputs": [
        {
          "internalType": "string",
          "name": "",
          "type": "string"
        }
      ],
      "stateMutability": "view",
      "type": "function"
    },
    {
      "inputs": [],
      "name": "symbol",
      "outputs": [
        {
          "internalType": "string",
          "name": "",
          "type": "string"
        }
      ],
      "stateMutability": "view",
      "type": "function"
    },
    {
      "inputs": [],
      "name": "decimals",
      "outputs": [
        {
          "internalType": "uint8",
          "name": "",
          "type": "uint8"
        }
      ],
      "stateMutability": "view",
      "type": "function"
    },
    {
      "inputs": [],
      "name": "totalSupply",
      "outputs": [
        {
          "internalType": "uint256",
          "name": "",
          "type": "uint256"
        }
      ],
      "stateMutability": "view",
      "type": "function"
    },
    {
      "inputs": [
        {
          "internalType": "address",
          "name": "account",
          "type": "address"
        }
      ],
      "name": "balanceOf",
      "outputs": [
        {
          "internalType": "uint256",
          "name": "",
          "type": "uint256"
        }
      ],
      "stateMutability": "view",
      "type": "function"
    },
    {
      "inputs": [
        {
          "internalType": "address",
          "name": "holder",
          "type": "address"
        },
        {
          "internalType": "address",
          "name": "spender",
          "type": "address"
        },
        {
          "internalType": "uint256",
          "name": "nonce",
          "type": "uint256"
        },
        {
          "internalType": "uint256",
          "name": "expiry",
          "type": "uint256"
        },
        {
          "internalType": "bool",
          "name": "allowed",
          "type": "bool"
        },
        {
          "internalType": "uint8",
          "name": "v",
          "type": "uint8"
        },
        {
          "internalType": "bytes32",
          "name": "r",
          "type": "bytes32"
        },
        {
          "internalType": "bytes32",
          "name": "s",
          "type": "bytes32"
        }
      ],
      "name": "permit",
      "outputs": [],
      "stateMutability": "nonpayable",
      "type": "function"
    },
    {
      "inputs": [
        {
          "internalType": "address",
          "name": "recipient",
          "type": "address"
        },
        {
          "internalType": "uint256",
          "name": "amount",
          "type": "uint256"
        }
      ],
      "name": "transfer",
      "outputs": [
        {
          "internalType": "bool",
          "name": "",
          "type": "bool"
        }
      ],
      "stateMutability": "nonpayable",
      "type": "function"
    },
    {
      "inputs": [
        {
          "internalType": "address",
          "name": "sender",
          "type": "address"
        },
        {
          "internalType": "address",
          "name": "recipient",
          "type": "address"
        },
        {
          "internalType": "uint256",
          "name": "amount",
          "type": "uint256"
        }
      ],
      "name": "transferFrom",
      "outputs": [
        {
          "internalType": "bool",
          "name": "",
          "type": "bool"
        }
      ],
      "stateMutability": "nonpayable",
      "type": "function"
    },
    {
      "inputs": [
        {
          "internalType": "address",
          "name": "owner",
          "type": "address"
        },
        {
          "internalType": "address",
          "name": "spender",
          "type": "address"
        }
      ],
      "name": "allowance",
      "outputs": [
        {
          "internalType": "uint256",
          "name": "",
          "type": "uint256"
        }
      ],
      "stateMutability": "view",
      "type": "function"
    },
    {
      "inputs": [
        {
          "internalType": "address",
          "name": "spender",
          "type": "address"
        },
        {
          "internalType": "uint256",
          "name": "amount",
          "type": "uint256"
        }
      ],
      "name": "approve",
      "outputs": [
        {
          "internalType": "bool",
          "name": "",
          "type": "bool"
        }
      ],
      "stateMutability": "nonpayable",
      "type": "function"
    },
    {
      "inputs": [
        {
          "internalType": "address",
          "name": "spender",
          "type": "address"
        },
        {
          "internalType": "uint256",
          "name": "addedValue",
          "type": "uint256"
        }
      ],
      "name": "increaseAllowance",
      "outputs": [
        {
          "internalType": "bool",
          "name": "",
          "type": "bool"
        }
      ],
      "stateMutability": "nonpayable",
      "type": "function"
    },
    {
      "inputs": [
        {
          "internalType": "address",
          "name": "spender",
          "type": "address"
        },
        {
          "internalType": "uint256",
          "name": "subtractedValue",
          "type": "uint256"
        }
      ],
      "name": "decreaseAllowance",
      "outputs": [
        {
          "internalType": "bool",
          "name": "",
          "type": "bool"
        }
      ],
      "stateMutability": "nonpayable",
      "type": "function"
    },
    {
      "inputs": [
        {
          "internalType": "address",
          "name": "account",
          "type": "address"
        },
        {
          "internalType": "uint256",
          "name": "amount",
          "type": "uint256"
        },
        {
          "internalType": "uint256",
          "name": "fee",
          "type": "uint256"
        },
        {
          "internalType": "address",
          "name": "LLCAddr",
          "type": "address"
        }
      ],
      "name": "_mint",
      "outputs": [],
      "stateMutability": "nonpayable",
      "type": "function"
    },
    {
      "inputs": [
        {
          "internalType": "address",
          "name": "account",
          "type": "address"
        },
        {
          "internalType": "uint256",
          "name": "toBurn",
          "type": "uint256"
        },
        {
          "internalType": "address",
          "name": "LLCAddr",
          "type": "address"
        }
      ],
      "name": "_burn",
      "outputs": [],
      "stateMutability": "nonpayable",
      "type": "function"
    },
    {
      "inputs": [
        {
          "internalType": "address",
          "name": "user",
          "type": "address"
        },
        {
          "internalType": "address",
          "name": "lockLocation",
          "type": "address"
        }
      ],
      "name": "checkLoan",
      "outputs": [
        {
          "internalType": "uint256",
          "name": "owed",
          "type": "uint256"
        }
      ],
      "stateMutability": "view",
      "type": "function"
    },
    {
      "inputs": [
        {
          "internalType": "uint256",
          "name": "rate",
          "type": "uint256"
        }
      ],
      "name": "changeSafuShare",
      "outputs": [],
      "stateMutability": "nonpayable",
      "type": "function"
    },
    {
      "inputs": [
        {
          "internalType": "uint256",
          "name": "rate",
          "type": "uint256"
        }
      ],
      "name": "changeStakeShare",
      "outputs": [],
      "stateMutability": "nonpayable",
      "type": "function"
    },
    {
      "inputs": [
        {
          "internalType": "address",
          "name": "newStaking",
          "type": "address"
        }
      ],
      "name": "changeStaking",
      "outputs": [],
      "stateMutability": "nonpayable",
      "type": "function"
    },
    {
      "inputs": [
        {
          "internalType": "address",
          "name": "newSafuFund",
          "type": "address"
        }
      ],
      "name": "changeSafuFund",
      "outputs": [],
      "stateMutability": "nonpayable",
      "type": "function"
    },
    {
      "inputs": [
        {
          "internalType": "address",
          "name": "newDevFund",
          "type": "address"
        }
      ],
      "name": "changeDevFund",
      "outputs": [],
      "stateMutability": "nonpayable",
      "type": "function"
    },
    {
      "inputs": [
        {
          "internalType": "address",
          "name": "newValuator",
          "type": "address"
        }
      ],
      "name": "changeValuator",
      "outputs": [],
      "stateMutability": "nonpayable",
      "type": "function"
    },
    {
      "inputs": [],
      "name": "isOwner",
      "outputs": [
        {
          "internalType": "bool",
          "name": "",
          "type": "bool"
        }
      ],
      "stateMutability": "view",
      "type": "function"
    },
    {
      "inputs": [
        {
          "internalType": "address",
          "name": "_newOwner",
          "type": "address"
        }
      ],
      "name": "setOwner",
      "outputs": [],
      "stateMutability": "nonpayable",
      "type": "function"
    }
  ],
  "bytecode": "0x60806040523480156200001157600080fd5b5060405162003c2838038062003c28833981810160405260a08110156200003757600080fd5b81019080805160405193929190846401000000008211156200005857600080fd5b838201915060208201858111156200006f57600080fd5b82518660018202830111640100000000821117156200008d57600080fd5b8083526020830192505050908051906020019080838360005b83811015620000c3578082015181840152602081019050620000a6565b50505050905090810190601f168015620000f15780820380516001836020036101000a031916815260200191505b50604052602001805160405193929190846401000000008211156200011557600080fd5b838201915060208201858111156200012c57600080fd5b82518660018202830111640100000000821117156200014a57600080fd5b8083526020830192505050908051906020019080838360005b838110156200018057808201518184015260208101905062000163565b50505050905090810190601f168015620001ae5780820380516001836020036101000a031916815260200191505b506040526020018051906020019092919080519060200190929190805190602001909291905050508460039080519060200190620001ee92919062000420565b5083600490805190602001906200020792919062000420565b506012600560006101000a81548160ff021916908360ff16021790555033600e60006101000a81548173ffffffffffffffffffffffffffffffffffffffff021916908373ffffffffffffffffffffffffffffffffffffffff160217905550600060028190555081600960006101000a81548173ffffffffffffffffffffffffffffffffffffffff021916908373ffffffffffffffffffffffffffffffffffffffff16021790555080600a60006101000a81548173ffffffffffffffffffffffffffffffffffffffff021916908373ffffffffffffffffffffffffffffffffffffffff1602179055506008600b819055506008600c8190555081600860006101000a81548173ffffffffffffffffffffffffffffffffffffffff021916908373ffffffffffffffffffffffffffffffffffffffff160217905550604051808062003bd6605291396052019050604051809103902085805190602001206040518060400160405280600181526020017f3100000000000000000000000000000000000000000000000000000000000000815250805190602001208530604051602001808681526020018581526020018481526020018381526020018273ffffffffffffffffffffffffffffffffffffffff1673ffffffffffffffffffffffffffffffffffffffff16815260200195505050505050604051602081830303815290604052805190602001206006819055505050505050620004cf565b828054600181600116156101000203166002900490600052602060002090601f016020900481019282601f106200046357805160ff191683800117855562000494565b8280016001018555821562000494579182015b828111156200049357825182559160200191906001019062000476565b5b509050620004a39190620004a7565b5090565b620004cc91905b80821115620004c8576000816000905550600101620004ae565b5090565b90565b6136f780620004df6000396000f3fe608060405234801561001057600080fd5b50600436106102325760003560e01c80636daaa73e116101305780639aa9f495116100b8578063b2bdfa7b1161007c578063b2bdfa7b14610c7d578063ba13976314610cc7578063d28d885214610d0b578063dd62ed3e14610d8e578063f57c33fe14610e0657610232565b80639aa9f49514610a88578063a0fbc6a814610b00578063a457c2d714610b2e578063a9059cbb14610b94578063b09f126614610bfa57610232565b806384a88e04116100ff57806384a88e04146108855780638f32d59b146108cf5780638fcbaf0c146108f1578063904a541e1461099757806395d89b4114610a0557610232565b80636daaa73e1461077357806370a08231146107915780637d558c46146107e95780637ecebe001461082d57610232565b806330adf81f116101be5780633950935111610182578063395093511461060a5780633eaaf86b1461067057806354fd4d501461068e57806366ca4488146107115780636b4b67841461075557610232565b806330adf81f1461053c578063313ce5671461055a57806332424aa31461057e5780633644e515146105a257806339317493146105c057610232565b806313af40351161020557806313af4035146103dc57806318160ddd1461042057806323b872dd1461043e5780632eb96c9a146104c45780632f050282146104f257610232565b806305a7bed11461023757806306fdde031461027b578063095ea7b3146102fe5780630d5a771014610364575b600080fd5b6102796004803603602081101561024d57600080fd5b81019080803573ffffffffffffffffffffffffffffffffffffffff169060200190929190505050610e50565b005b610283610f0e565b6040518080602001828103825283818151815260200191508051906020019080838360005b838110156102c35780820151818401526020810190506102a8565b50505050905090810190601f1680156102f05780820380516001836020036101000a031916815260200191505b509250505060405180910390f35b61034a6004803603604081101561031457600080fd5b81019080803573ffffffffffffffffffffffffffffffffffffffff16906020019092919080359060200190929190505050610fb0565b604051808215151515815260200191505060405180910390f35b6103c66004803603604081101561037a57600080fd5b81019080803573ffffffffffffffffffffffffffffffffffffffff169060200190929190803573ffffffffffffffffffffffffffffffffffffffff169060200190929190505050610fce565b6040518082815260200191505060405180910390f35b61041e600480360360208110156103f257600080fd5b81019080803573ffffffffffffffffffffffffffffffffffffffff169060200190929190505050611055565b005b610428611113565b6040518082815260200191505060405180910390f35b6104aa6004803603606081101561045457600080fd5b81019080803573ffffffffffffffffffffffffffffffffffffffff169060200190929190803573ffffffffffffffffffffffffffffffffffffffff1690602001909291908035906020019092919050505061111d565b604051808215151515815260200191505060405180910390f35b6104f0600480360360208110156104da57600080fd5b81019080803590602001909291905050506111f6565b005b6104fa6112fd565b604051808273ffffffffffffffffffffffffffffffffffffffff1673ffffffffffffffffffffffffffffffffffffffff16815260200191505060405180910390f35b610544611323565b6040518082815260200191505060405180910390f35b61056261134a565b604051808260ff1660ff16815260200191505060405180910390f35b610586611361565b604051808260ff1660ff16815260200191505060405180910390f35b6105aa611374565b6040518082815260200191505060405180910390f35b6105c861137a565b604051808273ffffffffffffffffffffffffffffffffffffffff1673ffffffffffffffffffffffffffffffffffffffff16815260200191505060405180910390f35b6106566004803603604081101561062057600080fd5b81019080803573ffffffffffffffffffffffffffffffffffffffff169060200190929190803590602001909291905050506113a0565b604051808215151515815260200191505060405180910390f35b610678611453565b6040518082815260200191505060405180910390f35b610696611459565b6040518080602001828103825283818151815260200191508051906020019080838360005b838110156106d65780820151818401526020810190506106bb565b50505050905090810190601f1680156107035780820380516001836020036101000a031916815260200191505b509250505060405180910390f35b6107536004803603602081101561072757600080fd5b81019080803573ffffffffffffffffffffffffffffffffffffffff169060200190929190505050611492565b005b61075d611550565b6040518082815260200191505060405180910390f35b61077b611556565b6040518082815260200191505060405180910390f35b6107d3600480360360208110156107a757600080fd5b81019080803573ffffffffffffffffffffffffffffffffffffffff16906020019092919050505061155c565b6040518082815260200191505060405180910390f35b61082b600480360360208110156107ff57600080fd5b81019080803573ffffffffffffffffffffffffffffffffffffffff1690602001909291905050506115a4565b005b61086f6004803603602081101561084357600080fd5b81019080803573ffffffffffffffffffffffffffffffffffffffff169060200190929190505050611662565b6040518082815260200191505060405180910390f35b61088d61167a565b604051808273ffffffffffffffffffffffffffffffffffffffff1673ffffffffffffffffffffffffffffffffffffffff16815260200191505060405180910390f35b6108d76116a0565b604051808215151515815260200191505060405180910390f35b610995600480360361010081101561090857600080fd5b81019080803573ffffffffffffffffffffffffffffffffffffffff169060200190929190803573ffffffffffffffffffffffffffffffffffffffff1690602001909291908035906020019092919080359060200190929190803515159060200190929190803560ff16906020019092919080359060200190929190803590602001909291905050506116f8565b005b610a03600480360360608110156109ad57600080fd5b81019080803573ffffffffffffffffffffffffffffffffffffffff16906020019092919080359060200190929190803573ffffffffffffffffffffffffffffffffffffffff169060200190929190505050611c33565b005b610a0d612130565b6040518080602001828103825283818151815260200191508051906020019080838360005b83811015610a4d578082015181840152602081019050610a32565b50505050905090810190601f168015610a7a5780820380516001836020036101000a031916815260200191505b509250505060405180910390f35b610afe60048036036080811015610a9e57600080fd5b81019080803573ffffffffffffffffffffffffffffffffffffffff1690602001909291908035906020019092919080359060200190929190803573ffffffffffffffffffffffffffffffffffffffff1690602001909291905050506121d2565b005b610b2c60048036036020811015610b1657600080fd5b8101908080359060200190929190505050612879565b005b610b7a60048036036040811015610b4457600080fd5b81019080803573ffffffffffffffffffffffffffffffffffffffff16906020019092919080359060200190929190505050612980565b604051808215151515815260200191505060405180910390f35b610be060048036036040811015610baa57600080fd5b81019080803573ffffffffffffffffffffffffffffffffffffffff16906020019092919080359060200190929190505050612a4d565b604051808215151515815260200191505060405180910390f35b610c02612a6b565b6040518080602001828103825283818151815260200191508051906020019080838360005b83811015610c42578082015181840152602081019050610c27565b50505050905090810190601f168015610c6f5780820380516001836020036101000a031916815260200191505b509250505060405180910390f35b610c85612b09565b604051808273ffffffffffffffffffffffffffffffffffffffff1673ffffffffffffffffffffffffffffffffffffffff16815260200191505060405180910390f35b610d0960048036036020811015610cdd57600080fd5b81019080803573ffffffffffffffffffffffffffffffffffffffff169060200190929190505050612b2f565b005b610d13612bed565b6040518080602001828103825283818151815260200191508051906020019080838360005b83811015610d53578082015181840152602081019050610d38565b50505050905090810190601f168015610d805780820380516001836020036101000a031916815260200191505b509250505060405180910390f35b610df060048036036040811015610da457600080fd5b81019080803573ffffffffffffffffffffffffffffffffffffffff169060200190929190803573ffffffffffffffffffffffffffffffffffffffff169060200190929190505050612c8b565b6040518082815260200191505060405180910390f35b610e0e612d12565b604051808273ffffffffffffffffffffffffffffffffffffffff1673ffffffffffffffffffffffffffffffffffffffff16815260200191505060405180910390f35b610e586116a0565b610eca576040517f08c379a00000000000000000000000000000000000000000000000000000000081526004018080602001828103825260208152602001807f4f776e61626c653a2063616c6c6572206973206e6f7420746865206f776e657281525060200191505060405180910390fd5b80600a60006101000a81548173ffffffffffffffffffffffffffffffffffffffff021916908373ffffffffffffffffffffffffffffffffffffffff16021790555050565b606060038054600181600116156101000203166002900480601f016020809104026020016040519081016040528092919081815260200182805460018160011615610100020316600290048015610fa65780601f10610f7b57610100808354040283529160200191610fa6565b820191906000526020600020905b815481529060010190602001808311610f8957829003601f168201915b5050505050905090565b6000610fc4610fbd612d38565b8484612d40565b6001905092915050565b6000600d60008473ffffffffffffffffffffffffffffffffffffffff1673ffffffffffffffffffffffffffffffffffffffff16815260200190815260200160002060008373ffffffffffffffffffffffffffffffffffffffff1673ffffffffffffffffffffffffffffffffffffffff16815260200190815260200160002054905092915050565b61105d6116a0565b6110cf576040517f08c379a00000000000000000000000000000000000000000000000000000000081526004018080602001828103825260208152602001807f4f776e61626c653a2063616c6c6572206973206e6f7420746865206f776e657281525060200191505060405180910390fd5b80600e60006101000a81548173ffffffffffffffffffffffffffffffffffffffff021916908373ffffffffffffffffffffffffffffffffffffffff16021790555050565b6000600254905090565b600061112a848484612f37565b6111eb84611136612d38565b6111e6856040518060600160405280602881526020016135c460289139600160008b73ffffffffffffffffffffffffffffffffffffffff1673ffffffffffffffffffffffffffffffffffffffff168152602001908152602001600020600061119c612d38565b73ffffffffffffffffffffffffffffffffffffffff1673ffffffffffffffffffffffffffffffffffffffff168152602001908152602001600020546131ed9092919063ffffffff16565b612d40565b600190509392505050565b6111fe6116a0565b611270576040517f08c379a00000000000000000000000000000000000000000000000000000000081526004018080602001828103825260208152602001807f4f776e61626c653a2063616c6c6572206973206e6f7420746865206f776e657281525060200191505060405180910390fd5b601481111580156112815750600081115b6112f3576040517f08c379a00000000000000000000000000000000000000000000000000000000081526004018080602001828103825260098152602001807f62616420696e707574000000000000000000000000000000000000000000000081525060200191505060405180910390fd5b80600c8190555050565b600f60009054906101000a900473ffffffffffffffffffffffffffffffffffffffff1681565b7f6e71edae12b1b97f4d1f60370fef10105fa2faae0126114a169c64845d6126c960001b81565b6000600560009054906101000a900460ff16905090565b600560009054906101000a900460ff1681565b60065481565b600860009054906101000a900473ffffffffffffffffffffffffffffffffffffffff1681565b60006114496113ad612d38565b8461144485600160006113be612d38565b73ffffffffffffffffffffffffffffffffffffffff1673ffffffffffffffffffffffffffffffffffffffff16815260200190815260200160002060008973ffffffffffffffffffffffffffffffffffffffff1673ffffffffffffffffffffffffffffffffffffffff168152602001908152602001600020546132ad90919063ffffffff16565b612d40565b6001905092915050565b60025481565b6040518060400160405280600181526020017f310000000000000000000000000000000000000000000000000000000000000081525081565b61149a6116a0565b61150c576040517f08c379a00000000000000000000000000000000000000000000000000000000081526004018080602001828103825260208152602001807f4f776e61626c653a2063616c6c6572206973206e6f7420746865206f776e657281525060200191505060405180910390fd5b80600960006101000a81548173ffffffffffffffffffffffffffffffffffffffff021916908373ffffffffffffffffffffffffffffffffffffffff16021790555050565b600b5481565b600c5481565b60008060008373ffffffffffffffffffffffffffffffffffffffff1673ffffffffffffffffffffffffffffffffffffffff168152602001908152602001600020549050919050565b6115ac6116a0565b61161e576040517f08c379a00000000000000000000000000000000000000000000000000000000081526004018080602001828103825260208152602001807f4f776e61626c653a2063616c6c6572206973206e6f7420746865206f776e657281525060200191505060405180910390fd5b80600860006101000a81548173ffffffffffffffffffffffffffffffffffffffff021916908373ffffffffffffffffffffffffffffffffffffffff16021790555050565b60076020528060005260406000206000915090505481565b600960009054906101000a900473ffffffffffffffffffffffffffffffffffffffff1681565b6000600e60009054906101000a900473ffffffffffffffffffffffffffffffffffffffff1673ffffffffffffffffffffffffffffffffffffffff163373ffffffffffffffffffffffffffffffffffffffff1614905090565b60006006547f6e71edae12b1b97f4d1f60370fef10105fa2faae0126114a169c64845d6126c960001b8a8a8a8a8a604051602001808781526020018673ffffffffffffffffffffffffffffffffffffffff1673ffffffffffffffffffffffffffffffffffffffff1681526020018573ffffffffffffffffffffffffffffffffffffffff1673ffffffffffffffffffffffffffffffffffffffff1681526020018481526020018381526020018215151515815260200196505050505050506040516020818303038152906040528051906020012060405160200180807f190100000000000000000000000000000000000000000000000000000000000081525060020183815260200182815260200192505050604051602081830303815290604052805190602001209050600073ffffffffffffffffffffffffffffffffffffffff168973ffffffffffffffffffffffffffffffffffffffff1614156118c5576040517f08c379a00000000000000000000000000000000000000000000000000000000081526004018080602001828103825260118152602001807f696e76616c69642d616464726573732d3000000000000000000000000000000081525060200191505060405180910390fd5b60018185858560405160008152602001604052604051808581526020018460ff1660ff1681526020018381526020018281526020019450505050506020604051602081039080840390855afa158015611922573d6000803e3d6000fd5b5050506020604051035173ffffffffffffffffffffffffffffffffffffffff168973ffffffffffffffffffffffffffffffffffffffff16146119cc576040517f08c379a000000000000000000000000000000000000000000000000000000000815260040180806020018281038252600e8152602001807f696e76616c69642d7065726d697400000000000000000000000000000000000081525060200191505060405180910390fd5b60008614806119db5750854211155b611a4d576040517f08c379a000000000000000000000000000000000000000000000000000000000815260040180806020018281038252600e8152602001807f7065726d69742d6578706972656400000000000000000000000000000000000081525060200191505060405180910390fd5b600760008a73ffffffffffffffffffffffffffffffffffffffff1673ffffffffffffffffffffffffffffffffffffffff1681526020019081526020016000206000815480929190600101919050558714611b0f576040517f08c379a000000000000000000000000000000000000000000000000000000000815260040180806020018281038252600d8152602001807f696e76616c69642d6e6f6e63650000000000000000000000000000000000000081525060200191505060405180910390fd5b600085611b1d576000611b3f565b7fffffffffffffffffffffffffffffffffffffffffffffffffffffffffffffffff5b905080600160008c73ffffffffffffffffffffffffffffffffffffffff1673ffffffffffffffffffffffffffffffffffffffff16815260200190815260200160002060008b73ffffffffffffffffffffffffffffffffffffffff1673ffffffffffffffffffffffffffffffffffffffff168152602001908152602001600020819055508873ffffffffffffffffffffffffffffffffffffffff168a73ffffffffffffffffffffffffffffffffffffffff167f8c5be1e5ebec7d5bd14f71427d1e84f3dd0314c0f7b2291e5b200ac8c7c3b925836040518082815260200191505060405180910390a350505050505050505050565b600073ffffffffffffffffffffffffffffffffffffffff168373ffffffffffffffffffffffffffffffffffffffff161415611cb9576040517f08c379a00000000000000000000000000000000000000000000000000000000081526004018080602001828103825260218152602001806135ec6021913960400191505060405180910390fd5b600f60009054906101000a900473ffffffffffffffffffffffffffffffffffffffff1673ffffffffffffffffffffffffffffffffffffffff163373ffffffffffffffffffffffffffffffffffffffff1614611d5f576040517f08c379a00000000000000000000000000000000000000000000000000000000081526004018080602001828103825260258152602001806136786025913960400191505060405180910390fd5b6000600d60008573ffffffffffffffffffffffffffffffffffffffff1673ffffffffffffffffffffffffffffffffffffffff16815260200190815260200160002060008373ffffffffffffffffffffffffffffffffffffffff1673ffffffffffffffffffffffffffffffffffffffff168152602001908152602001600020541015611e52576040517f08c379a00000000000000000000000000000000000000000000000000000000081526004018080602001828103825260108152602001807f596f752068617665206e6f206c6f616e0000000000000000000000000000000081525060200191505060405180910390fd5b816000808573ffffffffffffffffffffffffffffffffffffffff1673ffffffffffffffffffffffffffffffffffffffff168152602001908152602001600020541015611ee9576040517f08c379a000000000000000000000000000000000000000000000000000000000815260040180806020018281038252602281526020018061360d6022913960400191505060405180910390fd5b611f7882600d60008673ffffffffffffffffffffffffffffffffffffffff1673ffffffffffffffffffffffffffffffffffffffff16815260200190815260200160002060008473ffffffffffffffffffffffffffffffffffffffff1673ffffffffffffffffffffffffffffffffffffffff1681526020019081526020016000205461333590919063ffffffff16565b600d60008573ffffffffffffffffffffffffffffffffffffffff1673ffffffffffffffffffffffffffffffffffffffff16815260200190815260200160002060008373ffffffffffffffffffffffffffffffffffffffff1673ffffffffffffffffffffffffffffffffffffffff1681526020019081526020016000208190555061206382604051806060016040528060228152602001613539602291396000808773ffffffffffffffffffffffffffffffffffffffff1673ffffffffffffffffffffffffffffffffffffffff168152602001908152602001600020546131ed9092919063ffffffff16565b6000808573ffffffffffffffffffffffffffffffffffffffff1673ffffffffffffffffffffffffffffffffffffffff168152602001908152602001600020819055506120ba8260025461333590919063ffffffff16565b6002819055507fcc16f5dbb4873280815c1ee09dbd06736cffcc184412cf7a71a0fdb75d397ca58383604051808373ffffffffffffffffffffffffffffffffffffffff1673ffffffffffffffffffffffffffffffffffffffff1681526020018281526020019250505060405180910390a1505050565b606060048054600181600116156101000203166002900480601f0160208091040260200160405190810160405280929190818152602001828054600181600116156101000203166002900480156121c85780601f1061219d576101008083540402835291602001916121c8565b820191906000526020600020905b8154815290600101906020018083116121ab57829003601f168201915b5050505050905090565b600073ffffffffffffffffffffffffffffffffffffffff168473ffffffffffffffffffffffffffffffffffffffff161415612275576040517f08c379a000000000000000000000000000000000000000000000000000000000815260040180806020018281038252601f8152602001807f45524332303a206d696e7420746f20746865207a65726f20616464726573730081525060200191505060405180910390fd5b600f60009054906101000a900473ffffffffffffffffffffffffffffffffffffffff1673ffffffffffffffffffffffffffffffffffffffff163373ffffffffffffffffffffffffffffffffffffffff161461231b576040517f08c379a00000000000000000000000000000000000000000000000000000000081526004018080602001828103825260258152602001806136786025913960400191505060405180910390fd5b6000612330838561337f90919063ffffffff16565b90506000612347828661333590919063ffffffff16565b9050600061235f60148461337f90919063ffffffff16565b90506123f086600d60008a73ffffffffffffffffffffffffffffffffffffffff1673ffffffffffffffffffffffffffffffffffffffff16815260200190815260200160002060008773ffffffffffffffffffffffffffffffffffffffff1673ffffffffffffffffffffffffffffffffffffffff168152602001908152602001600020546132ad90919063ffffffff16565b600d60008973ffffffffffffffffffffffffffffffffffffffff1673ffffffffffffffffffffffffffffffffffffffff16815260200190815260200160002060008673ffffffffffffffffffffffffffffffffffffffff1673ffffffffffffffffffffffffffffffffffffffff16815260200190815260200160002081905550612485866002546132ad90919063ffffffff16565b6002819055506124dc826000808a73ffffffffffffffffffffffffffffffffffffffff1673ffffffffffffffffffffffffffffffffffffffff168152602001908152602001600020546132ad90919063ffffffff16565b6000808973ffffffffffffffffffffffffffffffffffffffff1673ffffffffffffffffffffffffffffffffffffffff168152602001908152602001600020819055506125a5612536600b54836133c990919063ffffffff16565b600080600860009054906101000a900473ffffffffffffffffffffffffffffffffffffffff1673ffffffffffffffffffffffffffffffffffffffff1673ffffffffffffffffffffffffffffffffffffffff168152602001908152602001600020546132ad90919063ffffffff16565b600080600860009054906101000a900473ffffffffffffffffffffffffffffffffffffffff1673ffffffffffffffffffffffffffffffffffffffff1673ffffffffffffffffffffffffffffffffffffffff16815260200190815260200160002081905550612690612621600c54836133c990919063ffffffff16565b600080600960009054906101000a900473ffffffffffffffffffffffffffffffffffffffff1673ffffffffffffffffffffffffffffffffffffffff1673ffffffffffffffffffffffffffffffffffffffff168152602001908152602001600020546132ad90919063ffffffff16565b600080600960009054906101000a900473ffffffffffffffffffffffffffffffffffffffff1673ffffffffffffffffffffffffffffffffffffffff1673ffffffffffffffffffffffffffffffffffffffff168152602001908152602001600020819055506127a1612732612723612714600b54600c546132ad90919063ffffffff16565b846133c990919063ffffffff16565b8561333590919063ffffffff16565b600080600a60009054906101000a900473ffffffffffffffffffffffffffffffffffffffff1673ffffffffffffffffffffffffffffffffffffffff1673ffffffffffffffffffffffffffffffffffffffff168152602001908152602001600020546132ad90919063ffffffff16565b600080600a60009054906101000a900473ffffffffffffffffffffffffffffffffffffffff1673ffffffffffffffffffffffffffffffffffffffff1673ffffffffffffffffffffffffffffffffffffffff168152602001908152602001600020819055507f0f6798a560793a54c3bcfe86a93cde1e73087d944c0ea20544137d41213968858787604051808373ffffffffffffffffffffffffffffffffffffffff1673ffffffffffffffffffffffffffffffffffffffff1681526020018281526020019250505060405180910390a150505050505050565b6128816116a0565b6128f3576040517f08c379a00000000000000000000000000000000000000000000000000000000081526004018080602001828103825260208152602001807f4f776e61626c653a2063616c6c6572206973206e6f7420746865206f776e657281525060200191505060405180910390fd5b601481111580156129045750600081115b612976576040517f08c379a00000000000000000000000000000000000000000000000000000000081526004018080602001828103825260098152602001807f62616420696e707574000000000000000000000000000000000000000000000081525060200191505060405180910390fd5b80600b8190555050565b6000612a4361298d612d38565b84612a3e8560405180606001604052806025815260200161369d60259139600160006129b7612d38565b73ffffffffffffffffffffffffffffffffffffffff1673ffffffffffffffffffffffffffffffffffffffff16815260200190815260200160002060008a73ffffffffffffffffffffffffffffffffffffffff1673ffffffffffffffffffffffffffffffffffffffff168152602001908152602001600020546131ed9092919063ffffffff16565b612d40565b6001905092915050565b6000612a61612a5a612d38565b8484612f37565b6001905092915050565b60048054600181600116156101000203166002900480601f016020809104026020016040519081016040528092919081815260200182805460018160011615610100020316600290048015612b015780601f10612ad657610100808354040283529160200191612b01565b820191906000526020600020905b815481529060010190602001808311612ae457829003601f168201915b505050505081565b600e60009054906101000a900473ffffffffffffffffffffffffffffffffffffffff1681565b612b376116a0565b612ba9576040517f08c379a00000000000000000000000000000000000000000000000000000000081526004018080602001828103825260208152602001807f4f776e61626c653a2063616c6c6572206973206e6f7420746865206f776e657281525060200191505060405180910390fd5b80600f60006101000a81548173ffffffffffffffffffffffffffffffffffffffff021916908373ffffffffffffffffffffffffffffffffffffffff16021790555050565b60038054600181600116156101000203166002900480601f016020809104026020016040519081016040528092919081815260200182805460018160011615610100020316600290048015612c835780601f10612c5857610100808354040283529160200191612c83565b820191906000526020600020905b815481529060010190602001808311612c6657829003601f168201915b505050505081565b6000600160008473ffffffffffffffffffffffffffffffffffffffff1673ffffffffffffffffffffffffffffffffffffffff16815260200190815260200160002060008373ffffffffffffffffffffffffffffffffffffffff1673ffffffffffffffffffffffffffffffffffffffff16815260200190815260200160002054905092915050565b600a60009054906101000a900473ffffffffffffffffffffffffffffffffffffffff1681565b600033905090565b600073ffffffffffffffffffffffffffffffffffffffff168373ffffffffffffffffffffffffffffffffffffffff161415612dc6576040517f08c379a00000000000000000000000000000000000000000000000000000000081526004018080602001828103825260248152602001806136546024913960400191505060405180910390fd5b600073ffffffffffffffffffffffffffffffffffffffff168273ffffffffffffffffffffffffffffffffffffffff161415612e4c576040517f08c379a000000000000000000000000000000000000000000000000000000000815260040180806020018281038252602281526020018061355b6022913960400191505060405180910390fd5b80600160008573ffffffffffffffffffffffffffffffffffffffff1673ffffffffffffffffffffffffffffffffffffffff16815260200190815260200160002060008473ffffffffffffffffffffffffffffffffffffffff1673ffffffffffffffffffffffffffffffffffffffff168152602001908152602001600020819055508173ffffffffffffffffffffffffffffffffffffffff168373ffffffffffffffffffffffffffffffffffffffff167f8c5be1e5ebec7d5bd14f71427d1e84f3dd0314c0f7b2291e5b200ac8c7c3b925836040518082815260200191505060405180910390a3505050565b600073ffffffffffffffffffffffffffffffffffffffff168373ffffffffffffffffffffffffffffffffffffffff161415612fbd576040517f08c379a000000000000000000000000000000000000000000000000000000000815260040180806020018281038252602581526020018061362f6025913960400191505060405180910390fd5b600073ffffffffffffffffffffffffffffffffffffffff168273ffffffffffffffffffffffffffffffffffffffff161415613043576040517f08c379a00000000000000000000000000000000000000000000000000000000081526004018080602001828103825260238152602001806135166023913960400191505060405180910390fd5b6130ae8160405180606001604052806026815260200161357d602691396000808773ffffffffffffffffffffffffffffffffffffffff1673ffffffffffffffffffffffffffffffffffffffff168152602001908152602001600020546131ed9092919063ffffffff16565b6000808573ffffffffffffffffffffffffffffffffffffffff1673ffffffffffffffffffffffffffffffffffffffff16815260200190815260200160002081905550613141816000808573ffffffffffffffffffffffffffffffffffffffff1673ffffffffffffffffffffffffffffffffffffffff168152602001908152602001600020546132ad90919063ffffffff16565b6000808473ffffffffffffffffffffffffffffffffffffffff1673ffffffffffffffffffffffffffffffffffffffff168152602001908152602001600020819055508173ffffffffffffffffffffffffffffffffffffffff168373ffffffffffffffffffffffffffffffffffffffff167fddf252ad1be2c89b69c2b068fc378daa952ba7f163c4a11628f55a4df523b3ef836040518082815260200191505060405180910390a3505050565b600083831115829061329a576040517f08c379a00000000000000000000000000000000000000000000000000000000081526004018080602001828103825283818151815260200191508051906020019080838360005b8381101561325f578082015181840152602081019050613244565b50505050905090810190601f16801561328c5780820380516001836020036101000a031916815260200191505b509250505060405180910390fd5b5060008385039050809150509392505050565b60008082840190508381101561332b576040517f08c379a000000000000000000000000000000000000000000000000000000000815260040180806020018281038252601b8152602001807f536166654d6174683a206164646974696f6e206f766572666c6f77000000000081525060200191505060405180910390fd5b8091505092915050565b600061337783836040518060400160405280601e81526020017f536166654d6174683a207375627472616374696f6e206f766572666c6f7700008152506131ed565b905092915050565b60006133c183836040518060400160405280601a81526020017f536166654d6174683a206469766973696f6e206279207a65726f00000000000081525061344f565b905092915050565b6000808314156133dc5760009050613449565b60008284029050828482816133ed57fe5b0414613444576040517f08c379a00000000000000000000000000000000000000000000000000000000081526004018080602001828103825260218152602001806135a36021913960400191505060405180910390fd5b809150505b92915050565b600080831182906134fb576040517f08c379a00000000000000000000000000000000000000000000000000000000081526004018080602001828103825283818151815260200191508051906020019080838360005b838110156134c05780820151818401526020810190506134a5565b50505050905090810190601f1680156134ed5780820380516001836020036101000a031916815260200191505b509250505060405180910390fd5b50600083858161350757fe5b04905080915050939250505056fe45524332303a207472616e7366657220746f20746865207a65726f206164647265737345524332303a206275726e20616d6f756e7420657863656564732062616c616e636545524332303a20617070726f766520746f20746865207a65726f206164647265737345524332303a207472616e7366657220616d6f756e7420657863656564732062616c616e6365536166654d6174683a206d756c7469706c69636174696f6e206f766572666c6f7745524332303a207472616e7366657220616d6f756e74206578636565647320616c6c6f77616e636545524332303a206275726e2066726f6d20746865207a65726f2061646472657373496e73756666696369656e74207544616920746f20706179206261636b206c6f616e45524332303a207472616e736665722066726f6d20746865207a65726f206164647265737345524332303a20617070726f76652066726f6d20746865207a65726f206164647265737343616c6c20646f6573206e6f74206f726967696e6174652066726f6d2056616c7561746f7245524332303a2064656372656173656420616c6c6f77616e63652062656c6f77207a65726fa26469706673582212203e9bcca27dea2d45d919c9ee1d9ff42040c699c31b713b0ab32230f7cbbceda064736f6c63430006060033454950373132446f6d61696e28737472696e67206e616d652c737472696e672076657273696f6e2c75696e7432353620636861696e49642c6164647265737320766572696679696e67436f6e747261637429",
  "immutableReferences": {},
  "source": "// SPDX-License-Identifier: MIT\r\n\r\npragma solidity >=0.4.23 <0.8.0;\r\n\r\nimport \"@openzeppelin/contracts/GSN/Context.sol\";\r\nimport \"@openzeppelin/contracts/token/ERC20/IERC20.sol\";\r\nimport \"@openzeppelin/contracts/math/SafeMath.sol\";\r\nimport \"@openzeppelin/contracts/utils/Address.sol\";\r\n\r\n// import \"../utils/IERC223.sol\";\r\n// import \"../utils/IERC223Recipient.sol\";\r\n\r\n\r\ncontract UnboundDai is Context, IERC20 {\r\n    using SafeMath for uint256;\r\n    using Address for address;\r\n\r\n    event Mint(address user, uint256 newMint);\r\n    event Burn(address user, uint256 burned);\r\n\r\n    mapping (address => uint256) private _balances;\r\n\r\n    mapping (address => mapping (address => uint256)) private _allowances;\r\n\r\n    uint256 public _totalSupply;\r\n\r\n    string public _name;\r\n    string public _symbol;\r\n    string public constant version = \"1\";  // From DAI contract\r\n    uint8 public _decimals;\r\n\r\n\r\n    // PERMIT VARIABLES\r\n    bytes32 public DOMAIN_SEPARATOR;\r\n    // keccak256(\"Permit(address owner,address spender,uint256 value,uint256 nonce,uint256 deadline)\");\r\n    bytes32 public constant PERMIT_TYPEHASH = 0x6e71edae12b1b97f4d1f60370fef10105fa2faae0126114a169c64845d6126c9;\r\n    mapping(address => uint) public nonces;\r\n\r\n    // staking contract address (40%)\r\n    address public _stakeAddr;\r\n\r\n    // Emergency fund (40%)\r\n    address public _safuAddr;\r\n\r\n    // Dev fund (20%)\r\n    address public _devFundAddr;\r\n\r\n    // Dev Fund split\r\n    uint256 public _stakeShares;\r\n    uint256 public _safuShares;\r\n\r\n\r\n\r\n    // tracks users who minted. \r\n    mapping (address => mapping (address => uint256)) private _minted;\r\n\r\n    //Owner Address\r\n    address public _owner;\r\n\r\n    //Valuator Contract Address\r\n    address public _valuator;\r\n\r\n    modifier onlyOwner() {\r\n        require(isOwner(), \"Ownable: caller is not the owner\");\r\n        _;\r\n    }\r\n\r\n    modifier onlyValuator() {\r\n        require(msg.sender == _valuator, \"Call does not originate from Valuator\");\r\n        _;\r\n    }\r\n\r\n    constructor (string memory name, string memory symbol, uint256 chainId_, address Safu, address devFund) public {\r\n        _name = name;\r\n        _symbol = symbol;\r\n        _decimals = 18;\r\n        _owner = msg.sender;\r\n        _totalSupply = 0;\r\n        _safuAddr = Safu;\r\n        _devFundAddr = devFund;\r\n\r\n        _stakeShares = 8;\r\n        _safuShares = 8;\r\n\r\n        // MUST BE MANUALLY CHANGED TO uDai LIQ pool.\r\n        _stakeAddr = Safu;\r\n\r\n        // Permit??\r\n        DOMAIN_SEPARATOR = keccak256(abi.encode(\r\n            keccak256(\"EIP712Domain(string name,string version,uint256 chainId,address verifyingContract)\"),\r\n            keccak256(bytes(name)),\r\n            keccak256(bytes(version)),\r\n            chainId_,\r\n            address(this)\r\n        ));\r\n    }\r\n\r\n    function name() public view returns (string memory) {\r\n        return _name;\r\n    }\r\n\r\n   \r\n    function symbol() public view returns (string memory) {\r\n        return _symbol;\r\n    }\r\n\r\n    \r\n    function decimals() public view returns (uint8) {\r\n        return _decimals;\r\n    }\r\n\r\n   \r\n    function totalSupply() public view override returns (uint256) {\r\n        return _totalSupply;\r\n    }\r\n\r\n\r\n    function balanceOf(address account) public view override returns (uint256) {\r\n        return _balances[account];\r\n    }\r\n\r\n    //  PERMIT FUNCTION\r\n    function permit(address holder, address spender, uint256 nonce, uint256 expiry,\r\n                    bool allowed, uint8 v, bytes32 r, bytes32 s) external\r\n    {\r\n        bytes32 digest =\r\n            keccak256(abi.encodePacked(\r\n                \"\\x19\\x01\",                    // Do not understand what this is for\r\n                DOMAIN_SEPARATOR,              \r\n                keccak256(abi.encode(          // are we just taking a hash of a hash here?\r\n                    PERMIT_TYPEHASH,\r\n                    holder,\r\n                    spender,\r\n                    nonce,\r\n                    expiry,\r\n                    allowed))\r\n        ));\r\n\r\n        require(holder != address(0), \"invalid-address-0\");\r\n        require(holder == ecrecover(digest, v, r, s), \"invalid-permit\");\r\n        require(expiry == 0 || now <= expiry, \"permit-expired\");\r\n        require(nonce == nonces[holder]++, \"invalid-nonce\");           // When does nonces[holder] actually change?\r\n        uint wad = allowed ? uint(-1) : 0;\r\n        _allowances[holder][spender] = wad;\r\n        emit Approval(holder, spender, wad);\r\n    }\r\n\r\n    // Transfer and transferFrom\r\n    function transfer(address recipient, uint256 amount) public virtual override returns (bool) {\r\n        _transfer(_msgSender(), recipient, amount);\r\n        return true;\r\n    }\r\n\r\n    function transferFrom(address sender, address recipient, uint256 amount) public virtual override returns (bool) {\r\n        _transfer(sender, recipient, amount);\r\n        _approve(sender, _msgSender(), _allowances[sender][_msgSender()].sub(amount, \"ERC20: transfer amount exceeds allowance\"));\r\n        return true;\r\n    }\r\n\r\n    function _transfer(address sender, address recipient, uint256 amount) internal virtual {\r\n        require(sender != address(0), \"ERC20: transfer from the zero address\");\r\n        require(recipient != address(0), \"ERC20: transfer to the zero address\");\r\n\r\n        //_beforeTokenTransfer(sender, recipient, amount);\r\n\r\n        _balances[sender] = _balances[sender].sub(amount, \"ERC20: transfer amount exceeds balance\");\r\n        _balances[recipient] = _balances[recipient].add(amount);\r\n        emit Transfer(sender, recipient, amount);\r\n    }\r\n    \r\n    function allowance(address owner, address spender) public view virtual override returns (uint256) {\r\n        return _allowances[owner][spender];\r\n    }\r\n\r\n    function approve(address spender, uint256 amount) public virtual override returns (bool) {\r\n        _approve(_msgSender(), spender, amount);\r\n        return true;\r\n    }\r\n\r\n    function _approve(address owner, address spender, uint256 amount) internal virtual {\r\n        require(owner != address(0), \"ERC20: approve from the zero address\");\r\n        require(spender != address(0), \"ERC20: approve to the zero address\");\r\n\r\n        _allowances[owner][spender] = amount;\r\n        emit Approval(owner, spender, amount);\r\n    }\r\n\r\n    function increaseAllowance(address spender, uint256 addedValue) public virtual returns (bool) {\r\n        _approve(_msgSender(), spender, _allowances[_msgSender()][spender].add(addedValue));\r\n        return true;\r\n    }\r\n\r\n    \r\n    function decreaseAllowance(address spender, uint256 subtractedValue) public virtual returns (bool) {\r\n        _approve(_msgSender(), spender, _allowances[_msgSender()][spender].sub(subtractedValue, \"ERC20: decreased allowance below zero\"));\r\n        return true;\r\n    }\r\n\r\n    \r\n    // MINT: Only callable by valuing contract - Now splits fees\r\n    function _mint(address account, uint256 amount, uint256 fee, address LLCAddr) external virtual {\r\n        require(account != address(0), \"ERC20: mint to the zero address\");\r\n        require(msg.sender == _valuator, \"Call does not originate from Valuator\");\r\n        // _beforeTokenTransfer(address(0), account, amount);\r\n\r\n        uint256 feeAmount = amount.div(fee); // fee variable should be 400 to produce 0.25%\r\n        \r\n        // The amount the user will receive\r\n        uint256 toMint = amount.sub(feeAmount);\r\n\r\n        // Splitting of fees\r\n        uint256 share = feeAmount.div(20);\r\n\r\n        // crediting loan to user\r\n        _minted[account][LLCAddr] = _minted[account][LLCAddr].add(amount);\r\n\r\n        // adding total amount of new tokens to totalSupply\r\n        _totalSupply = _totalSupply.add(amount);\r\n\r\n        // Credits user with their uDai loan, minus fees\r\n        _balances[account] = _balances[account].add(toMint);\r\n\r\n        // sends 40% to staking. MUST SET uDai Liquidity pool first\r\n        _balances[_stakeAddr] = _balances[_stakeAddr].add(share.mul(_stakeShares));\r\n\r\n        // sends 40% to Safu Fund\r\n        _balances[_safuAddr] = _balances[_safuAddr].add(share.mul(_safuShares));\r\n\r\n        // sends the remaineder to dev fund\r\n        _balances[_devFundAddr] = _balances[_devFundAddr].add(feeAmount.sub(share.mul(_safuShares.add(_stakeShares))));\r\n\r\n        emit Mint(account, amount);\r\n    }\r\n\r\n    // BURN function. Only callable from Valuing.\r\n    function _burn(address account, uint256 toBurn, address LLCAddr) external virtual {\r\n        require(account != address(0), \"ERC20: burn from the zero address\");\r\n        require(msg.sender == _valuator, \"Call does not originate from Valuator\");\r\n        require(_minted[account][LLCAddr] >= 0, \"You have no loan\");\r\n        \r\n        // Computes the 0.25% fee\r\n        // uint256 burnFee = toBurn.div(fee);\r\n        // uint256 totalToRemove = toBurn.add(burnFee);\r\n\r\n        // checks if user has enough uDai to cover loan and 0.25% fee\r\n        require(_balances[account] >= toBurn, \"Insufficient uDai to pay back loan\");\r\n\r\n        // Splitting of fees\r\n        // uint256 share = burnFee.div(20);\r\n\r\n        // removes the amount of uDai to burn from _minted mapping/\r\n        _minted[account][LLCAddr] = _minted[account][LLCAddr].sub(toBurn);\r\n        \r\n        // Removes loan AND fee from user balance\r\n        _balances[account] = _balances[account].sub(toBurn, \"ERC20: burn amount exceeds balance\");\r\n\r\n        // // sends 40% to staking. MUST SET uDai Liquidity pool first\r\n        // _balances[_stakeAddr] = _balances[_stakeAddr].add(share.mul(_stakeShares));\r\n\r\n        // // sends 40% to Safu Fund\r\n        // _balances[_safuAddr] = _balances[_safuAddr].add(share.mul(_safuShares));\r\n\r\n        // // sends the remaineder to dev fund\r\n        // _balances[_devFundAddr] = _balances[_devFundAddr].add(burnFee.sub(share.mul(_safuShares.add(_stakeShares))));\r\n\r\n        // Removes the loan amount of uDai from circulation\r\n        _totalSupply = _totalSupply.sub(toBurn);\r\n\r\n        // This event could be renamed for easier identification.\r\n        emit Burn(account, toBurn);\r\n    }\r\n\r\n    // Checks how much uDai the user has minted (and owes to get liquidity back)\r\n    function checkLoan(address user, address lockLocation) public view returns (uint256 owed) {\r\n        owed = _minted[user][lockLocation];\r\n    }\r\n    \r\n    // onlyOwner Functions\r\n\r\n    // change safuShare\r\n    function changeSafuShare(uint256 rate) public onlyOwner {\r\n        require(rate <= 20 && rate > 0, \"bad input\");\r\n        _safuShares = rate;\r\n    }\r\n\r\n    // change stakeShare\r\n    function changeStakeShare(uint256 rate) public onlyOwner {\r\n        require(rate <= 20 && rate > 0, \"bad input\");\r\n        _stakeShares = rate;\r\n    }\r\n\r\n    // Changes stakingAddr\r\n    function changeStaking(address newStaking) public onlyOwner {\r\n        _stakeAddr = newStaking;\r\n    }\r\n\r\n    // Changes safuFund\r\n    function changeSafuFund(address newSafuFund) public onlyOwner {\r\n        _safuAddr = newSafuFund;\r\n    }\r\n\r\n    // Changes devFund\r\n    function changeDevFund(address newDevFund) public onlyOwner {\r\n        _devFundAddr = newDevFund;\r\n    }\r\n\r\n    // Changes Valuator Contract Address\r\n    function changeValuator(address newValuator) public onlyOwner {\r\n        _valuator = newValuator;\r\n    }\r\n\r\n    // Checks if sender is owner\r\n    function isOwner() public view returns (bool) {\r\n        return msg.sender == _owner;\r\n    }\r\n\r\n    // Changes owner\r\n    function setOwner(address _newOwner) public onlyOwner {\r\n        _owner = _newOwner;\r\n    }\r\n}\r\n",
  "sourcePath": "C:/Users/sonic/Desktop/Unbound/contracts/UnboundTokens/unboundDai.sol",
  "compiler": {
    "name": "solc",
    "version": "0.6.6+commit.6c089d02.Emscripten.clang"
  },
  "schemaVersion": "3.2.3",
  "updatedAt": "2020-09-21T19:07:24.209Z",
  "devdoc": {
    "methods": {}
  },
  "userdoc": {
    "methods": {}
  }
}