{
  "contractName": "UnboundDai",
  "abi": [
    {
      "inputs": [
        {
          "internalType": "string",
          "name": "name",
          "type": "string"
        },
        {
          "internalType": "string",
          "name": "symbol",
          "type": "string"
        },
        {
          "internalType": "uint256",
          "name": "chainId_",
          "type": "uint256"
        },
        {
          "internalType": "address",
          "name": "Safu",
          "type": "address"
        },
        {
          "internalType": "address",
          "name": "devFund",
          "type": "address"
        }
      ],
      "payable": false,
      "stateMutability": "nonpayable",
      "type": "constructor"
    },
    {
      "anonymous": false,
      "inputs": [
        {
          "indexed": true,
          "internalType": "address",
          "name": "owner",
          "type": "address"
        },
        {
          "indexed": true,
          "internalType": "address",
          "name": "spender",
          "type": "address"
        },
        {
          "indexed": false,
          "internalType": "uint256",
          "name": "value",
          "type": "uint256"
        }
      ],
      "name": "Approval",
      "type": "event"
    },
    {
      "anonymous": false,
      "inputs": [
        {
          "indexed": false,
          "internalType": "address",
          "name": "user",
          "type": "address"
        },
        {
          "indexed": false,
          "internalType": "uint256",
          "name": "burned",
          "type": "uint256"
        }
      ],
      "name": "Burn",
      "type": "event"
    },
    {
      "anonymous": false,
      "inputs": [
        {
          "indexed": false,
          "internalType": "address",
          "name": "user",
          "type": "address"
        },
        {
          "indexed": false,
          "internalType": "uint256",
          "name": "newMint",
          "type": "uint256"
        }
      ],
      "name": "Mint",
      "type": "event"
    },
    {
      "anonymous": false,
      "inputs": [
        {
          "indexed": true,
          "internalType": "address",
          "name": "from",
          "type": "address"
        },
        {
          "indexed": true,
          "internalType": "address",
          "name": "to",
          "type": "address"
        },
        {
          "indexed": false,
          "internalType": "uint256",
          "name": "value",
          "type": "uint256"
        }
      ],
      "name": "Transfer",
      "type": "event"
    },
    {
      "constant": true,
      "inputs": [],
      "name": "DOMAIN_SEPARATOR",
      "outputs": [
        {
          "internalType": "bytes32",
          "name": "",
          "type": "bytes32"
        }
      ],
      "payable": false,
      "stateMutability": "view",
      "type": "function"
    },
    {
      "constant": true,
      "inputs": [],
      "name": "PERMIT_TYPEHASH",
      "outputs": [
        {
          "internalType": "bytes32",
          "name": "",
          "type": "bytes32"
        }
      ],
      "payable": false,
      "stateMutability": "view",
      "type": "function"
    },
    {
      "constant": true,
      "inputs": [],
      "name": "_decimals",
      "outputs": [
        {
          "internalType": "uint8",
          "name": "",
          "type": "uint8"
        }
      ],
      "payable": false,
      "stateMutability": "view",
      "type": "function"
    },
    {
      "constant": true,
      "inputs": [],
      "name": "_devFundAddr",
      "outputs": [
        {
          "internalType": "address",
          "name": "",
          "type": "address"
        }
      ],
      "payable": false,
      "stateMutability": "view",
      "type": "function"
    },
    {
      "constant": true,
      "inputs": [],
      "name": "_name",
      "outputs": [
        {
          "internalType": "string",
          "name": "",
          "type": "string"
        }
      ],
      "payable": false,
      "stateMutability": "view",
      "type": "function"
    },
    {
      "constant": true,
      "inputs": [],
      "name": "_safuAddr",
      "outputs": [
        {
          "internalType": "address",
          "name": "",
          "type": "address"
        }
      ],
      "payable": false,
      "stateMutability": "view",
      "type": "function"
    },
    {
      "constant": true,
      "inputs": [],
      "name": "_safuShares",
      "outputs": [
        {
          "internalType": "uint256",
          "name": "",
          "type": "uint256"
        }
      ],
      "payable": false,
      "stateMutability": "view",
      "type": "function"
    },
    {
      "constant": true,
      "inputs": [],
      "name": "_stakeAddr",
      "outputs": [
        {
          "internalType": "address",
          "name": "",
          "type": "address"
        }
      ],
      "payable": false,
      "stateMutability": "view",
      "type": "function"
    },
    {
      "constant": true,
      "inputs": [],
      "name": "_stakeShares",
      "outputs": [
        {
          "internalType": "uint256",
          "name": "",
          "type": "uint256"
        }
      ],
      "payable": false,
      "stateMutability": "view",
      "type": "function"
    },
    {
      "constant": true,
      "inputs": [],
      "name": "_symbol",
      "outputs": [
        {
          "internalType": "string",
          "name": "",
          "type": "string"
        }
      ],
      "payable": false,
      "stateMutability": "view",
      "type": "function"
    },
    {
      "constant": true,
      "inputs": [],
      "name": "_totalSupply",
      "outputs": [
        {
          "internalType": "uint256",
          "name": "",
          "type": "uint256"
        }
      ],
      "payable": false,
      "stateMutability": "view",
      "type": "function"
    },
    {
      "constant": true,
      "inputs": [
        {
          "internalType": "address",
          "name": "",
          "type": "address"
        }
      ],
      "name": "nonces",
      "outputs": [
        {
          "internalType": "uint256",
          "name": "",
          "type": "uint256"
        }
      ],
      "payable": false,
      "stateMutability": "view",
      "type": "function"
    },
    {
      "constant": true,
      "inputs": [],
      "name": "version",
      "outputs": [
        {
          "internalType": "string",
          "name": "",
          "type": "string"
        }
      ],
      "payable": false,
      "stateMutability": "view",
      "type": "function"
    },
    {
      "constant": true,
      "inputs": [],
      "name": "name",
      "outputs": [
        {
          "internalType": "string",
          "name": "",
          "type": "string"
        }
      ],
      "payable": false,
      "stateMutability": "view",
      "type": "function"
    },
    {
      "constant": true,
      "inputs": [],
      "name": "symbol",
      "outputs": [
        {
          "internalType": "string",
          "name": "",
          "type": "string"
        }
      ],
      "payable": false,
      "stateMutability": "view",
      "type": "function"
    },
    {
      "constant": true,
      "inputs": [],
      "name": "decimals",
      "outputs": [
        {
          "internalType": "uint8",
          "name": "",
          "type": "uint8"
        }
      ],
      "payable": false,
      "stateMutability": "view",
      "type": "function"
    },
    {
      "constant": true,
      "inputs": [],
      "name": "totalSupply",
      "outputs": [
        {
          "internalType": "uint256",
          "name": "",
          "type": "uint256"
        }
      ],
      "payable": false,
      "stateMutability": "view",
      "type": "function"
    },
    {
      "constant": true,
      "inputs": [
        {
          "internalType": "address",
          "name": "account",
          "type": "address"
        }
      ],
      "name": "balanceOf",
      "outputs": [
        {
          "internalType": "uint256",
          "name": "",
          "type": "uint256"
        }
      ],
      "payable": false,
      "stateMutability": "view",
      "type": "function"
    },
    {
      "constant": false,
      "inputs": [
        {
          "internalType": "address",
          "name": "holder",
          "type": "address"
        },
        {
          "internalType": "address",
          "name": "spender",
          "type": "address"
        },
        {
          "internalType": "uint256",
          "name": "nonce",
          "type": "uint256"
        },
        {
          "internalType": "uint256",
          "name": "expiry",
          "type": "uint256"
        },
        {
          "internalType": "bool",
          "name": "allowed",
          "type": "bool"
        },
        {
          "internalType": "uint8",
          "name": "v",
          "type": "uint8"
        },
        {
          "internalType": "bytes32",
          "name": "r",
          "type": "bytes32"
        },
        {
          "internalType": "bytes32",
          "name": "s",
          "type": "bytes32"
        }
      ],
      "name": "permit",
      "outputs": [],
      "payable": false,
      "stateMutability": "nonpayable",
      "type": "function"
    },
    {
      "constant": false,
      "inputs": [
        {
          "internalType": "address",
          "name": "recipient",
          "type": "address"
        },
        {
          "internalType": "uint256",
          "name": "amount",
          "type": "uint256"
        }
      ],
      "name": "transfer",
      "outputs": [
        {
          "internalType": "bool",
          "name": "",
          "type": "bool"
        }
      ],
      "payable": false,
      "stateMutability": "nonpayable",
      "type": "function"
    },
    {
      "constant": false,
      "inputs": [
        {
          "internalType": "address",
          "name": "sender",
          "type": "address"
        },
        {
          "internalType": "address",
          "name": "recipient",
          "type": "address"
        },
        {
          "internalType": "uint256",
          "name": "amount",
          "type": "uint256"
        }
      ],
      "name": "transferFrom",
      "outputs": [
        {
          "internalType": "bool",
          "name": "",
          "type": "bool"
        }
      ],
      "payable": false,
      "stateMutability": "nonpayable",
      "type": "function"
    },
    {
      "constant": true,
      "inputs": [
        {
          "internalType": "address",
          "name": "owner",
          "type": "address"
        },
        {
          "internalType": "address",
          "name": "spender",
          "type": "address"
        }
      ],
      "name": "allowance",
      "outputs": [
        {
          "internalType": "uint256",
          "name": "",
          "type": "uint256"
        }
      ],
      "payable": false,
      "stateMutability": "view",
      "type": "function"
    },
    {
      "constant": false,
      "inputs": [
        {
          "internalType": "address",
          "name": "spender",
          "type": "address"
        },
        {
          "internalType": "uint256",
          "name": "amount",
          "type": "uint256"
        }
      ],
      "name": "approve",
      "outputs": [
        {
          "internalType": "bool",
          "name": "",
          "type": "bool"
        }
      ],
      "payable": false,
      "stateMutability": "nonpayable",
      "type": "function"
    },
    {
      "constant": false,
      "inputs": [
        {
          "internalType": "address",
          "name": "spender",
          "type": "address"
        },
        {
          "internalType": "uint256",
          "name": "addedValue",
          "type": "uint256"
        }
      ],
      "name": "increaseAllowance",
      "outputs": [
        {
          "internalType": "bool",
          "name": "",
          "type": "bool"
        }
      ],
      "payable": false,
      "stateMutability": "nonpayable",
      "type": "function"
    },
    {
      "constant": false,
      "inputs": [
        {
          "internalType": "address",
          "name": "spender",
          "type": "address"
        },
        {
          "internalType": "uint256",
          "name": "subtractedValue",
          "type": "uint256"
        }
      ],
      "name": "decreaseAllowance",
      "outputs": [
        {
          "internalType": "bool",
          "name": "",
          "type": "bool"
        }
      ],
      "payable": false,
      "stateMutability": "nonpayable",
      "type": "function"
    },
    {
      "constant": false,
      "inputs": [
        {
          "internalType": "address",
          "name": "account",
          "type": "address"
        },
        {
          "internalType": "uint256",
          "name": "amount",
          "type": "uint256"
        },
        {
          "internalType": "uint256",
          "name": "fee",
          "type": "uint256"
        }
      ],
      "name": "_mint",
      "outputs": [],
      "payable": false,
      "stateMutability": "nonpayable",
      "type": "function"
    },
    {
      "constant": false,
      "inputs": [
        {
          "internalType": "address",
          "name": "account",
          "type": "address"
        },
        {
          "internalType": "uint256",
          "name": "toBurn",
          "type": "uint256"
        },
        {
          "internalType": "uint256",
          "name": "fee",
          "type": "uint256"
        }
      ],
      "name": "_burn",
      "outputs": [],
      "payable": false,
      "stateMutability": "nonpayable",
      "type": "function"
    },
    {
      "constant": true,
      "inputs": [
        {
          "internalType": "address",
          "name": "user",
          "type": "address"
        }
      ],
      "name": "checkLoan",
      "outputs": [
        {
          "internalType": "uint256",
          "name": "owed",
          "type": "uint256"
        }
      ],
      "payable": false,
      "stateMutability": "view",
      "type": "function"
    },
    {
      "constant": false,
      "inputs": [
        {
          "internalType": "uint256",
          "name": "rate",
          "type": "uint256"
        }
      ],
      "name": "changeSafuShare",
      "outputs": [],
      "payable": false,
      "stateMutability": "nonpayable",
      "type": "function"
    },
    {
      "constant": false,
      "inputs": [
        {
          "internalType": "uint256",
          "name": "rate",
          "type": "uint256"
        }
      ],
      "name": "changeStakeShare",
      "outputs": [],
      "payable": false,
      "stateMutability": "nonpayable",
      "type": "function"
    },
    {
      "constant": false,
      "inputs": [
        {
          "internalType": "address",
          "name": "newStaking",
          "type": "address"
        }
      ],
      "name": "changeStaking",
      "outputs": [],
      "payable": false,
      "stateMutability": "nonpayable",
      "type": "function"
    },
    {
      "constant": false,
      "inputs": [
        {
          "internalType": "address",
          "name": "newSafuFund",
          "type": "address"
        }
      ],
      "name": "changeSafuFund",
      "outputs": [],
      "payable": false,
      "stateMutability": "nonpayable",
      "type": "function"
    },
    {
      "constant": false,
      "inputs": [
        {
          "internalType": "address",
          "name": "newDevFund",
          "type": "address"
        }
      ],
      "name": "changeDevFund",
      "outputs": [],
      "payable": false,
      "stateMutability": "nonpayable",
      "type": "function"
    },
    {
      "constant": false,
      "inputs": [
        {
          "internalType": "address",
          "name": "newValuator",
          "type": "address"
        }
      ],
      "name": "changeValuator",
      "outputs": [],
      "payable": false,
      "stateMutability": "nonpayable",
      "type": "function"
    },
    {
      "constant": true,
      "inputs": [],
      "name": "isOwner",
      "outputs": [
        {
          "internalType": "bool",
          "name": "",
          "type": "bool"
        }
      ],
      "payable": false,
      "stateMutability": "view",
      "type": "function"
    },
    {
      "constant": false,
      "inputs": [
        {
          "internalType": "address",
          "name": "_newOwner",
          "type": "address"
        }
      ],
      "name": "setOwner",
      "outputs": [],
      "payable": false,
      "stateMutability": "nonpayable",
      "type": "function"
    }
  ],
  "bytecode": "0x60806040523480156200001157600080fd5b506040516200215238038062002152833981810160405260a08110156200003757600080fd5b81019080805160405193929190846401000000008211156200005857600080fd5b9083019060208201858111156200006e57600080fd5b82516401000000008111828201881017156200008957600080fd5b82525081516020918201929091019080838360005b83811015620000b85781810151838201526020016200009e565b50505050905090810190601f168015620000e65780820380516001836020036101000a031916815260200191505b50604052602001805160405193929190846401000000008211156200010a57600080fd5b9083019060208201858111156200012057600080fd5b82516401000000008111828201881017156200013b57600080fd5b82525081516020918201929091019080838360005b838110156200016a57818101518382015260200162000150565b50505050905090810190601f168015620001985780820380516001836020036101000a031916815260200191505b506040908152602082810151918301516060909301518751929550929350620001c791600391880190620002e6565b508351620001dd906004906020870190620002e6565b506005805460ff19166012179055600e80546001600160a01b031990811633179091556000600255600980546001600160a01b038581169184168217909255600a8054928516928416929092179091556008600b819055600c81905580549092161790556040518060526200210082396040805191829003605201822088516020998a0120838301835260018452603160f81b938a01939093528151808a0191909152808201929092527fc89efdaa54c0f20c7adf612882df0950f5a951637e0307cdcb4c672f298b8bc6606083015260808201959095523060a0808301919091528551808303909101815260c0909101909452505081519190930120600655506200038b9050565b828054600181600116156101000203166002900490600052602060002090601f016020900481019282601f106200032957805160ff191683800117855562000359565b8280016001018555821562000359579182015b82811115620003595782518255916020019190600101906200033c565b50620003679291506200036b565b5090565b6200038891905b8082111562000367576000815560010162000372565b90565b611d65806200039b6000396000f3fe608060405234801561001057600080fd5b506004361061021c5760003560e01c80636b4b67841161012557806395d89b41116100ad578063b09f12661161007c578063b09f126614610648578063ba13976314610650578063d28d885214610676578063dd62ed3e1461067e578063f57c33fe146106ac5761021c565b806395d89b41146105cb578063a0fbc6a8146105d3578063a457c2d7146105f0578063a9059cbb1461061c5761021c565b80637d558c46116100f45780637d558c46146105155780637ecebe001461053b57806384a88e04146105615780638f32d59b146105695780638fcbaf0c146105715761021c565b80636b4b6784146104ad5780636daaa73e146104b557806370a08231146104bd5780637776afa0146104e35761021c565b8063313ce567116101a8578063395093511161017757806339509351146104195780633eaaf86b14610445578063464a5ffb1461044d57806354fd4d501461047f57806366ca4488146104875761021c565b8063313ce567146103c757806332424aa3146103e55780633644e515146103ed57806339317493146103f55761021c565b806313af4035116101ef57806313af40351461033e57806318160ddd1461036457806323b872dd1461036c5780632eb96c9a146103a257806330adf81f146103bf5761021c565b806305a7bed11461022157806306fdde0314610249578063095ea7b3146102c65780630b494ff814610306575b600080fd5b6102476004803603602081101561023757600080fd5b50356001600160a01b03166106b4565b005b61025161071d565b6040805160208082528351818301528351919283929083019185019080838360005b8381101561028b578181015183820152602001610273565b50505050905090810190601f1680156102b85780820380516001836020036101000a031916815260200191505b509250505060405180910390f35b6102f2600480360360408110156102dc57600080fd5b506001600160a01b0381351690602001356107b3565b604080519115158252519081900360200190f35b61032c6004803603602081101561031c57600080fd5b50356001600160a01b03166107ca565b60408051918252519081900360200190f35b6102476004803603602081101561035457600080fd5b50356001600160a01b03166107e5565b61032c61084e565b6102f26004803603606081101561038257600080fd5b506001600160a01b03813581169160208101359091169060400135610854565b610247600480360360208110156103b857600080fd5b50356108c3565b61032c61095d565b6103cf610981565b6040805160ff9092168252519081900360200190f35b6103cf61098a565b61032c610993565b6103fd610999565b604080516001600160a01b039092168252519081900360200190f35b6102f26004803603604081101561042f57600080fd5b506001600160a01b0381351690602001356109a8565b61032c6109e4565b6102476004803603606081101561046357600080fd5b506001600160a01b0381351690602081013590604001356109ea565b610251610d62565b6102476004803603602081101561049d57600080fd5b50356001600160a01b0316610d7f565b61032c610de8565b61032c610dee565b61032c600480360360208110156104d357600080fd5b50356001600160a01b0316610df4565b610247600480360360608110156104f957600080fd5b506001600160a01b038135169060208101359060400135610e0f565b6102476004803603602081101561052b57600080fd5b50356001600160a01b0316611077565b61032c6004803603602081101561055157600080fd5b50356001600160a01b03166110e0565b6103fd6110f2565b6102f2611101565b610247600480360361010081101561058857600080fd5b506001600160a01b038135811691602081013590911690604081013590606081013590608081013515159060ff60a0820135169060c08101359060e00135611112565b6102516113f9565b610247600480360360208110156105e957600080fd5b503561145a565b6102f26004803603604081101561060657600080fd5b506001600160a01b0381351690602001356114f4565b6102f26004803603604081101561063257600080fd5b506001600160a01b038135169060200135611549565b610251611556565b6102476004803603602081101561066657600080fd5b50356001600160a01b03166115e4565b61025161164d565b61032c6004803603604081101561069457600080fd5b506001600160a01b03813581169160200135166116a8565b6103fd6116d3565b6106bc611101565b6106fb576040805162461bcd60e51b81526020600482018190526024820152600080516020611c3b833981519152604482015290519081900360640190fd5b600a80546001600160a01b0319166001600160a01b0392909216919091179055565b60038054604080516020601f60026000196101006001881615020190951694909404938401819004810282018101909252828152606093909290918301828280156107a95780601f1061077e576101008083540402835291602001916107a9565b820191906000526020600020905b81548152906001019060200180831161078c57829003601f168201915b5050505050905090565b60006107c03384846116e2565b5060015b92915050565b6001600160a01b03166000908152600d602052604090205490565b6107ed611101565b61082c576040805162461bcd60e51b81526020600482018190526024820152600080516020611c3b833981519152604482015290519081900360640190fd5b600e80546001600160a01b0319166001600160a01b0392909216919091179055565b60025490565b60006108618484846117ce565b6108b984336108b485604051806060016040528060288152602001611c13602891396001600160a01b038a166000908152600160209081526040808320338452909152902054919063ffffffff61192a16565b6116e2565b5060019392505050565b6108cb611101565b61090a576040805162461bcd60e51b81526020600482018190526024820152600080516020611c3b833981519152604482015290519081900360640190fd5b6014811115801561091b5750600081115b610958576040805162461bcd60e51b8152602060048201526009602482015268189859081a5b9c1d5d60ba1b604482015290519081900360640190fd5b600c55565b7f6e71edae12b1b97f4d1f60370fef10105fa2faae0126114a169c64845d6126c981565b60055460ff1690565b60055460ff1681565b60065481565b6008546001600160a01b031681565b3360008181526001602090815260408083206001600160a01b038716845290915281205490916107c09185906108b4908663ffffffff6119c116565b60025481565b6001600160a01b038316610a2f5760405162461bcd60e51b8152600401808060200182810382526021815260200180611c5b6021913960400191505060405180910390fd5b600f546001600160a01b03163314610a785760405162461bcd60e51b8152600401808060200182810382526025815260200180611ce76025913960400191505060405180910390fd5b6001600160a01b038316600052600d6020526000610a9c838363ffffffff611a2216565b90506000610ab0848363ffffffff6119c116565b6001600160a01b038616600090815260208190526040902054909150811115610b0a5760405162461bcd60e51b8152600401808060200182810382526022815260200180611c7c6022913960400191505060405180910390fd5b6000610b1d83601463ffffffff611a2216565b6001600160a01b0387166000908152600d6020526040902054909150610b49908663ffffffff611a6416565b600d6000886001600160a01b03166001600160a01b0316815260200190815260200160002081905550610bb582604051806060016040528060228152602001611b88602291396001600160a01b038916600090815260208190526040902054919063ffffffff61192a16565b6001600160a01b038716600090815260208190526040902055600b54610c0d90610be690839063ffffffff611aa616565b6008546001600160a01b03166000908152602081905260409020549063ffffffff6119c116565b6008546001600160a01b0316600090815260208190526040902055600c54610c6790610c4090839063ffffffff611aa616565b6009546001600160a01b03166000908152602081905260409020549063ffffffff6119c116565b6009546001600160a01b0316600090815260208190526040902055600b54600c54610ce591610cbe91610cb191610ca4919063ffffffff6119c116565b849063ffffffff611aa616565b859063ffffffff611a6416565b600a546001600160a01b03166000908152602081905260409020549063ffffffff6119c116565b600a546001600160a01b0316600090815260208190526040902055600254610d13908663ffffffff611a6416565b600255604080516001600160a01b03881681526020810187905281517fcc16f5dbb4873280815c1ee09dbd06736cffcc184412cf7a71a0fdb75d397ca5929181900390910190a1505050505050565b604051806040016040528060018152602001603160f81b81525081565b610d87611101565b610dc6576040805162461bcd60e51b81526020600482018190526024820152600080516020611c3b833981519152604482015290519081900360640190fd5b600980546001600160a01b0319166001600160a01b0392909216919091179055565b600b5481565b600c5481565b6001600160a01b031660009081526020819052604090205490565b6001600160a01b038316610e6a576040805162461bcd60e51b815260206004820152601f60248201527f45524332303a206d696e7420746f20746865207a65726f206164647265737300604482015290519081900360640190fd5b600f546001600160a01b03163314610eb35760405162461bcd60e51b8152600401808060200182810382526025815260200180611ce76025913960400191505060405180910390fd5b6000610ec5838363ffffffff611a2216565b90506000610ed9848363ffffffff611a6416565b90506000610eee83601463ffffffff611a2216565b6001600160a01b0387166000908152600d6020526040902054909150610f1a908663ffffffff6119c116565b6001600160a01b0387166000908152600d6020526040902055600254610f46908663ffffffff6119c116565b6002556001600160a01b038616600090815260208190526040902054610f72908363ffffffff6119c116565b6001600160a01b038716600090815260208190526040902055600b54610fa390610be690839063ffffffff611aa616565b6008546001600160a01b0316600090815260208190526040902055600c54610fd690610c4090839063ffffffff611aa616565b6009546001600160a01b0316600090815260208190526040902055600b54600c5461101391610cbe91610cb191610ca4919063ffffffff6119c116565b600a546001600160a01b0390811660009081526020818152604091829020939093558051918916825291810187905281517f0f6798a560793a54c3bcfe86a93cde1e73087d944c0ea20544137d4121396885929181900390910190a1505050505050565b61107f611101565b6110be576040805162461bcd60e51b81526020600482018190526024820152600080516020611c3b833981519152604482015290519081900360640190fd5b600880546001600160a01b0319166001600160a01b0392909216919091179055565b60076020526000908152604090205481565b6009546001600160a01b031681565b600e546001600160a01b0316331490565b600654604080517f6e71edae12b1b97f4d1f60370fef10105fa2faae0126114a169c64845d6126c96020808301919091526001600160a01b03808d16838501819052908c166060840152608083018b905260a083018a905288151560c0808501919091528451808503909101815260e08401855280519083012061190160f01b6101008501526101028401959095526101228084019590955283518084039095018552610142909201909252825192909101919091209061120e576040805162461bcd60e51b81526020600482015260116024820152700696e76616c69642d616464726573732d3607c1b604482015290519081900360640190fd5b6040805160008152602080820180845284905260ff8716828401526060820186905260808201859052915160019260a0808401939192601f1981019281900390910190855afa158015611265573d6000803e3d6000fd5b505050602060405103516001600160a01b0316896001600160a01b0316146112c5576040805162461bcd60e51b815260206004820152600e60248201526d1a5b9d985b1a590b5c195c9b5a5d60921b604482015290519081900360640190fd5b8515806112d25750854211155b611314576040805162461bcd60e51b815260206004820152600e60248201526d1c195c9b5a5d0b595e1c1a5c995960921b604482015290519081900360640190fd5b6001600160a01b03891660009081526007602052604090208054600181019091558714611378576040805162461bcd60e51b815260206004820152600d60248201526c696e76616c69642d6e6f6e636560981b604482015290519081900360640190fd5b60008561138657600061138a565b6000195b6001600160a01b03808c166000818152600160209081526040808320948f168084529482529182902085905581518581529151949550929391927f8c5be1e5ebec7d5bd14f71427d1e84f3dd0314c0f7b2291e5b200ac8c7c3b92592918290030190a350505050505050505050565b60048054604080516020601f60026000196101006001881615020190951694909404938401819004810282018101909252828152606093909290918301828280156107a95780601f1061077e576101008083540402835291602001916107a9565b611462611101565b6114a1576040805162461bcd60e51b81526020600482018190526024820152600080516020611c3b833981519152604482015290519081900360640190fd5b601481111580156114b25750600081115b6114ef576040805162461bcd60e51b8152602060048201526009602482015268189859081a5b9c1d5d60ba1b604482015290519081900360640190fd5b600b55565b60006107c033846108b485604051806060016040528060258152602001611d0c602591393360009081526001602090815260408083206001600160a01b038d168452909152902054919063ffffffff61192a16565b60006107c03384846117ce565b6004805460408051602060026001851615610100026000190190941693909304601f810184900484028201840190925281815292918301828280156115dc5780601f106115b1576101008083540402835291602001916115dc565b820191906000526020600020905b8154815290600101906020018083116115bf57829003601f168201915b505050505081565b6115ec611101565b61162b576040805162461bcd60e51b81526020600482018190526024820152600080516020611c3b833981519152604482015290519081900360640190fd5b600f80546001600160a01b0319166001600160a01b0392909216919091179055565b6003805460408051602060026001851615610100026000190190941693909304601f810184900484028201840190925281815292918301828280156115dc5780601f106115b1576101008083540402835291602001916115dc565b6001600160a01b03918216600090815260016020908152604080832093909416825291909152205490565b600a546001600160a01b031681565b6001600160a01b0383166117275760405162461bcd60e51b8152600401808060200182810382526024815260200180611cc36024913960400191505060405180910390fd5b6001600160a01b03821661176c5760405162461bcd60e51b8152600401808060200182810382526022815260200180611baa6022913960400191505060405180910390fd5b6001600160a01b03808416600081815260016020908152604080832094871680845294825291829020859055815185815291517f8c5be1e5ebec7d5bd14f71427d1e84f3dd0314c0f7b2291e5b200ac8c7c3b9259281900390910190a3505050565b6001600160a01b0383166118135760405162461bcd60e51b8152600401808060200182810382526025815260200180611c9e6025913960400191505060405180910390fd5b6001600160a01b0382166118585760405162461bcd60e51b8152600401808060200182810382526023815260200180611b656023913960400191505060405180910390fd5b61189b81604051806060016040528060268152602001611bcc602691396001600160a01b038616600090815260208190526040902054919063ffffffff61192a16565b6001600160a01b0380851660009081526020819052604080822093909355908416815220546118d0908263ffffffff6119c116565b6001600160a01b038084166000818152602081815260409182902094909455805185815290519193928716927fddf252ad1be2c89b69c2b068fc378daa952ba7f163c4a11628f55a4df523b3ef92918290030190a3505050565b600081848411156119b95760405162461bcd60e51b81526004018080602001828103825283818151815260200191508051906020019080838360005b8381101561197e578181015183820152602001611966565b50505050905090810190601f1680156119ab5780820380516001836020036101000a031916815260200191505b509250505060405180910390fd5b505050900390565b600082820183811015611a1b576040805162461bcd60e51b815260206004820152601b60248201527f536166654d6174683a206164646974696f6e206f766572666c6f770000000000604482015290519081900360640190fd5b9392505050565b6000611a1b83836040518060400160405280601a81526020017f536166654d6174683a206469766973696f6e206279207a65726f000000000000815250611aff565b6000611a1b83836040518060400160405280601e81526020017f536166654d6174683a207375627472616374696f6e206f766572666c6f77000081525061192a565b600082611ab5575060006107c4565b82820282848281611ac257fe5b0414611a1b5760405162461bcd60e51b8152600401808060200182810382526021815260200180611bf26021913960400191505060405180910390fd5b60008183611b4e5760405162461bcd60e51b815260206004820181815283516024840152835190928392604490910191908501908083836000831561197e578181015183820152602001611966565b506000838581611b5a57fe5b049594505050505056fe45524332303a207472616e7366657220746f20746865207a65726f206164647265737345524332303a206275726e20616d6f756e7420657863656564732062616c616e636545524332303a20617070726f766520746f20746865207a65726f206164647265737345524332303a207472616e7366657220616d6f756e7420657863656564732062616c616e6365536166654d6174683a206d756c7469706c69636174696f6e206f766572666c6f7745524332303a207472616e7366657220616d6f756e74206578636565647320616c6c6f77616e63654f776e61626c653a2063616c6c6572206973206e6f7420746865206f776e657245524332303a206275726e2066726f6d20746865207a65726f2061646472657373496e73756666696369656e74207544616920746f20706179206261636b206c6f616e45524332303a207472616e736665722066726f6d20746865207a65726f206164647265737345524332303a20617070726f76652066726f6d20746865207a65726f206164647265737343616c6c20646f6573206e6f74206f726967696e6174652066726f6d2056616c7561746f7245524332303a2064656372656173656420616c6c6f77616e63652062656c6f77207a65726fa265627a7a7231582008a5ab1a42550f7c80872c0f8a6518ef09ae74e1a8bb89b858ceccd95db56fd064736f6c63430005100032454950373132446f6d61696e28737472696e67206e616d652c737472696e672076657273696f6e2c75696e7432353620636861696e49642c6164647265737320766572696679696e67436f6e747261637429",
  "source": "// SPDX-License-Identifier: MIT\r\n\r\npragma solidity ^0.5.16;\r\n\r\nimport \"@openzeppelin/contracts/GSN/Context.sol\";\r\nimport \"@openzeppelin/contracts/token/ERC20/IERC20.sol\";\r\nimport \"@openzeppelin/contracts/math/SafeMath.sol\";\r\nimport \"@openzeppelin/contracts/utils/Address.sol\";\r\n\r\n// import \"../utils/IERC223.sol\";\r\n// import \"../utils/IERC223Recipient.sol\";\r\n\r\n\r\ncontract UnboundDai is Context, IERC20 {\r\n    using SafeMath for uint256;\r\n    using Address for address;\r\n\r\n    event Mint(address user, uint256 newMint);\r\n    event Burn(address user, uint256 burned);\r\n\r\n    mapping (address => uint256) private _balances;\r\n\r\n    mapping (address => mapping (address => uint256)) private _allowances;\r\n\r\n    uint256 public _totalSupply;\r\n\r\n    string public _name;\r\n    string public _symbol;\r\n    string public constant version = \"1\";  // From DAI contract\r\n    uint8 public _decimals;\r\n\r\n\r\n    // PERMIT VARIABLES\r\n    bytes32 public DOMAIN_SEPARATOR;\r\n    // keccak256(\"Permit(address owner,address spender,uint256 value,uint256 nonce,uint256 deadline)\");\r\n    bytes32 public constant PERMIT_TYPEHASH = 0x6e71edae12b1b97f4d1f60370fef10105fa2faae0126114a169c64845d6126c9;\r\n    mapping(address => uint) public nonces;\r\n\r\n    // staking contract address (40%)\r\n    address public _stakeAddr;\r\n\r\n    // Emergency fund (40%)\r\n    address public _safuAddr;\r\n\r\n    // Dev fund (20%)\r\n    address public _devFundAddr;\r\n\r\n    // Dev Fund split\r\n    uint256 public _stakeShares;\r\n    uint256 public _safuShares;\r\n\r\n\r\n\r\n    // tracks users who minted. Need or don't need?\r\n    mapping (address => uint256) private _minted;\r\n\r\n    //Owner Address\r\n    address _owner;\r\n\r\n    //Valuator Contract Address\r\n    address _valuator;\r\n\r\n    modifier onlyOwner() {\r\n        require(isOwner(), \"Ownable: caller is not the owner\");\r\n        _;\r\n    }\r\n\r\n    modifier onlyValuator() {\r\n        require(msg.sender == _valuator, \"Call does not originate from Valuator\");\r\n        _;\r\n    }\r\n\r\n    constructor (string memory name, string memory symbol, uint256 chainId_, address Safu, address devFund) public {\r\n        _name = name;\r\n        _symbol = symbol;\r\n        _decimals = 18;\r\n        _owner = msg.sender;\r\n        _totalSupply = 0;\r\n        _safuAddr = Safu;\r\n        _devFundAddr = devFund;\r\n\r\n        _stakeShares = 8;\r\n        _safuShares = 8;\r\n\r\n        // MUST BE MANUALLY CHANGED TO uDai LIQ pool.\r\n        _stakeAddr = Safu;\r\n\r\n        // Permit??\r\n        DOMAIN_SEPARATOR = keccak256(abi.encode(\r\n            keccak256(\"EIP712Domain(string name,string version,uint256 chainId,address verifyingContract)\"),\r\n            keccak256(bytes(name)),\r\n            keccak256(bytes(version)),\r\n            chainId_,\r\n            address(this)\r\n        ));\r\n    }\r\n\r\n    function name() public view returns (string memory) {\r\n        return _name;\r\n    }\r\n\r\n   \r\n    function symbol() public view returns (string memory) {\r\n        return _symbol;\r\n    }\r\n\r\n    \r\n    function decimals() public view returns (uint8) {\r\n        return _decimals;\r\n    }\r\n\r\n   \r\n    function totalSupply() public view returns (uint256) {\r\n        return _totalSupply;\r\n    }\r\n\r\n\r\n    function balanceOf(address account) public view returns (uint256) {\r\n        return _balances[account];\r\n    }\r\n\r\n    //  PERMIT FUNCTION\r\n    function permit(address holder, address spender, uint256 nonce, uint256 expiry,\r\n                    bool allowed, uint8 v, bytes32 r, bytes32 s) external\r\n    {\r\n        bytes32 digest =\r\n            keccak256(abi.encodePacked(\r\n                \"\\x19\\x01\",                    // Do not understand what this is for\r\n                DOMAIN_SEPARATOR,              \r\n                keccak256(abi.encode(          // are we just taking a hash of a hash here?\r\n                    PERMIT_TYPEHASH,\r\n                    holder,\r\n                    spender,\r\n                    nonce,\r\n                    expiry,\r\n                    allowed))\r\n        ));\r\n\r\n        require(holder != address(0), \"invalid-address-0\");\r\n        require(holder == ecrecover(digest, v, r, s), \"invalid-permit\");\r\n        require(expiry == 0 || now <= expiry, \"permit-expired\");\r\n        require(nonce == nonces[holder]++, \"invalid-nonce\");           // When does nonces[holder] actually change?\r\n        uint wad = allowed ? uint(-1) : 0;\r\n        _allowances[holder][spender] = wad;\r\n        emit Approval(holder, spender, wad);\r\n    }\r\n\r\n    // Transfer and transferFrom\r\n    function transfer(address recipient, uint256 amount) public returns (bool) {\r\n        _transfer(msg.sender, recipient, amount);\r\n        return true;\r\n    }\r\n\r\n    function transferFrom(address sender, address recipient, uint256 amount) public returns (bool) {\r\n        _transfer(sender, recipient, amount);\r\n        _approve(sender, msg.sender, _allowances[sender][msg.sender].sub(amount, \"ERC20: transfer amount exceeds allowance\"));\r\n        return true;\r\n    }\r\n\r\n    function _transfer(address sender, address recipient, uint256 amount) internal {\r\n        require(sender != address(0), \"ERC20: transfer from the zero address\");\r\n        require(recipient != address(0), \"ERC20: transfer to the zero address\");\r\n\r\n        //_beforeTokenTransfer(sender, recipient, amount);\r\n\r\n        _balances[sender] = _balances[sender].sub(amount, \"ERC20: transfer amount exceeds balance\");\r\n        _balances[recipient] = _balances[recipient].add(amount);\r\n        emit Transfer(sender, recipient, amount);\r\n    }\r\n    \r\n    function allowance(address owner, address spender) public view returns (uint256) {\r\n        return _allowances[owner][spender];\r\n    }\r\n\r\n    function approve(address spender, uint256 amount) public returns (bool) {\r\n        _approve(msg.sender, spender, amount);\r\n        return true;\r\n    }\r\n\r\n    function _approve(address owner, address spender, uint256 amount) internal {\r\n        require(owner != address(0), \"ERC20: approve from the zero address\");\r\n        require(spender != address(0), \"ERC20: approve to the zero address\");\r\n\r\n        _allowances[owner][spender] = amount;\r\n        emit Approval(owner, spender, amount);\r\n    }\r\n\r\n    function increaseAllowance(address spender, uint256 addedValue) public returns (bool) {\r\n        _approve(msg.sender, spender, _allowances[msg.sender][spender].add(addedValue));\r\n        return true;\r\n    }\r\n\r\n    \r\n    function decreaseAllowance(address spender, uint256 subtractedValue) public returns (bool) {\r\n        _approve(msg.sender, spender, _allowances[msg.sender][spender].sub(subtractedValue, \"ERC20: decreased allowance below zero\"));\r\n        return true;\r\n    }\r\n\r\n    \r\n    // MINT: Only callable by valuing contract - Now splits fees\r\n    function _mint(address account, uint256 amount, uint256 fee) external {\r\n        require(account != address(0), \"ERC20: mint to the zero address\");\r\n        require(msg.sender == _valuator, \"Call does not originate from Valuator\");\r\n        // _beforeTokenTransfer(address(0), account, amount);\r\n\r\n        uint256 feeAmount = amount.div(fee); // fee variable should be 400 to produce 0.25%\r\n        \r\n        // The amount the user will receive\r\n        uint256 toMint = amount.sub(feeAmount);\r\n\r\n        // Splitting of fees\r\n        uint256 share = feeAmount.div(20);\r\n\r\n        // crediting loan to user\r\n        _minted[account] = _minted[account].add(amount);\r\n\r\n        // adding total amount of new tokens to totalSupply\r\n        _totalSupply = _totalSupply.add(amount);\r\n\r\n        // Credits user with their uDai loan, minus fees\r\n        _balances[account] = _balances[account].add(toMint);\r\n\r\n        // sends 40% to staking. MUST SET uDai Liquidity pool first\r\n        _balances[_stakeAddr] = _balances[_stakeAddr].add(share.mul(_stakeShares));\r\n\r\n        // sends 40% to Safu Fund\r\n        _balances[_safuAddr] = _balances[_safuAddr].add(share.mul(_safuShares));\r\n\r\n        // sends the remaineder to dev fund\r\n        _balances[_devFundAddr] = _balances[_devFundAddr].add(feeAmount.sub(share.mul(_safuShares.add(_stakeShares))));\r\n\r\n        emit Mint(account, amount);\r\n    }\r\n\r\n    // BURN function. Only callable from Valuing.\r\n    function _burn(address account, uint256 toBurn, uint256 fee) external {\r\n        require(account != address(0), \"ERC20: burn from the zero address\");\r\n        require(msg.sender == _valuator, \"Call does not originate from Valuator\");\r\n        require(_minted[account] >= 0, \"You have no loan\");\r\n        \r\n        // Computes the 0.25% fee\r\n        uint256 burnFee = toBurn.div(fee);\r\n        uint256 totalToRemove = toBurn.add(burnFee);\r\n\r\n        // checks if user has enough uDai to cover loan and 0.25% fee\r\n        require(_balances[account] >= totalToRemove, \"Insufficient uDai to pay back loan\");\r\n\r\n        // Splitting of fees\r\n        uint256 share = burnFee.div(20);\r\n\r\n        // removes the amount of uDai to burn from _minted mapping/\r\n        _minted[account] = _minted[account].sub(toBurn);\r\n        \r\n        // Removes loan AND fee from user balance\r\n        _balances[account] = _balances[account].sub(totalToRemove, \"ERC20: burn amount exceeds balance\");\r\n\r\n        // sends 40% to staking. MUST SET uDai Liquidity pool first\r\n        _balances[_stakeAddr] = _balances[_stakeAddr].add(share.mul(_stakeShares));\r\n\r\n        // sends 40% to Safu Fund\r\n        _balances[_safuAddr] = _balances[_safuAddr].add(share.mul(_safuShares));\r\n\r\n        // sends the remaineder to dev fund\r\n        _balances[_devFundAddr] = _balances[_devFundAddr].add(burnFee.sub(share.mul(_safuShares.add(_stakeShares))));\r\n\r\n        // Removes the loan amount of uDai from circulation\r\n        _totalSupply = _totalSupply.sub(toBurn);\r\n\r\n        // This event could be renamed for easier identification.\r\n        emit Burn(account, toBurn);\r\n    }\r\n\r\n    // Checks how much uDai the user has minted (and owes to get liquidity back)\r\n    function checkLoan(address user) public view returns (uint256 owed) {\r\n        owed = _minted[user];\r\n    }\r\n    \r\n    // onlyOwner Functions\r\n\r\n    // change safuShare\r\n    function changeSafuShare(uint256 rate) public onlyOwner {\r\n        require(rate <= 20 && rate > 0, \"bad input\");\r\n        _safuShares = rate;\r\n    }\r\n\r\n    // change stakeShare\r\n    function changeStakeShare(uint256 rate) public onlyOwner {\r\n        require(rate <= 20 && rate > 0, \"bad input\");\r\n        _stakeShares = rate;\r\n    }\r\n\r\n    // Changes stakingAddr\r\n    function changeStaking(address newStaking) public onlyOwner {\r\n        _stakeAddr = newStaking;\r\n    }\r\n\r\n    // Changes safuFund\r\n    function changeSafuFund(address newSafuFund) public onlyOwner {\r\n        _safuAddr = newSafuFund;\r\n    }\r\n\r\n    // Changes devFund\r\n    function changeDevFund(address newDevFund) public onlyOwner {\r\n        _devFundAddr = newDevFund;\r\n    }\r\n\r\n    // Changes Valuator Contract Address\r\n    function changeValuator(address newValuator) public onlyOwner {\r\n        _valuator = newValuator;\r\n    }\r\n\r\n    // Checks if sender is owner\r\n    function isOwner() public view returns (bool) {\r\n        return msg.sender == _owner;\r\n    }\r\n\r\n    // Changes owner\r\n    function setOwner(address _newOwner) public onlyOwner {\r\n        _owner = _newOwner;\r\n    }\r\n}\r\n",
  "sourcePath": "C:/Users/sonic/Desktop/Unbound/contracts/UnboundTokens/unboundDai.sol",
  "compiler": {
    "name": "solc",
    "version": "0.5.16+commit.9c3226ce.Emscripten.clang"
  },
  "schemaVersion": "3.2.3",
  "updatedAt": "2020-09-13T02:28:40.610Z",
  "networkType": "ethereum",
  "devdoc": {
    "methods": {}
  },
  "userdoc": {
    "methods": {}
  }
}