{
  "contractName": "unboundStaking",
  "abi": [
    {
      "inputs": [
        {
          "internalType": "address",
          "name": "LPTaddress",
          "type": "address"
        },
        {
          "internalType": "address",
          "name": "feeSplitter",
          "type": "address"
        },
        {
          "internalType": "address",
          "name": "uDai",
          "type": "address"
        },
        {
          "internalType": "address",
          "name": "dai",
          "type": "address"
        },
        {
          "internalType": "address",
          "name": "routerAddr",
          "type": "address"
        }
      ],
      "stateMutability": "nonpayable",
      "type": "constructor"
    },
    {
      "anonymous": false,
      "inputs": [
        {
          "indexed": true,
          "internalType": "address",
          "name": "user",
          "type": "address"
        }
      ],
      "name": "Claim",
      "type": "event"
    },
    {
      "anonymous": false,
      "inputs": [
        {
          "indexed": true,
          "internalType": "address",
          "name": "user",
          "type": "address"
        },
        {
          "indexed": false,
          "internalType": "uint256",
          "name": "liquidityTokens",
          "type": "uint256"
        }
      ],
      "name": "Staked",
      "type": "event"
    },
    {
      "anonymous": false,
      "inputs": [
        {
          "indexed": true,
          "internalType": "address",
          "name": "user",
          "type": "address"
        }
      ],
      "name": "UnStaked",
      "type": "event"
    },
    {
      "inputs": [
        {
          "internalType": "address",
          "name": "",
          "type": "address"
        }
      ],
      "name": "_isStaked",
      "outputs": [
        {
          "internalType": "bool",
          "name": "",
          "type": "bool"
        }
      ],
      "stateMutability": "view",
      "type": "function"
    },
    {
      "inputs": [
        {
          "internalType": "address",
          "name": "",
          "type": "address"
        }
      ],
      "name": "_liquidityLocked",
      "outputs": [
        {
          "internalType": "uint256",
          "name": "",
          "type": "uint256"
        }
      ],
      "stateMutability": "view",
      "type": "function"
    },
    {
      "inputs": [
        {
          "internalType": "address",
          "name": "",
          "type": "address"
        }
      ],
      "name": "_stakeReward",
      "outputs": [
        {
          "internalType": "uint256",
          "name": "",
          "type": "uint256"
        }
      ],
      "stateMutability": "view",
      "type": "function"
    },
    {
      "inputs": [],
      "name": "_trackedRewardUdai",
      "outputs": [
        {
          "internalType": "uint256",
          "name": "",
          "type": "uint256"
        }
      ],
      "stateMutability": "view",
      "type": "function"
    },
    {
      "inputs": [
        {
          "internalType": "uint256",
          "name": "",
          "type": "uint256"
        }
      ],
      "name": "stakeList",
      "outputs": [
        {
          "internalType": "address",
          "name": "",
          "type": "address"
        }
      ],
      "stateMutability": "view",
      "type": "function"
    },
    {
      "inputs": [
        {
          "internalType": "uint256",
          "name": "uDai",
          "type": "uint256"
        },
        {
          "internalType": "uint256",
          "name": "Dai",
          "type": "uint256"
        }
      ],
      "name": "stake",
      "outputs": [],
      "stateMutability": "nonpayable",
      "type": "function"
    },
    {
      "inputs": [
        {
          "internalType": "uint256",
          "name": "daiMin",
          "type": "uint256"
        },
        {
          "internalType": "uint256",
          "name": "uDaiMin",
          "type": "uint256"
        }
      ],
      "name": "removeStaker",
      "outputs": [],
      "stateMutability": "nonpayable",
      "type": "function"
    },
    {
      "inputs": [],
      "name": "claim",
      "outputs": [],
      "stateMutability": "nonpayable",
      "type": "function"
    },
    {
      "inputs": [],
      "name": "isOwner",
      "outputs": [
        {
          "internalType": "bool",
          "name": "",
          "type": "bool"
        }
      ],
      "stateMutability": "view",
      "type": "function"
    },
    {
      "inputs": [
        {
          "internalType": "address",
          "name": "_newOwner",
          "type": "address"
        }
      ],
      "name": "setOwner",
      "outputs": [],
      "stateMutability": "nonpayable",
      "type": "function"
    }
  ],
  "bytecode": "0x608060405234801561001057600080fd5b506040516122d43803806122d4833981810160405260a081101561003357600080fd5b810190808051906020019092919080519060200190929190805190602001909291908051906020019092919080519060200190929190505050336000806101000a81548173ffffffffffffffffffffffffffffffffffffffff021916908373ffffffffffffffffffffffffffffffffffffffff16021790555083600160006101000a81548173ffffffffffffffffffffffffffffffffffffffff021916908373ffffffffffffffffffffffffffffffffffffffff16021790555080600460006101000a81548173ffffffffffffffffffffffffffffffffffffffff021916908373ffffffffffffffffffffffffffffffffffffffff16021790555082600260006101000a81548173ffffffffffffffffffffffffffffffffffffffff021916908373ffffffffffffffffffffffffffffffffffffffff16021790555081600360006101000a81548173ffffffffffffffffffffffffffffffffffffffff021916908373ffffffffffffffffffffffffffffffffffffffff16021790555084600a60006101000a81548173ffffffffffffffffffffffffffffffffffffffff021916908373ffffffffffffffffffffffffffffffffffffffff16021790555082600b60006101000a81548173ffffffffffffffffffffffffffffffffffffffff021916908373ffffffffffffffffffffffffffffffffffffffff16021790555081600c60006101000a81548173ffffffffffffffffffffffffffffffffffffffff021916908373ffffffffffffffffffffffffffffffffffffffff16021790555080600d60006101000a81548173ffffffffffffffffffffffffffffffffffffffff021916908373ffffffffffffffffffffffffffffffffffffffff1602179055506009339080600181540180825580915050600190039060005260206000200160009091909190916101000a81548173ffffffffffffffffffffffffffffffffffffffff021916908373ffffffffffffffffffffffffffffffffffffffff1602179055505050505050611fa98061032b6000396000f3fe608060405234801561001057600080fd5b506004361061009e5760003560e01c80637b0472f0116100665780637b0472f0146102135780638f32d59b1461024b57806392cb2edd1461026d57806397cc3e811461028b578063d2814d5c146102e35761009e565b806313af4035146100a35780633942dadf146100e75780634c86259e1461013f5780634e71d92d146101ad5780637980a60e146101b7575b600080fd5b6100e5600480360360208110156100b957600080fd5b81019080803573ffffffffffffffffffffffffffffffffffffffff16906020019092919050505061031b565b005b610129600480360360208110156100fd57600080fd5b81019080803573ffffffffffffffffffffffffffffffffffffffff1690602001909291905050506103d8565b6040518082815260200191505060405180910390f35b61016b6004803603602081101561015557600080fd5b81019080803590602001909291905050506103f0565b604051808273ffffffffffffffffffffffffffffffffffffffff1673ffffffffffffffffffffffffffffffffffffffff16815260200191505060405180910390f35b6101b561042c565b005b6101f9600480360360208110156101cd57600080fd5b81019080803573ffffffffffffffffffffffffffffffffffffffff1690602001909291905050506106fc565b604051808215151515815260200191505060405180910390f35b6102496004803603604081101561022957600080fd5b81019080803590602001909291908035906020019092919050505061071c565b005b6102536111da565b604051808215151515815260200191505060405180910390f35b610275611231565b6040518082815260200191505060405180910390f35b6102cd600480360360208110156102a157600080fd5b81019080803573ffffffffffffffffffffffffffffffffffffffff169060200190929190505050611237565b6040518082815260200191505060405180910390f35b610319600480360360408110156102f957600080fd5b81019080803590602001909291908035906020019092919050505061124f565b005b6103236111da565b610395576040517f08c379a00000000000000000000000000000000000000000000000000000000081526004018080602001828103825260208152602001807f4f776e61626c653a2063616c6c6572206973206e6f7420746865206f776e657281525060200191505060405180910390fd5b806000806101000a81548173ffffffffffffffffffffffffffffffffffffffff021916908373ffffffffffffffffffffffffffffffffffffffff16021790555050565b60066020528060005260406000206000915090505481565b600981815481106103fd57fe5b906000526020600020016000915054906101000a900473ffffffffffffffffffffffffffffffffffffffff1681565b600860003373ffffffffffffffffffffffffffffffffffffffff1673ffffffffffffffffffffffffffffffffffffffff16815260200190815260200160002060009054906101000a900460ff166104eb576040517f08c379a00000000000000000000000000000000000000000000000000000000081526004018080602001828103825260128152602001807f796f7520617265206e6f74207374616b6564000000000000000000000000000081525060200191505060405180910390fd5b6104f3611698565b50600b60009054906101000a900473ffffffffffffffffffffffffffffffffffffffff1673ffffffffffffffffffffffffffffffffffffffff1663a9059cbb33600760003373ffffffffffffffffffffffffffffffffffffffff1673ffffffffffffffffffffffffffffffffffffffff168152602001908152602001600020546040518363ffffffff1660e01b8152600401808373ffffffffffffffffffffffffffffffffffffffff1673ffffffffffffffffffffffffffffffffffffffff16815260200182815260200192505050602060405180830381600087803b1580156105dc57600080fd5b505af11580156105f0573d6000803e3d6000fd5b505050506040513d602081101561060657600080fd5b81019080805190602001909291905050505061066c600760003373ffffffffffffffffffffffffffffffffffffffff1673ffffffffffffffffffffffffffffffffffffffff16815260200190815260200160002054600554611a8e90919063ffffffff16565b6005819055506000600760003373ffffffffffffffffffffffffffffffffffffffff1673ffffffffffffffffffffffffffffffffffffffff168152602001908152602001600020819055503373ffffffffffffffffffffffffffffffffffffffff167f0c7ef932d3b91976772937f18d5ef9b39a9930bef486b576c374f047c4b512dc60405160405180910390a2565b60086020528060005260406000206000915054906101000a900460ff1681565b81600b60009054906101000a900473ffffffffffffffffffffffffffffffffffffffff1673ffffffffffffffffffffffffffffffffffffffff166370a08231336040518263ffffffff1660e01b8152600401808273ffffffffffffffffffffffffffffffffffffffff1673ffffffffffffffffffffffffffffffffffffffff16815260200191505060206040518083038186803b1580156107bc57600080fd5b505afa1580156107d0573d6000803e3d6000fd5b505050506040513d60208110156107e657600080fd5b8101908080519060200190929190505050101561086b576040517f08c379a00000000000000000000000000000000000000000000000000000000081526004018080602001828103825260118152602001807f696e73756666696369656e74207544616900000000000000000000000000000081525060200191505060405180910390fd5b80600c60009054906101000a900473ffffffffffffffffffffffffffffffffffffffff1673ffffffffffffffffffffffffffffffffffffffff166370a08231336040518263ffffffff1660e01b8152600401808273ffffffffffffffffffffffffffffffffffffffff1673ffffffffffffffffffffffffffffffffffffffff16815260200191505060206040518083038186803b15801561090b57600080fd5b505afa15801561091f573d6000803e3d6000fd5b505050506040513d602081101561093557600080fd5b810190808051906020019092919050505010156109ba576040517f08c379a00000000000000000000000000000000000000000000000000000000081526004018080602001828103825260108152602001807f696e73756666696369656e74206461690000000000000000000000000000000081525060200191505060405180910390fd5b600b60009054906101000a900473ffffffffffffffffffffffffffffffffffffffff1673ffffffffffffffffffffffffffffffffffffffff166323b872dd3330856040518463ffffffff1660e01b8152600401808473ffffffffffffffffffffffffffffffffffffffff1673ffffffffffffffffffffffffffffffffffffffff1681526020018373ffffffffffffffffffffffffffffffffffffffff1673ffffffffffffffffffffffffffffffffffffffff1681526020018281526020019350505050602060405180830381600087803b158015610a9757600080fd5b505af1158015610aab573d6000803e3d6000fd5b505050506040513d6020811015610ac157600080fd5b810190808051906020019092919050505050600c60009054906101000a900473ffffffffffffffffffffffffffffffffffffffff1673ffffffffffffffffffffffffffffffffffffffff166323b872dd3330846040518463ffffffff1660e01b8152600401808473ffffffffffffffffffffffffffffffffffffffff1673ffffffffffffffffffffffffffffffffffffffff1681526020018373ffffffffffffffffffffffffffffffffffffffff1673ffffffffffffffffffffffffffffffffffffffff1681526020018281526020019350505050602060405180830381600087803b158015610bb057600080fd5b505af1158015610bc4573d6000803e3d6000fd5b505050506040513d6020811015610bda57600080fd5b810190808051906020019092919050505050600b60009054906101000a900473ffffffffffffffffffffffffffffffffffffffff1673ffffffffffffffffffffffffffffffffffffffff1663095ea7b3600460009054906101000a900473ffffffffffffffffffffffffffffffffffffffff16846040518363ffffffff1660e01b8152600401808373ffffffffffffffffffffffffffffffffffffffff1673ffffffffffffffffffffffffffffffffffffffff16815260200182815260200192505050602060405180830381600087803b158015610cb757600080fd5b505af1158015610ccb573d6000803e3d6000fd5b505050506040513d6020811015610ce157600080fd5b810190808051906020019092919050505050600c60009054906101000a900473ffffffffffffffffffffffffffffffffffffffff1673ffffffffffffffffffffffffffffffffffffffff1663095ea7b3600460009054906101000a900473ffffffffffffffffffffffffffffffffffffffff16836040518363ffffffff1660e01b8152600401808373ffffffffffffffffffffffffffffffffffffffff1673ffffffffffffffffffffffffffffffffffffffff16815260200182815260200192505050602060405180830381600087803b158015610dbe57600080fd5b505af1158015610dd2573d6000803e3d6000fd5b505050506040513d6020811015610de857600080fd5b8101908080519060200190929190505050506000610e22610e13600a85611ad890919063ffffffff16565b84611a8e90919063ffffffff16565b90506000610e4c610e3d600a85611ad890919063ffffffff16565b84611a8e90919063ffffffff16565b90506000806000600d60009054906101000a900473ffffffffffffffffffffffffffffffffffffffff1673ffffffffffffffffffffffffffffffffffffffff1663e8e33700600360009054906101000a900473ffffffffffffffffffffffffffffffffffffffff16600260009054906101000a900473ffffffffffffffffffffffffffffffffffffffff16898b898b30610ef161025842611b2290919063ffffffff16565b6040518963ffffffff1660e01b8152600401808973ffffffffffffffffffffffffffffffffffffffff1673ffffffffffffffffffffffffffffffffffffffff1681526020018873ffffffffffffffffffffffffffffffffffffffff1673ffffffffffffffffffffffffffffffffffffffff1681526020018781526020018681526020018581526020018481526020018373ffffffffffffffffffffffffffffffffffffffff1673ffffffffffffffffffffffffffffffffffffffff16815260200182815260200198505050505050505050606060405180830381600087803b158015610fdc57600080fd5b505af1158015610ff0573d6000803e3d6000fd5b505050506040513d606081101561100657600080fd5b81019080805190602001909291908051906020019092919080519060200190929190505050925092509250611039611698565b5061108c81600660003373ffffffffffffffffffffffffffffffffffffffff1673ffffffffffffffffffffffffffffffffffffffff16815260200190815260200160002054611b2290919063ffffffff16565b600660003373ffffffffffffffffffffffffffffffffffffffff1673ffffffffffffffffffffffffffffffffffffffff16815260200190815260200160002081905550600860003373ffffffffffffffffffffffffffffffffffffffff1673ffffffffffffffffffffffffffffffffffffffff16815260200190815260200160002060009054906101000a900460ff166111835761112933611baa565b506001600860003373ffffffffffffffffffffffffffffffffffffffff1673ffffffffffffffffffffffffffffffffffffffff16815260200190815260200160002060006101000a81548160ff0219169083151502179055505b3373ffffffffffffffffffffffffffffffffffffffff167f9e71bc8eea02a63969f509818f2dafb9254532904319f9dbda79b67bd34a5f3d826040518082815260200191505060405180910390a250505050505050565b60008060009054906101000a900473ffffffffffffffffffffffffffffffffffffffff1673ffffffffffffffffffffffffffffffffffffffff163373ffffffffffffffffffffffffffffffffffffffff1614905090565b60055481565b60076020528060005260406000206000915090505481565b600860003373ffffffffffffffffffffffffffffffffffffffff1673ffffffffffffffffffffffffffffffffffffffff16815260200190815260200160002060009054906101000a900460ff1661130e576040517f08c379a00000000000000000000000000000000000000000000000000000000081526004018080602001828103825260138152602001807f796f7520617265206e6f74207374616b696e670000000000000000000000000081525060200191505060405180910390fd5b6000600660003373ffffffffffffffffffffffffffffffffffffffff1673ffffffffffffffffffffffffffffffffffffffff16815260200190815260200160002054116113a6576040517f08c379a0000000000000000000000000000000000000000000000000000000008152600401808060200182810382526024815260200180611f506024913960400191505060405180910390fd5b6113ae61042c565b600d60009054906101000a900473ffffffffffffffffffffffffffffffffffffffff1673ffffffffffffffffffffffffffffffffffffffff1663baa2abde600360009054906101000a900473ffffffffffffffffffffffffffffffffffffffff16600260009054906101000a900473ffffffffffffffffffffffffffffffffffffffff16600660003373ffffffffffffffffffffffffffffffffffffffff1673ffffffffffffffffffffffffffffffffffffffff1681526020019081526020016000205486863361148a61025842611b2290919063ffffffff16565b6040518863ffffffff1660e01b8152600401808873ffffffffffffffffffffffffffffffffffffffff1673ffffffffffffffffffffffffffffffffffffffff1681526020018773ffffffffffffffffffffffffffffffffffffffff1673ffffffffffffffffffffffffffffffffffffffff1681526020018681526020018581526020018481526020018373ffffffffffffffffffffffffffffffffffffffff1673ffffffffffffffffffffffffffffffffffffffff1681526020018281526020019750505050505050506040805180830381600087803b15801561156d57600080fd5b505af1158015611581573d6000803e3d6000fd5b505050506040513d604081101561159757600080fd5b81019080805190602001909291908051906020019092919050505050506000600660003373ffffffffffffffffffffffffffffffffffffffff1673ffffffffffffffffffffffffffffffffffffffff168152602001908152602001600020819055506000600860003373ffffffffffffffffffffffffffffffffffffffff1673ffffffffffffffffffffffffffffffffffffffff16815260200190815260200160002060006101000a81548160ff0219169083151502179055503373ffffffffffffffffffffffffffffffffffffffff167f6834bcb181c65df18ce2da14523ae95d5db81f9a666b2334d1b58e8caa952cfb60405160405180910390a25050565b600080600b60009054906101000a900473ffffffffffffffffffffffffffffffffffffffff1673ffffffffffffffffffffffffffffffffffffffff166370a08231306040518263ffffffff1660e01b8152600401808273ffffffffffffffffffffffffffffffffffffffff1673ffffffffffffffffffffffffffffffffffffffff16815260200191505060206040518083038186803b15801561173a57600080fd5b505afa15801561174e573d6000803e3d6000fd5b505050506040513d602081101561176457600080fd5b81019080805190602001909291905050509050600061178e60055483611a8e90919063ffffffff16565b9050600a8110156117a457600092505050611a8b565b6000600a60009054906101000a900473ffffffffffffffffffffffffffffffffffffffff1673ffffffffffffffffffffffffffffffffffffffff166370a08231306040518263ffffffff1660e01b8152600401808273ffffffffffffffffffffffffffffffffffffffff1673ffffffffffffffffffffffffffffffffffffffff16815260200191505060206040518083038186803b15801561184557600080fd5b505afa158015611859573d6000803e3d6000fd5b505050506040513d602081101561186f57600080fd5b8101908080519060200190929190505050905060008090505b600980549050811015611a825760086000600983815481106118a657fe5b9060005260206000200160009054906101000a900473ffffffffffffffffffffffffffffffffffffffff1673ffffffffffffffffffffffffffffffffffffffff1673ffffffffffffffffffffffffffffffffffffffff16815260200190815260200160002060009054906101000a900460ff1615611a755760006009828154811061192d57fe5b9060005260206000200160009054906101000a900473ffffffffffffffffffffffffffffffffffffffff16905060006119c0846119b2600660008673ffffffffffffffffffffffffffffffffffffffff1673ffffffffffffffffffffffffffffffffffffffff1681526020019081526020016000205488611d2290919063ffffffff16565b611ad890919063ffffffff16565b9050611a1481600760008573ffffffffffffffffffffffffffffffffffffffff1673ffffffffffffffffffffffffffffffffffffffff16815260200190815260200160002054611b2290919063ffffffff16565b600760008473ffffffffffffffffffffffffffffffffffffffff1673ffffffffffffffffffffffffffffffffffffffff16815260200190815260200160002081905550611a6c81600554611b2290919063ffffffff16565b60058190555050505b8080600101915050611888565b50600193505050505b90565b6000611ad083836040518060400160405280601e81526020017f536166654d6174683a207375627472616374696f6e206f766572666c6f770000815250611da8565b905092915050565b6000611b1a83836040518060400160405280601a81526020017f536166654d6174683a206469766973696f6e206279207a65726f000000000000815250611e68565b905092915050565b600080828401905083811015611ba0576040517f08c379a000000000000000000000000000000000000000000000000000000000815260040180806020018281038252601b8152602001807f536166654d6174683a206164646974696f6e206f766572666c6f77000000000081525060200191505060405180910390fd5b8091505092915050565b600080600090505b600980549050811015611cb4576008600060098381548110611bd057fe5b9060005260206000200160009054906101000a900473ffffffffffffffffffffffffffffffffffffffff1673ffffffffffffffffffffffffffffffffffffffff1673ffffffffffffffffffffffffffffffffffffffff16815260200190815260200160002060009054906101000a900460ff16611ca7578260098281548110611c5557fe5b9060005260206000200160006101000a81548173ffffffffffffffffffffffffffffffffffffffff021916908373ffffffffffffffffffffffffffffffffffffffff1602179055506001915050611d1d565b8080600101915050611bb2565b506009829080600181540180825580915050600190039060005260206000200160009091909190916101000a81548173ffffffffffffffffffffffffffffffffffffffff021916908373ffffffffffffffffffffffffffffffffffffffff160217905550600090505b919050565b600080831415611d355760009050611da2565b6000828402905082848281611d4657fe5b0414611d9d576040517f08c379a0000000000000000000000000000000000000000000000000000000008152600401808060200182810382526021815260200180611f2f6021913960400191505060405180910390fd5b809150505b92915050565b6000838311158290611e55576040517f08c379a00000000000000000000000000000000000000000000000000000000081526004018080602001828103825283818151815260200191508051906020019080838360005b83811015611e1a578082015181840152602081019050611dff565b50505050905090810190601f168015611e475780820380516001836020036101000a031916815260200191505b509250505060405180910390fd5b5060008385039050809150509392505050565b60008083118290611f14576040517f08c379a00000000000000000000000000000000000000000000000000000000081526004018080602001828103825283818151815260200191508051906020019080838360005b83811015611ed9578082015181840152602081019050611ebe565b50505050905090810190601f168015611f065780820380516001836020036101000a031916815260200191505b509250505060405180910390fd5b506000838581611f2057fe5b04905080915050939250505056fe536166654d6174683a206d756c7469706c69636174696f6e206f766572666c6f77796f7520646f206e6f74206861766520616e79206c6f636b6564206c6971756964697479a26469706673582212202e04b74d01fe7e15e03db67b305a9fa3f1bc26e3961e3cff3be7dcdef37c1e9964736f6c63430006020033",
  "source": "pragma solidity >=0.4.23 <0.8.0;\r\n// SPDX-License-Identifier: MIT\r\n\r\nimport \"@openzeppelin/contracts/math/SafeMath.sol\";\r\nimport \"@openzeppelin/contracts/utils/Address.sol\";\r\n\r\ninterface uDaiERC20 {\r\n    function transferFrom(address sender, address recipient, uint256 amount) external returns (bool);\r\n    function transfer(address _to, uint _value) external returns (bool success);\r\n    function balanceOf(address account) external view returns (uint256);\r\n    function approve(address spender, uint256 amount) external returns (bool);\r\n}\r\n\r\ninterface daiInterface {\r\n    // from DAI\r\n    // function transferFrom(address src, address dst, uint wad)\r\n    // function transfer(address dst, uint wad) external returns (bool)\r\n\r\n    // for Testing\r\n    function transferFrom(address from, address to, uint value) external returns (bool);\r\n    function transfer(address to, uint value) external returns (bool);\r\n    function balanceOf(address account) external view returns (uint256);\r\n    function approve(address spender, uint value) external returns (bool);\r\n}\r\n\r\ninterface LPT {\r\n    function totalSupply() external view returns (uint);\r\n    function balanceOf(address owner) external view returns (uint);\r\n    \r\n    function transfer(address to, uint value) external returns (bool);\r\n    function transferFrom(address from, address to, uint value) external returns (bool);\r\n\r\n    function DOMAIN_SEPARATOR() external view returns (bytes32);\r\n    function PERMIT_TYPEHASH() external pure returns (bytes32);\r\n    function nonces(address owner) external view returns (uint);\r\n\r\n    function permit(address owner, address spender, uint value, uint deadline, uint8 v, bytes32 r, bytes32 s) external;\r\n\r\n    function factory() external view returns (address); // needed?\r\n    function token0() external view returns (address);\r\n    function token1() external view returns (address);\r\n    function getReserves() external view returns (uint112 reserve0, uint112 reserve1, uint32 blockTimestampLast);\r\n    function price0CumulativeLast() external view returns (uint);\r\n    function price1CumulativeLast() external view returns (uint);\r\n    function kLast() external view returns (uint);\r\n}\r\n\r\ninterface routerInterface {\r\n    function addLiquidity(\r\n        address tokenA,\r\n        address tokenB,\r\n        uint amountADesired,\r\n        uint amountBDesired,\r\n        uint amountAMin,\r\n        uint amountBMin,\r\n        address to,\r\n        uint deadline\r\n    ) external returns (uint amountA, uint amountB, uint liquidity);\r\n    function removeLiquidity(\r\n        address tokenA,\r\n        address tokenB,\r\n        uint liquidity,\r\n        uint amountAMin,\r\n        uint amountBMin,\r\n        address to,\r\n        uint deadline\r\n    ) external returns (uint amountA, uint amountB);\r\n}\r\n\r\n// Liquidity Lock Contract for ETH/DAI pair\r\ncontract unboundStaking {\r\n    using SafeMath for uint256;\r\n    using Address for address;\r\n\r\n    // Events\r\n    event Staked (address indexed user, uint256 liquidityTokens);\r\n    event UnStaked (address indexed user);\r\n    event Claim (address indexed user);\r\n\r\n    //Owner Address\r\n    address _owner;\r\n\r\n    // fee splitting contract\r\n    address _feeSplitterAddr;\r\n\r\n    // uDai and Dai addresses\r\n    address _uDaiAddr;\r\n    address _daiAddr;\r\n\r\n    // Uniswap Router -- CHANGE FOR MAINNET\r\n    address uniswapRouter;\r\n\r\n    // tracks uDai that has been credited to stakers\r\n    // call balanceOf(address(this)) from uDai, minus _trackedTokens to get tokens waiting to be split\r\n    uint256 public _trackedRewardUdai;\r\n\r\n    // Liquidity tokens locked by users\r\n    mapping (address => uint256) public _liquidityLocked;\r\n\r\n    // amount of rewards earned\r\n    mapping (address => uint256) public _stakeReward;\r\n\r\n    // is user staking?\r\n    mapping (address => bool) public _isStaked;\r\n\r\n    // array of stakers\r\n    address[] public stakeList;\r\n\r\n    // interfaces\r\n    LPT private LPTContract;\r\n    uDaiERC20 private uDaiContract;\r\n    daiInterface private daiContract;\r\n    routerInterface private router;\r\n\r\n    // Modifiers\r\n    modifier onlyOwner() {\r\n        require(isOwner(), \"Ownable: caller is not the owner\");\r\n        _;\r\n    }\r\n\r\n    // Constructor\r\n    // LPTaddress is for uDai/Dai\r\n    constructor (address LPTaddress, address feeSplitter, address uDai, address dai, address routerAddr) public {\r\n        _owner = msg.sender;\r\n\r\n        // sets addresses and initiates interfaces\r\n        _feeSplitterAddr = feeSplitter;\r\n        uniswapRouter = routerAddr;\r\n        _uDaiAddr = uDai;\r\n        _daiAddr = dai;\r\n\r\n        LPTContract = LPT(LPTaddress);\r\n        uDaiContract = uDaiERC20(uDai);\r\n        daiContract = daiInterface(dai);\r\n        router = routerInterface(routerAddr);\r\n\r\n        // add an item to array so its size is not 0\r\n        stakeList.push(msg.sender);\r\n    }\r\n\r\n    // STAKE function\r\n    // uDai and Dai must be given approval to this contract address for this function to work!!\r\n    function stake (uint256 uDai, uint256 Dai) public {\r\n        require (uDaiContract.balanceOf(msg.sender) >= uDai, \"insufficient uDai\");\r\n        require (daiContract.balanceOf(msg.sender) >= Dai, \"insufficient dai\");\r\n\r\n        // transfers uDai and Dai to this contract\r\n        uDaiContract.transferFrom(msg.sender, address(this), uDai);\r\n        daiContract.transferFrom(msg.sender, address(this), Dai);\r\n\r\n        // Call Approval to uDai and Dai\r\n        uDaiContract.approve(uniswapRouter, uDai);\r\n        daiContract.approve(uniswapRouter, Dai);\r\n\r\n        // calculate Minimums (10% below given amount for now)\r\n        uint256 uDaiMin = uDai.sub(uDai.div(10));\r\n        uint256 daiMin = Dai.sub(Dai.div(10));\r\n\r\n        // mints liquidity\r\n        // Assumes DAI is token0, uDai token1\r\n        (uint amountA, uint amountB, uint liquidity) = router.addLiquidity(_daiAddr, _uDaiAddr, Dai, uDai, daiMin, uDaiMin, address(this), block.timestamp.add(600));\r\n\r\n\r\n        // splits pot\r\n        splitPot();\r\n\r\n        // credits user with locked liquidity\r\n        _liquidityLocked[msg.sender] = _liquidityLocked[msg.sender].add(liquidity);\r\n\r\n        \r\n\r\n        // if user has not yet staked, adds them to the list.\r\n        if (!_isStaked[msg.sender]) {\r\n            addToStakerList(msg.sender);\r\n\r\n            // sets staking status to true\r\n            _isStaked[msg.sender] = true;\r\n        }\r\n\r\n        emit Staked (msg.sender, liquidity);\r\n    }\r\n\r\n    // loops through existing stakeList and checks if any spots can be reused. If not, increases array by 1.\r\n    function addToStakerList(address newStaker) internal returns (bool){\r\n        for (uint i = 0; i < stakeList.length; i++) {\r\n            if (!_isStaked[stakeList[i]]) {\r\n                stakeList[i] = newStaker;\r\n                return true;\r\n            }\r\n        }\r\n        stakeList.push(newStaker);\r\n        return false;\r\n    }\r\n\r\n    // msg.sender must be the staker\r\n    function removeStaker(uint256 daiMin, uint256 uDaiMin) public {\r\n        require (_isStaked[msg.sender], \"you are not staking\");\r\n        require (_liquidityLocked[msg.sender] > 0, \"you do not have any locked liquidity\");\r\n\r\n        // splits pot and withdraws\r\n        claim();\r\n\r\n\r\n        // return liquidity\r\n        router.removeLiquidity(_daiAddr, _uDaiAddr, _liquidityLocked[msg.sender], daiMin, uDaiMin, msg.sender, block.timestamp.add(600));\r\n\r\n        // reset user variables\r\n        _liquidityLocked[msg.sender] = 0;\r\n        _isStaked[msg.sender] = false;\r\n\r\n        emit UnStaked (msg.sender);\r\n    }\r\n\r\n    // splits collected fees among users, and credits them.\r\n    function splitPot() internal returns (bool) {\r\n\r\n        // calculate how much Reward is available to split\r\n        uint256 totalUdai = uDaiContract.balanceOf(address(this));\r\n        uint256 toSplit = totalUdai.sub(_trackedRewardUdai);\r\n\r\n        // if toSplit is small (close to 0), end this function early\r\n        if (toSplit < 10) {\r\n            return false;\r\n        }\r\n        // possibility for dust creation in this contract (in the for loop)\r\n\r\n        // get total amount of liquidity staked\r\n        uint256 totalLiquidity = LPTContract.balanceOf(address(this));\r\n\r\n        // loops through stakeList, gives rewards to addresses who are staked\r\n        for (uint i = 0; i < stakeList.length; i++) {\r\n\r\n            // skips addresses that are not staking\r\n            if (_isStaked[stakeList[i]]) {\r\n                address staker = stakeList[i];\r\n\r\n                // calculates reward\r\n                uint256 reward = toSplit.mul(_liquidityLocked[staker]).div(totalLiquidity);\r\n\r\n                // adds reward amount to mapping\r\n                _stakeReward[staker] = _stakeReward[staker].add(reward);\r\n\r\n                // increases the trackedUdai variable\r\n                _trackedRewardUdai = _trackedRewardUdai.add(reward);\r\n\r\n            }\r\n        }\r\n        return true;\r\n    }\r\n\r\n    // Must be called by msg.sender\r\n    function claim() public {\r\n\r\n        // checks if user is staking\r\n        require(_isStaked[msg.sender], \"you are not staked\");\r\n\r\n        // splits any unaccounted for funds\r\n        splitPot();\r\n\r\n        // sends the users Reward amount in uDai\r\n        uDaiContract.transfer(msg.sender, _stakeReward[msg.sender]);\r\n\r\n        // subtracts the removed uDai from tracking\r\n        _trackedRewardUdai = _trackedRewardUdai.sub(_stakeReward[msg.sender]);\r\n\r\n        // resets user reward variable\r\n        _stakeReward[msg.sender] = 0;\r\n\r\n        emit Claim(msg.sender);\r\n    }\r\n    \r\n\r\n    // onlyOwner Functions\r\n\r\n    // Checks if sender is owner\r\n    function isOwner() public view returns (bool) {\r\n        return msg.sender == _owner;\r\n    }\r\n\r\n    // Changes owner\r\n    function setOwner(address _newOwner) public onlyOwner {\r\n        _owner = _newOwner;\r\n    }\r\n\r\n}",
  "sourcePath": "C:/Users/sonic/Desktop/Unbound/contracts/distribution/LPTstake.sol",
  "compiler": {
    "name": "solc",
    "version": "0.6.2+commit.bacdbe57.Emscripten.clang"
  },
  "schemaVersion": "3.2.3",
  "updatedAt": "2020-09-14T22:04:08.018Z",
  "devdoc": {
    "methods": {}
  },
  "userdoc": {
    "methods": {}
  }
}