{
  "contractName": "UniswapV2Factory",
  "abi": [
    {
      "inputs": [
        {
          "internalType": "address",
          "name": "_feeToSetter",
          "type": "address"
        }
      ],
      "stateMutability": "nonpayable",
      "type": "constructor"
    },
    {
      "anonymous": false,
      "inputs": [
        {
          "indexed": true,
          "internalType": "address",
          "name": "token0",
          "type": "address"
        },
        {
          "indexed": true,
          "internalType": "address",
          "name": "token1",
          "type": "address"
        },
        {
          "indexed": false,
          "internalType": "address",
          "name": "pair",
          "type": "address"
        },
        {
          "indexed": false,
          "internalType": "uint256",
          "name": "",
          "type": "uint256"
        }
      ],
      "name": "PairCreated",
      "type": "event"
    },
    {
      "inputs": [
        {
          "internalType": "uint256",
          "name": "",
          "type": "uint256"
        }
      ],
      "name": "allPairs",
      "outputs": [
        {
          "internalType": "address",
          "name": "",
          "type": "address"
        }
      ],
      "stateMutability": "view",
      "type": "function",
      "constant": true
    },
    {
      "inputs": [],
      "name": "feeTo",
      "outputs": [
        {
          "internalType": "address",
          "name": "",
          "type": "address"
        }
      ],
      "stateMutability": "view",
      "type": "function",
      "constant": true
    },
    {
      "inputs": [],
      "name": "feeToSetter",
      "outputs": [
        {
          "internalType": "address",
          "name": "",
          "type": "address"
        }
      ],
      "stateMutability": "view",
      "type": "function",
      "constant": true
    },
    {
      "inputs": [
        {
          "internalType": "address",
          "name": "",
          "type": "address"
        },
        {
          "internalType": "address",
          "name": "",
          "type": "address"
        }
      ],
      "name": "getPair",
      "outputs": [
        {
          "internalType": "address",
          "name": "",
          "type": "address"
        }
      ],
      "stateMutability": "view",
      "type": "function",
      "constant": true
    },
    {
      "inputs": [],
      "name": "allPairsLength",
      "outputs": [
        {
          "internalType": "uint256",
          "name": "",
          "type": "uint256"
        }
      ],
      "stateMutability": "view",
      "type": "function",
      "constant": true
    },
    {
      "inputs": [
        {
          "internalType": "address",
          "name": "tokenA",
          "type": "address"
        },
        {
          "internalType": "address",
          "name": "tokenB",
          "type": "address"
        }
      ],
      "name": "createPair",
      "outputs": [
        {
          "internalType": "address",
          "name": "pair",
          "type": "address"
        }
      ],
      "stateMutability": "nonpayable",
      "type": "function"
    },
    {
      "inputs": [
        {
          "internalType": "address",
          "name": "_feeTo",
          "type": "address"
        }
      ],
      "name": "setFeeTo",
      "outputs": [],
      "stateMutability": "nonpayable",
      "type": "function"
    },
    {
      "inputs": [
        {
          "internalType": "address",
          "name": "_feeToSetter",
          "type": "address"
        }
      ],
      "name": "setFeeToSetter",
      "outputs": [],
      "stateMutability": "nonpayable",
      "type": "function"
    }
  ],
  "bytecode": "0x608060405234801561001057600080fd5b506040516126783803806126788339818101604052602081101561003357600080fd5b5051600180546001600160a01b0319166001600160a01b03909216919091179055612615806100636000396000f3fe608060405234801561001057600080fd5b50600436106100885760003560e01c8063a2e74af61161005b578063a2e74af6146100f0578063c9c6539614610118578063e6a4390514610146578063f46901ed1461017457610088565b8063017e7e581461008d578063094b7415146100b15780631e3dd18b146100b9578063574f2ba3146100d6575b600080fd5b61009561019a565b604080516001600160a01b039092168252519081900360200190f35b6100956101a9565b610095600480360360208110156100cf57600080fd5b50356101b8565b6100de6101df565b60408051918252519081900360200190f35b6101166004803603602081101561010657600080fd5b50356001600160a01b03166101e5565b005b6100956004803603604081101561012e57600080fd5b506001600160a01b038135811691602001351661025d565b6100956004803603604081101561015c57600080fd5b506001600160a01b038135811691602001351661058e565b6101166004803603602081101561018a57600080fd5b50356001600160a01b03166105b4565b6000546001600160a01b031681565b6001546001600160a01b031681565b600381815481106101c557fe5b6000918252602090912001546001600160a01b0316905081565b60035490565b6001546001600160a01b0316331461023b576040805162461bcd60e51b81526020600482015260146024820152732ab734b9bbb0b82b191d102327a92124a22222a760611b604482015290519081900360640190fd5b600180546001600160a01b0319166001600160a01b0392909216919091179055565b6000816001600160a01b0316836001600160a01b031614156102c6576040805162461bcd60e51b815260206004820152601e60248201527f556e697377617056323a204944454e544943414c5f4144445245535345530000604482015290519081900360640190fd5b600080836001600160a01b0316856001600160a01b0316106102e95783856102ec565b84845b90925090506001600160a01b03821661034c576040805162461bcd60e51b815260206004820152601760248201527f556e697377617056323a205a45524f5f41444452455353000000000000000000604482015290519081900360640190fd5b6001600160a01b038281166000908152600260209081526040808320858516845290915290205416156103bf576040805162461bcd60e51b8152602060048201526016602482015275556e697377617056323a20504149525f45584953545360501b604482015290519081900360640190fd5b6060604051806020016103d19061062c565b6020820181038252601f19601f8201166040525090506000838360405160200180836001600160a01b03166001600160a01b031660601b8152601401826001600160a01b03166001600160a01b031660601b815260140192505050604051602081830303815290604052805190602001209050808251602084016000f56040805163485cc95560e01b81526001600160a01b038781166004830152868116602483015291519297509087169163485cc9559160448082019260009290919082900301818387803b1580156104a457600080fd5b505af11580156104b8573d6000803e3d6000fd5b505050506001600160a01b0384811660008181526002602081815260408084208987168086529083528185208054978d166001600160a01b031998891681179091559383528185208686528352818520805488168517905560038054600181018255958190527fc2575a0e9e593c00f959f8c92f12db2869c3395a3b0502d05e2516446f71f85b90950180549097168417909655925483519283529082015281517f0d3648bd0f6ba80134a33ba9275ac585d9d315f0ad8355cddefde31afa28d0e9929181900390910190a35050505092915050565b60026020908152600092835260408084209091529082529020546001600160a01b031681565b6001546001600160a01b0316331461060a576040805162461bcd60e51b81526020600482015260146024820152732ab734b9bbb0b82b191d102327a92124a22222a760611b604482015290519081900360640190fd5b600080546001600160a01b0319166001600160a01b0392909216919091179055565b611fa68061063a8339019056fe60806040526001600a5534801561001557600080fd5b50600380546001600160a01b03191633179055611f6f806100376000396000f3fe608060405234801561001057600080fd5b506004361061014d5760003560e01c80636a627842116100c3578063ba9a7a561161007c578063ba9a7a561461046c578063bc25cf7714610474578063c45a01551461049a578063d21220a7146104a2578063dd62ed3e146104aa578063fff6cae9146104d85761014d565b80636a627842146103a557806370a08231146103cb5780637464fc3d146103f157806389afcb44146103f957806395d89b4114610438578063a9059cbb146104405761014d565b806318160ddd1161011557806318160ddd146102f957806323b872dd14610313578063313ce56714610349578063485cc955146103675780635909c0d5146103955780635a3d54931461039d5761014d565b8063022c0d9f1461015257806306fdde03146101e05780630902f1ac1461025d578063095ea7b3146102955780630dfe1681146102d5575b600080fd5b6101de6004803603608081101561016857600080fd5b8135916020810135916001600160a01b03604083013516919081019060808101606082013564010000000081111561019f57600080fd5b8201836020820111156101b157600080fd5b803590602001918460018302840111640100000000831117156101d357600080fd5b5090925090506104e0565b005b6101e8610a1b565b6040805160208082528351818301528351919283929083019185019080838360005b8381101561022257818101518382015260200161020a565b50505050905090810190601f16801561024f5780820380516001836020036101000a031916815260200191505b509250505060405180910390f35b610265610a41565b604080516001600160701b03948516815292909316602083015263ffffffff168183015290519081900360600190f35b6102c1600480360360408110156102ab57600080fd5b506001600160a01b038135169060200135610a6b565b604080519115158252519081900360200190f35b6102dd610a82565b604080516001600160a01b039092168252519081900360200190f35b610301610a91565b60408051918252519081900360200190f35b6102c16004803603606081101561032957600080fd5b506001600160a01b03813581169160208101359091169060400135610a97565b610351610b31565b6040805160ff9092168252519081900360200190f35b6101de6004803603604081101561037d57600080fd5b506001600160a01b0381358116916020013516610b36565b610301610bba565b610301610bc0565b610301600480360360208110156103bb57600080fd5b50356001600160a01b0316610bc6565b610301600480360360208110156103e157600080fd5b50356001600160a01b0316610ec9565b610301610edb565b61041f6004803603602081101561040f57600080fd5b50356001600160a01b0316610ee1565b6040805192835260208301919091528051918290030190f35b6101e861128a565b6102c16004803603604081101561045657600080fd5b506001600160a01b0381351690602001356112ac565b6103016112b9565b6101de6004803603602081101561048a57600080fd5b50356001600160a01b03166112bf565b6102dd61142e565b6102dd61143d565b610301600480360360408110156104c057600080fd5b506001600160a01b038135811691602001351661144c565b6101de611469565b600a5460011461052b576040805162461bcd60e51b8152602060048201526011602482015270155b9a5cddd85c158c8e881313d0d2d151607a1b604482015290519081900360640190fd5b6000600a558415158061053e5750600084115b6105795760405162461bcd60e51b8152600401808060200182810382526025815260200180611e806025913960400191505060405180910390fd5b600080610584610a41565b5091509150816001600160701b0316871080156105a95750806001600160701b031686105b6105e45760405162461bcd60e51b8152600401808060200182810382526021815260200180611ec96021913960400191505060405180910390fd5b60045460055460009182916001600160a01b039182169190811690891682148015906106225750806001600160a01b0316896001600160a01b031614155b61066b576040805162461bcd60e51b8152602060048201526015602482015274556e697377617056323a20494e56414c49445f544f60581b604482015290519081900360640190fd5b8a1561067c5761067c828a8d6115cf565b891561068d5761068d818a8c6115cf565b861561074857886001600160a01b03166310d1e85c338d8d8c8c6040518663ffffffff1660e01b815260040180866001600160a01b03166001600160a01b03168152602001858152602001848152602001806020018281038252848482818152602001925080828437600081840152601f19601f8201169050808301925050509650505050505050600060405180830381600087803b15801561072f57600080fd5b505af1158015610743573d6000803e3d6000fd5b505050505b604080516370a0823160e01b815230600482015290516001600160a01b038416916370a08231916024808301926020929190829003018186803b15801561078e57600080fd5b505afa1580156107a2573d6000803e3d6000fd5b505050506040513d60208110156107b857600080fd5b5051604080516370a0823160e01b815230600482015290519195506001600160a01b038316916370a0823191602480820192602092909190829003018186803b15801561080457600080fd5b505afa158015610818573d6000803e3d6000fd5b505050506040513d602081101561082e57600080fd5b5051925060009150506001600160701b0385168a90038311610851576000610860565b89856001600160701b03160383035b9050600089856001600160701b031603831161087d57600061088c565b89856001600160701b03160383035b9050600082118061089d5750600081115b6108d85760405162461bcd60e51b8152600401808060200182810382526024815260200180611ea56024913960400191505060405180910390fd5b600061090c6108ee84600363ffffffff61176916565b610900876103e863ffffffff61176916565b9063ffffffff6117cc16565b905060006109246108ee84600363ffffffff61176916565b9050610955620f42406109496001600160701b038b8116908b1663ffffffff61176916565b9063ffffffff61176916565b610965838363ffffffff61176916565b10156109a7576040805162461bcd60e51b815260206004820152600c60248201526b556e697377617056323a204b60a01b604482015290519081900360640190fd5b50506109b58484888861181c565b60408051838152602081018390528082018d9052606081018c905290516001600160a01b038b169133917fd78ad95fa46c994b6551d0da85fc275fe613ce37657fb8d5e3d130840159d8229181900360800190a350506001600a55505050505050505050565b6040518060400160405280600a8152602001692ab734b9bbb0b8102b1960b11b81525081565b6006546001600160701b0380821692600160701b830490911691600160e01b900463ffffffff1690565b6000610a783384846119e1565b5060015b92915050565b6004546001600160a01b031681565b60005481565b6001600160a01b038316600090815260026020908152604080832033845290915281205460001914610b1c576001600160a01b0384166000908152600260209081526040808320338452909152902054610af7908363ffffffff6117cc16565b6001600160a01b03851660009081526002602090815260408083203384529091529020555b610b27848484611a43565b5060019392505050565b601281565b6003546001600160a01b03163314610b8c576040805162461bcd60e51b81526020600482015260146024820152732ab734b9bbb0b82b191d102327a92124a22222a760611b604482015290519081900360640190fd5b600480546001600160a01b039384166001600160a01b03199182161790915560058054929093169116179055565b60075481565b60085481565b6000600a54600114610c13576040805162461bcd60e51b8152602060048201526011602482015270155b9a5cddd85c158c8e881313d0d2d151607a1b604482015290519081900360640190fd5b6000600a81905580610c23610a41565b5060048054604080516370a0823160e01b81523093810193909352519395509193506000926001600160a01b03909216916370a0823191602480820192602092909190829003018186803b158015610c7a57600080fd5b505afa158015610c8e573d6000803e3d6000fd5b505050506040513d6020811015610ca457600080fd5b5051600554604080516370a0823160e01b815230600482015290519293506000926001600160a01b03909216916370a0823191602480820192602092909190829003018186803b158015610cf757600080fd5b505afa158015610d0b573d6000803e3d6000fd5b505050506040513d6020811015610d2157600080fd5b505190506000610d40836001600160701b03871663ffffffff6117cc16565b90506000610d5d836001600160701b03871663ffffffff6117cc16565b90506000610d6b8787611afd565b60005490915080610da857610d946103e8610900610d8f878763ffffffff61176916565b611c5b565b9850610da360006103e8611cad565b610df7565b610df46001600160701b038916610dc5868463ffffffff61176916565b81610dcc57fe5b046001600160701b038916610de7868563ffffffff61176916565b81610dee57fe5b04611d43565b98505b60008911610e365760405162461bcd60e51b8152600401808060200182810382526028815260200180611f126028913960400191505060405180910390fd5b610e408a8a611cad565b610e4c86868a8a61181c565b8115610e7c57600654610e78906001600160701b0380821691600160701b90041663ffffffff61176916565b6009555b6040805185815260208101859052815133927f4c209b5fc8ad50758f13e2e1088ba56a560dff690a1c6fef26394f4c03821c4f928290030190a250506001600a5550949695505050505050565b60016020526000908152604090205481565b60095481565b600080600a54600114610f2f576040805162461bcd60e51b8152602060048201526011602482015270155b9a5cddd85c158c8e881313d0d2d151607a1b604482015290519081900360640190fd5b6000600a81905580610f3f610a41565b5060048054600554604080516370a0823160e01b81523094810194909452519496509294506001600160a01b039081169392169160009184916370a0823191602480820192602092909190829003018186803b158015610f9e57600080fd5b505afa158015610fb2573d6000803e3d6000fd5b505050506040513d6020811015610fc857600080fd5b5051604080516370a0823160e01b815230600482015290519192506000916001600160a01b038516916370a08231916024808301926020929190829003018186803b15801561101657600080fd5b505afa15801561102a573d6000803e3d6000fd5b505050506040513d602081101561104057600080fd5b50513060009081526001602052604081205491925061105f8888611afd565b60005490915080611076848763ffffffff61176916565b8161107d57fe5b049a5080611091848663ffffffff61176916565b8161109857fe5b04995060008b1180156110ab575060008a115b6110e65760405162461bcd60e51b8152600401808060200182810382526028815260200180611eea6028913960400191505060405180910390fd5b6110f03084611d5b565b6110fb878d8d6115cf565b611106868d8c6115cf565b604080516370a0823160e01b815230600482015290516001600160a01b038916916370a08231916024808301926020929190829003018186803b15801561114c57600080fd5b505afa158015611160573d6000803e3d6000fd5b505050506040513d602081101561117657600080fd5b5051604080516370a0823160e01b815230600482015290519196506001600160a01b038816916370a0823191602480820192602092909190829003018186803b1580156111c257600080fd5b505afa1580156111d6573d6000803e3d6000fd5b505050506040513d60208110156111ec57600080fd5b505193506111fc85858b8b61181c565b811561122c57600654611228906001600160701b0380821691600160701b90041663ffffffff61176916565b6009555b604080518c8152602081018c905281516001600160a01b038f169233927fdccd412f0b1252819cb1fd330b93224ca42612892bb3f4f789976e6d81936496929081900390910190a35050505050505050506001600a81905550915091565b604051806040016040528060068152602001652aa72496ab1960d11b81525081565b6000610a78338484611a43565b6103e881565b600a5460011461130a576040805162461bcd60e51b8152602060048201526011602482015270155b9a5cddd85c158c8e881313d0d2d151607a1b604482015290519081900360640190fd5b6000600a5560048054600554600654604080516370a0823160e01b81523095810195909552516001600160a01b039384169493909216926113bd92859287926113b8926001600160701b039092169185916370a08231916024808301926020929190829003018186803b15801561138057600080fd5b505afa158015611394573d6000803e3d6000fd5b505050506040513d60208110156113aa57600080fd5b50519063ffffffff6117cc16565b6115cf565b600654604080516370a0823160e01b8152306004820152905161142492849287926113b892600160701b90046001600160701b0316916001600160a01b038616916370a0823191602480820192602092909190829003018186803b15801561138057600080fd5b50506001600a5550565b6003546001600160a01b031681565b6005546001600160a01b031681565b600260209081526000928352604080842090915290825290205481565b600a546001146114b4576040805162461bcd60e51b8152602060048201526011602482015270155b9a5cddd85c158c8e881313d0d2d151607a1b604482015290519081900360640190fd5b6000600a5560048054604080516370a0823160e01b81523093810193909352516115c8926001600160a01b03909216916370a08231916024808301926020929190829003018186803b15801561150957600080fd5b505afa15801561151d573d6000803e3d6000fd5b505050506040513d602081101561153357600080fd5b5051600554604080516370a0823160e01b815230600482015290516001600160a01b03909216916370a0823191602480820192602092909190829003018186803b15801561158057600080fd5b505afa158015611594573d6000803e3d6000fd5b505050506040513d60208110156115aa57600080fd5b50516006546001600160701b0380821691600160701b90041661181c565b6001600a55565b604080518082018252601981527f7472616e7366657228616464726573732c75696e74323536290000000000000060209182015281516001600160a01b0385811660248301526044808301869052845180840390910181526064909201845291810180516001600160e01b031663a9059cbb60e01b1781529251815160009460609489169392918291908083835b6020831061167c5780518252601f19909201916020918201910161165d565b6001836020036101000a0380198251168184511680821785525050505050509050019150506000604051808303816000865af19150503d80600081146116de576040519150601f19603f3d011682016040523d82523d6000602084013e6116e3565b606091505b5091509150818015611711575080511580611711575080806020019051602081101561170e57600080fd5b50515b611762576040805162461bcd60e51b815260206004820152601a60248201527f556e697377617056323a205452414e534645525f4641494c4544000000000000604482015290519081900360640190fd5b5050505050565b60008115806117845750508082028282828161178157fe5b04145b610a7c576040805162461bcd60e51b815260206004820152601460248201527364732d6d6174682d6d756c2d6f766572666c6f7760601b604482015290519081900360640190fd5b80820382811115610a7c576040805162461bcd60e51b815260206004820152601560248201527464732d6d6174682d7375622d756e646572666c6f7760581b604482015290519081900360640190fd5b6001600160701b03841180159061183a57506001600160701b038311155b611881576040805162461bcd60e51b8152602060048201526013602482015272556e697377617056323a204f564552464c4f5760681b604482015290519081900360640190fd5b60065463ffffffff42811691600160e01b900481168203908116158015906118b157506001600160701b03841615155b80156118c557506001600160701b03831615155b15611936578063ffffffff166118f3856118de86611df9565b6001600160e01b03169063ffffffff611e0b16565b600780546001600160e01b03929092169290920201905563ffffffff811661191e846118de87611df9565b600880546001600160e01b0392909216929092020190555b600680546dffffffffffffffffffffffffffff19166001600160701b03888116919091176dffffffffffffffffffffffffffff60701b1916600160701b8883168102919091176001600160e01b0316600160e01b63ffffffff871602179283905560408051848416815291909304909116602082015281517f1c411e9a96e071241c2f21f7726b17ae89e3cab4c78be50e062b03a9fffbbad1929181900390910190a1505050505050565b6001600160a01b03808416600081815260026020908152604080832094871680845294825291829020859055815185815291517f8c5be1e5ebec7d5bd14f71427d1e84f3dd0314c0f7b2291e5b200ac8c7c3b9259281900390910190a3505050565b6001600160a01b038316600090815260016020526040902054611a6c908263ffffffff6117cc16565b6001600160a01b038085166000908152600160205260408082209390935590841681522054611aa1908263ffffffff611e3016565b6001600160a01b0380841660008181526001602090815260409182902094909455805185815290519193928716927fddf252ad1be2c89b69c2b068fc378daa952ba7f163c4a11628f55a4df523b3ef92918290030190a3505050565b600080600360009054906101000a90046001600160a01b03166001600160a01b031663017e7e586040518163ffffffff1660e01b815260040160206040518083038186803b158015611b4e57600080fd5b505afa158015611b62573d6000803e3d6000fd5b505050506040513d6020811015611b7857600080fd5b50516009546001600160a01b038216158015945091925090611c47578015611c42576000611bbb610d8f6001600160701b0388811690881663ffffffff61176916565b90506000611bc883611c5b565b905080821115611c3f576000611bf6611be7848463ffffffff6117cc16565b6000549063ffffffff61176916565b90506000611c1b83611c0f86600563ffffffff61176916565b9063ffffffff611e3016565b90506000818381611c2857fe5b0490508015611c3b57611c3b8782611cad565b5050505b50505b611c53565b8015611c535760006009555b505092915050565b60006003821115611c9e575080600160028204015b81811015611c9857809150600281828581611c8757fe5b040181611c9057fe5b049050611c70565b50611ca8565b8115611ca8575060015b919050565b600054611cc0908263ffffffff611e3016565b60009081556001600160a01b038316815260016020526040902054611ceb908263ffffffff611e3016565b6001600160a01b03831660008181526001602090815260408083209490945583518581529351929391927fddf252ad1be2c89b69c2b068fc378daa952ba7f163c4a11628f55a4df523b3ef9281900390910190a35050565b6000818310611d525781611d54565b825b9392505050565b6001600160a01b038216600090815260016020526040902054611d84908263ffffffff6117cc16565b6001600160a01b03831660009081526001602052604081209190915554611db1908263ffffffff6117cc16565b60009081556040805183815290516001600160a01b038516917fddf252ad1be2c89b69c2b068fc378daa952ba7f163c4a11628f55a4df523b3ef919081900360200190a35050565b6001600160701b0316600160701b0290565b60006001600160701b0382166001600160e01b03841681611e2857fe5b049392505050565b80820182811015610a7c576040805162461bcd60e51b815260206004820152601460248201527364732d6d6174682d6164642d6f766572666c6f7760601b604482015290519081900360640190fdfe556e697377617056323a20494e53554646494349454e545f4f55545055545f414d4f554e54556e697377617056323a20494e53554646494349454e545f494e5055545f414d4f554e54556e697377617056323a20494e53554646494349454e545f4c4951554944495459556e697377617056323a20494e53554646494349454e545f4c49515549444954595f4255524e4544556e697377617056323a20494e53554646494349454e545f4c49515549444954595f4d494e544544a26469706673582212204d0e062a58044b06455a0cb1cb3e907be579221a64842331bb3022f12dcb26a164736f6c63430006060033a2646970667358221220ac12310560adb6098594f287bba50a91d4b6568213014923cb47bfb4793eb14064736f6c63430006060033",
  "immutableReferences": {},
  "source": "pragma solidity >=0.4.23 <0.8.0;\r\n\r\nimport './interfaces/IUniswapV2Factory.sol';\r\nimport './UniswapV2Pair.sol';\r\n\r\ncontract UniswapV2Factory is IUniswapV2Factory {\r\n    address public override feeTo;\r\n    address public override feeToSetter;\r\n\r\n    mapping(address => mapping(address => address)) public override getPair;\r\n    address[] public override allPairs;\r\n\r\n    event PairCreated(address indexed token0, address indexed token1, address pair, uint);\r\n\r\n    constructor(address _feeToSetter) public {\r\n        feeToSetter = _feeToSetter;\r\n    }\r\n\r\n    function allPairsLength() external override view returns (uint) {\r\n        return allPairs.length;\r\n    }\r\n\r\n    function createPair(address tokenA, address tokenB) external override returns (address pair) {\r\n        require(tokenA != tokenB, 'UniswapV2: IDENTICAL_ADDRESSES');\r\n        (address token0, address token1) = tokenA < tokenB ? (tokenA, tokenB) : (tokenB, tokenA);\r\n        require(token0 != address(0), 'UniswapV2: ZERO_ADDRESS');\r\n        require(getPair[token0][token1] == address(0), 'UniswapV2: PAIR_EXISTS'); // single check is sufficient\r\n        bytes memory bytecode = type(UniswapV2Pair).creationCode;\r\n        bytes32 salt = keccak256(abi.encodePacked(token0, token1));\r\n        assembly {\r\n            pair := create2(0, add(bytecode, 32), mload(bytecode), salt)\r\n        }\r\n        IUniswapV2Pair(pair).initialize(token0, token1);\r\n        getPair[token0][token1] = pair;\r\n        getPair[token1][token0] = pair; // populate mapping in the reverse direction\r\n        allPairs.push(pair);\r\n        emit PairCreated(token0, token1, pair, allPairs.length);\r\n    }\r\n\r\n    function setFeeTo(address _feeTo) external override {\r\n        require(msg.sender == feeToSetter, 'UniswapV2: FORBIDDEN');\r\n        feeTo = _feeTo;\r\n    }\r\n\r\n    function setFeeToSetter(address _feeToSetter) external override {\r\n        require(msg.sender == feeToSetter, 'UniswapV2: FORBIDDEN');\r\n        feeToSetter = _feeToSetter;\r\n    }\r\n}\r\n",
  "sourcePath": "C:/Users/sonic/Desktop/Unbound/contracts/uniswap/UniswapV2Factory.sol",
  "compiler": {
    "name": "solc",
    "version": "0.6.6+commit.6c089d02.Emscripten.clang"
  },
  "schemaVersion": "3.2.3",
  "updatedAt": "2020-09-16T17:20:25.310Z",
  "networkType": "ethereum",
  "devdoc": {
    "methods": {}
  },
  "userdoc": {
    "methods": {}
  }
}