{
  "contractName": "UniswapV2Router01",
  "abi": [
    {
      "inputs": [
        {
          "internalType": "address",
          "name": "_factory",
          "type": "address"
        },
        {
          "internalType": "address",
          "name": "_WETH",
          "type": "address"
        }
      ],
      "stateMutability": "nonpayable",
      "type": "constructor"
    },
    {
      "inputs": [],
      "name": "WETH",
      "outputs": [
        {
          "internalType": "address",
          "name": "",
          "type": "address"
        }
      ],
      "stateMutability": "view",
      "type": "function"
    },
    {
      "inputs": [],
      "name": "factory",
      "outputs": [
        {
          "internalType": "address",
          "name": "",
          "type": "address"
        }
      ],
      "stateMutability": "view",
      "type": "function"
    },
    {
      "stateMutability": "payable",
      "type": "receive"
    },
    {
      "inputs": [
        {
          "internalType": "address",
          "name": "tokenA",
          "type": "address"
        },
        {
          "internalType": "address",
          "name": "tokenB",
          "type": "address"
        },
        {
          "internalType": "uint256",
          "name": "amountADesired",
          "type": "uint256"
        },
        {
          "internalType": "uint256",
          "name": "amountBDesired",
          "type": "uint256"
        },
        {
          "internalType": "uint256",
          "name": "amountAMin",
          "type": "uint256"
        },
        {
          "internalType": "uint256",
          "name": "amountBMin",
          "type": "uint256"
        },
        {
          "internalType": "address",
          "name": "to",
          "type": "address"
        },
        {
          "internalType": "uint256",
          "name": "deadline",
          "type": "uint256"
        }
      ],
      "name": "addLiquidity",
      "outputs": [
        {
          "internalType": "uint256",
          "name": "amountA",
          "type": "uint256"
        },
        {
          "internalType": "uint256",
          "name": "amountB",
          "type": "uint256"
        },
        {
          "internalType": "uint256",
          "name": "liquidity",
          "type": "uint256"
        }
      ],
      "stateMutability": "nonpayable",
      "type": "function"
    },
    {
      "inputs": [
        {
          "internalType": "address",
          "name": "token",
          "type": "address"
        },
        {
          "internalType": "uint256",
          "name": "amountTokenDesired",
          "type": "uint256"
        },
        {
          "internalType": "uint256",
          "name": "amountTokenMin",
          "type": "uint256"
        },
        {
          "internalType": "uint256",
          "name": "amountETHMin",
          "type": "uint256"
        },
        {
          "internalType": "address",
          "name": "to",
          "type": "address"
        },
        {
          "internalType": "uint256",
          "name": "deadline",
          "type": "uint256"
        }
      ],
      "name": "addLiquidityETH",
      "outputs": [
        {
          "internalType": "uint256",
          "name": "amountToken",
          "type": "uint256"
        },
        {
          "internalType": "uint256",
          "name": "amountETH",
          "type": "uint256"
        },
        {
          "internalType": "uint256",
          "name": "liquidity",
          "type": "uint256"
        }
      ],
      "stateMutability": "payable",
      "type": "function"
    },
    {
      "inputs": [
        {
          "internalType": "address",
          "name": "tokenA",
          "type": "address"
        },
        {
          "internalType": "address",
          "name": "tokenB",
          "type": "address"
        },
        {
          "internalType": "uint256",
          "name": "liquidity",
          "type": "uint256"
        },
        {
          "internalType": "uint256",
          "name": "amountAMin",
          "type": "uint256"
        },
        {
          "internalType": "uint256",
          "name": "amountBMin",
          "type": "uint256"
        },
        {
          "internalType": "address",
          "name": "to",
          "type": "address"
        },
        {
          "internalType": "uint256",
          "name": "deadline",
          "type": "uint256"
        }
      ],
      "name": "removeLiquidity",
      "outputs": [
        {
          "internalType": "uint256",
          "name": "amountA",
          "type": "uint256"
        },
        {
          "internalType": "uint256",
          "name": "amountB",
          "type": "uint256"
        }
      ],
      "stateMutability": "nonpayable",
      "type": "function"
    },
    {
      "inputs": [
        {
          "internalType": "address",
          "name": "token",
          "type": "address"
        },
        {
          "internalType": "uint256",
          "name": "liquidity",
          "type": "uint256"
        },
        {
          "internalType": "uint256",
          "name": "amountTokenMin",
          "type": "uint256"
        },
        {
          "internalType": "uint256",
          "name": "amountETHMin",
          "type": "uint256"
        },
        {
          "internalType": "address",
          "name": "to",
          "type": "address"
        },
        {
          "internalType": "uint256",
          "name": "deadline",
          "type": "uint256"
        }
      ],
      "name": "removeLiquidityETH",
      "outputs": [
        {
          "internalType": "uint256",
          "name": "amountToken",
          "type": "uint256"
        },
        {
          "internalType": "uint256",
          "name": "amountETH",
          "type": "uint256"
        }
      ],
      "stateMutability": "nonpayable",
      "type": "function"
    },
    {
      "inputs": [
        {
          "internalType": "address",
          "name": "tokenA",
          "type": "address"
        },
        {
          "internalType": "address",
          "name": "tokenB",
          "type": "address"
        },
        {
          "internalType": "uint256",
          "name": "liquidity",
          "type": "uint256"
        },
        {
          "internalType": "uint256",
          "name": "amountAMin",
          "type": "uint256"
        },
        {
          "internalType": "uint256",
          "name": "amountBMin",
          "type": "uint256"
        },
        {
          "internalType": "address",
          "name": "to",
          "type": "address"
        },
        {
          "internalType": "uint256",
          "name": "deadline",
          "type": "uint256"
        },
        {
          "internalType": "bool",
          "name": "approveMax",
          "type": "bool"
        },
        {
          "internalType": "uint8",
          "name": "v",
          "type": "uint8"
        },
        {
          "internalType": "bytes32",
          "name": "r",
          "type": "bytes32"
        },
        {
          "internalType": "bytes32",
          "name": "s",
          "type": "bytes32"
        }
      ],
      "name": "removeLiquidityWithPermit",
      "outputs": [
        {
          "internalType": "uint256",
          "name": "amountA",
          "type": "uint256"
        },
        {
          "internalType": "uint256",
          "name": "amountB",
          "type": "uint256"
        }
      ],
      "stateMutability": "nonpayable",
      "type": "function"
    },
    {
      "inputs": [
        {
          "internalType": "address",
          "name": "token",
          "type": "address"
        },
        {
          "internalType": "uint256",
          "name": "liquidity",
          "type": "uint256"
        },
        {
          "internalType": "uint256",
          "name": "amountTokenMin",
          "type": "uint256"
        },
        {
          "internalType": "uint256",
          "name": "amountETHMin",
          "type": "uint256"
        },
        {
          "internalType": "address",
          "name": "to",
          "type": "address"
        },
        {
          "internalType": "uint256",
          "name": "deadline",
          "type": "uint256"
        },
        {
          "internalType": "bool",
          "name": "approveMax",
          "type": "bool"
        },
        {
          "internalType": "uint8",
          "name": "v",
          "type": "uint8"
        },
        {
          "internalType": "bytes32",
          "name": "r",
          "type": "bytes32"
        },
        {
          "internalType": "bytes32",
          "name": "s",
          "type": "bytes32"
        }
      ],
      "name": "removeLiquidityETHWithPermit",
      "outputs": [
        {
          "internalType": "uint256",
          "name": "amountToken",
          "type": "uint256"
        },
        {
          "internalType": "uint256",
          "name": "amountETH",
          "type": "uint256"
        }
      ],
      "stateMutability": "nonpayable",
      "type": "function"
    },
    {
      "inputs": [
        {
          "internalType": "uint256",
          "name": "amountIn",
          "type": "uint256"
        },
        {
          "internalType": "uint256",
          "name": "amountOutMin",
          "type": "uint256"
        },
        {
          "internalType": "address[]",
          "name": "path",
          "type": "address[]"
        },
        {
          "internalType": "address",
          "name": "to",
          "type": "address"
        },
        {
          "internalType": "uint256",
          "name": "deadline",
          "type": "uint256"
        }
      ],
      "name": "swapExactTokensForTokens",
      "outputs": [
        {
          "internalType": "uint256[]",
          "name": "amounts",
          "type": "uint256[]"
        }
      ],
      "stateMutability": "nonpayable",
      "type": "function"
    },
    {
      "inputs": [
        {
          "internalType": "uint256",
          "name": "amountOut",
          "type": "uint256"
        },
        {
          "internalType": "uint256",
          "name": "amountInMax",
          "type": "uint256"
        },
        {
          "internalType": "address[]",
          "name": "path",
          "type": "address[]"
        },
        {
          "internalType": "address",
          "name": "to",
          "type": "address"
        },
        {
          "internalType": "uint256",
          "name": "deadline",
          "type": "uint256"
        }
      ],
      "name": "swapTokensForExactTokens",
      "outputs": [
        {
          "internalType": "uint256[]",
          "name": "amounts",
          "type": "uint256[]"
        }
      ],
      "stateMutability": "nonpayable",
      "type": "function"
    },
    {
      "inputs": [
        {
          "internalType": "uint256",
          "name": "amountOutMin",
          "type": "uint256"
        },
        {
          "internalType": "address[]",
          "name": "path",
          "type": "address[]"
        },
        {
          "internalType": "address",
          "name": "to",
          "type": "address"
        },
        {
          "internalType": "uint256",
          "name": "deadline",
          "type": "uint256"
        }
      ],
      "name": "swapExactETHForTokens",
      "outputs": [
        {
          "internalType": "uint256[]",
          "name": "amounts",
          "type": "uint256[]"
        }
      ],
      "stateMutability": "payable",
      "type": "function"
    },
    {
      "inputs": [
        {
          "internalType": "uint256",
          "name": "amountOut",
          "type": "uint256"
        },
        {
          "internalType": "uint256",
          "name": "amountInMax",
          "type": "uint256"
        },
        {
          "internalType": "address[]",
          "name": "path",
          "type": "address[]"
        },
        {
          "internalType": "address",
          "name": "to",
          "type": "address"
        },
        {
          "internalType": "uint256",
          "name": "deadline",
          "type": "uint256"
        }
      ],
      "name": "swapTokensForExactETH",
      "outputs": [
        {
          "internalType": "uint256[]",
          "name": "amounts",
          "type": "uint256[]"
        }
      ],
      "stateMutability": "nonpayable",
      "type": "function"
    },
    {
      "inputs": [
        {
          "internalType": "uint256",
          "name": "amountIn",
          "type": "uint256"
        },
        {
          "internalType": "uint256",
          "name": "amountOutMin",
          "type": "uint256"
        },
        {
          "internalType": "address[]",
          "name": "path",
          "type": "address[]"
        },
        {
          "internalType": "address",
          "name": "to",
          "type": "address"
        },
        {
          "internalType": "uint256",
          "name": "deadline",
          "type": "uint256"
        }
      ],
      "name": "swapExactTokensForETH",
      "outputs": [
        {
          "internalType": "uint256[]",
          "name": "amounts",
          "type": "uint256[]"
        }
      ],
      "stateMutability": "nonpayable",
      "type": "function"
    },
    {
      "inputs": [
        {
          "internalType": "uint256",
          "name": "amountOut",
          "type": "uint256"
        },
        {
          "internalType": "address[]",
          "name": "path",
          "type": "address[]"
        },
        {
          "internalType": "address",
          "name": "to",
          "type": "address"
        },
        {
          "internalType": "uint256",
          "name": "deadline",
          "type": "uint256"
        }
      ],
      "name": "swapETHForExactTokens",
      "outputs": [
        {
          "internalType": "uint256[]",
          "name": "amounts",
          "type": "uint256[]"
        }
      ],
      "stateMutability": "payable",
      "type": "function"
    },
    {
      "inputs": [
        {
          "internalType": "uint256",
          "name": "amountA",
          "type": "uint256"
        },
        {
          "internalType": "uint256",
          "name": "reserveA",
          "type": "uint256"
        },
        {
          "internalType": "uint256",
          "name": "reserveB",
          "type": "uint256"
        }
      ],
      "name": "quote",
      "outputs": [
        {
          "internalType": "uint256",
          "name": "amountB",
          "type": "uint256"
        }
      ],
      "stateMutability": "pure",
      "type": "function"
    },
    {
      "inputs": [
        {
          "internalType": "uint256",
          "name": "amountIn",
          "type": "uint256"
        },
        {
          "internalType": "uint256",
          "name": "reserveIn",
          "type": "uint256"
        },
        {
          "internalType": "uint256",
          "name": "reserveOut",
          "type": "uint256"
        }
      ],
      "name": "getAmountOut",
      "outputs": [
        {
          "internalType": "uint256",
          "name": "amountOut",
          "type": "uint256"
        }
      ],
      "stateMutability": "pure",
      "type": "function"
    },
    {
      "inputs": [
        {
          "internalType": "uint256",
          "name": "amountOut",
          "type": "uint256"
        },
        {
          "internalType": "uint256",
          "name": "reserveIn",
          "type": "uint256"
        },
        {
          "internalType": "uint256",
          "name": "reserveOut",
          "type": "uint256"
        }
      ],
      "name": "getAmountIn",
      "outputs": [
        {
          "internalType": "uint256",
          "name": "amountIn",
          "type": "uint256"
        }
      ],
      "stateMutability": "pure",
      "type": "function"
    },
    {
      "inputs": [
        {
          "internalType": "uint256",
          "name": "amountIn",
          "type": "uint256"
        },
        {
          "internalType": "address[]",
          "name": "path",
          "type": "address[]"
        }
      ],
      "name": "getAmountsOut",
      "outputs": [
        {
          "internalType": "uint256[]",
          "name": "amounts",
          "type": "uint256[]"
        }
      ],
      "stateMutability": "view",
      "type": "function"
    },
    {
      "inputs": [
        {
          "internalType": "uint256",
          "name": "amountOut",
          "type": "uint256"
        },
        {
          "internalType": "address[]",
          "name": "path",
          "type": "address[]"
        }
      ],
      "name": "getAmountsIn",
      "outputs": [
        {
          "internalType": "uint256[]",
          "name": "amounts",
          "type": "uint256[]"
        }
      ],
      "stateMutability": "view",
      "type": "function"
    }
  ],
  "bytecode": "0x60c060405234801561001057600080fd5b506040516135db3803806135db8339818101604052604081101561003357600080fd5b5080516020909101516001600160601b0319606092831b8116608052911b1660a05260805160601c60a05160601c61349f61013c600039806101285280610a015280610a3c5280610b335280610d5152806110db528061125f52806113a5528061142d528061168252806119725280611be55280611c3b5280611c6f5280611ce35280611e835280611fc6528061204e525080610bc15280610c985280610e175280610e505280610f8b528061116952806112f2528061145f52806115d252806116ff52806118f7528061192052806119505280611abd5280611c195280611f16528061208052806128ee52806129315280612d785280612e265280612ea6525061349f6000f3fe6080604052600436106101185760003560e01c80638803dbee116100a0578063d06ca61f11610064578063d06ca61f14610742578063ded9382a146107f7578063e8e337001461086a578063f305d719146108ea578063fb3bdb411461093057610151565b80638803dbee146105d3578063ad5c464814610669578063ad615dec1461069a578063baa2abde146106d0578063c45a01551461072d57610151565b80632195995c116100e75780632195995c146103a557806338ed1739146104235780634a25d94a146104b95780637ff36ab51461054f57806385f8c259146101c257610151565b806302751cec14610156578063054d50d4146101c257806318cbafe51461020a5780631f00ca74146102f057610151565b3661015157336001600160a01b037f0000000000000000000000000000000000000000000000000000000000000000161461014f57fe5b005b600080fd5b34801561016257600080fd5b506101a9600480360360c081101561017957600080fd5b506001600160a01b0381358116916020810135916040820135916060810135916080820135169060a001356109b4565b6040805192835260208301919091528051918290030190f35b3480156101ce57600080fd5b506101f8600480360360608110156101e557600080fd5b5080359060208101359060400135610ace565b60408051918252519081900360200190f35b34801561021657600080fd5b506102a0600480360360a081101561022d57600080fd5b813591602081013591810190606081016040820135600160201b81111561025357600080fd5b82018360208201111561026557600080fd5b803590602001918460208302840111600160201b8311171561028657600080fd5b91935091506001600160a01b038135169060200135610ae3565b60408051602080825283518183015283519192839290830191858101910280838360005b838110156102dc5781810151838201526020016102c4565b505050509050019250505060405180910390f35b3480156102fc57600080fd5b506102a06004803603604081101561031357600080fd5b81359190810190604081016020820135600160201b81111561033457600080fd5b82018360208201111561034657600080fd5b803590602001918460208302840111600160201b8311171561036757600080fd5b919080806020026020016040519081016040528093929190818152602001838360200280828437600092019190915250929550610e10945050505050565b3480156103b157600080fd5b506101a960048036036101608110156103c957600080fd5b506001600160a01b038135811691602081013582169160408201359160608101359160808201359160a08101359091169060c08101359060e081013515159060ff6101008201351690610120810135906101400135610e46565b34801561042f57600080fd5b506102a0600480360360a081101561044657600080fd5b813591602081013591810190606081016040820135600160201b81111561046c57600080fd5b82018360208201111561047e57600080fd5b803590602001918460208302840111600160201b8311171561049f57600080fd5b91935091506001600160a01b038135169060200135610f40565b3480156104c557600080fd5b506102a0600480360360a08110156104dc57600080fd5b813591602081013591810190606081016040820135600160201b81111561050257600080fd5b82018360208201111561051457600080fd5b803590602001918460208302840111600160201b8311171561053557600080fd5b91935091506001600160a01b03813516906020013561108b565b6102a06004803603608081101561056557600080fd5b81359190810190604081016020820135600160201b81111561058657600080fd5b82018360208201111561059857600080fd5b803590602001918460208302840111600160201b831117156105b957600080fd5b91935091506001600160a01b038135169060200135611217565b3480156105df57600080fd5b506102a0600480360360a08110156105f657600080fd5b813591602081013591810190606081016040820135600160201b81111561061c57600080fd5b82018360208201111561062e57600080fd5b803590602001918460208302840111600160201b8311171561064f57600080fd5b91935091506001600160a01b038135169060200135611587565b34801561067557600080fd5b5061067e611680565b604080516001600160a01b039092168252519081900360200190f35b3480156106a657600080fd5b506101f8600480360360608110156106bd57600080fd5b50803590602081013590604001356116a4565b3480156106dc57600080fd5b506101a9600480360360e08110156106f357600080fd5b506001600160a01b038135811691602081013582169160408201359160608101359160808201359160a08101359091169060c001356116b1565b34801561073957600080fd5b5061067e6118f5565b34801561074e57600080fd5b506102a06004803603604081101561076557600080fd5b81359190810190604081016020820135600160201b81111561078657600080fd5b82018360208201111561079857600080fd5b803590602001918460208302840111600160201b831117156107b957600080fd5b919080806020026020016040519081016040528093929190818152602001838360200280828437600092019190915250929550611919945050505050565b34801561080357600080fd5b506101a9600480360361014081101561081b57600080fd5b506001600160a01b0381358116916020810135916040820135916060810135916080820135169060a08101359060c081013515159060ff60e08201351690610100810135906101200135611946565b34801561087657600080fd5b506108cc600480360361010081101561088e57600080fd5b506001600160a01b038135811691602081013582169160408201359160608101359160808201359160a08101359160c0820135169060e00135611a5a565b60408051938452602084019290925282820152519081900360600190f35b6108cc600480360360c081101561090057600080fd5b506001600160a01b0381358116916020810135916040820135916060810135916080820135169060a00135611b96565b6102a06004803603608081101561094657600080fd5b81359190810190604081016020820135600160201b81111561096757600080fd5b82018360208201111561097957600080fd5b803590602001918460208302840111600160201b8311171561099a57600080fd5b91935091506001600160a01b038135169060200135611e3b565b60008082428110156109fb576040805162461bcd60e51b8152602060048201526018602482015260008051602061344a833981519152604482015290519081900360640190fd5b610a2a897f00000000000000000000000000000000000000000000000000000000000000008a8a8a308a6116b1565b9093509150610a3a8986856121bd565b7f00000000000000000000000000000000000000000000000000000000000000006001600160a01b0316632e1a7d4d836040518263ffffffff1660e01b815260040180828152602001915050600060405180830381600087803b158015610aa057600080fd5b505af1158015610ab4573d6000803e3d6000fd5b50505050610ac28583612327565b50965096945050505050565b6000610adb84848461241f565b949350505050565b60608142811015610b29576040805162461bcd60e51b8152602060048201526018602482015260008051602061344a833981519152604482015290519081900360640190fd5b6001600160a01b037f00000000000000000000000000000000000000000000000000000000000000001686866000198101818110610b6357fe5b905060200201356001600160a01b03166001600160a01b031614610bbc576040805162461bcd60e51b815260206004820152601d6024820152600080516020613367833981519152604482015290519081900360640190fd5b610c1a7f00000000000000000000000000000000000000000000000000000000000000008988888080602002602001604051908101604052809392919081815260200183836020028082843760009201919091525061250f92505050565b91508682600184510381518110610c2d57fe5b60200260200101511015610c725760405162461bcd60e51b815260040180806020018281038252602b8152602001806133d0602b913960400191505060405180910390fd5b610d1086866000818110610c8257fe5b905060200201356001600160a01b031633610cf67f00000000000000000000000000000000000000000000000000000000000000008a8a6000818110610cc457fe5b905060200201356001600160a01b03168b8b6001818110610ce157fe5b905060200201356001600160a01b031661265b565b85600081518110610d0357fe5b60200260200101516126e2565b610d4f8287878080602002602001604051908101604052809392919081815260200183836020028082843760009201919091525030925061283f915050565b7f00000000000000000000000000000000000000000000000000000000000000006001600160a01b0316632e1a7d4d83600185510381518110610d8e57fe5b60200260200101516040518263ffffffff1660e01b815260040180828152602001915050600060405180830381600087803b158015610dcc57600080fd5b505af1158015610de0573d6000803e3d6000fd5b50505050610e058483600185510381518110610df857fe5b6020026020010151612327565b509695505050505050565b6060610e3d7f00000000000000000000000000000000000000000000000000000000000000008484612a85565b90505b92915050565b6000806000610e767f00000000000000000000000000000000000000000000000000000000000000008f8f61265b565b9050600087610e85578c610e89565b6000195b6040805163d505accf60e01b815233600482015230602482015260448101839052606481018c905260ff8a16608482015260a4810189905260c4810188905290519192506001600160a01b0384169163d505accf9160e48082019260009290919082900301818387803b158015610eff57600080fd5b505af1158015610f13573d6000803e3d6000fd5b50505050610f268f8f8f8f8f8f8f6116b1565b809450819550505050509b509b9950505050505050505050565b60608142811015610f86576040805162461bcd60e51b8152602060048201526018602482015260008051602061344a833981519152604482015290519081900360640190fd5b610fe47f00000000000000000000000000000000000000000000000000000000000000008988888080602002602001604051908101604052809392919081815260200183836020028082843760009201919091525061250f92505050565b91508682600184510381518110610ff757fe5b6020026020010151101561103c5760405162461bcd60e51b815260040180806020018281038252602b8152602001806133d0602b913960400191505060405180910390fd5b61104c86866000818110610c8257fe5b610e058287878080602002602001604051908101604052809392919081815260200183836020028082843760009201919091525089925061283f915050565b606081428110156110d1576040805162461bcd60e51b8152602060048201526018602482015260008051602061344a833981519152604482015290519081900360640190fd5b6001600160a01b037f0000000000000000000000000000000000000000000000000000000000000000168686600019810181811061110b57fe5b905060200201356001600160a01b03166001600160a01b031614611164576040805162461bcd60e51b815260206004820152601d6024820152600080516020613367833981519152604482015290519081900360640190fd5b6111c27f000000000000000000000000000000000000000000000000000000000000000089888880806020026020016040519081016040528093929190818152602001838360200280828437600092019190915250612a8592505050565b915086826000815181106111d257fe5b60200260200101511115610c725760405162461bcd60e51b81526004018080602001828103825260278152602001806133406027913960400191505060405180910390fd5b6060814281101561125d576040805162461bcd60e51b8152602060048201526018602482015260008051602061344a833981519152604482015290519081900360640190fd5b7f00000000000000000000000000000000000000000000000000000000000000006001600160a01b03168686600081811061129457fe5b905060200201356001600160a01b03166001600160a01b0316146112ed576040805162461bcd60e51b815260206004820152601d6024820152600080516020613367833981519152604482015290519081900360640190fd5b61134b7f00000000000000000000000000000000000000000000000000000000000000003488888080602002602001604051908101604052809392919081815260200183836020028082843760009201919091525061250f92505050565b9150868260018451038151811061135e57fe5b602002602001015110156113a35760405162461bcd60e51b815260040180806020018281038252602b8152602001806133d0602b913960400191505060405180910390fd5b7f00000000000000000000000000000000000000000000000000000000000000006001600160a01b031663d0e30db0836000815181106113df57fe5b60200260200101516040518263ffffffff1660e01b81526004016000604051808303818588803b15801561141257600080fd5b505af1158015611426573d6000803e3d6000fd5b50505050507f00000000000000000000000000000000000000000000000000000000000000006001600160a01b031663a9059cbb6114a87f00000000000000000000000000000000000000000000000000000000000000008989600081811061148b57fe5b905060200201356001600160a01b03168a8a6001818110610ce157fe5b846000815181106114b557fe5b60200260200101516040518363ffffffff1660e01b815260040180836001600160a01b03166001600160a01b0316815260200182815260200192505050602060405180830381600087803b15801561150c57600080fd5b505af1158015611520573d6000803e3d6000fd5b505050506040513d602081101561153657600080fd5b505161153e57fe5b61157d8287878080602002602001604051908101604052809392919081815260200183836020028082843760009201919091525089925061283f915050565b5095945050505050565b606081428110156115cd576040805162461bcd60e51b8152602060048201526018602482015260008051602061344a833981519152604482015290519081900360640190fd5b61162b7f000000000000000000000000000000000000000000000000000000000000000089888880806020026020016040519081016040528093929190818152602001838360200280828437600092019190915250612a8592505050565b9150868260008151811061163b57fe5b6020026020010151111561103c5760405162461bcd60e51b81526004018080602001828103825260278152602001806133406027913960400191505060405180910390fd5b7f000000000000000000000000000000000000000000000000000000000000000081565b6000610adb848484612bbd565b60008082428110156116f8576040805162461bcd60e51b8152602060048201526018602482015260008051602061344a833981519152604482015290519081900360640190fd5b60006117257f00000000000000000000000000000000000000000000000000000000000000008c8c61265b565b604080516323b872dd60e01b81523360048201526001600160a01b03831660248201819052604482018d9052915192935090916323b872dd916064808201926020929091908290030181600087803b15801561178057600080fd5b505af1158015611794573d6000803e3d6000fd5b505050506040513d60208110156117aa57600080fd5b50506040805163226bf2d160e21b81526001600160a01b03888116600483015282516000938493928616926389afcb44926024808301939282900301818787803b1580156117f757600080fd5b505af115801561180b573d6000803e3d6000fd5b505050506040513d604081101561182157600080fd5b5080516020909101519092509050600061183b8e8e612c69565b509050806001600160a01b03168e6001600160a01b03161461185e578183611861565b82825b90975095508a8710156118a55760405162461bcd60e51b81526004018080602001828103825260268152602001806133876026913960400191505060405180910390fd5b898610156118e45760405162461bcd60e51b81526004018080602001828103825260268152602001806132cd6026913960400191505060405180910390fd5b505050505097509795505050505050565b7f000000000000000000000000000000000000000000000000000000000000000081565b6060610e3d7f0000000000000000000000000000000000000000000000000000000000000000848461250f565b60008060006119967f00000000000000000000000000000000000000000000000000000000000000008e7f000000000000000000000000000000000000000000000000000000000000000061265b565b90506000876119a5578c6119a9565b6000195b6040805163d505accf60e01b815233600482015230602482015260448101839052606481018c905260ff8a16608482015260a4810189905260c4810188905290519192506001600160a01b0384169163d505accf9160e48082019260009290919082900301818387803b158015611a1f57600080fd5b505af1158015611a33573d6000803e3d6000fd5b50505050611a458e8e8e8e8e8e6109b4565b909f909e509c50505050505050505050505050565b60008060008342811015611aa3576040805162461bcd60e51b8152602060048201526018602482015260008051602061344a833981519152604482015290519081900360640190fd5b611ab18c8c8c8c8c8c612d47565b90945092506000611ae37f00000000000000000000000000000000000000000000000000000000000000008e8e61265b565b9050611af18d3383886126e2565b611afd8c3383876126e2565b806001600160a01b0316636a627842886040518263ffffffff1660e01b815260040180826001600160a01b03166001600160a01b03168152602001915050602060405180830381600087803b158015611b5557600080fd5b505af1158015611b69573d6000803e3d6000fd5b505050506040513d6020811015611b7f57600080fd5b5051949d939c50939a509198505050505050505050565b60008060008342811015611bdf576040805162461bcd60e51b8152602060048201526018602482015260008051602061344a833981519152604482015290519081900360640190fd5b611c0d8a7f00000000000000000000000000000000000000000000000000000000000000008b348c8c612d47565b90945092506000611c5f7f00000000000000000000000000000000000000000000000000000000000000008c7f000000000000000000000000000000000000000000000000000000000000000061265b565b9050611c6d8b3383886126e2565b7f00000000000000000000000000000000000000000000000000000000000000006001600160a01b031663d0e30db0856040518263ffffffff1660e01b81526004016000604051808303818588803b158015611cc857600080fd5b505af1158015611cdc573d6000803e3d6000fd5b50505050507f00000000000000000000000000000000000000000000000000000000000000006001600160a01b031663a9059cbb82866040518363ffffffff1660e01b815260040180836001600160a01b03166001600160a01b0316815260200182815260200192505050602060405180830381600087803b158015611d6157600080fd5b505af1158015611d75573d6000803e3d6000fd5b505050506040513d6020811015611d8b57600080fd5b5051611d9357fe5b806001600160a01b0316636a627842886040518263ffffffff1660e01b815260040180826001600160a01b03166001600160a01b03168152602001915050602060405180830381600087803b158015611deb57600080fd5b505af1158015611dff573d6000803e3d6000fd5b505050506040513d6020811015611e1557600080fd5b5051925034841015611e2d57611e2d33853403612327565b505096509650969350505050565b60608142811015611e81576040805162461bcd60e51b8152602060048201526018602482015260008051602061344a833981519152604482015290519081900360640190fd5b7f00000000000000000000000000000000000000000000000000000000000000006001600160a01b031686866000818110611eb857fe5b905060200201356001600160a01b03166001600160a01b031614611f11576040805162461bcd60e51b815260206004820152601d6024820152600080516020613367833981519152604482015290519081900360640190fd5b611f6f7f000000000000000000000000000000000000000000000000000000000000000088888880806020026020016040519081016040528093929190818152602001838360200280828437600092019190915250612a8592505050565b91503482600081518110611f7f57fe5b60200260200101511115611fc45760405162461bcd60e51b81526004018080602001828103825260278152602001806133406027913960400191505060405180910390fd5b7f00000000000000000000000000000000000000000000000000000000000000006001600160a01b031663d0e30db08360008151811061200057fe5b60200260200101516040518263ffffffff1660e01b81526004016000604051808303818588803b15801561203357600080fd5b505af1158015612047573d6000803e3d6000fd5b50505050507f00000000000000000000000000000000000000000000000000000000000000006001600160a01b031663a9059cbb6120ac7f00000000000000000000000000000000000000000000000000000000000000008989600081811061148b57fe5b846000815181106120b957fe5b60200260200101516040518363ffffffff1660e01b815260040180836001600160a01b03166001600160a01b0316815260200182815260200192505050602060405180830381600087803b15801561211057600080fd5b505af1158015612124573d6000803e3d6000fd5b505050506040513d602081101561213a57600080fd5b505161214257fe5b6121818287878080602002602001604051908101604052809392919081815260200183836020028082843760009201919091525089925061283f915050565b8160008151811061218e57fe5b602002602001015134111561157d5761157d33836000815181106121ae57fe5b60200260200101513403612327565b604080516001600160a01b038481166024830152604480830185905283518084039091018152606490920183526020820180516001600160e01b031663a9059cbb60e01b178152925182516000946060949389169392918291908083835b6020831061223a5780518252601f19909201916020918201910161221b565b6001836020036101000a0380198251168184511680821785525050505050509050019150506000604051808303816000865af19150503d806000811461229c576040519150601f19603f3d011682016040523d82523d6000602084013e6122a1565b606091505b50915091508180156122cf5750805115806122cf57508080602001905160208110156122cc57600080fd5b50515b612320576040805162461bcd60e51b815260206004820152601f60248201527f5472616e7366657248656c7065723a205452414e534645525f4641494c454400604482015290519081900360640190fd5b5050505050565b604080516000808252602082019092526001600160a01b0384169083906040518082805190602001908083835b602083106123735780518252601f199092019160209182019101612354565b6001836020036101000a03801982511681845116808217855250505050505090500191505060006040518083038185875af1925050503d80600081146123d5576040519150601f19603f3d011682016040523d82523d6000602084013e6123da565b606091505b505090508061241a5760405162461bcd60e51b81526004018080602001828103825260238152602001806133ad6023913960400191505060405180910390fd5b505050565b600080841161245f5760405162461bcd60e51b815260040180806020018281038252602b81526020018061341f602b913960400191505060405180910390fd5b60008311801561246f5750600082115b6124aa5760405162461bcd60e51b81526004018080602001828103825260288152602001806132f36028913960400191505060405180910390fd5b60006124be856103e563ffffffff612fbb16565b905060006124d2828563ffffffff612fbb16565b905060006124f8836124ec886103e863ffffffff612fbb16565b9063ffffffff61301e16565b905080828161250357fe5b04979650505050505050565b6060600282511015612568576040805162461bcd60e51b815260206004820152601e60248201527f556e697377617056324c6962726172793a20494e56414c49445f504154480000604482015290519081900360640190fd5b815167ffffffffffffffff8111801561258057600080fd5b506040519080825280602002602001820160405280156125aa578160200160208202803683370190505b50905082816000815181106125bb57fe5b60200260200101818152505060005b60018351038110156126535760008061260d878685815181106125e957fe5b602002602001015187866001018151811061260057fe5b602002602001015161306d565b9150915061262f84848151811061262057fe5b6020026020010151838361241f565b84846001018151811061263e57fe5b602090810291909101015250506001016125ca565b509392505050565b6040805163e6a4390560e01b81526001600160a01b0384811660048301528381166024830152915160009286169163e6a43905916044808301926020929190829003018186803b1580156126ae57600080fd5b505afa1580156126c2573d6000803e3d6000fd5b505050506040513d60208110156126d857600080fd5b5051949350505050565b604080516001600160a01b0385811660248301528481166044830152606480830185905283518084039091018152608490920183526020820180516001600160e01b03166323b872dd60e01b17815292518251600094606094938a169392918291908083835b602083106127675780518252601f199092019160209182019101612748565b6001836020036101000a0380198251168184511680821785525050505050509050019150506000604051808303816000865af19150503d80600081146127c9576040519150601f19603f3d011682016040523d82523d6000602084013e6127ce565b606091505b50915091508180156127fc5750805115806127fc57508080602001905160208110156127f957600080fd5b50515b6128375760405162461bcd60e51b81526004018080602001828103825260248152602001806133fb6024913960400191505060405180910390fd5b505050505050565b60005b6001835103811015612a7f5760008084838151811061285d57fe5b602002602001015185846001018151811061287457fe5b602002602001015191509150600061288c8383612c69565b50905060008785600101815181106128a057fe5b60200260200101519050600080836001600160a01b0316866001600160a01b0316146128ce578260006128d2565b6000835b91509150600060028a510388106128e9578861292a565b61292a7f0000000000000000000000000000000000000000000000000000000000000000878c8b6002018151811061291d57fe5b602002602001015161265b565b90506129577f0000000000000000000000000000000000000000000000000000000000000000888861265b565b6001600160a01b031663022c0d9f84848460006040519080825280601f01601f191660200182016040528015612994576020820181803683370190505b506040518563ffffffff1660e01b815260040180858152602001848152602001836001600160a01b03166001600160a01b0316815260200180602001828103825283818151815260200191508051906020019080838360005b83811015612a055781810151838201526020016129ed565b50505050905090810190601f168015612a325780820380516001836020036101000a031916815260200191505b5095505050505050600060405180830381600087803b158015612a5457600080fd5b505af1158015612a68573d6000803e3d6000fd5b505060019099019850612842975050505050505050565b50505050565b6060600282511015612ade576040805162461bcd60e51b815260206004820152601e60248201527f556e697377617056324c6962726172793a20494e56414c49445f504154480000604482015290519081900360640190fd5b815167ffffffffffffffff81118015612af657600080fd5b50604051908082528060200260200182016040528015612b20578160200160208202803683370190505b5090508281600183510381518110612b3457fe5b60209081029190910101528151600019015b801561265357600080612b7687866001860381518110612b6257fe5b602002602001015187868151811061260057fe5b91509150612b98848481518110612b8957fe5b6020026020010151838361313b565b846001850381518110612ba757fe5b6020908102919091010152505060001901612b46565b6000808411612bfd5760405162461bcd60e51b815260040180806020018281038252602581526020018061331b6025913960400191505060405180910390fd5b600083118015612c0d5750600082115b612c485760405162461bcd60e51b81526004018080602001828103825260288152602001806132f36028913960400191505060405180910390fd5b82612c59858463ffffffff612fbb16565b81612c6057fe5b04949350505050565b600080826001600160a01b0316846001600160a01b03161415612cbd5760405162461bcd60e51b81526004018080602001828103825260258152602001806132a86025913960400191505060405180910390fd5b826001600160a01b0316846001600160a01b031610612cdd578284612ce0565b83835b90925090506001600160a01b038216612d40576040805162461bcd60e51b815260206004820152601e60248201527f556e697377617056324c6962726172793a205a45524f5f414444524553530000604482015290519081900360640190fd5b9250929050565b6040805163e6a4390560e01b81526001600160a01b03888116600483015287811660248301529151600092839283927f00000000000000000000000000000000000000000000000000000000000000009092169163e6a4390591604480820192602092909190829003018186803b158015612dc157600080fd5b505afa158015612dd5573d6000803e3d6000fd5b505050506040513d6020811015612deb57600080fd5b50516001600160a01b03161415612e9e57604080516364e329cb60e11b81526001600160a01b038a81166004830152898116602483015291517f00000000000000000000000000000000000000000000000000000000000000009092169163c9c65396916044808201926020929091908290030181600087803b158015612e7157600080fd5b505af1158015612e85573d6000803e3d6000fd5b505050506040513d6020811015612e9b57600080fd5b50505b600080612ecc7f00000000000000000000000000000000000000000000000000000000000000008b8b61306d565b91509150816000148015612ede575080155b15612eee57879350869250612fae565b6000612efb898484612bbd565b9050878111612f4e5785811015612f435760405162461bcd60e51b81526004018080602001828103825260268152602001806132cd6026913960400191505060405180910390fd5b889450925082612fac565b6000612f5b898486612bbd565b905089811115612f6757fe5b87811015612fa65760405162461bcd60e51b81526004018080602001828103825260268152602001806133876026913960400191505060405180910390fd5b94508793505b505b5050965096945050505050565b6000811580612fd657505080820282828281612fd357fe5b04145b610e40576040805162461bcd60e51b815260206004820152601460248201527364732d6d6174682d6d756c2d6f766572666c6f7760601b604482015290519081900360640190fd5b80820182811015610e40576040805162461bcd60e51b815260206004820152601460248201527364732d6d6174682d6164642d6f766572666c6f7760601b604482015290519081900360640190fd5b600080600061307c8585612c69565b50905060008061308d88888861265b565b6001600160a01b0316630902f1ac6040518163ffffffff1660e01b815260040160606040518083038186803b1580156130c557600080fd5b505afa1580156130d9573d6000803e3d6000fd5b505050506040513d60608110156130ef57600080fd5b5080516020909101516dffffffffffffffffffffffffffff91821693501690506001600160a01b038781169084161461312957808261312c565b81815b90999098509650505050505050565b600080841161317b5760405162461bcd60e51b815260040180806020018281038252602c81526020018061327c602c913960400191505060405180910390fd5b60008311801561318b5750600082115b6131c65760405162461bcd60e51b81526004018080602001828103825260288152602001806132f36028913960400191505060405180910390fd5b60006131ea6103e86131de868863ffffffff612fbb16565b9063ffffffff612fbb16565b905060006132046103e56131de868963ffffffff61322b16565b9050613221600182848161321457fe5b049063ffffffff61301e16565b9695505050505050565b80820382811115610e40576040805162461bcd60e51b815260206004820152601560248201527464732d6d6174682d7375622d756e646572666c6f7760581b604482015290519081900360640190fdfe556e697377617056324c6962726172793a20494e53554646494349454e545f4f55545055545f414d4f554e54556e697377617056324c6962726172793a204944454e544943414c5f414444524553534553556e69737761705632526f757465723a20494e53554646494349454e545f425f414d4f554e54556e697377617056324c6962726172793a20494e53554646494349454e545f4c4951554944495459556e697377617056324c6962726172793a20494e53554646494349454e545f414d4f554e54556e69737761705632526f757465723a204558434553534956455f494e5055545f414d4f554e54556e69737761705632526f757465723a20494e56414c49445f50415448000000556e69737761705632526f757465723a20494e53554646494349454e545f415f414d4f554e545472616e7366657248656c7065723a204554485f5452414e534645525f4641494c4544556e69737761705632526f757465723a20494e53554646494349454e545f4f55545055545f414d4f554e545472616e7366657248656c7065723a205452414e534645525f46524f4d5f4641494c4544556e697377617056324c6962726172793a20494e53554646494349454e545f494e5055545f414d4f554e54556e69737761705632526f757465723a20455850495245440000000000000000a26469706673582212204083e7237ed2ec5ade9cef2512aa2b5f544c6bc6cc51a71cdea1a04ce032c87064736f6c63430006060033",
  "immutableReferences": {
    "18988": [
      {
        "length": 32,
        "start": 3009
      },
      {
        "length": 32,
        "start": 3224
      },
      {
        "length": 32,
        "start": 3607
      },
      {
        "length": 32,
        "start": 3664
      },
      {
        "length": 32,
        "start": 3979
      },
      {
        "length": 32,
        "start": 4457
      },
      {
        "length": 32,
        "start": 4850
      },
      {
        "length": 32,
        "start": 5215
      },
      {
        "length": 32,
        "start": 5586
      },
      {
        "length": 32,
        "start": 5887
      },
      {
        "length": 32,
        "start": 6391
      },
      {
        "length": 32,
        "start": 6432
      },
      {
        "length": 32,
        "start": 6480
      },
      {
        "length": 32,
        "start": 6845
      },
      {
        "length": 32,
        "start": 7193
      },
      {
        "length": 32,
        "start": 7958
      },
      {
        "length": 32,
        "start": 8320
      },
      {
        "length": 32,
        "start": 10478
      },
      {
        "length": 32,
        "start": 10545
      },
      {
        "length": 32,
        "start": 11640
      },
      {
        "length": 32,
        "start": 11814
      },
      {
        "length": 32,
        "start": 11942
      }
    ],
    "18991": [
      {
        "length": 32,
        "start": 296
      },
      {
        "length": 32,
        "start": 2561
      },
      {
        "length": 32,
        "start": 2620
      },
      {
        "length": 32,
        "start": 2867
      },
      {
        "length": 32,
        "start": 3409
      },
      {
        "length": 32,
        "start": 4315
      },
      {
        "length": 32,
        "start": 4703
      },
      {
        "length": 32,
        "start": 5029
      },
      {
        "length": 32,
        "start": 5165
      },
      {
        "length": 32,
        "start": 5762
      },
      {
        "length": 32,
        "start": 6514
      },
      {
        "length": 32,
        "start": 7141
      },
      {
        "length": 32,
        "start": 7227
      },
      {
        "length": 32,
        "start": 7279
      },
      {
        "length": 32,
        "start": 7395
      },
      {
        "length": 32,
        "start": 7811
      },
      {
        "length": 32,
        "start": 8134
      },
      {
        "length": 32,
        "start": 8270
      }
    ]
  },
  "source": "pragma solidity =0.6.6;\r\n\r\nimport '@uniswap/v2-core/contracts/interfaces/IUniswapV2Factory.sol';\r\nimport '@uniswap/lib/contracts/libraries/TransferHelper.sol';\r\n\r\nimport './libraries/UniswapV2Library.sol';\r\nimport './interfaces/IUniswapV2Router01.sol';\r\nimport './interfaces/IERC20_1.sol';\r\nimport './interfaces/IWETH.sol';\r\n\r\ncontract UniswapV2Router01 is IUniswapV2Router01 {\r\n    address public immutable override factory;\r\n    address public immutable override WETH;\r\n\r\n    modifier ensure(uint deadline) {\r\n        require(deadline >= block.timestamp, 'UniswapV2Router: EXPIRED');\r\n        _;\r\n    }\r\n\r\n    constructor(address _factory, address _WETH) public {\r\n        factory = _factory;\r\n        WETH = _WETH;\r\n    }\r\n\r\n    receive() external payable {\r\n        assert(msg.sender == WETH); // only accept ETH via fallback from the WETH contract\r\n    }\r\n\r\n    // **** ADD LIQUIDITY ****\r\n    function _addLiquidity(\r\n        address tokenA,\r\n        address tokenB,\r\n        uint amountADesired,\r\n        uint amountBDesired,\r\n        uint amountAMin,\r\n        uint amountBMin\r\n    ) private returns (uint amountA, uint amountB) {\r\n        // create the pair if it doesn't exist yet\r\n        if (IUniswapV2Factory(factory).getPair(tokenA, tokenB) == address(0)) {\r\n            IUniswapV2Factory(factory).createPair(tokenA, tokenB);\r\n        }\r\n        (uint reserveA, uint reserveB) = UniswapV2Library.getReserves(factory, tokenA, tokenB);\r\n        if (reserveA == 0 && reserveB == 0) {\r\n            (amountA, amountB) = (amountADesired, amountBDesired);\r\n        } else {\r\n            uint amountBOptimal = UniswapV2Library.quote(amountADesired, reserveA, reserveB);\r\n            if (amountBOptimal <= amountBDesired) {\r\n                require(amountBOptimal >= amountBMin, 'UniswapV2Router: INSUFFICIENT_B_AMOUNT');\r\n                (amountA, amountB) = (amountADesired, amountBOptimal);\r\n            } else {\r\n                uint amountAOptimal = UniswapV2Library.quote(amountBDesired, reserveB, reserveA);\r\n                assert(amountAOptimal <= amountADesired);\r\n                require(amountAOptimal >= amountAMin, 'UniswapV2Router: INSUFFICIENT_A_AMOUNT');\r\n                (amountA, amountB) = (amountAOptimal, amountBDesired);\r\n            }\r\n        }\r\n    }\r\n    function addLiquidity(\r\n        address tokenA,\r\n        address tokenB,\r\n        uint amountADesired,\r\n        uint amountBDesired,\r\n        uint amountAMin,\r\n        uint amountBMin,\r\n        address to,\r\n        uint deadline\r\n    ) external override ensure(deadline) returns (uint amountA, uint amountB, uint liquidity) {\r\n        (amountA, amountB) = _addLiquidity(tokenA, tokenB, amountADesired, amountBDesired, amountAMin, amountBMin);\r\n        address pair = UniswapV2Library.pairFor(factory, tokenA, tokenB);\r\n        TransferHelper.safeTransferFrom(tokenA, msg.sender, pair, amountA);\r\n        TransferHelper.safeTransferFrom(tokenB, msg.sender, pair, amountB);\r\n        liquidity = IUniswapV2Pair(pair).mint(to);\r\n    }\r\n    function addLiquidityETH(\r\n        address token,\r\n        uint amountTokenDesired,\r\n        uint amountTokenMin,\r\n        uint amountETHMin,\r\n        address to,\r\n        uint deadline\r\n    ) external override payable ensure(deadline) returns (uint amountToken, uint amountETH, uint liquidity) {\r\n        (amountToken, amountETH) = _addLiquidity(\r\n            token,\r\n            WETH,\r\n            amountTokenDesired,\r\n            msg.value,\r\n            amountTokenMin,\r\n            amountETHMin\r\n        );\r\n        address pair = UniswapV2Library.pairFor(factory, token, WETH);\r\n        TransferHelper.safeTransferFrom(token, msg.sender, pair, amountToken);\r\n        IWETH(WETH).deposit{value: amountETH}();\r\n        assert(IWETH(WETH).transfer(pair, amountETH));\r\n        liquidity = IUniswapV2Pair(pair).mint(to);\r\n        if (msg.value > amountETH) TransferHelper.safeTransferETH(msg.sender, msg.value - amountETH); // refund dust eth, if any\r\n    }\r\n\r\n    // **** REMOVE LIQUIDITY ****\r\n    function removeLiquidity(\r\n        address tokenA,\r\n        address tokenB,\r\n        uint liquidity,\r\n        uint amountAMin,\r\n        uint amountBMin,\r\n        address to,\r\n        uint deadline\r\n    ) public override ensure(deadline) returns (uint amountA, uint amountB) {\r\n        address pair = UniswapV2Library.pairFor(factory, tokenA, tokenB);\r\n        IUniswapV2Pair(pair).transferFrom(msg.sender, pair, liquidity); // send liquidity to pair\r\n        (uint amount0, uint amount1) = IUniswapV2Pair(pair).burn(to);\r\n        (address token0,) = UniswapV2Library.sortTokens(tokenA, tokenB);\r\n        (amountA, amountB) = tokenA == token0 ? (amount0, amount1) : (amount1, amount0);\r\n        require(amountA >= amountAMin, 'UniswapV2Router: INSUFFICIENT_A_AMOUNT');\r\n        require(amountB >= amountBMin, 'UniswapV2Router: INSUFFICIENT_B_AMOUNT');\r\n    }\r\n    function removeLiquidityETH(\r\n        address token,\r\n        uint liquidity,\r\n        uint amountTokenMin,\r\n        uint amountETHMin,\r\n        address to,\r\n        uint deadline\r\n    ) public override ensure(deadline) returns (uint amountToken, uint amountETH) {\r\n        (amountToken, amountETH) = removeLiquidity(\r\n            token,\r\n            WETH,\r\n            liquidity,\r\n            amountTokenMin,\r\n            amountETHMin,\r\n            address(this),\r\n            deadline\r\n        );\r\n        TransferHelper.safeTransfer(token, to, amountToken);\r\n        IWETH(WETH).withdraw(amountETH);\r\n        TransferHelper.safeTransferETH(to, amountETH);\r\n    }\r\n    function removeLiquidityWithPermit(\r\n        address tokenA,\r\n        address tokenB,\r\n        uint liquidity,\r\n        uint amountAMin,\r\n        uint amountBMin,\r\n        address to,\r\n        uint deadline,\r\n        bool approveMax, uint8 v, bytes32 r, bytes32 s\r\n    ) external override returns (uint amountA, uint amountB) {\r\n        address pair = UniswapV2Library.pairFor(factory, tokenA, tokenB);\r\n        uint value = approveMax ? uint(-1) : liquidity;\r\n        IUniswapV2Pair(pair).permit(msg.sender, address(this), value, deadline, v, r, s);\r\n        (amountA, amountB) = removeLiquidity(tokenA, tokenB, liquidity, amountAMin, amountBMin, to, deadline);\r\n    }\r\n    function removeLiquidityETHWithPermit(\r\n        address token,\r\n        uint liquidity,\r\n        uint amountTokenMin,\r\n        uint amountETHMin,\r\n        address to,\r\n        uint deadline,\r\n        bool approveMax, uint8 v, bytes32 r, bytes32 s\r\n    ) external override returns (uint amountToken, uint amountETH) {\r\n        address pair = UniswapV2Library.pairFor(factory, token, WETH);\r\n        uint value = approveMax ? uint(-1) : liquidity;\r\n        IUniswapV2Pair(pair).permit(msg.sender, address(this), value, deadline, v, r, s);\r\n        (amountToken, amountETH) = removeLiquidityETH(token, liquidity, amountTokenMin, amountETHMin, to, deadline);\r\n    }\r\n\r\n    // **** SWAP ****\r\n    // requires the initial amount to have already been sent to the first pair\r\n    function _swap(uint[] memory amounts, address[] memory path, address _to) private {\r\n        for (uint i; i < path.length - 1; i++) {\r\n            (address input, address output) = (path[i], path[i + 1]);\r\n            (address token0,) = UniswapV2Library.sortTokens(input, output);\r\n            uint amountOut = amounts[i + 1];\r\n            (uint amount0Out, uint amount1Out) = input == token0 ? (uint(0), amountOut) : (amountOut, uint(0));\r\n            address to = i < path.length - 2 ? UniswapV2Library.pairFor(factory, output, path[i + 2]) : _to;\r\n            IUniswapV2Pair(UniswapV2Library.pairFor(factory, input, output)).swap(amount0Out, amount1Out, to, new bytes(0));\r\n        }\r\n    }\r\n    function swapExactTokensForTokens(\r\n        uint amountIn,\r\n        uint amountOutMin,\r\n        address[] calldata path,\r\n        address to,\r\n        uint deadline\r\n    ) external override ensure(deadline) returns (uint[] memory amounts) {\r\n        amounts = UniswapV2Library.getAmountsOut(factory, amountIn, path);\r\n        require(amounts[amounts.length - 1] >= amountOutMin, 'UniswapV2Router: INSUFFICIENT_OUTPUT_AMOUNT');\r\n        TransferHelper.safeTransferFrom(path[0], msg.sender, UniswapV2Library.pairFor(factory, path[0], path[1]), amounts[0]);\r\n        _swap(amounts, path, to);\r\n    }\r\n    function swapTokensForExactTokens(\r\n        uint amountOut,\r\n        uint amountInMax,\r\n        address[] calldata path,\r\n        address to,\r\n        uint deadline\r\n    ) external override ensure(deadline) returns (uint[] memory amounts) {\r\n        amounts = UniswapV2Library.getAmountsIn(factory, amountOut, path);\r\n        require(amounts[0] <= amountInMax, 'UniswapV2Router: EXCESSIVE_INPUT_AMOUNT');\r\n        TransferHelper.safeTransferFrom(path[0], msg.sender, UniswapV2Library.pairFor(factory, path[0], path[1]), amounts[0]);\r\n        _swap(amounts, path, to);\r\n    }\r\n    function swapExactETHForTokens(uint amountOutMin, address[] calldata path, address to, uint deadline)\r\n        external\r\n        override\r\n        payable\r\n        ensure(deadline)\r\n        returns (uint[] memory amounts)\r\n    {\r\n        require(path[0] == WETH, 'UniswapV2Router: INVALID_PATH');\r\n        amounts = UniswapV2Library.getAmountsOut(factory, msg.value, path);\r\n        require(amounts[amounts.length - 1] >= amountOutMin, 'UniswapV2Router: INSUFFICIENT_OUTPUT_AMOUNT');\r\n        IWETH(WETH).deposit{value: amounts[0]}();\r\n        assert(IWETH(WETH).transfer(UniswapV2Library.pairFor(factory, path[0], path[1]), amounts[0]));\r\n        _swap(amounts, path, to);\r\n    }\r\n    function swapTokensForExactETH(uint amountOut, uint amountInMax, address[] calldata path, address to, uint deadline)\r\n        external\r\n        override\r\n        ensure(deadline)\r\n        returns (uint[] memory amounts)\r\n    {\r\n        require(path[path.length - 1] == WETH, 'UniswapV2Router: INVALID_PATH');\r\n        amounts = UniswapV2Library.getAmountsIn(factory, amountOut, path);\r\n        require(amounts[0] <= amountInMax, 'UniswapV2Router: EXCESSIVE_INPUT_AMOUNT');\r\n        TransferHelper.safeTransferFrom(path[0], msg.sender, UniswapV2Library.pairFor(factory, path[0], path[1]), amounts[0]);\r\n        _swap(amounts, path, address(this));\r\n        IWETH(WETH).withdraw(amounts[amounts.length - 1]);\r\n        TransferHelper.safeTransferETH(to, amounts[amounts.length - 1]);\r\n    }\r\n    function swapExactTokensForETH(uint amountIn, uint amountOutMin, address[] calldata path, address to, uint deadline)\r\n        external\r\n        override\r\n        ensure(deadline)\r\n        returns (uint[] memory amounts)\r\n    {\r\n        require(path[path.length - 1] == WETH, 'UniswapV2Router: INVALID_PATH');\r\n        amounts = UniswapV2Library.getAmountsOut(factory, amountIn, path);\r\n        require(amounts[amounts.length - 1] >= amountOutMin, 'UniswapV2Router: INSUFFICIENT_OUTPUT_AMOUNT');\r\n        TransferHelper.safeTransferFrom(path[0], msg.sender, UniswapV2Library.pairFor(factory, path[0], path[1]), amounts[0]);\r\n        _swap(amounts, path, address(this));\r\n        IWETH(WETH).withdraw(amounts[amounts.length - 1]);\r\n        TransferHelper.safeTransferETH(to, amounts[amounts.length - 1]);\r\n    }\r\n    function swapETHForExactTokens(uint amountOut, address[] calldata path, address to, uint deadline)\r\n        external\r\n        override\r\n        payable\r\n        ensure(deadline)\r\n        returns (uint[] memory amounts)\r\n    {\r\n        require(path[0] == WETH, 'UniswapV2Router: INVALID_PATH');\r\n        amounts = UniswapV2Library.getAmountsIn(factory, amountOut, path);\r\n        require(amounts[0] <= msg.value, 'UniswapV2Router: EXCESSIVE_INPUT_AMOUNT');\r\n        IWETH(WETH).deposit{value: amounts[0]}();\r\n        assert(IWETH(WETH).transfer(UniswapV2Library.pairFor(factory, path[0], path[1]), amounts[0]));\r\n        _swap(amounts, path, to);\r\n        if (msg.value > amounts[0]) TransferHelper.safeTransferETH(msg.sender, msg.value - amounts[0]); // refund dust eth, if any\r\n    }\r\n\r\n    function quote(uint amountA, uint reserveA, uint reserveB) public pure override returns (uint amountB) {\r\n        return UniswapV2Library.quote(amountA, reserveA, reserveB);\r\n    }\r\n\r\n    function getAmountOut(uint amountIn, uint reserveIn, uint reserveOut) public pure override returns (uint amountOut) {\r\n        return UniswapV2Library.getAmountOut(amountIn, reserveIn, reserveOut);\r\n    }\r\n\r\n    function getAmountIn(uint amountOut, uint reserveIn, uint reserveOut) public pure override returns (uint amountIn) {\r\n        return UniswapV2Library.getAmountOut(amountOut, reserveIn, reserveOut);\r\n    }\r\n\r\n    function getAmountsOut(uint amountIn, address[] memory path) public view override returns (uint[] memory amounts) {\r\n        return UniswapV2Library.getAmountsOut(factory, amountIn, path);\r\n    }\r\n\r\n    function getAmountsIn(uint amountOut, address[] memory path) public view override returns (uint[] memory amounts) {\r\n        return UniswapV2Library.getAmountsIn(factory, amountOut, path);\r\n    }\r\n}\r\n",
  "sourcePath": "C:/Users/sonic/Desktop/Unbound/contracts/uniswapPeriph/UniswapV2Router01.sol",
  "compiler": {
    "name": "solc",
    "version": "0.6.6+commit.6c089d02.Emscripten.clang"
  },
  "schemaVersion": "3.2.3",
  "updatedAt": "2020-09-26T02:28:39.211Z",
  "devdoc": {
    "methods": {}
  },
  "userdoc": {
    "methods": {}
  }
}