{
  "contractName": "Valuing_01",
  "abi": [
    {
      "inputs": [
        {
          "internalType": "address",
          "name": "feeAddr",
          "type": "address"
        },
        {
          "internalType": "address",
          "name": "uDaiAddress",
          "type": "address"
        }
      ],
      "stateMutability": "nonpayable",
      "type": "constructor"
    },
    {
      "inputs": [
        {
          "internalType": "uint256",
          "name": "amount",
          "type": "uint256"
        },
        {
          "internalType": "address",
          "name": "user",
          "type": "address"
        },
        {
          "internalType": "uint8",
          "name": "token",
          "type": "uint8"
        },
        {
          "internalType": "uint32",
          "name": "LLC",
          "type": "uint32"
        },
        {
          "internalType": "uint32",
          "name": "rating",
          "type": "uint32"
        }
      ],
      "name": "unboundCreate",
      "outputs": [],
      "stateMutability": "nonpayable",
      "type": "function"
    },
    {
      "inputs": [
        {
          "internalType": "uint256",
          "name": "toUnlock",
          "type": "uint256"
        },
        {
          "internalType": "uint256",
          "name": "totalLocked",
          "type": "uint256"
        },
        {
          "internalType": "address",
          "name": "user",
          "type": "address"
        },
        {
          "internalType": "uint8",
          "name": "token",
          "type": "uint8"
        },
        {
          "internalType": "uint32",
          "name": "LLC",
          "type": "uint32"
        }
      ],
      "name": "unboundRemove",
      "outputs": [],
      "stateMutability": "nonpayable",
      "type": "function"
    },
    {
      "inputs": [
        {
          "internalType": "address",
          "name": "LLC",
          "type": "address"
        },
        {
          "internalType": "uint32",
          "name": "position",
          "type": "uint32"
        }
      ],
      "name": "addLLC",
      "outputs": [],
      "stateMutability": "nonpayable",
      "type": "function"
    },
    {
      "inputs": [],
      "name": "isOwner",
      "outputs": [
        {
          "internalType": "bool",
          "name": "",
          "type": "bool"
        }
      ],
      "stateMutability": "view",
      "type": "function"
    },
    {
      "inputs": [
        {
          "internalType": "address",
          "name": "_newOwner",
          "type": "address"
        }
      ],
      "name": "setOwner",
      "outputs": [],
      "stateMutability": "nonpayable",
      "type": "function"
    },
    {
      "inputs": [
        {
          "internalType": "address",
          "name": "_newFeeAddr",
          "type": "address"
        }
      ],
      "name": "setFeeHolder",
      "outputs": [],
      "stateMutability": "nonpayable",
      "type": "function"
    }
  ],
  "bytecode": "0x608060405234801561001057600080fd5b50604051610d90380380610d908339818101604052604081101561003357600080fd5b81019080805190602001909291908051906020019092919050505080600660006101000a81548173ffffffffffffffffffffffffffffffffffffffff021916908373ffffffffffffffffffffffffffffffffffffffff160217905550336000806101000a81548173ffffffffffffffffffffffffffffffffffffffff021916908373ffffffffffffffffffffffffffffffffffffffff16021790555081600160006101000a81548173ffffffffffffffffffffffffffffffffffffffff021916908373ffffffffffffffffffffffffffffffffffffffff16021790555061019060028190555060026003819055505050610c5e806101326000396000f3fe608060405234801561001057600080fd5b50600436106100615760003560e01c80623764131461006657806310407f2f146100e157806313af4035146101255780638f32d59b14610169578063d67788781461018b578063e435dc5214610200575b600080fd5b6100df600480360360a081101561007c57600080fd5b8101908080359060200190929190803573ffffffffffffffffffffffffffffffffffffffff169060200190929190803560ff169060200190929190803563ffffffff169060200190929190803563ffffffff169060200190929190505050610254565b005b610123600480360360208110156100f757600080fd5b81019080803573ffffffffffffffffffffffffffffffffffffffff16906020019092919050505061049c565b005b6101676004803603602081101561013b57600080fd5b81019080803573ffffffffffffffffffffffffffffffffffffffff16906020019092919050505061055a565b005b610171610617565b604051808215151515815260200191505060405180910390f35b6101fe600480360360a08110156101a157600080fd5b810190808035906020019092919080359060200190929190803573ffffffffffffffffffffffffffffffffffffffff169060200190929190803560ff169060200190929190803563ffffffff16906020019092919050505061066e565b005b6102526004803603604081101561021657600080fd5b81019080803573ffffffffffffffffffffffffffffffffffffffff169060200190929190803563ffffffff169060200190929190505050610995565b005b3373ffffffffffffffffffffffffffffffffffffffff16600560008463ffffffff1663ffffffff16815260200190815260200160002060009054906101000a900473ffffffffffffffffffffffffffffffffffffffff1673ffffffffffffffffffffffffffffffffffffffff1614610334576040517f08c379a00000000000000000000000000000000000000000000000000000000081526004018080602001828103825260128152602001807f4c4c43206e6f7420617574686f72697a6564000000000000000000000000000081525060200191505060405180910390fd5b60008360ff1614156104905760008163ffffffff16141561048b57600061036660035487610a7190919063ffffffff16565b9050600660009054906101000a900473ffffffffffffffffffffffffffffffffffffffff1673ffffffffffffffffffffffffffffffffffffffff16639aa9f4958683600254600160009054906101000a900473ffffffffffffffffffffffffffffffffffffffff166040518563ffffffff1660e01b8152600401808573ffffffffffffffffffffffffffffffffffffffff1673ffffffffffffffffffffffffffffffffffffffff1681526020018481526020018381526020018273ffffffffffffffffffffffffffffffffffffffff1673ffffffffffffffffffffffffffffffffffffffff168152602001945050505050600060405180830381600087803b15801561047157600080fd5b505af1158015610485573d6000803e3d6000fd5b50505050505b610495565b600080fd5b5050505050565b6104a4610617565b610516576040517f08c379a00000000000000000000000000000000000000000000000000000000081526004018080602001828103825260208152602001807f4f776e61626c653a2063616c6c6572206973206e6f7420746865206f776e657281525060200191505060405180910390fd5b80600160006101000a81548173ffffffffffffffffffffffffffffffffffffffff021916908373ffffffffffffffffffffffffffffffffffffffff16021790555050565b610562610617565b6105d4576040517f08c379a00000000000000000000000000000000000000000000000000000000081526004018080602001828103825260208152602001807f4f776e61626c653a2063616c6c6572206973206e6f7420746865206f776e657281525060200191505060405180910390fd5b806000806101000a81548173ffffffffffffffffffffffffffffffffffffffff021916908373ffffffffffffffffffffffffffffffffffffffff16021790555050565b60008060009054906101000a900473ffffffffffffffffffffffffffffffffffffffff1673ffffffffffffffffffffffffffffffffffffffff163373ffffffffffffffffffffffffffffffffffffffff1614905090565b3373ffffffffffffffffffffffffffffffffffffffff16600560008363ffffffff1663ffffffff16815260200190815260200160002060009054906101000a900473ffffffffffffffffffffffffffffffffffffffff1673ffffffffffffffffffffffffffffffffffffffff161461074e576040517f08c379a00000000000000000000000000000000000000000000000000000000081526004018080602001828103825260128152602001807f4c4c43206e6f7420617574686f72697a6564000000000000000000000000000081525060200191505060405180910390fd5b60008260ff161415610989576000600660009054906101000a900473ffffffffffffffffffffffffffffffffffffffff1673ffffffffffffffffffffffffffffffffffffffff16630b494ff8856040518263ffffffff1660e01b8152600401808273ffffffffffffffffffffffffffffffffffffffff1673ffffffffffffffffffffffffffffffffffffffff16815260200191505060206040518083038186803b1580156107fb57600080fd5b505afa15801561080f573d6000803e3d6000fd5b505050506040513d602081101561082557600080fd5b81019080805190602001909291905050509050600061085f866108518985610abb90919063ffffffff16565b610a7190919063ffffffff16565b9050600660009054906101000a900473ffffffffffffffffffffffffffffffffffffffff1673ffffffffffffffffffffffffffffffffffffffff16637e04f24d8683600254600160009054906101000a900473ffffffffffffffffffffffffffffffffffffffff166040518563ffffffff1660e01b8152600401808573ffffffffffffffffffffffffffffffffffffffff1673ffffffffffffffffffffffffffffffffffffffff1681526020018481526020018381526020018273ffffffffffffffffffffffffffffffffffffffff1673ffffffffffffffffffffffffffffffffffffffff168152602001945050505050600060405180830381600087803b15801561096a57600080fd5b505af115801561097e573d6000803e3d6000fd5b50505050505061098e565b600080fd5b5050505050565b61099d610617565b610a0f576040517f08c379a00000000000000000000000000000000000000000000000000000000081526004018080602001828103825260208152602001807f4f776e61626c653a2063616c6c6572206973206e6f7420746865206f776e657281525060200191505060405180910390fd5b81600560008363ffffffff1663ffffffff16815260200190815260200160002060006101000a81548173ffffffffffffffffffffffffffffffffffffffff021916908373ffffffffffffffffffffffffffffffffffffffff1602179055505050565b6000610ab383836040518060400160405280601a81526020017f536166654d6174683a206469766973696f6e206279207a65726f000000000000815250610b41565b905092915050565b600080831415610ace5760009050610b3b565b6000828402905082848281610adf57fe5b0414610b36576040517f08c379a0000000000000000000000000000000000000000000000000000000008152600401808060200182810382526021815260200180610c086021913960400191505060405180910390fd5b809150505b92915050565b60008083118290610bed576040517f08c379a00000000000000000000000000000000000000000000000000000000081526004018080602001828103825283818151815260200191508051906020019080838360005b83811015610bb2578082015181840152602081019050610b97565b50505050905090810190601f168015610bdf5780820380516001836020036101000a031916815260200191505b509250505060405180910390fd5b506000838581610bf957fe5b04905080915050939250505056fe536166654d6174683a206d756c7469706c69636174696f6e206f766572666c6f77a264697066735822122067ee29386b75b5467e27c29266869172ff358d80fcf6e02d52cfdae1510464d664736f6c63430006020033",
  "source": "pragma solidity ^0.6.2;\r\n// SPDX-License-Identifier: MIT\r\n\r\nimport \"@openzeppelin/contracts/math/SafeMath.sol\";\r\nimport \"@openzeppelin/contracts/utils/Address.sol\";\r\n\r\n\r\ninterface uDaiInterface {\r\n    function _mint(address account, uint256 amount, uint256 fee, address feeAddr) external;\r\n    function _burn(address account, uint256 toBurn, uint256 fee, address feeAddr) external;\r\n    function checkLoan(address user) external view returns (uint256 owed);\r\n    function balanceOf(address account) external view returns (uint256); \r\n}\r\n\r\ncontract Valuing_01 {\r\n    using SafeMath for uint256;\r\n    using Address for address;\r\n\r\n    //Owner Address\r\n    address _owner;\r\n\r\n    // Fee Owner\r\n    address feeHolder;\r\n\r\n    // Will this be the same for all LPT, or will there also be AAA fee, AA, etc.\r\n    uint256 feeRate;  // 0.25% would be 400\r\n\r\n    uint256 AAArate; // 50% would be factor of 2\r\n    uint256 AArate; // 40% \r\n\r\n    //Approved Contracts\r\n    mapping (uint32 => address) listOfLLC;\r\n\r\n    //Unbound Token Contracts\r\n    // uEthContract private uEthInterface;\r\n    uDaiInterface private uDaiContract;\r\n\r\n    // Modifiers\r\n    modifier onlyOwner() {\r\n        require(isOwner(), \"Ownable: caller is not the owner\");\r\n        _;\r\n    }\r\n\r\n    // Constructor\r\n    constructor (address feeAddr, address uDaiAddress) public {\r\n        uDaiContract = uDaiInterface(uDaiAddress);\r\n        _owner = msg.sender;\r\n        feeHolder = feeAddr;\r\n        feeRate = 400;\r\n        AAArate = 2;\r\n    }\r\n\r\n    // Token Creation Functions\r\n\r\n    function unboundCreate(uint256 amount, address user, uint8 token, uint32 LLC, uint32 rating) external {\r\n        require (listOfLLC[LLC] == msg.sender, \"LLC not authorized\");\r\n        if (token == 0) {   // 0 = DAI\r\n            if (rating == 0) { // represents AAA rate\r\n                uint256 loanAmt = amount.div(AAArate); // Currently, this method will be difficult to accomodate certain % numbers like 50.5% for example\r\n                uDaiContract._mint(user, loanAmt, feeRate, feeHolder);\r\n\r\n                // do swap here\r\n            }\r\n        } else {\r\n            revert();\r\n        }\r\n\r\n    }\r\n\r\n    function unboundRemove(uint256 toUnlock, uint256 totalLocked, address user, uint8 token, uint32 LLC) external {\r\n        require (listOfLLC[LLC] == msg.sender, \"LLC not authorized\");\r\n        if (token == 0) {\r\n            uint256 userLoaned = uDaiContract.checkLoan(user);\r\n            uint256 toPayInUDai = userLoaned.mul(toUnlock).div(totalLocked);\r\n            // compute amount of uDai necessary to unlock LPT\r\n\r\n            // perform the swap  -- version 2\r\n\r\n            uDaiContract._burn(user, toPayInUDai, feeRate, feeHolder);\r\n        } else {\r\n            revert();\r\n        }\r\n    }\r\n\r\n    // onlyOwner Functions\r\n\r\n    // grants an LLC permission\r\n    function addLLC (address LLC, uint32 position) public onlyOwner {\r\n        listOfLLC[position] = LLC;\r\n    }\r\n\r\n    // Checks if sender is owner\r\n    function isOwner() public view returns (bool) {\r\n        return msg.sender == _owner;\r\n    }\r\n\r\n    // Changes owner\r\n    function setOwner(address _newOwner) public onlyOwner {\r\n        _owner = _newOwner;\r\n    }\r\n\r\n    // Changes Fee Address\r\n    function setFeeHolder(address _newFeeAddr) public onlyOwner {\r\n        feeHolder = _newFeeAddr;\r\n    }\r\n}",
  "sourcePath": "C:/Users/sonic/Desktop/Unbound/contracts/Valuators/valuing_01.sol",
  "compiler": {
    "name": "solc",
    "version": "0.6.2+commit.bacdbe57.Emscripten.clang"
  },
  "schemaVersion": "3.2.3",
  "updatedAt": "2020-09-02T19:15:05.197Z",
  "devdoc": {
    "methods": {}
  },
  "userdoc": {
    "methods": {}
  }
}