{
  "contractName": "Valuing_01",
  "abi": [
    {
      "inputs": [
        {
          "internalType": "address",
          "name": "feeAddr",
          "type": "address"
        },
        {
          "internalType": "address",
          "name": "uDai",
          "type": "address"
        }
      ],
      "stateMutability": "nonpayable",
      "type": "constructor"
    },
    {
      "inputs": [
        {
          "internalType": "uint256",
          "name": "amount",
          "type": "uint256"
        },
        {
          "internalType": "address",
          "name": "user",
          "type": "address"
        },
        {
          "internalType": "address",
          "name": "token",
          "type": "address"
        }
      ],
      "name": "unboundCreate",
      "outputs": [],
      "stateMutability": "nonpayable",
      "type": "function"
    },
    {
      "inputs": [
        {
          "internalType": "uint256",
          "name": "toUnlock",
          "type": "uint256"
        },
        {
          "internalType": "uint256",
          "name": "totalLocked",
          "type": "uint256"
        },
        {
          "internalType": "address",
          "name": "user",
          "type": "address"
        },
        {
          "internalType": "address",
          "name": "token",
          "type": "address"
        }
      ],
      "name": "unboundRemove",
      "outputs": [],
      "stateMutability": "nonpayable",
      "type": "function"
    },
    {
      "inputs": [
        {
          "internalType": "address",
          "name": "LLC",
          "type": "address"
        }
      ],
      "name": "getLLCStruct",
      "outputs": [
        {
          "internalType": "uint256",
          "name": "fee",
          "type": "uint256"
        },
        {
          "internalType": "uint256",
          "name": "loanrate",
          "type": "uint256"
        }
      ],
      "stateMutability": "view",
      "type": "function",
      "constant": true
    },
    {
      "inputs": [
        {
          "internalType": "address",
          "name": "uToken",
          "type": "address"
        }
      ],
      "name": "allowToken",
      "outputs": [],
      "stateMutability": "nonpayable",
      "type": "function"
    },
    {
      "inputs": [
        {
          "internalType": "address",
          "name": "LLC",
          "type": "address"
        },
        {
          "internalType": "uint256",
          "name": "loan",
          "type": "uint256"
        },
        {
          "internalType": "uint256",
          "name": "fee",
          "type": "uint256"
        }
      ],
      "name": "addLLC",
      "outputs": [],
      "stateMutability": "nonpayable",
      "type": "function"
    },
    {
      "inputs": [
        {
          "internalType": "uint256",
          "name": "loan",
          "type": "uint256"
        },
        {
          "internalType": "uint256",
          "name": "fee",
          "type": "uint256"
        }
      ],
      "name": "addLLCauto",
      "outputs": [],
      "stateMutability": "nonpayable",
      "type": "function"
    },
    {
      "inputs": [
        {
          "internalType": "address",
          "name": "LLC",
          "type": "address"
        }
      ],
      "name": "disableLLC",
      "outputs": [],
      "stateMutability": "nonpayable",
      "type": "function"
    },
    {
      "inputs": [],
      "name": "isOwner",
      "outputs": [
        {
          "internalType": "bool",
          "name": "",
          "type": "bool"
        }
      ],
      "stateMutability": "view",
      "type": "function",
      "constant": true
    },
    {
      "inputs": [
        {
          "internalType": "address",
          "name": "_newOwner",
          "type": "address"
        }
      ],
      "name": "setOwner",
      "outputs": [],
      "stateMutability": "nonpayable",
      "type": "function"
    },
    {
      "inputs": [
        {
          "internalType": "address",
          "name": "_newFeeAddr",
          "type": "address"
        }
      ],
      "name": "setFeeHolder",
      "outputs": [],
      "stateMutability": "nonpayable",
      "type": "function"
    }
  ],
  "bytecode": "0x608060405234801561001057600080fd5b506040516114f63803806114f68339818101604052604081101561003357600080fd5b8101908080519060200190929190805190602001909291905050506001600360008373ffffffffffffffffffffffffffffffffffffffff1673ffffffffffffffffffffffffffffffffffffffff16815260200190815260200160002060006101000a81548160ff021916908315150217905550336000806101000a81548173ffffffffffffffffffffffffffffffffffffffff021916908373ffffffffffffffffffffffffffffffffffffffff16021790555081600160006101000a81548173ffffffffffffffffffffffffffffffffffffffff021916908373ffffffffffffffffffffffffffffffffffffffff16021790555050506113be806101386000396000f3fe608060405234801561001057600080fd5b506004361061009e5760003560e01c80638f32d59b116100665780638f32d59b14610269578063a1e3b1451461028b578063b53472ef146102c3578063b728717a14610307578063d9a584221461034b5761009e565b806309caafc2146100a357806310407f2f1461011157806313af403514610155578063143100a114610199578063613d1bb5146101f1575b600080fd5b61010f600480360360608110156100b957600080fd5b8101908080359060200190929190803573ffffffffffffffffffffffffffffffffffffffff169060200190929190803573ffffffffffffffffffffffffffffffffffffffff1690602001909291905050506103aa565b005b6101536004803603602081101561012757600080fd5b81019080803573ffffffffffffffffffffffffffffffffffffffff1690602001909291905050506106cf565b005b6101976004803603602081101561016b57600080fd5b81019080803573ffffffffffffffffffffffffffffffffffffffff16906020019092919050505061078d565b005b6101ef600480360360608110156101af57600080fd5b81019080803573ffffffffffffffffffffffffffffffffffffffff169060200190929190803590602001909291908035906020019092919050505061084a565b005b6102676004803603608081101561020757600080fd5b810190808035906020019092919080359060200190929190803573ffffffffffffffffffffffffffffffffffffffff169060200190929190803573ffffffffffffffffffffffffffffffffffffffff1690602001909291905050506109b2565b005b610271610d65565b604051808215151515815260200191505060405180910390f35b6102c1600480360360408110156102a157600080fd5b810190808035906020019092919080359060200190929190505050610dbc565b005b610305600480360360208110156102d957600080fd5b81019080803573ffffffffffffffffffffffffffffffffffffffff169060200190929190505050610f02565b005b6103496004803603602081101561031d57600080fd5b81019080803573ffffffffffffffffffffffffffffffffffffffff169060200190929190505050610fd7565b005b61038d6004803603602081101561036157600080fd5b81019080803573ffffffffffffffffffffffffffffffffffffffff16906020019092919050505061113f565b604051808381526020018281526020019250505060405180910390f35b600260003373ffffffffffffffffffffffffffffffffffffffff1673ffffffffffffffffffffffffffffffffffffffff16815260200190815260200160002060020160009054906101000a900460ff1661046c576040517f08c379a00000000000000000000000000000000000000000000000000000000081526004018080602001828103825260128152602001807f4c4c43206e6f7420617574686f72697a6564000000000000000000000000000081525060200191505060405180910390fd5b600360008273ffffffffffffffffffffffffffffffffffffffff1673ffffffffffffffffffffffffffffffffffffffff16815260200190815260200160002060009054906101000a900460ff1661052b576040517f08c379a00000000000000000000000000000000000000000000000000000000081526004018080602001828103825260188152602001807f696e76616c696420756e626f756e6420636f6e7472616374000000000000000081525060200191505060405180910390fd5b60008190506000610587600260003373ffffffffffffffffffffffffffffffffffffffff1673ffffffffffffffffffffffffffffffffffffffff16815260200190815260200160002060010154866111d190919063ffffffff16565b90508173ffffffffffffffffffffffffffffffffffffffff16639aa9f4958583600260003373ffffffffffffffffffffffffffffffffffffffff1673ffffffffffffffffffffffffffffffffffffffff16815260200190815260200160002060000154600160009054906101000a900473ffffffffffffffffffffffffffffffffffffffff166040518563ffffffff1660e01b8152600401808573ffffffffffffffffffffffffffffffffffffffff1673ffffffffffffffffffffffffffffffffffffffff1681526020018481526020018381526020018273ffffffffffffffffffffffffffffffffffffffff1673ffffffffffffffffffffffffffffffffffffffff168152602001945050505050600060405180830381600087803b1580156106b057600080fd5b505af11580156106c4573d6000803e3d6000fd5b505050505050505050565b6106d7610d65565b610749576040517f08c379a00000000000000000000000000000000000000000000000000000000081526004018080602001828103825260208152602001807f4f776e61626c653a2063616c6c6572206973206e6f7420746865206f776e657281525060200191505060405180910390fd5b80600160006101000a81548173ffffffffffffffffffffffffffffffffffffffff021916908373ffffffffffffffffffffffffffffffffffffffff16021790555050565b610795610d65565b610807576040517f08c379a00000000000000000000000000000000000000000000000000000000081526004018080602001828103825260208152602001807f4f776e61626c653a2063616c6c6572206973206e6f7420746865206f776e657281525060200191505060405180910390fd5b806000806101000a81548173ffffffffffffffffffffffffffffffffffffffff021916908373ffffffffffffffffffffffffffffffffffffffff16021790555050565b610852610d65565b6108c4576040517f08c379a00000000000000000000000000000000000000000000000000000000081526004018080602001828103825260208152602001807f4f776e61626c653a2063616c6c6572206973206e6f7420746865206f776e657281525060200191505060405180910390fd5b80600260008573ffffffffffffffffffffffffffffffffffffffff1673ffffffffffffffffffffffffffffffffffffffff1681526020019081526020016000206000018190555081600260008573ffffffffffffffffffffffffffffffffffffffff1673ffffffffffffffffffffffffffffffffffffffff168152602001908152602001600020600101819055506001600260008573ffffffffffffffffffffffffffffffffffffffff1673ffffffffffffffffffffffffffffffffffffffff16815260200190815260200160002060020160006101000a81548160ff021916908315150217905550505050565b600260003373ffffffffffffffffffffffffffffffffffffffff1673ffffffffffffffffffffffffffffffffffffffff16815260200190815260200160002060020160009054906101000a900460ff16610a74576040517f08c379a00000000000000000000000000000000000000000000000000000000081526004018080602001828103825260128152602001807f4c4c43206e6f7420617574686f72697a6564000000000000000000000000000081525060200191505060405180910390fd5b600360008273ffffffffffffffffffffffffffffffffffffffff1673ffffffffffffffffffffffffffffffffffffffff16815260200190815260200160002060009054906101000a900460ff16610b33576040517f08c379a00000000000000000000000000000000000000000000000000000000081526004018080602001828103825260188152602001807f696e76616c696420756e626f756e6420636f6e7472616374000000000000000081525060200191505060405180910390fd5b600081905060008173ffffffffffffffffffffffffffffffffffffffff16630b494ff8856040518263ffffffff1660e01b8152600401808273ffffffffffffffffffffffffffffffffffffffff1673ffffffffffffffffffffffffffffffffffffffff16815260200191505060206040518083038186803b158015610bb757600080fd5b505afa158015610bcb573d6000803e3d6000fd5b505050506040513d6020811015610be157600080fd5b810190808051906020019092919050505090506000610c1b86610c0d898561121b90919063ffffffff16565b6111d190919063ffffffff16565b90508273ffffffffffffffffffffffffffffffffffffffff16637e04f24d8683600260003373ffffffffffffffffffffffffffffffffffffffff1673ffffffffffffffffffffffffffffffffffffffff16815260200190815260200160002060000154600160009054906101000a900473ffffffffffffffffffffffffffffffffffffffff166040518563ffffffff1660e01b8152600401808573ffffffffffffffffffffffffffffffffffffffff1673ffffffffffffffffffffffffffffffffffffffff1681526020018481526020018381526020018273ffffffffffffffffffffffffffffffffffffffff1673ffffffffffffffffffffffffffffffffffffffff168152602001945050505050600060405180830381600087803b158015610d4457600080fd5b505af1158015610d58573d6000803e3d6000fd5b5050505050505050505050565b60008060009054906101000a900473ffffffffffffffffffffffffffffffffffffffff1673ffffffffffffffffffffffffffffffffffffffff163373ffffffffffffffffffffffffffffffffffffffff1614905090565b6000809054906101000a900473ffffffffffffffffffffffffffffffffffffffff1673ffffffffffffffffffffffffffffffffffffffff163273ffffffffffffffffffffffffffffffffffffffff1614610e1557600080fd5b80600260003373ffffffffffffffffffffffffffffffffffffffff1673ffffffffffffffffffffffffffffffffffffffff1681526020019081526020016000206000018190555081600260003373ffffffffffffffffffffffffffffffffffffffff1673ffffffffffffffffffffffffffffffffffffffff168152602001908152602001600020600101819055506001600260003373ffffffffffffffffffffffffffffffffffffffff1673ffffffffffffffffffffffffffffffffffffffff16815260200190815260200160002060020160006101000a81548160ff0219169083151502179055505050565b610f0a610d65565b610f7c576040517f08c379a00000000000000000000000000000000000000000000000000000000081526004018080602001828103825260208152602001807f4f776e61626c653a2063616c6c6572206973206e6f7420746865206f776e657281525060200191505060405180910390fd5b6001600360008373ffffffffffffffffffffffffffffffffffffffff1673ffffffffffffffffffffffffffffffffffffffff16815260200190815260200160002060006101000a81548160ff02191690831515021790555050565b610fdf610d65565b611051576040517f08c379a00000000000000000000000000000000000000000000000000000000081526004018080602001828103825260208152602001807f4f776e61626c653a2063616c6c6572206973206e6f7420746865206f776e657281525060200191505060405180910390fd5b6000600260008373ffffffffffffffffffffffffffffffffffffffff1673ffffffffffffffffffffffffffffffffffffffff168152602001908152602001600020600001819055506000600260008373ffffffffffffffffffffffffffffffffffffffff1673ffffffffffffffffffffffffffffffffffffffff168152602001908152602001600020600101819055506000600260008373ffffffffffffffffffffffffffffffffffffffff1673ffffffffffffffffffffffffffffffffffffffff16815260200190815260200160002060020160006101000a81548160ff02191690831515021790555050565b600080600260008473ffffffffffffffffffffffffffffffffffffffff1673ffffffffffffffffffffffffffffffffffffffff168152602001908152602001600020600001549150600260008473ffffffffffffffffffffffffffffffffffffffff1673ffffffffffffffffffffffffffffffffffffffff168152602001908152602001600020600101549050915091565b600061121383836040518060400160405280601a81526020017f536166654d6174683a206469766973696f6e206279207a65726f0000000000008152506112a1565b905092915050565b60008083141561122e576000905061129b565b600082840290508284828161123f57fe5b0414611296576040517f08c379a00000000000000000000000000000000000000000000000000000000081526004018080602001828103825260218152602001806113686021913960400191505060405180910390fd5b809150505b92915050565b6000808311829061134d576040517f08c379a00000000000000000000000000000000000000000000000000000000081526004018080602001828103825283818151815260200191508051906020019080838360005b838110156113125780820151818401526020810190506112f7565b50505050905090810190601f16801561133f5780820380516001836020036101000a031916815260200191505b509250505060405180910390fd5b50600083858161135957fe5b04905080915050939250505056fe536166654d6174683a206d756c7469706c69636174696f6e206f766572666c6f77a2646970667358221220ead93f3bb50759e061334e8623ec40177ef588fe19711d4208773d60dbce980764736f6c63430006020033",
  "source": "pragma solidity ^0.6.2;\r\n// SPDX-License-Identifier: MIT\r\n\r\nimport \"@openzeppelin/contracts/math/SafeMath.sol\";\r\nimport \"@openzeppelin/contracts/utils/Address.sol\";\r\n\r\n\r\ninterface unboundInterface {\r\n    function _mint(address account, uint256 amount, uint256 fee, address feeAddr) external;\r\n    function _burn(address account, uint256 toBurn, uint256 fee, address feeAddr) external;\r\n    function checkLoan(address user) external view returns (uint256 owed);\r\n    function balanceOf(address account) external view returns (uint256); \r\n}\r\n\r\ncontract Valuing_01 {\r\n    using SafeMath for uint256;\r\n    using Address for address;\r\n\r\n    //Owner Address\r\n    address _owner;\r\n\r\n    // Fee Owner\r\n    address feeHolder;\r\n\r\n     // Liquidity Lock Contract structs - contains fee and loan rate\r\n    struct LiquidityLock {\r\n        uint256 feeRate;\r\n        uint256 loanRate;\r\n        bool active;\r\n    }\r\n\r\n    //Approved Contracts\r\n    mapping (address => LiquidityLock) listOfLLC;\r\n\r\n    // Approved unbound tokens\r\n    mapping (address => bool) isUnbound;\r\n\r\n    //Unbound Token Contracts\r\n    // uEthContract private uEthInterface;\r\n\r\n    // DO WE NEED THIS?? \r\n    //unboundInterface private uDaiContract;\r\n\r\n    // Modifiers\r\n    modifier onlyOwner() {\r\n        require(isOwner(), \"Ownable: caller is not the owner\");\r\n        _;\r\n    }\r\n\r\n    // Constructor\r\n    constructor (address feeAddr, address uDai) public {\r\n        isUnbound[uDai] = true;\r\n        _owner = msg.sender;\r\n        feeHolder = feeAddr;\r\n    }\r\n\r\n    // Token Creation Functions\r\n\r\n    function unboundCreate(uint256 amount, address user, address token) external {\r\n        require (listOfLLC[msg.sender].active, \"LLC not authorized\");\r\n        require (isUnbound[token], \"invalid unbound contract\");\r\n        \r\n        unboundInterface unboundContract = unboundInterface(token);\r\n        uint256 loanAmt = amount.div(listOfLLC[msg.sender].loanRate); // Currently, this method will be difficult to accomodate certain % numbers like 50.5% for example\r\n        unboundContract._mint(user, loanAmt, listOfLLC[msg.sender].feeRate, feeHolder);\r\n\r\n    }\r\n\r\n    function unboundRemove(uint256 toUnlock, uint256 totalLocked, address user, address token) external {\r\n        require (listOfLLC[msg.sender].active, \"LLC not authorized\");\r\n        require (isUnbound[token], \"invalid unbound contract\");\r\n        unboundInterface unboundContract = unboundInterface(token);\r\n        uint256 userLoaned = unboundContract.checkLoan(user);\r\n        uint256 toPayInUDai = userLoaned.mul(toUnlock).div(totalLocked);\r\n        // compute amount of uDai necessary to unlock LPT\r\n\r\n        \r\n\r\n        unboundContract._burn(user, toPayInUDai, listOfLLC[msg.sender].feeRate, feeHolder);\r\n        \r\n    }\r\n\r\n    function getLLCStruct(address LLC) public view returns (uint256 fee, uint256 loanrate) {\r\n        fee = listOfLLC[LLC].feeRate;\r\n        loanrate = listOfLLC[LLC].loanRate;\r\n    }\r\n\r\n    // onlyOwner Functions\r\n\r\n    // grant permission for an unbound token to be called\r\n    function allowToken (address uToken) public onlyOwner {\r\n        isUnbound[uToken] = true;\r\n    }\r\n\r\n    // grants an LLC permission\r\n    function addLLC (address LLC, uint256 loan, uint256 fee) public onlyOwner {\r\n        listOfLLC[LLC].feeRate = fee;\r\n        listOfLLC[LLC].loanRate = loan;\r\n        listOfLLC[LLC].active = true;\r\n    }\r\n\r\n    // grants LLC permission via constructor of LLC:\r\n    // Intended to work only when LLC is deployed by _owner\r\n    // Potential vulnerability using tx.origin. Please review\r\n    // msg.sender in constructor will be 0x0000... so this will NOT work\r\n    function addLLCauto (uint256 loan, uint256 fee) external {\r\n        require (tx.origin == _owner); \r\n        listOfLLC[msg.sender].feeRate = fee;\r\n        listOfLLC[msg.sender].loanRate = loan;\r\n        listOfLLC[msg.sender].active = true;\r\n    }\r\n    \r\n\r\n\r\n\r\n    // Disables an LLC:\r\n    function disableLLC (address LLC) public onlyOwner {\r\n        listOfLLC[LLC].feeRate = 0;\r\n        listOfLLC[LLC].loanRate = 0;\r\n        listOfLLC[LLC].active = false;\r\n    }\r\n\r\n    // Checks if sender is owner\r\n    function isOwner() public view returns (bool) {\r\n        return msg.sender == _owner;\r\n    }\r\n\r\n    // Changes owner\r\n    function setOwner(address _newOwner) public onlyOwner {\r\n        _owner = _newOwner;\r\n    }\r\n\r\n    // Changes Fee Address\r\n    function setFeeHolder(address _newFeeAddr) public onlyOwner {\r\n        feeHolder = _newFeeAddr;\r\n    }\r\n}",
  "sourcePath": "C:/Users/sonic/Desktop/Unbound/contracts/Valuators/valuing_01.sol",
  "compiler": {
    "name": "solc",
    "version": "0.6.2+commit.bacdbe57.Emscripten.clang"
  },
  "schemaVersion": "3.2.3",
  "updatedAt": "2020-09-09T16:26:25.647Z",
  "networkType": "ethereum",
  "devdoc": {
    "methods": {}
  },
  "userdoc": {
    "methods": {}
  }
}