{
  "contractName": "Valuing_01",
  "abi": [
    {
      "inputs": [
        {
          "internalType": "address",
          "name": "uDai",
          "type": "address"
        }
      ],
      "stateMutability": "nonpayable",
      "type": "constructor"
    },
    {
      "inputs": [
        {
          "internalType": "uint256",
          "name": "amount",
          "type": "uint256"
        },
        {
          "internalType": "address",
          "name": "user",
          "type": "address"
        },
        {
          "internalType": "address",
          "name": "token",
          "type": "address"
        }
      ],
      "name": "unboundCreate",
      "outputs": [],
      "stateMutability": "nonpayable",
      "type": "function"
    },
    {
      "inputs": [
        {
          "internalType": "uint256",
          "name": "toUnlock",
          "type": "uint256"
        },
        {
          "internalType": "uint256",
          "name": "totalLocked",
          "type": "uint256"
        },
        {
          "internalType": "address",
          "name": "user",
          "type": "address"
        },
        {
          "internalType": "address",
          "name": "token",
          "type": "address"
        }
      ],
      "name": "unboundRemove",
      "outputs": [],
      "stateMutability": "nonpayable",
      "type": "function"
    },
    {
      "inputs": [
        {
          "internalType": "address",
          "name": "LLC",
          "type": "address"
        }
      ],
      "name": "getLLCStruct",
      "outputs": [
        {
          "internalType": "uint256",
          "name": "fee",
          "type": "uint256"
        },
        {
          "internalType": "uint256",
          "name": "loanrate",
          "type": "uint256"
        }
      ],
      "stateMutability": "view",
      "type": "function"
    },
    {
      "inputs": [
        {
          "internalType": "address",
          "name": "uToken",
          "type": "address"
        }
      ],
      "name": "allowToken",
      "outputs": [],
      "stateMutability": "nonpayable",
      "type": "function"
    },
    {
      "inputs": [
        {
          "internalType": "address",
          "name": "LLC",
          "type": "address"
        },
        {
          "internalType": "uint256",
          "name": "loan",
          "type": "uint256"
        },
        {
          "internalType": "uint256",
          "name": "fee",
          "type": "uint256"
        }
      ],
      "name": "addLLC",
      "outputs": [],
      "stateMutability": "nonpayable",
      "type": "function"
    },
    {
      "inputs": [
        {
          "internalType": "address",
          "name": "LLC",
          "type": "address"
        }
      ],
      "name": "disableLLC",
      "outputs": [],
      "stateMutability": "nonpayable",
      "type": "function"
    },
    {
      "inputs": [],
      "name": "isOwner",
      "outputs": [
        {
          "internalType": "bool",
          "name": "",
          "type": "bool"
        }
      ],
      "stateMutability": "view",
      "type": "function"
    },
    {
      "inputs": [
        {
          "internalType": "address",
          "name": "_newOwner",
          "type": "address"
        }
      ],
      "name": "setOwner",
      "outputs": [],
      "stateMutability": "nonpayable",
      "type": "function"
    }
  ],
  "bytecode": "0x608060405234801561001057600080fd5b506040516111933803806111938339818101604052602081101561003357600080fd5b81019080805190602001909291905050506001600260008373ffffffffffffffffffffffffffffffffffffffff1673ffffffffffffffffffffffffffffffffffffffff16815260200190815260200160002060006101000a81548160ff021916908315150217905550336000806101000a81548173ffffffffffffffffffffffffffffffffffffffff021916908373ffffffffffffffffffffffffffffffffffffffff160217905550506110a7806100ec6000396000f3fe608060405234801561001057600080fd5b50600436106100885760003560e01c80638f32d59b1161005b5780638f32d59b1461020f578063b53472ef14610231578063b728717a14610275578063d9a58422146102b957610088565b806309caafc21461008d57806313af4035146100fb578063143100a11461013f578063613d1bb514610197575b600080fd5b6100f9600480360360608110156100a357600080fd5b8101908080359060200190929190803573ffffffffffffffffffffffffffffffffffffffff169060200190929190803573ffffffffffffffffffffffffffffffffffffffff169060200190929190505050610318565b005b61013d6004803603602081101561011157600080fd5b81019080803573ffffffffffffffffffffffffffffffffffffffff1690602001909291905050506105e7565b005b6101956004803603606081101561015557600080fd5b81019080803573ffffffffffffffffffffffffffffffffffffffff16906020019092919080359060200190929190803590602001909291905050506106a4565b005b61020d600480360360808110156101ad57600080fd5b810190808035906020019092919080359060200190929190803573ffffffffffffffffffffffffffffffffffffffff169060200190929190803573ffffffffffffffffffffffffffffffffffffffff169060200190929190505050610881565b005b610217610b94565b604051808215151515815260200191505060405180910390f35b6102736004803603602081101561024757600080fd5b81019080803573ffffffffffffffffffffffffffffffffffffffff169060200190929190505050610beb565b005b6102b76004803603602081101561028b57600080fd5b81019080803573ffffffffffffffffffffffffffffffffffffffff169060200190929190505050610cc0565b005b6102fb600480360360208110156102cf57600080fd5b81019080803573ffffffffffffffffffffffffffffffffffffffff169060200190929190505050610e28565b604051808381526020018281526020019250505060405180910390f35b600160003373ffffffffffffffffffffffffffffffffffffffff1673ffffffffffffffffffffffffffffffffffffffff16815260200190815260200160002060020160009054906101000a900460ff166103da576040517f08c379a00000000000000000000000000000000000000000000000000000000081526004018080602001828103825260128152602001807f4c4c43206e6f7420617574686f72697a6564000000000000000000000000000081525060200191505060405180910390fd5b600260008273ffffffffffffffffffffffffffffffffffffffff1673ffffffffffffffffffffffffffffffffffffffff16815260200190815260200160002060009054906101000a900460ff16610499576040517f08c379a00000000000000000000000000000000000000000000000000000000081526004018080602001828103825260188152602001807f696e76616c696420756e626f756e6420636f6e7472616374000000000000000081525060200191505060405180910390fd5b600081905060006104f5600160003373ffffffffffffffffffffffffffffffffffffffff1673ffffffffffffffffffffffffffffffffffffffff1681526020019081526020016000206001015486610eba90919063ffffffff16565b90508173ffffffffffffffffffffffffffffffffffffffff16637776afa08583600160003373ffffffffffffffffffffffffffffffffffffffff1673ffffffffffffffffffffffffffffffffffffffff168152602001908152602001600020600001546040518463ffffffff1660e01b8152600401808473ffffffffffffffffffffffffffffffffffffffff1673ffffffffffffffffffffffffffffffffffffffff1681526020018381526020018281526020019350505050600060405180830381600087803b1580156105c857600080fd5b505af11580156105dc573d6000803e3d6000fd5b505050505050505050565b6105ef610b94565b610661576040517f08c379a00000000000000000000000000000000000000000000000000000000081526004018080602001828103825260208152602001807f4f776e61626c653a2063616c6c6572206973206e6f7420746865206f776e657281525060200191505060405180910390fd5b806000806101000a81548173ffffffffffffffffffffffffffffffffffffffff021916908373ffffffffffffffffffffffffffffffffffffffff16021790555050565b6106ac610b94565b61071e576040517f08c379a00000000000000000000000000000000000000000000000000000000081526004018080602001828103825260208152602001807f4f776e61626c653a2063616c6c6572206973206e6f7420746865206f776e657281525060200191505060405180910390fd5b60148111610794576040517f08c379a00000000000000000000000000000000000000000000000000000000081526004018080602001828103825260128152602001807f6d6178206665652072617465206f66203525000000000000000000000000000081525060200191505060405180910390fd5b80600160008573ffffffffffffffffffffffffffffffffffffffff1673ffffffffffffffffffffffffffffffffffffffff1681526020019081526020016000206000018190555081600160008573ffffffffffffffffffffffffffffffffffffffff1673ffffffffffffffffffffffffffffffffffffffff1681526020019081526020016000206001018190555060018060008573ffffffffffffffffffffffffffffffffffffffff1673ffffffffffffffffffffffffffffffffffffffff16815260200190815260200160002060020160006101000a81548160ff021916908315150217905550505050565b600160003373ffffffffffffffffffffffffffffffffffffffff1673ffffffffffffffffffffffffffffffffffffffff16815260200190815260200160002060020160009054906101000a900460ff16610943576040517f08c379a00000000000000000000000000000000000000000000000000000000081526004018080602001828103825260128152602001807f4c4c43206e6f7420617574686f72697a6564000000000000000000000000000081525060200191505060405180910390fd5b600260008273ffffffffffffffffffffffffffffffffffffffff1673ffffffffffffffffffffffffffffffffffffffff16815260200190815260200160002060009054906101000a900460ff16610a02576040517f08c379a00000000000000000000000000000000000000000000000000000000081526004018080602001828103825260188152602001807f696e76616c696420756e626f756e6420636f6e7472616374000000000000000081525060200191505060405180910390fd5b600081905060008173ffffffffffffffffffffffffffffffffffffffff16630b494ff8856040518263ffffffff1660e01b8152600401808273ffffffffffffffffffffffffffffffffffffffff1673ffffffffffffffffffffffffffffffffffffffff16815260200191505060206040518083038186803b158015610a8657600080fd5b505afa158015610a9a573d6000803e3d6000fd5b505050506040513d6020811015610ab057600080fd5b810190808051906020019092919050505090506000610aea86610adc8985610f0490919063ffffffff16565b610eba90919063ffffffff16565b90508273ffffffffffffffffffffffffffffffffffffffff16636161eb1886836040518363ffffffff1660e01b8152600401808373ffffffffffffffffffffffffffffffffffffffff1673ffffffffffffffffffffffffffffffffffffffff16815260200182815260200192505050600060405180830381600087803b158015610b7357600080fd5b505af1158015610b87573d6000803e3d6000fd5b5050505050505050505050565b60008060009054906101000a900473ffffffffffffffffffffffffffffffffffffffff1673ffffffffffffffffffffffffffffffffffffffff163373ffffffffffffffffffffffffffffffffffffffff1614905090565b610bf3610b94565b610c65576040517f08c379a00000000000000000000000000000000000000000000000000000000081526004018080602001828103825260208152602001807f4f776e61626c653a2063616c6c6572206973206e6f7420746865206f776e657281525060200191505060405180910390fd5b6001600260008373ffffffffffffffffffffffffffffffffffffffff1673ffffffffffffffffffffffffffffffffffffffff16815260200190815260200160002060006101000a81548160ff02191690831515021790555050565b610cc8610b94565b610d3a576040517f08c379a00000000000000000000000000000000000000000000000000000000081526004018080602001828103825260208152602001807f4f776e61626c653a2063616c6c6572206973206e6f7420746865206f776e657281525060200191505060405180910390fd5b6000600160008373ffffffffffffffffffffffffffffffffffffffff1673ffffffffffffffffffffffffffffffffffffffff168152602001908152602001600020600001819055506000600160008373ffffffffffffffffffffffffffffffffffffffff1673ffffffffffffffffffffffffffffffffffffffff168152602001908152602001600020600101819055506000600160008373ffffffffffffffffffffffffffffffffffffffff1673ffffffffffffffffffffffffffffffffffffffff16815260200190815260200160002060020160006101000a81548160ff02191690831515021790555050565b600080600160008473ffffffffffffffffffffffffffffffffffffffff1673ffffffffffffffffffffffffffffffffffffffff168152602001908152602001600020600001549150600160008473ffffffffffffffffffffffffffffffffffffffff1673ffffffffffffffffffffffffffffffffffffffff168152602001908152602001600020600101549050915091565b6000610efc83836040518060400160405280601a81526020017f536166654d6174683a206469766973696f6e206279207a65726f000000000000815250610f8a565b905092915050565b600080831415610f175760009050610f84565b6000828402905082848281610f2857fe5b0414610f7f576040517f08c379a00000000000000000000000000000000000000000000000000000000081526004018080602001828103825260218152602001806110516021913960400191505060405180910390fd5b809150505b92915050565b60008083118290611036576040517f08c379a00000000000000000000000000000000000000000000000000000000081526004018080602001828103825283818151815260200191508051906020019080838360005b83811015610ffb578082015181840152602081019050610fe0565b50505050905090810190601f1680156110285780820380516001836020036101000a031916815260200191505b509250505060405180910390fd5b50600083858161104257fe5b04905080915050939250505056fe536166654d6174683a206d756c7469706c69636174696f6e206f766572666c6f77a2646970667358221220d52b792eed692397169685723d7f3fbd0d7c67617cd58492495f3b10820160ce64736f6c63430006060033",
  "immutableReferences": {},
  "source": "pragma solidity >=0.4.23 <0.8.0;\r\n// SPDX-License-Identifier: MIT\r\n\r\nimport \"@openzeppelin/contracts/math/SafeMath.sol\";\r\nimport \"@openzeppelin/contracts/utils/Address.sol\";\r\n\r\n\r\ninterface unboundInterface {\r\n    function _mint(address account, uint256 amount, uint256 fee) external;\r\n    function _burn(address account, uint256 toBurn) external;\r\n    function checkLoan(address user) external view returns (uint256 owed);\r\n    function balanceOf(address account) external view returns (uint256); \r\n}\r\n\r\ncontract Valuing_01 {\r\n    using SafeMath for uint256;\r\n    using Address for address;\r\n\r\n    //Owner Address\r\n    address _owner;\r\n\r\n     // Liquidity Lock Contract structs - contains fee and loan rate\r\n    struct LiquidityLock {\r\n        uint256 feeRate;\r\n        uint256 loanRate;\r\n        bool active;\r\n    }\r\n\r\n    //Approved Contracts\r\n    mapping (address => LiquidityLock) listOfLLC;\r\n\r\n    // Approved unbound tokens\r\n    mapping (address => bool) isUnbound;\r\n\r\n    // Modifiers\r\n    modifier onlyOwner() {\r\n        require(isOwner(), \"Ownable: caller is not the owner\");\r\n        _;\r\n    }\r\n\r\n    // Constructor\r\n    constructor (address uDai) public {\r\n        isUnbound[uDai] = true;\r\n        _owner = msg.sender;\r\n    }\r\n\r\n    // Token Creation Functions\r\n\r\n    function unboundCreate(uint256 amount, address user, address token) external {\r\n        require (listOfLLC[msg.sender].active, \"LLC not authorized\");\r\n        require (isUnbound[token], \"invalid unbound contract\");\r\n        \r\n        unboundInterface unboundContract = unboundInterface(token);\r\n        uint256 loanAmt = amount.div(listOfLLC[msg.sender].loanRate); // Currently, this method will be difficult to accomodate certain % numbers like 50.5% for example\r\n        unboundContract._mint(user, loanAmt, listOfLLC[msg.sender].feeRate);\r\n\r\n    }\r\n\r\n    // Token Burning Function\r\n    function unboundRemove(uint256 toUnlock, uint256 totalLocked, address user, address token) external {\r\n        require (listOfLLC[msg.sender].active, \"LLC not authorized\");\r\n        require (isUnbound[token], \"invalid unbound contract\");\r\n        unboundInterface unboundContract = unboundInterface(token);\r\n        uint256 userLoaned = unboundContract.checkLoan(user);\r\n\r\n        // compute amount of uDai necessary to unlock LPT\r\n        uint256 toPayInUDai = userLoaned.mul(toUnlock).div(totalLocked);\r\n        \r\n\r\n        unboundContract._burn(user, toPayInUDai);\r\n        \r\n    }\r\n\r\n    function getLLCStruct(address LLC) public view returns (uint256 fee, uint256 loanrate) {\r\n        fee = listOfLLC[LLC].feeRate;\r\n        loanrate = listOfLLC[LLC].loanRate;\r\n    }\r\n\r\n    // onlyOwner Functions\r\n\r\n    // grant permission for an unbound token to be called\r\n    function allowToken (address uToken) public onlyOwner {\r\n        isUnbound[uToken] = true;\r\n    }\r\n\r\n    // grants an LLC permission //\r\n\r\n    // -------TEST THIS-------- // \r\n    function addLLC (address LLC, uint256 loan, uint256 fee) public onlyOwner {\r\n        // prevents setting fee greater than 5%;\r\n        require(fee > 20, \"max fee rate of 5%\");\r\n        listOfLLC[LLC].feeRate = fee;\r\n        listOfLLC[LLC].loanRate = loan;\r\n        listOfLLC[LLC].active = true;\r\n    }\r\n\r\n    // Disables an LLC:\r\n    function disableLLC (address LLC) public onlyOwner {\r\n        listOfLLC[LLC].feeRate = 0;\r\n        listOfLLC[LLC].loanRate = 0;\r\n        listOfLLC[LLC].active = false;\r\n    }\r\n\r\n    // Checks if sender is owner\r\n    function isOwner() public view returns (bool) {\r\n        return msg.sender == _owner;\r\n    }\r\n\r\n    // Changes owner\r\n    function setOwner(address _newOwner) public onlyOwner {\r\n        _owner = _newOwner;\r\n    }\r\n\r\n}",
  "sourcePath": "C:/Users/sonic/Desktop/Unbound/contracts/Valuators/valuing_01.sol",
  "compiler": {
    "name": "solc",
    "version": "0.6.6+commit.6c089d02.Emscripten.clang"
  },
  "schemaVersion": "3.2.3",
  "updatedAt": "2020-09-20T04:49:51.551Z",
  "devdoc": {
    "methods": {}
  },
  "userdoc": {
    "methods": {}
  }
}