{
  "contractName": "Valuing_01",
  "abi": [
    {
      "inputs": [
        {
          "internalType": "address",
          "name": "uDai",
          "type": "address"
        }
      ],
      "payable": false,
      "stateMutability": "nonpayable",
      "type": "constructor"
    },
    {
      "constant": false,
      "inputs": [
        {
          "internalType": "uint256",
          "name": "amount",
          "type": "uint256"
        },
        {
          "internalType": "address",
          "name": "user",
          "type": "address"
        },
        {
          "internalType": "address",
          "name": "token",
          "type": "address"
        }
      ],
      "name": "unboundCreate",
      "outputs": [],
      "payable": false,
      "stateMutability": "nonpayable",
      "type": "function"
    },
    {
      "constant": false,
      "inputs": [
        {
          "internalType": "uint256",
          "name": "toUnlock",
          "type": "uint256"
        },
        {
          "internalType": "uint256",
          "name": "totalLocked",
          "type": "uint256"
        },
        {
          "internalType": "address",
          "name": "user",
          "type": "address"
        },
        {
          "internalType": "address",
          "name": "token",
          "type": "address"
        }
      ],
      "name": "unboundRemove",
      "outputs": [],
      "payable": false,
      "stateMutability": "nonpayable",
      "type": "function"
    },
    {
      "constant": true,
      "inputs": [
        {
          "internalType": "address",
          "name": "LLC",
          "type": "address"
        }
      ],
      "name": "getLLCStruct",
      "outputs": [
        {
          "internalType": "uint256",
          "name": "fee",
          "type": "uint256"
        },
        {
          "internalType": "uint256",
          "name": "loanrate",
          "type": "uint256"
        }
      ],
      "payable": false,
      "stateMutability": "view",
      "type": "function"
    },
    {
      "constant": false,
      "inputs": [
        {
          "internalType": "address",
          "name": "uToken",
          "type": "address"
        }
      ],
      "name": "allowToken",
      "outputs": [],
      "payable": false,
      "stateMutability": "nonpayable",
      "type": "function"
    },
    {
      "constant": false,
      "inputs": [
        {
          "internalType": "address",
          "name": "LLC",
          "type": "address"
        },
        {
          "internalType": "uint256",
          "name": "loan",
          "type": "uint256"
        },
        {
          "internalType": "uint256",
          "name": "fee",
          "type": "uint256"
        }
      ],
      "name": "addLLC",
      "outputs": [],
      "payable": false,
      "stateMutability": "nonpayable",
      "type": "function"
    },
    {
      "constant": false,
      "inputs": [
        {
          "internalType": "address",
          "name": "LLC",
          "type": "address"
        }
      ],
      "name": "disableLLC",
      "outputs": [],
      "payable": false,
      "stateMutability": "nonpayable",
      "type": "function"
    },
    {
      "constant": true,
      "inputs": [],
      "name": "isOwner",
      "outputs": [
        {
          "internalType": "bool",
          "name": "",
          "type": "bool"
        }
      ],
      "payable": false,
      "stateMutability": "view",
      "type": "function"
    },
    {
      "constant": false,
      "inputs": [
        {
          "internalType": "address",
          "name": "_newOwner",
          "type": "address"
        }
      ],
      "name": "setOwner",
      "outputs": [],
      "payable": false,
      "stateMutability": "nonpayable",
      "type": "function"
    }
  ],
  "bytecode": "0x608060405234801561001057600080fd5b506040516109983803806109988339818101604052602081101561003357600080fd5b50516001600160a01b03166000908152600260205260408120805460ff1916600117905580546001600160a01b03191633179055610922806100766000396000f3fe608060405234801561001057600080fd5b50600436106100885760003560e01c80638f32d59b1161005b5780638f32d59b14610155578063b53472ef14610171578063b728717a14610197578063d9a58422146101bd57610088565b806309caafc21461008d57806313af4035146100c3578063143100a1146100e9578063613d1bb51461011b575b600080fd5b6100c1600480360360608110156100a357600080fd5b508035906001600160a01b03602082013581169160400135166101fc565b005b6100c1600480360360208110156100d957600080fd5b50356001600160a01b031661036e565b6100c1600480360360608110156100ff57600080fd5b506001600160a01b0381351690602081013590604001356103d7565b6100c16004803603608081101561013157600080fd5b508035906020810135906001600160a01b0360408201358116916060013516610456565b61015d610650565b604080519115158252519081900360200190f35b6100c16004803603602081101561018757600080fd5b50356001600160a01b0316610661565b6100c1600480360360208110156101ad57600080fd5b50356001600160a01b03166106cc565b6101e3600480360360208110156101d357600080fd5b50356001600160a01b0316610743565b6040805192835260208301919091528051918290030190f35b3360009081526001602052604090206002015460ff16610258576040805162461bcd60e51b8152602060048201526012602482015271131310c81b9bdd08185d5d1a1bdc9a5e995960721b604482015290519081900360640190fd5b6001600160a01b03811660009081526002602052604090205460ff166102c0576040805162461bcd60e51b81526020600482015260186024820152771a5b9d985b1a59081d5b989bdd5b990818dbdb9d1c9858dd60421b604482015290519081900360640190fd5b336000908152600160208190526040822001548291906102e790869063ffffffff61076616565b336000908152600160205260408082205481516303bbb57d60e51b81526001600160a01b0389811660048301526024820186905260448201929092529151939450851692637776afa09260648084019391929182900301818387803b15801561034f57600080fd5b505af1158015610363573d6000803e3d6000fd5b505050505050505050565b610376610650565b6103b5576040805162461bcd60e51b815260206004820181905260248201526000805160206108ce833981519152604482015290519081900360640190fd5b600080546001600160a01b0319166001600160a01b0392909216919091179055565b6103df610650565b61041e576040805162461bcd60e51b815260206004820181905260248201526000805160206108ce833981519152604482015290519081900360640190fd5b6001600160a01b039092166000908152600160208190526040909120928355828101919091556002909101805460ff19169091179055565b3360009081526001602052604090206002015460ff166104b2576040805162461bcd60e51b8152602060048201526012602482015271131310c81b9bdd08185d5d1a1bdc9a5e995960721b604482015290519081900360640190fd5b6001600160a01b03811660009081526002602052604090205460ff1661051a576040805162461bcd60e51b81526020600482015260186024820152771a5b9d985b1a59081d5b989bdd5b990818dbdb9d1c9858dd60421b604482015290519081900360640190fd5b60008190506000816001600160a01b0316630b494ff8856040518263ffffffff1660e01b815260040180826001600160a01b03166001600160a01b0316815260200191505060206040518083038186803b15801561057757600080fd5b505afa15801561058b573d6000803e3d6000fd5b505050506040513d60208110156105a157600080fd5b5051905060006105c7866105bb848a63ffffffff6107b116565b9063ffffffff61076616565b3360009081526001602052604080822054815163464a5ffb60e01b81526001600160a01b038a81166004830152602482018690526044820192909252915193945086169263464a5ffb9260648084019391929182900301818387803b15801561062f57600080fd5b505af1158015610643573d6000803e3d6000fd5b5050505050505050505050565b6000546001600160a01b0316331490565b610669610650565b6106a8576040805162461bcd60e51b815260206004820181905260248201526000805160206108ce833981519152604482015290519081900360640190fd5b6001600160a01b03166000908152600260205260409020805460ff19166001179055565b6106d4610650565b610713576040805162461bcd60e51b815260206004820181905260248201526000805160206108ce833981519152604482015290519081900360640190fd5b6001600160a01b03166000908152600160208190526040822082815590810191909155600201805460ff19169055565b6001600160a01b0316600090815260016020819052604090912080549101549091565b60006107a883836040518060400160405280601a81526020017f536166654d6174683a206469766973696f6e206279207a65726f00000000000081525061080a565b90505b92915050565b6000826107c0575060006107ab565b828202828482816107cd57fe5b04146107a85760405162461bcd60e51b81526004018080602001828103825260218152602001806108ad6021913960400191505060405180910390fd5b600081836108965760405162461bcd60e51b81526004018080602001828103825283818151815260200191508051906020019080838360005b8381101561085b578181015183820152602001610843565b50505050905090810190601f1680156108885780820380516001836020036101000a031916815260200191505b509250505060405180910390fd5b5060008385816108a257fe5b049594505050505056fe536166654d6174683a206d756c7469706c69636174696f6e206f766572666c6f774f776e61626c653a2063616c6c6572206973206e6f7420746865206f776e6572a265627a7a72315820ec77516d3ef71ffd374a259e2c4b17fee1c371612e0bda3264b119e50c55912c64736f6c63430005100032",
  "source": "pragma solidity ^0.5.16;\r\n// SPDX-License-Identifier: MIT\r\n\r\nimport \"@openzeppelin/contracts/math/SafeMath.sol\";\r\nimport \"@openzeppelin/contracts/utils/Address.sol\";\r\n\r\n\r\ninterface unboundInterface {\r\n    function _mint(address account, uint256 amount, uint256 fee) external;\r\n    function _burn(address account, uint256 toBurn, uint256 fee) external;\r\n    function checkLoan(address user) external view returns (uint256 owed);\r\n    function balanceOf(address account) external view returns (uint256); \r\n}\r\n\r\ncontract Valuing_01 {\r\n    using SafeMath for uint256;\r\n    using Address for address;\r\n\r\n    //Owner Address\r\n    address _owner;\r\n\r\n     // Liquidity Lock Contract structs - contains fee and loan rate\r\n    struct LiquidityLock {\r\n        uint256 feeRate;\r\n        uint256 loanRate;\r\n        bool active;\r\n    }\r\n\r\n    //Approved Contracts\r\n    mapping (address => LiquidityLock) listOfLLC;\r\n\r\n    // Approved unbound tokens\r\n    mapping (address => bool) isUnbound;\r\n\r\n    // Modifiers\r\n    modifier onlyOwner() {\r\n        require(isOwner(), \"Ownable: caller is not the owner\");\r\n        _;\r\n    }\r\n\r\n    // Constructor\r\n    constructor (address uDai) public {\r\n        isUnbound[uDai] = true;\r\n        _owner = msg.sender;\r\n    }\r\n\r\n    // Token Creation Functions\r\n\r\n    function unboundCreate(uint256 amount, address user, address token) external {\r\n        require (listOfLLC[msg.sender].active, \"LLC not authorized\");\r\n        require (isUnbound[token], \"invalid unbound contract\");\r\n        \r\n        unboundInterface unboundContract = unboundInterface(token);\r\n        uint256 loanAmt = amount.div(listOfLLC[msg.sender].loanRate); // Currently, this method will be difficult to accomodate certain % numbers like 50.5% for example\r\n        unboundContract._mint(user, loanAmt, listOfLLC[msg.sender].feeRate);\r\n\r\n    }\r\n\r\n    // Token Burning Function\r\n    function unboundRemove(uint256 toUnlock, uint256 totalLocked, address user, address token) external {\r\n        require (listOfLLC[msg.sender].active, \"LLC not authorized\");\r\n        require (isUnbound[token], \"invalid unbound contract\");\r\n        unboundInterface unboundContract = unboundInterface(token);\r\n        uint256 userLoaned = unboundContract.checkLoan(user);\r\n\r\n        // compute amount of uDai necessary to unlock LPT\r\n        uint256 toPayInUDai = userLoaned.mul(toUnlock).div(totalLocked);\r\n        \r\n\r\n        unboundContract._burn(user, toPayInUDai, listOfLLC[msg.sender].feeRate);\r\n        \r\n    }\r\n\r\n    function getLLCStruct(address LLC) public view returns (uint256 fee, uint256 loanrate) {\r\n        fee = listOfLLC[LLC].feeRate;\r\n        loanrate = listOfLLC[LLC].loanRate;\r\n    }\r\n\r\n    // onlyOwner Functions\r\n\r\n    // grant permission for an unbound token to be called\r\n    function allowToken (address uToken) public onlyOwner {\r\n        isUnbound[uToken] = true;\r\n    }\r\n\r\n    // grants an LLC permission\r\n    function addLLC (address LLC, uint256 loan, uint256 fee) public onlyOwner {\r\n        listOfLLC[LLC].feeRate = fee;\r\n        listOfLLC[LLC].loanRate = loan;\r\n        listOfLLC[LLC].active = true;\r\n    }\r\n\r\n    // Disables an LLC:\r\n    function disableLLC (address LLC) public onlyOwner {\r\n        listOfLLC[LLC].feeRate = 0;\r\n        listOfLLC[LLC].loanRate = 0;\r\n        listOfLLC[LLC].active = false;\r\n    }\r\n\r\n    // Checks if sender is owner\r\n    function isOwner() public view returns (bool) {\r\n        return msg.sender == _owner;\r\n    }\r\n\r\n    // Changes owner\r\n    function setOwner(address _newOwner) public onlyOwner {\r\n        _owner = _newOwner;\r\n    }\r\n\r\n}",
  "sourcePath": "C:/Users/sonic/Desktop/Unbound/contracts/Valuators/valuing_01.sol",
  "compiler": {
    "name": "solc",
    "version": "0.5.16+commit.9c3226ce.Emscripten.clang"
  },
  "schemaVersion": "3.2.3",
  "updatedAt": "2020-09-13T02:28:40.629Z",
  "networkType": "ethereum",
  "devdoc": {
    "methods": {}
  },
  "userdoc": {
    "methods": {}
  }
}